{
  "_format": "hh-sol-artifact-1",
  "contractName": "YourContract",
  "sourceName": "contracts/YourContract.sol",
  "abi": [
    {
      "inputs": [],
      "stateMutability": "nonpayable",
      "type": "constructor"
    },
    {
      "anonymous": false,
      "inputs": [
        {
          "indexed": false,
          "internalType": "address",
          "name": "sender",
          "type": "address"
        },
        {
          "indexed": false,
          "internalType": "string",
          "name": "purpose",
          "type": "string"
        }
      ],
      "name": "SetPurpose",
      "type": "event"
    },
    {
      "stateMutability": "payable",
      "type": "fallback"
    },
    {
      "inputs": [],
      "name": "purpose",
      "outputs": [
        {
          "internalType": "string",
          "name": "",
          "type": "string"
        }
      ],
      "stateMutability": "view",
      "type": "function"
    },
    {
      "inputs": [
        {
          "internalType": "string",
          "name": "newPurpose",
          "type": "string"
        }
      ],
      "name": "setPurpose",
      "outputs": [],
      "stateMutability": "nonpayable",
      "type": "function"
    }
  ],
  "bytecode": "0x60c0604052601d60808190527f50726f6772616d6d696e6720556e73746f707061626c65204d6f6e657900000060a090815261003e9160009190610051565b5034801561004b57600080fd5b50610125565b82805461005d906100ea565b90600052602060002090601f01602090048101928261007f57600085556100c5565b82601f1061009857805160ff19168380011785556100c5565b828001600101855582156100c5579182015b828111156100c55782518255916020019190600101906100aa565b506100d19291506100d5565b5090565b5b808211156100d157600081556001016100d6565b6002810460018216806100fe57607f821691505b6020821081141561011f57634e487b7160e01b600052602260045260246000fd5b50919050565b610662806101346000396000f3fe6080604052600436106100295760003560e01c806370740aab1461005c578063eb68757f14610087575b61005a336040518060400160405280600e81526020016d1a9d5cdd0819195c1bdcda5d195960921b815250346100a7565b005b34801561006857600080fd5b506100716100f3565b60405161007e91906105ac565b60405180910390f35b34801561009357600080fd5b5061005a6100a236600461038e565b610181565b6100ee8383836040516024016100bf939291906104ba565b60408051601f198184030181529190526020810180516001600160e01b0316630e6d794560e11b17905261028d565b505050565b60008054610100906105db565b80601f016020809104026020016040519081016040528092919081815260200182805461012c906105db565b80156101795780601f1061014e57610100808354040283529160200191610179565b820191906000526020600020905b81548152906001019060200180831161015c57829003601f168201915b505050505081565b80516101949060009060208401906102f5565b50610250336040518060400160405280600e81526020016d73657420707572706f736520746f60901b815250600080546101cd906105db565b80601f01602080910402602001604051908101604052809291908181526020018280546101f9906105db565b80156102465780601f1061021b57610100808354040283529160200191610246565b820191906000526020600020905b81548152906001019060200180831161022957829003601f168201915b50505050506102ae565b7f6ea5d6383a120235c7728a9a6751672a8ac068e4ed34dcca2ee444182c1812de3360006040516102829291906104ee565b60405180910390a150565b80516a636f6e736f6c652e6c6f67602083016000808483855afa5050505050565b6100ee8383836040516024016102c69392919061047a565b60408051601f198184030181529190526020810180516001600160e01b031663fb77226560e01b17905261028d565b828054610301906105db565b90600052602060002090601f0160209004810192826103235760008555610369565b82601f1061033c57805160ff1916838001178555610369565b82800160010185558215610369579182015b8281111561036957825182559160200191906001019061034e565b50610375929150610379565b5090565b5b80821115610375576000815560010161037a565b600060208083850312156103a0578182fd5b823567ffffffffffffffff808211156103b7578384fd5b818501915085601f8301126103ca578384fd5b8135818111156103dc576103dc610616565b604051601f8201601f19168101850183811182821017156103ff576103ff610616565b6040528181528382018501881015610415578586fd5b818585018683013790810190930193909352509392505050565b60008151808452815b8181101561045457602081850181015186830182015201610438565b818111156104655782602083870101525b50601f01601f19169290920160200192915050565b6001600160a01b038416815260606020820181905260009061049e9083018561042f565b82810360408401526104b0818561042f565b9695505050505050565b6001600160a01b03841681526060602082018190526000906104de9083018561042f565b9050826040830152949350505050565b6001600160a01b0383168152604060208083019190915282546000919082906002810460018281168061052257607f831692505b85831081141561054057634e487b7160e01b87526022600452602487fd5b61054d8360408a016105d2565b81801561056157600181146105725761059c565b60ff1986168252878201965061059c565b61057b8b6105c6565b895b868110156105965781548482015290850190890161057d565b83019750505b50949a9950505050505050505050565b6000602082526105bf602083018461042f565b9392505050565b60009081526020902090565b90815260200190565b6002810460018216806105ef57607f821691505b6020821081141561061057634e487b7160e01b600052602260045260246000fd5b50919050565b634e487b7160e01b600052604160045260246000fdfea264697066735822122090a4ece073b5cb4ff9eb54f0fadd6d023eee1d5114cb771675cf7f2a4285517164736f6c63430008000033",
  "linkReferences": {},
  "deployedLinkReferences": {}
}