{
  "_format": "hh-sol-artifact-1",
  "contractName": "YourContract",
  "sourceName": "contracts/YourContract.sol",
  "abi": [
    {
      "inputs": [],
      "stateMutability": "nonpayable",
      "type": "constructor"
    },
    {
      "anonymous": false,
      "inputs": [
        {
          "indexed": false,
          "internalType": "address",
          "name": "sender",
          "type": "address"
        },
        {
          "indexed": false,
          "internalType": "string",
          "name": "purpose",
          "type": "string"
        }
      ],
      "name": "SetPurpose",
      "type": "event"
    },
    {
      "stateMutability": "payable",
      "type": "fallback"
    },
    {
      "inputs": [],
      "name": "purpose",
      "outputs": [
        {
          "internalType": "string",
          "name": "",
          "type": "string"
        }
      ],
      "stateMutability": "view",
      "type": "function"
    },
    {
      "inputs": [
        {
          "internalType": "string",
          "name": "newPurpose",
          "type": "string"
        }
      ],
      "name": "setPurpose",
      "outputs": [],
      "stateMutability": "nonpayable",
      "type": "function"
    }
  ],
  "bytecode": "0x60c0604052601d60808190527f50726f6772616d6d696e6720556e73746f707061626c65204d6f6e657900000060a090815261003e9160009190610051565b5034801561004b57600080fd5b506100ec565b828054600181600116156101000203166002900490600052602060002090601f016020900481019282601f1061009257805160ff19168380011785556100bf565b828001600101855582156100bf579182015b828111156100bf5782518255916020019190600101906100a4565b506100cb9291506100cf565b5090565b6100e991905b808211156100cb57600081556001016100d5565b90565b610698806100fb6000396000f3fe6080604052600436106100295760003560e01c806370740aab1461005c578063eb68757f146100e6575b61005a336040518060400160405280600e81526020016d1a9d5cdd0819195c1bdcda5d195960921b81525034610199565b005b34801561006857600080fd5b50610071610266565b6040805160208082528351818301528351919283929083019185019080838360005b838110156100ab578181015183820152602001610093565b50505050905090810190601f1680156100d85780820380516001836020036101000a031916815260200191505b509250505060405180910390f35b3480156100f257600080fd5b5061005a6004803603602081101561010957600080fd5b81019060208101813564010000000081111561012457600080fd5b82018360208201111561013657600080fd5b8035906020019184600183028401116401000000008311171561015857600080fd5b91908080601f0160208091040260200160405190810160405280939291908181526020018383808284376000920191909152509295506102f4945050505050565b61026183838360405160240180846001600160a01b03166001600160a01b0316815260200180602001838152602001828103825284818151815260200191508051906020019080838360005b838110156101fd5781810151838201526020016101e5565b50505050905090810190601f16801561022a5780820380516001836020036101000a031916815260200191505b5060408051601f198184030181529190526020810180516001600160e01b0316630e6d794560e11b179052945061047f9350505050565b505050565b6000805460408051602060026001851615610100026000190190941693909304601f810184900484028201840190925281815292918301828280156102ec5780601f106102c1576101008083540402835291602001916102ec565b820191906000526020600020905b8154815290600101906020018083116102cf57829003601f168201915b505050505081565b80516103079060009060208401906105c7565b50604080518082018252600e81526d73657420707572706f736520746f60901b60208083019190915260008054845160026001831615610100026000190190921691909104601f81018490048402820184019095528481526103c4943394939192918301828280156103ba5780601f1061038f576101008083540402835291602001916103ba565b820191906000526020600020905b81548152906001019060200180831161039d57829003601f168201915b50505050506104a0565b60408051338082526020820183815260008054600260001961010060018416150201909116049484018590527f6ea5d6383a120235c7728a9a6751672a8ac068e4ed34dcca2ee444182c1812de949293909290919060608301908490801561046d5780601f106104425761010080835404028352916020019161046d565b820191906000526020600020905b81548152906001019060200180831161045057829003601f168201915b5050935050505060405180910390a150565b80516a636f6e736f6c652e6c6f67602083016000808483855afa5050505050565b61026183838360405160240180846001600160a01b03166001600160a01b031681526020018060200180602001838103835285818151815260200191508051906020019080838360005b838110156105025781810151838201526020016104ea565b50505050905090810190601f16801561052f5780820380516001836020036101000a031916815260200191505b50838103825284518152845160209182019186019080838360005b8381101561056257818101518382015260200161054a565b50505050905090810190601f16801561058f5780820380516001836020036101000a031916815260200191505b5060408051601f198184030181529190526020810180516001600160e01b031663fb77226560e01b179052955061047f945050505050565b828054600181600116156101000203166002900490600052602060002090601f016020900481019282601f1061060857805160ff1916838001178555610635565b82800160010185558215610635579182015b8281111561063557825182559160200191906001019061061a565b50610641929150610645565b5090565b61065f91905b80821115610641576000815560010161064b565b9056fea2646970667358221220ce82b0714fbeb34cd2a80aa09a0476bafd6dd7c3ab463ee3bf3fa75fe127827664736f6c63430006070033",
  "linkReferences": {},
  "deployedLinkReferences": {}
}