{
  "_format": "hh-sol-artifact-1",
  "contractName": "CreditPool",
  "sourceName": "contracts/CreditPool.sol",
  "abi": [
    {
      "anonymous": false,
      "inputs": [
        {
          "indexed": false,
          "internalType": "uint256",
          "name": "amount",
          "type": "uint256"
        },
        {
          "indexed": false,
          "internalType": "address",
          "name": "aToken",
          "type": "address"
        }
      ],
      "name": "Deposited",
      "type": "event"
    },
    {
      "anonymous": false,
      "inputs": [
        {
          "indexed": false,
          "internalType": "uint256",
          "name": "amount",
          "type": "uint256"
        },
        {
          "indexed": false,
          "internalType": "address",
          "name": "aToken",
          "type": "address"
        }
      ],
      "name": "Withdrawn",
      "type": "event"
    },
    {
      "inputs": [],
      "name": "REWARD_MULTIPLIER",
      "outputs": [
        {
          "internalType": "uint256",
          "name": "",
          "type": "uint256"
        }
      ],
      "stateMutability": "view",
      "type": "function"
    },
    {
      "inputs": [
        {
          "internalType": "uint256",
          "name": "_amount",
          "type": "uint256"
        },
        {
          "internalType": "address",
          "name": "_debtToken",
          "type": "address"
        },
        {
          "internalType": "uint256",
          "name": "_interestRateMode",
          "type": "uint256"
        },
        {
          "internalType": "uint16",
          "name": "_referralCode",
          "type": "uint16"
        },
        {
          "internalType": "address",
          "name": "_onBehalfOf",
          "type": "address"
        }
      ],
      "name": "borrow",
      "outputs": [],
      "stateMutability": "nonpayable",
      "type": "function"
    },
    {
      "inputs": [
        {
          "internalType": "address",
          "name": "",
          "type": "address"
        }
      ],
      "name": "checkpoints",
      "outputs": [
        {
          "internalType": "uint256",
          "name": "",
          "type": "uint256"
        }
      ],
      "stateMutability": "view",
      "type": "function"
    },
    {
      "inputs": [],
      "name": "dai",
      "outputs": [
        {
          "internalType": "address",
          "name": "",
          "type": "address"
        }
      ],
      "stateMutability": "view",
      "type": "function"
    },
    {
      "inputs": [],
      "name": "daiRate",
      "outputs": [
        {
          "internalType": "uint256",
          "name": "",
          "type": "uint256"
        }
      ],
      "stateMutability": "view",
      "type": "function"
    },
    {
      "inputs": [
        {
          "internalType": "uint256",
          "name": "_amount",
          "type": "uint256"
        },
        {
          "internalType": "address",
          "name": "_aToken",
          "type": "address"
        },
        {
          "internalType": "address",
          "name": "_delegatee",
          "type": "address"
        },
        {
          "internalType": "uint256",
          "name": "_delegatedAmount",
          "type": "uint256"
        },
        {
          "internalType": "address",
          "name": "_debtToken",
          "type": "address"
        }
      ],
      "name": "deposit",
      "outputs": [],
      "stateMutability": "nonpayable",
      "type": "function"
    },
    {
      "inputs": [
        {
          "internalType": "address",
          "name": "_asset",
          "type": "address"
        },
        {
          "internalType": "address",
          "name": "_depositOnBehalfOf",
          "type": "address"
        },
        {
          "internalType": "uint256",
          "name": "_amount",
          "type": "uint256"
        }
      ],
      "name": "depositOnLendingPool",
      "outputs": [],
      "stateMutability": "nonpayable",
      "type": "function"
    },
    {
      "inputs": [
        {
          "internalType": "address",
          "name": "",
          "type": "address"
        }
      ],
      "name": "depositors",
      "outputs": [
        {
          "internalType": "uint256",
          "name": "delegatedAmount",
          "type": "uint256"
        },
        {
          "internalType": "uint256",
          "name": "depositAmount",
          "type": "uint256"
        }
      ],
      "stateMutability": "view",
      "type": "function"
    },
    {
      "inputs": [],
      "name": "ethRate",
      "outputs": [
        {
          "internalType": "uint256",
          "name": "",
          "type": "uint256"
        }
      ],
      "stateMutability": "view",
      "type": "function"
    },
    {
      "inputs": [],
      "name": "getDAIRate",
      "outputs": [
        {
          "internalType": "uint256",
          "name": "",
          "type": "uint256"
        }
      ],
      "stateMutability": "view",
      "type": "function"
    },
    {
      "inputs": [
        {
          "internalType": "address",
          "name": "_depositor",
          "type": "address"
        }
      ],
      "name": "getDelegatedAmountPerUser",
      "outputs": [
        {
          "internalType": "uint256",
          "name": "",
          "type": "uint256"
        }
      ],
      "stateMutability": "view",
      "type": "function"
    },
    {
      "inputs": [
        {
          "internalType": "address",
          "name": "_depositor",
          "type": "address"
        }
      ],
      "name": "getDepositPerUser",
      "outputs": [
        {
          "internalType": "uint256",
          "name": "",
          "type": "uint256"
        }
      ],
      "stateMutability": "view",
      "type": "function"
    },
    {
      "inputs": [],
      "name": "getETHRate",
      "outputs": [
        {
          "internalType": "uint256",
          "name": "",
          "type": "uint256"
        }
      ],
      "stateMutability": "view",
      "type": "function"
    },
    {
      "inputs": [],
      "name": "getTotalDelegation",
      "outputs": [
        {
          "internalType": "uint256",
          "name": "",
          "type": "uint256"
        }
      ],
      "stateMutability": "view",
      "type": "function"
    },
    {
      "inputs": [],
      "name": "getTotalDeposit",
      "outputs": [
        {
          "internalType": "uint256",
          "name": "",
          "type": "uint256"
        }
      ],
      "stateMutability": "view",
      "type": "function"
    },
    {
      "inputs": [],
      "name": "reward",
      "outputs": [
        {
          "internalType": "uint256",
          "name": "",
          "type": "uint256"
        }
      ],
      "stateMutability": "view",
      "type": "function"
    },
    {
      "inputs": [],
      "name": "totalDelegation",
      "outputs": [
        {
          "internalType": "uint256",
          "name": "",
          "type": "uint256"
        }
      ],
      "stateMutability": "view",
      "type": "function"
    },
    {
      "inputs": [],
      "name": "totalDeposit",
      "outputs": [
        {
          "internalType": "uint256",
          "name": "",
          "type": "uint256"
        }
      ],
      "stateMutability": "view",
      "type": "function"
    },
    {
      "inputs": [
        {
          "internalType": "uint256",
          "name": "_amount",
          "type": "uint256"
        },
        {
          "internalType": "address",
          "name": "_aToken",
          "type": "address"
        }
      ],
      "name": "withdraw",
      "outputs": [],
      "stateMutability": "nonpayable",
      "type": "function"
    }
  ],
  "bytecode": "0x6080604052600780546001600160a01b031916736b175474e89094c44da98b954eedeac495271d0f17905534801561003657600080fd5b50610ef2806100466000396000f3fe608060405234801561001057600080fd5b50600436106101205760003560e01c8063b8dbc62a116100ad578063dfb3bc2f11610071578063dfb3bc2f1461029d578063e3c3ae58146102d3578063eed75f6d146102db578063f4b9fa751461031a578063f6153ccd1461033e57610120565b8063b8dbc62a1461021d578063c022215c1461025f578063d2d93f9014610267578063d9c522ec1461026f578063dbb51d6e1461027757610120565b8063598b47dd116100f4578063598b47dd146101b957806369455e6a146101c1578063731d36e3146101c95780638bb51ee8146101d1578063b641b5c4146101f757610120565b8062f714ce1461012557806315ff0ba114610153578063228cb733146101975780634f97ba49146101b1575b600080fd5b6101516004803603604081101561013b57600080fd5b50803590602001356001600160a01b0316610346565b005b610151600480360360a081101561016957600080fd5b508035906001600160a01b03602082013581169160408101359161ffff606083013516916080013516610523565b61019f6105bd565b60408051918252519081900360200190f35b61019f6105c3565b61019f610643565b61019f610648565b61019f61064e565b61019f600480360360208110156101e757600080fd5b50356001600160a01b031661069d565b61019f6004803603602081101561020d57600080fd5b50356001600160a01b03166106da565b610151600480360360a081101561023357600080fd5b508035906001600160a01b0360208201358116916040810135821691606082013591608001351661071d565b61019f61084e565b61019f610854565b61019f61085a565b61019f6004803603602081101561028d57600080fd5b50356001600160a01b0316610860565b610151600480360360608110156102b357600080fd5b506001600160a01b03813581169160208101359091169060400135610872565b61019f61092f565b610301600480360360208110156102f157600080fd5b50356001600160a01b0316610935565b6040805192835260208301919091528051918290030190f35b61032261094e565b604080516001600160a01b039092168252519081900360200190f35b61019f61095d565b3360009081526020819052604090206001015482106103ac576040805162461bcd60e51b815260206004820152601860248201527f796f75206469646e74206465706f73697420656e6f7567680000000000000000604482015290519081900360640190fd5b3360009081526001602090815260408083205460075482516370a0823160e01b815230600482015292519194936001600160a01b03909116926370a082319260248083019392829003018186803b15801561040657600080fd5b505afa15801561041a573d6000803e3d6000fd5b505050506040513d602081101561043057600080fd5b505160035433600090815260208190526040812054929350918161045057fe5b049050619d808343031015610469576000600655610470565b8181026006555b33600081815260208181526040808320600190810180548b90039055600280548b900390559091528120556104b6906001600160a01b038616908763ffffffff61096316565b6006546007546104d9916001600160a01b0390911690339063ffffffff61096316565b604080518681526001600160a01b038616602082015281517f8c7cdad0d12a8db3e23561b42da6f10c8137914c97beff202213a410e1f520a3929181900390910190a15050505050565b6040805163a415bcad60e01b81526001600160a01b038681166004830152602482018890526044820186905261ffff85166064830152831660848201529051737d2768de32b0b80b7a3454c06bdac94a69ddc7a99163a415bcad9160a480830192600092919082900301818387803b15801561059e57600080fd5b505af11580156105b2573d6000803e3d6000fd5b505050505050505050565b60065481565b6000735f4ec3df9cbd43714fe2740f5e3616155c5b84196001600160a01b03166350d25bcd6040518163ffffffff1660e01b815260040160206040518083038186803b15801561061257600080fd5b505afa158015610626573d6000803e3d6000fd5b505050506040513d602081101561063c57600080fd5b5051905090565b600081565b60035490565b600073aed0c38402a5d19df6e4c03f4e2dced6e29c1ee96001600160a01b03166350d25bcd6040518163ffffffff1660e01b815260040160206040518083038186803b15801561061257600080fd5b60006106a7610e42565b50506001600160a01b03166000908152602081815260409182902082518084019093528054835260010154910181905290565b60006106e4610e42565b50506001600160a01b03166000908152602081815260409182902082518084019093528054808452600190910154929091019190915290565b33600090815260016020526040902054610744573360009081526001602052604090204390555b336000818152602081815260408083206001810180548b0190558054870181556003805488019055600280548b01905581516323b872dd60e01b81526004810195909552306024860152604485018a9052905190936001600160a01b038916936323b872dd9360648084019491939192918390030190829087803b1580156107cb57600080fd5b505af11580156107df573d6000803e3d6000fd5b505050506040513d60208110156107f557600080fd5b5061080390508484846109ba565b604080518781526001600160a01b038716602082015281517f21d3f238b5a9e25ffc48b8320bc1d58882b1d90d0b4fcc7ba9707e3aebfedf16929181900390910190a1505050505050565b60025490565b60045481565b60055481565b60016020526000908152604090205481565b6108a06001600160a01b038416737d2768de32b0b80b7a3454c06bdac94a69ddc7a98363ffffffff610aba16565b6040805163e8eda9df60e01b81526001600160a01b03851660048201526024810183905233604482018190526000606483018190529251909450737d2768de32b0b80b7a3454c06bdac94a69ddc7a99263e8eda9df926084808201939182900301818387803b15801561091257600080fd5b505af1158015610926573d6000803e3d6000fd5b50505050505050565b60035481565b6000602081905290815260409020805460019091015482565b6007546001600160a01b031681565b60025481565b604080516001600160a01b038416602482015260448082018490528251808303909101815260649091019091526020810180516001600160e01b031663a9059cbb60e01b1790526109b5908490610bc9565b505050565b604080516334924edb60e21b81526001600160a01b0383166004820152905160009173057835ad21a177dbdd3090bb1cae03eacf78fc6d9163d2493b6c91602480820192606092909190829003018186803b158015610a1857600080fd5b505afa158015610a2c573d6000803e3d6000fd5b505050506040513d6060811015610a4257600080fd5b506020015160408051630c04a8a160e41b81526001600160a01b0387811660048301526024820187905291519293509083169163c04a8a109160448082019260009290919082900301818387803b158015610a9c57600080fd5b505af1158015610ab0573d6000803e3d6000fd5b5050505050505050565b801580610b40575060408051636eb1769f60e11b81523060048201526001600160a01b03848116602483015291519185169163dd62ed3e91604480820192602092909190829003018186803b158015610b1257600080fd5b505afa158015610b26573d6000803e3d6000fd5b505050506040513d6020811015610b3c57600080fd5b5051155b610b7b5760405162461bcd60e51b8152600401808060200182810382526036815260200180610e876036913960400191505060405180910390fd5b604080516001600160a01b038416602482015260448082018490528251808303909101815260649091019091526020810180516001600160e01b031663095ea7b360e01b1790526109b59084905b6060610c1e826040518060400160405280602081526020017f5361666545524332303a206c6f772d6c6576656c2063616c6c206661696c6564815250856001600160a01b0316610c7a9092919063ffffffff16565b8051909150156109b557808060200190516020811015610c3d57600080fd5b50516109b55760405162461bcd60e51b815260040180806020018281038252602a815260200180610e5d602a913960400191505060405180910390fd5b6060610c898484600085610c91565b949350505050565b6060610c9c85610e3c565b610ced576040805162461bcd60e51b815260206004820152601d60248201527f416464726573733a2063616c6c20746f206e6f6e2d636f6e7472616374000000604482015290519081900360640190fd5b60006060866001600160a01b031685876040518082805190602001908083835b60208310610d2c5780518252601f199092019160209182019101610d0d565b6001836020036101000a03801982511681845116808217855250505050505090500191505060006040518083038185875af1925050503d8060008114610d8e576040519150601f19603f3d011682016040523d82523d6000602084013e610d93565b606091505b50915091508115610da7579150610c899050565b805115610db75780518082602001fd5b8360405162461bcd60e51b81526004018080602001828103825283818151815260200191508051906020019080838360005b83811015610e01578181015183820152602001610de9565b50505050905090810190601f168015610e2e5780820380516001836020036101000a031916815260200191505b509250505060405180910390fd5b3b151590565b60405180604001604052806000815260200160008152509056fe5361666545524332303a204552433230206f7065726174696f6e20646964206e6f7420737563636565645361666545524332303a20617070726f76652066726f6d206e6f6e2d7a65726f20746f206e6f6e2d7a65726f20616c6c6f77616e6365a264697066735822122057c0da8efde266b2494a69e5715bc3b751014341ac9b1e9dff7658637102b04f64736f6c63430006070033",
  "linkReferences": {},
  "deployedLinkReferences": {}
}