{
  "_format": "hh-sol-artifact-1",
  "contractName": "CreditPool",
  "sourceName": "contracts/CreditPool.sol",
  "abi": [
    {
      "anonymous": false,
      "inputs": [
        {
          "indexed": false,
          "internalType": "uint256",
          "name": "amount",
          "type": "uint256"
        },
        {
          "indexed": false,
          "internalType": "address",
          "name": "aToken",
          "type": "address"
        }
      ],
      "name": "Deposited",
      "type": "event"
    },
    {
      "anonymous": false,
      "inputs": [
        {
          "indexed": false,
          "internalType": "uint256",
          "name": "amount",
          "type": "uint256"
        },
        {
          "indexed": false,
          "internalType": "address",
          "name": "aToken",
          "type": "address"
        }
      ],
      "name": "Withdrawn",
      "type": "event"
    },
    {
      "inputs": [
        {
          "internalType": "uint256",
          "name": "_amount",
          "type": "uint256"
        },
        {
          "internalType": "address",
          "name": "_debtToken",
          "type": "address"
        },
        {
          "internalType": "uint256",
          "name": "_interestRateMode",
          "type": "uint256"
        },
        {
          "internalType": "uint16",
          "name": "_referralCode",
          "type": "uint16"
        },
        {
          "internalType": "address",
          "name": "_onBehalfOf",
          "type": "address"
        }
      ],
      "name": "borrow",
      "outputs": [],
      "stateMutability": "nonpayable",
      "type": "function"
    },
    {
      "inputs": [
        {
          "internalType": "uint256",
          "name": "_amount",
          "type": "uint256"
        },
        {
          "internalType": "address",
          "name": "_aToken",
          "type": "address"
        },
        {
          "internalType": "address",
          "name": "_delegatee",
          "type": "address"
        },
        {
          "internalType": "uint256",
          "name": "_delegatedAmount",
          "type": "uint256"
        },
        {
          "internalType": "address",
          "name": "_debtToken",
          "type": "address"
        }
      ],
      "name": "deposit",
      "outputs": [],
      "stateMutability": "nonpayable",
      "type": "function"
    },
    {
      "inputs": [
        {
          "internalType": "address",
          "name": "_asset",
          "type": "address"
        },
        {
          "internalType": "address",
          "name": "_depositOnBehalfOf",
          "type": "address"
        },
        {
          "internalType": "uint256",
          "name": "_amount",
          "type": "uint256"
        }
      ],
      "name": "depositOnLendingPool",
      "outputs": [],
      "stateMutability": "nonpayable",
      "type": "function"
    },
    {
      "inputs": [
        {
          "internalType": "address",
          "name": "",
          "type": "address"
        }
      ],
      "name": "depositors",
      "outputs": [
        {
          "internalType": "uint256",
          "name": "delegatedAmount",
          "type": "uint256"
        },
        {
          "internalType": "uint256",
          "name": "depositAmount",
          "type": "uint256"
        }
      ],
      "stateMutability": "view",
      "type": "function"
    },
    {
      "inputs": [
        {
          "internalType": "address",
          "name": "_depositor",
          "type": "address"
        }
      ],
      "name": "getDelegatedAmountPerUser",
      "outputs": [
        {
          "internalType": "uint256",
          "name": "",
          "type": "uint256"
        }
      ],
      "stateMutability": "view",
      "type": "function"
    },
    {
      "inputs": [
        {
          "internalType": "address",
          "name": "_depositor",
          "type": "address"
        }
      ],
      "name": "getDepositPerUser",
      "outputs": [
        {
          "internalType": "uint256",
          "name": "",
          "type": "uint256"
        }
      ],
      "stateMutability": "view",
      "type": "function"
    },
    {
      "inputs": [],
      "name": "getTotalDeposit",
      "outputs": [
        {
          "internalType": "uint256",
          "name": "",
          "type": "uint256"
        }
      ],
      "stateMutability": "view",
      "type": "function"
    },
    {
      "inputs": [],
      "name": "totalDelegation",
      "outputs": [
        {
          "internalType": "uint256",
          "name": "",
          "type": "uint256"
        }
      ],
      "stateMutability": "view",
      "type": "function"
    },
    {
      "inputs": [],
      "name": "totalDeposit",
      "outputs": [
        {
          "internalType": "uint256",
          "name": "",
          "type": "uint256"
        }
      ],
      "stateMutability": "view",
      "type": "function"
    },
    {
      "inputs": [
        {
          "internalType": "uint256",
          "name": "_amount",
          "type": "uint256"
        },
        {
          "internalType": "address",
          "name": "_aToken",
          "type": "address"
        }
      ],
      "name": "withdraw",
      "outputs": [],
      "stateMutability": "nonpayable",
      "type": "function"
    }
  ],
  "bytecode": "0x6080604052600380546001600160a01b0319908116737d2768de32b0b80b7a3454c06bdac94a69ddc7a9179091556004805490911673057835ad21a177dbdd3090bb1cae03eacf78fc6d17905534801561005857600080fd5b50610ba1806100686000396000f3fe608060405234801561001057600080fd5b506004361061009d5760003560e01c8063c022215c11610066578063c022215c146101b4578063dfb3bc2f146101bc578063e3c3ae58146101f2578063eed75f6d146101fa578063f6153ccd146102395761009d565b8062f714ce146100a257806315ff0ba1146100d05780638bb51ee814610114578063b641b5c41461014c578063b8dbc62a14610172575b600080fd5b6100ce600480360360408110156100b857600080fd5b50803590602001356001600160a01b0316610241565b005b6100ce600480360360a08110156100e657600080fd5b508035906001600160a01b03602082013581169160408101359161ffff606083013516916080013516610388565b61013a6004803603602081101561012a57600080fd5b50356001600160a01b0316610415565b60408051918252519081900360200190f35b61013a6004803603602081101561016257600080fd5b50356001600160a01b0316610452565b6100ce600480360360a081101561018857600080fd5b508035906001600160a01b03602082013581169160408101358216916060820135916080013516610495565b61013a61059e565b6100ce600480360360608110156101d257600080fd5b506001600160a01b038135811691602081013590911690604001356105a4565b61013a610646565b6102206004803603602081101561021057600080fd5b50356001600160a01b031661064c565b6040805192835260208301919091528051918290030190f35b61013a610665565b3360009081526020819052604090206001015482106102a7576040805162461bcd60e51b815260206004820152601860248201527f796f75206469646e74206465706f73697420656e6f7567680000000000000000604482015290519081900360640190fd5b3360008181526020818152604080832060019081018054889003905580548790039055805163a9059cbb60e01b8152600481019490945260248401869052516001600160a01b0385169363a9059cbb9360448083019493928390030190829087803b15801561031557600080fd5b505af1158015610329573d6000803e3d6000fd5b505050506040513d602081101561033f57600080fd5b5050604080518381526001600160a01b038316602082015281517f8c7cdad0d12a8db3e23561b42da6f10c8137914c97beff202213a410e1f520a3929181900390910190a15050565b6003546040805163a415bcad60e01b81526001600160a01b038781166004830152602482018990526044820187905261ffff8616606483015284811660848301529151919092169163a415bcad9160a480830192600092919082900301818387803b1580156103f657600080fd5b505af115801561040a573d6000803e3d6000fd5b505050505050505050565b600061041f610af1565b50506001600160a01b03166000908152602081815260409182902082518084019093528054835260010154910181905290565b600061045c610af1565b50506001600160a01b03166000908152602081815260409182902082518084019093528054808452600190910154929091019190915290565b33600081815260208181526040808320600180820180548c019055815488018255600280548901905580548b01905581516323b872dd60e01b81526004810195909552306024860152604485018a9052905190936001600160a01b038916936323b872dd9360648084019491939192918390030190829087803b15801561051b57600080fd5b505af115801561052f573d6000803e3d6000fd5b505050506040513d602081101561054557600080fd5b50610553905084848461066b565b604080518781526001600160a01b038716602082015281517f21d3f238b5a9e25ffc48b8320bc1d58882b1d90d0b4fcc7ba9707e3aebfedf16929181900390910190a1505050505050565b60015490565b6003546105c4906001600160a01b0385811691168363ffffffff61076016565b6003546040805163e8eda9df60e01b81526001600160a01b038681166004830152602482018590523360448301819052600060648401819052935190965093169263e8eda9df9260848084019391929182900301818387803b15801561062957600080fd5b505af115801561063d573d6000803e3d6000fd5b50505050505050565b60025481565b6000602081905290815260409020805460019091015482565b60015481565b60048054604080516334924edb60e21b81526001600160a01b038581169482019490945290516000939092169163d2493b6c91602480820192606092909190829003018186803b1580156106be57600080fd5b505afa1580156106d2573d6000803e3d6000fd5b505050506040513d60608110156106e857600080fd5b506020015160408051630c04a8a160e41b81526001600160a01b0387811660048301526024820187905291519293509083169163c04a8a109160448082019260009290919082900301818387803b15801561074257600080fd5b505af1158015610756573d6000803e3d6000fd5b5050505050505050565b8015806107e6575060408051636eb1769f60e11b81523060048201526001600160a01b03848116602483015291519185169163dd62ed3e91604480820192602092909190829003018186803b1580156107b857600080fd5b505afa1580156107cc573d6000803e3d6000fd5b505050506040513d60208110156107e257600080fd5b5051155b6108215760405162461bcd60e51b8152600401808060200182810382526036815260200180610b366036913960400191505060405180910390fd5b604080516001600160a01b038416602482015260448082018490528251808303909101815260649091019091526020810180516001600160e01b031663095ea7b360e01b179052610873908490610878565b505050565b60606108cd826040518060400160405280602081526020017f5361666545524332303a206c6f772d6c6576656c2063616c6c206661696c6564815250856001600160a01b03166109299092919063ffffffff16565b805190915015610873578080602001905160208110156108ec57600080fd5b50516108735760405162461bcd60e51b815260040180806020018281038252602a815260200180610b0c602a913960400191505060405180910390fd5b60606109388484600085610940565b949350505050565b606061094b85610aeb565b61099c576040805162461bcd60e51b815260206004820152601d60248201527f416464726573733a2063616c6c20746f206e6f6e2d636f6e7472616374000000604482015290519081900360640190fd5b60006060866001600160a01b031685876040518082805190602001908083835b602083106109db5780518252601f1990920191602091820191016109bc565b6001836020036101000a03801982511681845116808217855250505050505090500191505060006040518083038185875af1925050503d8060008114610a3d576040519150601f19603f3d011682016040523d82523d6000602084013e610a42565b606091505b50915091508115610a565791506109389050565b805115610a665780518082602001fd5b8360405162461bcd60e51b81526004018080602001828103825283818151815260200191508051906020019080838360005b83811015610ab0578181015183820152602001610a98565b50505050905090810190601f168015610add5780820380516001836020036101000a031916815260200191505b509250505060405180910390fd5b3b151590565b60405180604001604052806000815260200160008152509056fe5361666545524332303a204552433230206f7065726174696f6e20646964206e6f7420737563636565645361666545524332303a20617070726f76652066726f6d206e6f6e2d7a65726f20746f206e6f6e2d7a65726f20616c6c6f77616e6365a2646970667358221220ede99af6a384afc38e833b2f06d02466f1e79564e4a3538b33d550a8e7df1e8b64736f6c63430006070033",
  "linkReferences": {},
  "deployedLinkReferences": {}
}