{
  "_format": "hh-sol-artifact-1",
  "contractName": "CreditPool",
  "sourceName": "contracts/CreditPool.sol",
  "abi": [
    {
      "anonymous": false,
      "inputs": [
        {
          "indexed": false,
          "internalType": "uint256",
          "name": "amount",
          "type": "uint256"
        },
        {
          "indexed": false,
          "internalType": "address",
          "name": "aToken",
          "type": "address"
        }
      ],
      "name": "Deposited",
      "type": "event"
    },
    {
      "anonymous": false,
      "inputs": [
        {
          "indexed": false,
          "internalType": "uint256",
          "name": "amount",
          "type": "uint256"
        },
        {
          "indexed": false,
          "internalType": "address",
          "name": "aToken",
          "type": "address"
        }
      ],
      "name": "Withdrawn",
      "type": "event"
    },
    {
      "inputs": [
        {
          "internalType": "uint256",
          "name": "_amount",
          "type": "uint256"
        },
        {
          "internalType": "address",
          "name": "_debtToken",
          "type": "address"
        },
        {
          "internalType": "uint256",
          "name": "_interestRateMode",
          "type": "uint256"
        },
        {
          "internalType": "uint16",
          "name": "_referralCode",
          "type": "uint16"
        },
        {
          "internalType": "address",
          "name": "_onBehalfOf",
          "type": "address"
        }
      ],
      "name": "borrow",
      "outputs": [],
      "stateMutability": "nonpayable",
      "type": "function"
    },
    {
      "inputs": [
        {
          "internalType": "address",
          "name": "",
          "type": "address"
        }
      ],
      "name": "checkpoints",
      "outputs": [
        {
          "internalType": "uint256",
          "name": "",
          "type": "uint256"
        }
      ],
      "stateMutability": "view",
      "type": "function"
    },
    {
      "inputs": [
        {
          "internalType": "uint256",
          "name": "_amount",
          "type": "uint256"
        },
        {
          "internalType": "address",
          "name": "_aToken",
          "type": "address"
        },
        {
          "internalType": "address",
          "name": "_delegatee",
          "type": "address"
        },
        {
          "internalType": "uint256",
          "name": "_delegatedAmount",
          "type": "uint256"
        },
        {
          "internalType": "address",
          "name": "_debtToken",
          "type": "address"
        }
      ],
      "name": "deposit",
      "outputs": [],
      "stateMutability": "nonpayable",
      "type": "function"
    },
    {
      "inputs": [
        {
          "internalType": "address",
          "name": "_asset",
          "type": "address"
        },
        {
          "internalType": "address",
          "name": "_depositOnBehalfOf",
          "type": "address"
        },
        {
          "internalType": "uint256",
          "name": "_amount",
          "type": "uint256"
        }
      ],
      "name": "depositOnLendingPool",
      "outputs": [],
      "stateMutability": "nonpayable",
      "type": "function"
    },
    {
      "inputs": [
        {
          "internalType": "address",
          "name": "",
          "type": "address"
        }
      ],
      "name": "depositors",
      "outputs": [
        {
          "internalType": "uint256",
          "name": "delegatedAmount",
          "type": "uint256"
        },
        {
          "internalType": "uint256",
          "name": "depositAmount",
          "type": "uint256"
        },
        {
          "internalType": "uint256",
          "name": "start_timestamp",
          "type": "uint256"
        },
        {
          "internalType": "uint256",
          "name": "end_timestamp",
          "type": "uint256"
        }
      ],
      "stateMutability": "view",
      "type": "function"
    },
    {
      "inputs": [
        {
          "internalType": "address",
          "name": "_depositor",
          "type": "address"
        }
      ],
      "name": "getDelegatedAmountPerUser",
      "outputs": [
        {
          "internalType": "uint256",
          "name": "",
          "type": "uint256"
        }
      ],
      "stateMutability": "view",
      "type": "function"
    },
    {
      "inputs": [
        {
          "internalType": "address",
          "name": "_depositor",
          "type": "address"
        }
      ],
      "name": "getDepositPerUser",
      "outputs": [
        {
          "internalType": "uint256",
          "name": "",
          "type": "uint256"
        }
      ],
      "stateMutability": "view",
      "type": "function"
    },
    {
      "inputs": [],
      "name": "getTotalDeposit",
      "outputs": [
        {
          "internalType": "uint256",
          "name": "",
          "type": "uint256"
        }
      ],
      "stateMutability": "view",
      "type": "function"
    },
    {
      "inputs": [
        {
          "internalType": "uint256",
          "name": "_amount",
          "type": "uint256"
        },
        {
          "internalType": "address",
          "name": "_aToken",
          "type": "address"
        },
        {
          "internalType": "address",
          "name": "_delegatee",
          "type": "address"
        },
        {
          "internalType": "uint256",
          "name": "_delegatedAmount",
          "type": "uint256"
        },
        {
          "internalType": "address",
          "name": "_debtToken",
          "type": "address"
        },
        {
          "internalType": "uint256",
          "name": "secs",
          "type": "uint256"
        }
      ],
      "name": "lockDeposit",
      "outputs": [],
      "stateMutability": "nonpayable",
      "type": "function"
    },
    {
      "inputs": [],
      "name": "totalDeposit",
      "outputs": [
        {
          "internalType": "uint256",
          "name": "",
          "type": "uint256"
        }
      ],
      "stateMutability": "view",
      "type": "function"
    },
    {
      "inputs": [
        {
          "internalType": "uint256",
          "name": "_amount",
          "type": "uint256"
        },
        {
          "internalType": "address",
          "name": "_aToken",
          "type": "address"
        }
      ],
      "name": "withdraw",
      "outputs": [],
      "stateMutability": "nonpayable",
      "type": "function"
    }
  ],
  "bytecode": "0x608060405234801561001057600080fd5b50610d37806100206000396000f3fe608060405234801561001057600080fd5b50600436106100a85760003560e01c8063c022215c11610071578063c022215c146101bf578063da3b61e9146101c7578063dbb51d6e14610211578063dfb3bc2f14610237578063eed75f6d1461026d578063f6153ccd146102b9576100a8565b8062f714ce146100ad57806315ff0ba1146100db5780638bb51ee81461011f578063b641b5c414610157578063b8dbc62a1461017d575b600080fd5b6100d9600480360360408110156100c357600080fd5b50803590602001356001600160a01b03166102c1565b005b6100d9600480360360a08110156100f157600080fd5b508035906001600160a01b03602082013581169160408101359161ffff606083013516916080013516610408565b6101456004803603602081101561013557600080fd5b50356001600160a01b03166104a2565b60408051918252519081900360200190f35b6101456004803603602081101561016d57600080fd5b50356001600160a01b03166104fa565b6100d9600480360360a081101561019357600080fd5b508035906001600160a01b03602082013581169160408101358216916060820135916080013516610554565b6101456105f9565b6100d9600480360360c08110156101dd57600080fd5b508035906001600160a01b036020820135811691604081013582169160608201359160808101359091169060a001356105ff565b6101456004803603602081101561022757600080fd5b50356001600160a01b03166106b5565b6100d96004803603606081101561024d57600080fd5b506001600160a01b038135811691602081013590911690604001356106c7565b6102936004803603602081101561028357600080fd5b50356001600160a01b031661077f565b604080519485526020850193909352838301919091526060830152519081900360800190f35b6101456107a6565b336000908152602081905260409020600101548210610327576040805162461bcd60e51b815260206004820152601860248201527f796f75206469646e74206465706f73697420656e6f7567680000000000000000604482015290519081900360640190fd5b3360008181526020818152604080832060010180548790039055600280548790039055805163a9059cbb60e01b8152600481019490945260248401869052516001600160a01b0385169363a9059cbb9360448083019493928390030190829087803b15801561039557600080fd5b505af11580156103a9573d6000803e3d6000fd5b505050506040513d60208110156103bf57600080fd5b5050604080518381526001600160a01b038316602082015281517f8c7cdad0d12a8db3e23561b42da6f10c8137914c97beff202213a410e1f520a3929181900390910190a15050565b6040805163a415bcad60e01b81526001600160a01b038681166004830152602482018890526044820186905261ffff85166064830152831660848201529051737d2768de32b0b80b7a3454c06bdac94a69ddc7a99163a415bcad9160a480830192600092919082900301818387803b15801561048357600080fd5b505af1158015610497573d6000803e3d6000fd5b505050505050505050565b60006104ac610c79565b50506001600160a01b03166000908152602081815260409182902082516080810184528154815260018201549281018390526002820154938101939093526003015460609092019190915290565b6000610504610c79565b50506001600160a01b031660009081526020818152604091829020825160808101845281548082526001830154938201939093526002820154938101939093526003015460609092019190915290565b33600081815260208181526040808320600180820180548c019055815488018255600280548c019055909252909120429055906105a3906001600160a01b03871690308963ffffffff6107ac16565b6105ae84848461080c565b604080518781526001600160a01b038716602082015281517f21d3f238b5a9e25ffc48b8320bc1d58882b1d90d0b4fcc7ba9707e3aebfedf16929181900390910190a1505050505050565b60025490565b336000908152602081905260409020600181018054880190558054840181554260028201819055610636908363ffffffff61090c16565b6003820155600280548801905561065e6001600160a01b03871633308a63ffffffff6107ac16565b61066985858561080c565b604080518881526001600160a01b038816602082015281517f21d3f238b5a9e25ffc48b8320bc1d58882b1d90d0b4fcc7ba9707e3aebfedf16929181900390910190a150505050505050565b60016020526000908152604090205481565b6106f56001600160a01b038416737d2768de32b0b80b7a3454c06bdac94a69ddc7a98363ffffffff61096d16565b6040805163e8eda9df60e01b81526001600160a01b0385166004820152602481018390523360448201526000606482018190529151737d2768de32b0b80b7a3454c06bdac94a69ddc7a99263e8eda9df926084808201939182900301818387803b15801561076257600080fd5b505af1158015610776573d6000803e3d6000fd5b50505050505050565b60006020819052908152604090208054600182015460028301546003909301549192909184565b60025481565b604080516001600160a01b0380861660248301528416604482015260648082018490528251808303909101815260849091019091526020810180516001600160e01b03166323b872dd60e01b179052610806908590610a85565b50505050565b604080516334924edb60e21b81526001600160a01b0383166004820152905160009173057835ad21a177dbdd3090bb1cae03eacf78fc6d9163d2493b6c91602480820192606092909190829003018186803b15801561086a57600080fd5b505afa15801561087e573d6000803e3d6000fd5b505050506040513d606081101561089457600080fd5b506020015160408051630c04a8a160e41b81526001600160a01b0387811660048301526024820187905291519293509083169163c04a8a109160448082019260009290919082900301818387803b1580156108ee57600080fd5b505af1158015610902573d6000803e3d6000fd5b5050505050505050565b600082820183811015610966576040805162461bcd60e51b815260206004820152601b60248201527f536166654d6174683a206164646974696f6e206f766572666c6f770000000000604482015290519081900360640190fd5b9392505050565b8015806109f3575060408051636eb1769f60e11b81523060048201526001600160a01b03848116602483015291519185169163dd62ed3e91604480820192602092909190829003018186803b1580156109c557600080fd5b505afa1580156109d9573d6000803e3d6000fd5b505050506040513d60208110156109ef57600080fd5b5051155b610a2e5760405162461bcd60e51b8152600401808060200182810382526036815260200180610ccc6036913960400191505060405180910390fd5b604080516001600160a01b038416602482015260448082018490528251808303909101815260649091019091526020810180516001600160e01b031663095ea7b360e01b179052610a80908490610a85565b505050565b610a97826001600160a01b0316610c3d565b610ae8576040805162461bcd60e51b815260206004820152601f60248201527f5361666545524332303a2063616c6c20746f206e6f6e2d636f6e747261637400604482015290519081900360640190fd5b60006060836001600160a01b0316836040518082805190602001908083835b60208310610b265780518252601f199092019160209182019101610b07565b6001836020036101000a0380198251168184511680821785525050505050509050019150506000604051808303816000865af19150503d8060008114610b88576040519150601f19603f3d011682016040523d82523d6000602084013e610b8d565b606091505b509150915081610be4576040805162461bcd60e51b815260206004820181905260248201527f5361666545524332303a206c6f772d6c6576656c2063616c6c206661696c6564604482015290519081900360640190fd5b80511561080657808060200190516020811015610c0057600080fd5b50516108065760405162461bcd60e51b815260040180806020018281038252602a815260200180610ca2602a913960400191505060405180910390fd5b6000813f7fc5d2460186f7233c927e7db2dcc703c0e500b653ca82273b7bfad8045d85a470818114801590610c7157508115155b949350505050565b604051806080016040528060008152602001600081526020016000815260200160008152509056fe5361666545524332303a204552433230206f7065726174696f6e20646964206e6f7420737563636565645361666545524332303a20617070726f76652066726f6d206e6f6e2d7a65726f20746f206e6f6e2d7a65726f20616c6c6f77616e6365a264697066735822122059d99b80ae7e3a921f16bf3330a2cc524409ffa447fc5c2941e28601769f20b664736f6c634300060b0033",
  "linkReferences": {},
  "deployedLinkReferences": {}
}