{
  "_format": "hh-sol-artifact-1",
  "contractName": "CreditPool",
  "sourceName": "contracts/CreditPool.sol",
  "abi": [
    {
      "anonymous": false,
      "inputs": [
        {
          "indexed": false,
          "internalType": "uint256",
          "name": "amount",
          "type": "uint256"
        },
        {
          "indexed": false,
          "internalType": "address",
          "name": "aToken",
          "type": "address"
        }
      ],
      "name": "Deposited",
      "type": "event"
    },
    {
      "inputs": [
        {
          "internalType": "uint256",
          "name": "_amount",
          "type": "uint256"
        },
        {
          "internalType": "address",
          "name": "_debtToken",
          "type": "address"
        },
        {
          "internalType": "uint256",
          "name": "_interestRateMode",
          "type": "uint256"
        },
        {
          "internalType": "uint16",
          "name": "_referralCode",
          "type": "uint16"
        },
        {
          "internalType": "address",
          "name": "_onBehalfOf",
          "type": "address"
        }
      ],
      "name": "borrow",
      "outputs": [],
      "stateMutability": "nonpayable",
      "type": "function"
    },
    {
      "inputs": [
        {
          "internalType": "uint256",
          "name": "_amount",
          "type": "uint256"
        },
        {
          "internalType": "address",
          "name": "_aToken",
          "type": "address"
        },
        {
          "internalType": "address",
          "name": "_delegatee",
          "type": "address"
        },
        {
          "internalType": "uint256",
          "name": "_delegatedAmount",
          "type": "uint256"
        },
        {
          "internalType": "address",
          "name": "_debtToken",
          "type": "address"
        }
      ],
      "name": "deposit",
      "outputs": [],
      "stateMutability": "nonpayable",
      "type": "function"
    },
    {
      "inputs": [
        {
          "internalType": "address",
          "name": "",
          "type": "address"
        }
      ],
      "name": "depositBalances",
      "outputs": [
        {
          "internalType": "uint256",
          "name": "",
          "type": "uint256"
        }
      ],
      "stateMutability": "view",
      "type": "function"
    },
    {
      "inputs": [
        {
          "internalType": "address",
          "name": "_asset",
          "type": "address"
        },
        {
          "internalType": "address",
          "name": "_depositOnBehalfOf",
          "type": "address"
        },
        {
          "internalType": "uint256",
          "name": "_amount",
          "type": "uint256"
        }
      ],
      "name": "depositOnLendingPool",
      "outputs": [],
      "stateMutability": "nonpayable",
      "type": "function"
    },
    {
      "inputs": [],
      "name": "totalDeposit",
      "outputs": [
        {
          "internalType": "uint256",
          "name": "",
          "type": "uint256"
        }
      ],
      "stateMutability": "view",
      "type": "function"
    },
    {
      "inputs": [
        {
          "internalType": "uint256",
          "name": "_amount",
          "type": "uint256"
        },
        {
          "internalType": "address",
          "name": "_aToken",
          "type": "address"
        }
      ],
      "name": "withdraw",
      "outputs": [],
      "stateMutability": "nonpayable",
      "type": "function"
    }
  ],
  "bytecode": "0x608060405234801561001057600080fd5b50610ba4806100206000396000f3fe608060405234801561001057600080fd5b50600436106100615760003560e01c8062f714ce1461006657806315ff0ba11461007b5780631eb903cf1461008e578063b8dbc62a146100b7578063dfb3bc2f146100ca578063f6153ccd146100dd575b600080fd5b6100796100743660046107c6565b6100e5565b005b610079610089366004610853565b6101de565b6100a161009c3660046106df565b610256565b6040516100ae9190610af1565b60405180910390f35b6100796100c53660046107f5565b610268565b6100796100d836600461074e565b610306565b6100a16103a3565b33600090815260208190526040902054821061011c5760405162461bcd60e51b8152600401610113906109e3565b60405180910390fd5b336000908152602081905260408120805484929061013b908490610b29565b9250508190555081600160008282546101549190610b29565b909155505060405163a9059cbb60e01b81526001600160a01b0382169063a9059cbb906101879033908690600401610934565b602060405180830381600087803b1580156101a157600080fd5b505af11580156101b5573d6000803e3d6000fd5b505050506040513d601f19601f820116820180604052508101906101d9919061078e565b505050565b60405163a415bcad60e01b8152737d2768de32b0b80b7a3454c06bdac94a69ddc7a99063a415bcad9061021d908790899088908890889060040161097a565b600060405180830381600087803b15801561023757600080fd5b505af115801561024b573d6000803e3d6000fd5b505050505050505050565b60006020819052908152604090205481565b3360009081526020819052604081208054879290610287908490610b11565b9250508190555084600160008282546102a09190610b11565b909155506102bb90506001600160a01b0385163330886103a9565b6102c6838383610407565b7f21d3f238b5a9e25ffc48b8320bc1d58882b1d90d0b4fcc7ba9707e3aebfedf1685856040516102f7929190610afa565b60405180910390a15050505050565b61032e6001600160a01b038416737d2768de32b0b80b7a3454c06bdac94a69ddc7a9836104fc565b60405163e8eda9df60e01b8152737d2768de32b0b80b7a3454c06bdac94a69ddc7a99063e8eda9df9061036c9086908590339060009060040161094d565b600060405180830381600087803b15801561038657600080fd5b505af115801561039a573d6000803e3d6000fd5b50505050505050565b60015481565b610401846323b872dd60e01b8585856040516024016103ca93929190610910565b60408051601f198184030181529190526020810180516001600160e01b03166001600160e01b0319909316929092179091526105bf565b50505050565b6040516334924edb60e21b815260009073057835ad21a177dbdd3090bb1cae03eacf78fc6d9063d2493b6c906104419085906004016108e2565b60606040518083038186803b15801561045957600080fd5b505afa15801561046d573d6000803e3d6000fd5b505050506040513d601f19601f820116820180604052508101906104919190610702565b50604051630c04a8a160e41b81529092506001600160a01b038316915063c04a8a10906104c49087908790600401610934565b600060405180830381600087803b1580156104de57600080fd5b505af11580156104f2573d6000803e3d6000fd5b5050505050505050565b8015806105845750604051636eb1769f60e11b81526001600160a01b0384169063dd62ed3e9061053290309086906004016108f6565b60206040518083038186803b15801561054a57600080fd5b505afa15801561055e573d6000803e3d6000fd5b505050506040513d601f19601f8201168201806040525081019061058291906107ae565b155b6105a05760405162461bcd60e51b815260040161011390610a64565b6101d98363095ea7b360e01b84846040516024016103ca929190610934565b6105d1826001600160a01b03166106a3565b6105ed5760405162461bcd60e51b815260040161011390610aba565b600080836001600160a01b03168360405161060891906108a9565b6000604051808303816000865af19150503d8060008114610645576040519150601f19603f3d011682016040523d82523d6000602084013e61064a565b606091505b50915091508161066c5760405162461bcd60e51b8152600401610113906109ae565b8051156104015780806020019051810190610687919061078e565b6104015760405162461bcd60e51b815260040161011390610a1a565b6000813f7fc5d2460186f7233c927e7db2dcc703c0e500b653ca82273b7bfad8045d85a4708181148015906106d757508115155b949350505050565b6000602082840312156106f0578081fd5b81356106fb81610b56565b9392505050565b600080600060608486031215610716578182fd5b835161072181610b56565b602085015190935061073281610b56565b604085015190925061074381610b56565b809150509250925092565b600080600060608486031215610762578283fd5b833561076d81610b56565b9250602084013561077d81610b56565b929592945050506040919091013590565b60006020828403121561079f578081fd5b815180151581146106fb578182fd5b6000602082840312156107bf578081fd5b5051919050565b600080604083850312156107d8578182fd5b8235915060208301356107ea81610b56565b809150509250929050565b600080600080600060a0868803121561080c578081fd5b85359450602086013561081e81610b56565b9350604086013561082e81610b56565b925060608601359150608086013561084581610b56565b809150509295509295909350565b600080600080600060a0868803121561086a578081fd5b85359450602086013561087c81610b56565b935060408601359250606086013561ffff81168114610899578182fd5b9150608086013561084581610b56565b60008251815b818110156108c957602081860181015185830152016108af565b818111156108d75782828501525b509190910192915050565b6001600160a01b0391909116815260200190565b6001600160a01b0392831681529116602082015260400190565b6001600160a01b039384168152919092166020820152604081019190915260600190565b6001600160a01b03929092168252602082015260400190565b6001600160a01b03948516815260208101939093529216604082015261ffff909116606082015260800190565b6001600160a01b0395861681526020810194909452604084019290925261ffff166060830152909116608082015260a00190565b6020808252818101527f5361666545524332303a206c6f772d6c6576656c2063616c6c206661696c6564604082015260600190565b60208082526018908201527f796f75206469646e74206465706f73697420656e6f7567680000000000000000604082015260600190565b6020808252602a908201527f5361666545524332303a204552433230206f7065726174696f6e20646964206e6040820152691bdd081cdd58d8d9595960b21b606082015260800190565b60208082526036908201527f5361666545524332303a20617070726f76652066726f6d206e6f6e2d7a65726f60408201527520746f206e6f6e2d7a65726f20616c6c6f77616e636560501b606082015260800190565b6020808252601f908201527f5361666545524332303a2063616c6c20746f206e6f6e2d636f6e747261637400604082015260600190565b90815260200190565b9182526001600160a01b0316602082015260400190565b60008219821115610b2457610b24610b40565b500190565b600082821015610b3b57610b3b610b40565b500390565b634e487b7160e01b600052601160045260246000fd5b6001600160a01b0381168114610b6b57600080fd5b5056fea2646970667358221220c3874234b691474bcdb3356256aa9a7063860ee7c3cb7cdf2dbffaffb7e349c464736f6c63430008000033",
  "linkReferences": {},
  "deployedLinkReferences": {}
}