{
  "_format": "hh-sol-artifact-1",
  "contractName": "CreditPool",
  "sourceName": "contracts/CreditPool.sol",
  "abi": [
    {
      "anonymous": false,
      "inputs": [
        {
          "indexed": false,
          "internalType": "uint256",
          "name": "amount",
          "type": "uint256"
        },
        {
          "indexed": false,
          "internalType": "address",
          "name": "aToken",
          "type": "address"
        }
      ],
      "name": "Deposited",
      "type": "event"
    },
    {
      "anonymous": false,
      "inputs": [
        {
          "indexed": false,
          "internalType": "uint256",
          "name": "amount",
          "type": "uint256"
        },
        {
          "indexed": false,
          "internalType": "address",
          "name": "aToken",
          "type": "address"
        }
      ],
      "name": "Withdrawn",
      "type": "event"
    },
    {
      "inputs": [
        {
          "internalType": "uint256",
          "name": "_amount",
          "type": "uint256"
        },
        {
          "internalType": "address",
          "name": "_debtToken",
          "type": "address"
        },
        {
          "internalType": "uint256",
          "name": "_interestRateMode",
          "type": "uint256"
        },
        {
          "internalType": "uint16",
          "name": "_referralCode",
          "type": "uint16"
        },
        {
          "internalType": "address",
          "name": "_onBehalfOf",
          "type": "address"
        }
      ],
      "name": "borrow",
      "outputs": [],
      "stateMutability": "nonpayable",
      "type": "function"
    },
    {
      "inputs": [
        {
          "internalType": "uint256",
          "name": "_amount",
          "type": "uint256"
        },
        {
          "internalType": "address",
          "name": "_aToken",
          "type": "address"
        },
        {
          "internalType": "address",
          "name": "_delegatee",
          "type": "address"
        },
        {
          "internalType": "uint256",
          "name": "_delegatedAmount",
          "type": "uint256"
        },
        {
          "internalType": "address",
          "name": "_debtToken",
          "type": "address"
        }
      ],
      "name": "deposit",
      "outputs": [],
      "stateMutability": "nonpayable",
      "type": "function"
    },
    {
      "inputs": [
        {
          "internalType": "address",
          "name": "_asset",
          "type": "address"
        },
        {
          "internalType": "address",
          "name": "_depositOnBehalfOf",
          "type": "address"
        },
        {
          "internalType": "uint256",
          "name": "_amount",
          "type": "uint256"
        }
      ],
      "name": "depositOnLendingPool",
      "outputs": [],
      "stateMutability": "nonpayable",
      "type": "function"
    },
    {
      "inputs": [
        {
          "internalType": "address",
          "name": "",
          "type": "address"
        }
      ],
      "name": "depositors",
      "outputs": [
        {
          "internalType": "uint256",
          "name": "delegatedAmount",
          "type": "uint256"
        },
        {
          "internalType": "uint256",
          "name": "depositAmount",
          "type": "uint256"
        }
      ],
      "stateMutability": "view",
      "type": "function"
    },
    {
      "inputs": [
        {
          "internalType": "address",
          "name": "_depositor",
          "type": "address"
        }
      ],
      "name": "getDelegatedAmountPerUser",
      "outputs": [
        {
          "internalType": "uint256",
          "name": "",
          "type": "uint256"
        }
      ],
      "stateMutability": "view",
      "type": "function"
    },
    {
      "inputs": [
        {
          "internalType": "address",
          "name": "_depositor",
          "type": "address"
        }
      ],
      "name": "getDepositPerUser",
      "outputs": [
        {
          "internalType": "uint256",
          "name": "",
          "type": "uint256"
        }
      ],
      "stateMutability": "view",
      "type": "function"
    },
    {
      "inputs": [],
      "name": "getTotalDelegation",
      "outputs": [
        {
          "internalType": "uint256",
          "name": "",
          "type": "uint256"
        }
      ],
      "stateMutability": "view",
      "type": "function"
    },
    {
      "inputs": [],
      "name": "getTotalDeposit",
      "outputs": [
        {
          "internalType": "uint256",
          "name": "",
          "type": "uint256"
        }
      ],
      "stateMutability": "view",
      "type": "function"
    },
    {
      "inputs": [],
      "name": "totalDelegation",
      "outputs": [
        {
          "internalType": "uint256",
          "name": "",
          "type": "uint256"
        }
      ],
      "stateMutability": "view",
      "type": "function"
    },
    {
      "inputs": [],
      "name": "totalDeposit",
      "outputs": [
        {
          "internalType": "uint256",
          "name": "",
          "type": "uint256"
        }
      ],
      "stateMutability": "view",
      "type": "function"
    },
    {
      "inputs": [
        {
          "internalType": "uint256",
          "name": "_amount",
          "type": "uint256"
        },
        {
          "internalType": "address",
          "name": "_aToken",
          "type": "address"
        }
      ],
      "name": "withdraw",
      "outputs": [],
      "stateMutability": "nonpayable",
      "type": "function"
    }
  ],
  "bytecode": "0x608060405234801561001057600080fd5b50610bed806100206000396000f3fe608060405234801561001057600080fd5b50600436106100a85760003560e01c8063b8dbc62a11610071578063b8dbc62a14610185578063c022215c146101c7578063dfb3bc2f146101cf578063e3c3ae5814610205578063eed75f6d1461020d578063f6153ccd1461024c576100a8565b8062f714ce146100ad57806315ff0ba1146100db57806369455e6a1461011f5780638bb51ee814610139578063b641b5c41461015f575b600080fd5b6100d9600480360360408110156100c357600080fd5b50803590602001356001600160a01b0316610254565b005b6100d9600480360360a08110156100f157600080fd5b508035906001600160a01b03602082013581169160408101359161ffff60608301351691608001351661039b565b610127610435565b60408051918252519081900360200190f35b6101276004803603602081101561014f57600080fd5b50356001600160a01b031661043b565b6101276004803603602081101561017557600080fd5b50356001600160a01b0316610478565b6100d9600480360360a081101561019b57600080fd5b508035906001600160a01b036020820135811691604081013582169160608201359160800135166104bb565b6101276105c4565b6100d9600480360360608110156101e557600080fd5b506001600160a01b038135811691602081013590911690604001356105ca565b610127610687565b6102336004803603602081101561022357600080fd5b50356001600160a01b031661068d565b6040805192835260208301919091528051918290030190f35b6101276106a6565b3360009081526020819052604090206001015482106102ba576040805162461bcd60e51b815260206004820152601860248201527f796f75206469646e74206465706f73697420656e6f7567680000000000000000604482015290519081900360640190fd5b3360008181526020818152604080832060019081018054889003905580548790039055805163a9059cbb60e01b8152600481019490945260248401869052516001600160a01b0385169363a9059cbb9360448083019493928390030190829087803b15801561032857600080fd5b505af115801561033c573d6000803e3d6000fd5b505050506040513d602081101561035257600080fd5b5050604080518381526001600160a01b038316602082015281517f8c7cdad0d12a8db3e23561b42da6f10c8137914c97beff202213a410e1f520a3929181900390910190a15050565b6040805163a415bcad60e01b81526001600160a01b038681166004830152602482018890526044820186905261ffff85166064830152831660848201529051737d2768de32b0b80b7a3454c06bdac94a69ddc7a99163a415bcad9160a480830192600092919082900301818387803b15801561041657600080fd5b505af115801561042a573d6000803e3d6000fd5b505050505050505050565b60025490565b6000610445610b3d565b50506001600160a01b03166000908152602081815260409182902082518084019093528054835260010154910181905290565b6000610482610b3d565b50506001600160a01b03166000908152602081815260409182902082518084019093528054808452600190910154929091019190915290565b33600081815260208181526040808320600180820180548c019055815488018255600280548901905580548b01905581516323b872dd60e01b81526004810195909552306024860152604485018a9052905190936001600160a01b038916936323b872dd9360648084019491939192918390030190829087803b15801561054157600080fd5b505af1158015610555573d6000803e3d6000fd5b505050506040513d602081101561056b57600080fd5b5061057990508484846106ac565b604080518781526001600160a01b038716602082015281517f21d3f238b5a9e25ffc48b8320bc1d58882b1d90d0b4fcc7ba9707e3aebfedf16929181900390910190a1505050505050565b60015490565b6105f86001600160a01b038416737d2768de32b0b80b7a3454c06bdac94a69ddc7a98363ffffffff6107ac16565b6040805163e8eda9df60e01b81526001600160a01b03851660048201526024810183905233604482018190526000606483018190529251909450737d2768de32b0b80b7a3454c06bdac94a69ddc7a99263e8eda9df926084808201939182900301818387803b15801561066a57600080fd5b505af115801561067e573d6000803e3d6000fd5b50505050505050565b60025481565b6000602081905290815260409020805460019091015482565b60015481565b604080516334924edb60e21b81526001600160a01b0383166004820152905160009173057835ad21a177dbdd3090bb1cae03eacf78fc6d9163d2493b6c91602480820192606092909190829003018186803b15801561070a57600080fd5b505afa15801561071e573d6000803e3d6000fd5b505050506040513d606081101561073457600080fd5b506020015160408051630c04a8a160e41b81526001600160a01b0387811660048301526024820187905291519293509083169163c04a8a109160448082019260009290919082900301818387803b15801561078e57600080fd5b505af11580156107a2573d6000803e3d6000fd5b5050505050505050565b801580610832575060408051636eb1769f60e11b81523060048201526001600160a01b03848116602483015291519185169163dd62ed3e91604480820192602092909190829003018186803b15801561080457600080fd5b505afa158015610818573d6000803e3d6000fd5b505050506040513d602081101561082e57600080fd5b5051155b61086d5760405162461bcd60e51b8152600401808060200182810382526036815260200180610b826036913960400191505060405180910390fd5b604080516001600160a01b038416602482015260448082018490528251808303909101815260649091019091526020810180516001600160e01b031663095ea7b360e01b1790526108bf9084906108c4565b505050565b6060610919826040518060400160405280602081526020017f5361666545524332303a206c6f772d6c6576656c2063616c6c206661696c6564815250856001600160a01b03166109759092919063ffffffff16565b8051909150156108bf5780806020019051602081101561093857600080fd5b50516108bf5760405162461bcd60e51b815260040180806020018281038252602a815260200180610b58602a913960400191505060405180910390fd5b6060610984848460008561098c565b949350505050565b606061099785610b37565b6109e8576040805162461bcd60e51b815260206004820152601d60248201527f416464726573733a2063616c6c20746f206e6f6e2d636f6e7472616374000000604482015290519081900360640190fd5b60006060866001600160a01b031685876040518082805190602001908083835b60208310610a275780518252601f199092019160209182019101610a08565b6001836020036101000a03801982511681845116808217855250505050505090500191505060006040518083038185875af1925050503d8060008114610a89576040519150601f19603f3d011682016040523d82523d6000602084013e610a8e565b606091505b50915091508115610aa25791506109849050565b805115610ab25780518082602001fd5b8360405162461bcd60e51b81526004018080602001828103825283818151815260200191508051906020019080838360005b83811015610afc578181015183820152602001610ae4565b50505050905090810190601f168015610b295780820380516001836020036101000a031916815260200191505b509250505060405180910390fd5b3b151590565b60405180604001604052806000815260200160008152509056fe5361666545524332303a204552433230206f7065726174696f6e20646964206e6f7420737563636565645361666545524332303a20617070726f76652066726f6d206e6f6e2d7a65726f20746f206e6f6e2d7a65726f20616c6c6f77616e6365a26469706673582212208c297058597024c3517f83e43a8110697d5b6c3869fe013f8fff5741af794b0564736f6c63430006070033",
  "linkReferences": {},
  "deployedLinkReferences": {}
}