{
  "_format": "hh-sol-artifact-1",
  "contractName": "CreditPool",
  "sourceName": "contracts/CreditPool.sol",
  "abi": [
    {
      "anonymous": false,
      "inputs": [
        {
          "indexed": false,
          "internalType": "uint256",
          "name": "amount",
          "type": "uint256"
        },
        {
          "indexed": false,
          "internalType": "address",
          "name": "aToken",
          "type": "address"
        }
      ],
      "name": "Deposited",
      "type": "event"
    },
    {
      "inputs": [
        {
          "internalType": "uint256",
          "name": "_amount",
          "type": "uint256"
        },
        {
          "internalType": "address",
          "name": "_debtToken",
          "type": "address"
        },
        {
          "internalType": "uint256",
          "name": "_interestRateMode",
          "type": "uint256"
        },
        {
          "internalType": "uint16",
          "name": "_referralCode",
          "type": "uint16"
        },
        {
          "internalType": "address",
          "name": "_onBehalfOf",
          "type": "address"
        }
      ],
      "name": "borrow",
      "outputs": [],
      "stateMutability": "nonpayable",
      "type": "function"
    },
    {
      "inputs": [
        {
          "internalType": "uint256",
          "name": "_amount",
          "type": "uint256"
        },
        {
          "internalType": "address",
          "name": "_aToken",
          "type": "address"
        },
        {
          "internalType": "address",
          "name": "_delegatee",
          "type": "address"
        },
        {
          "internalType": "uint256",
          "name": "_delegatedAmount",
          "type": "uint256"
        },
        {
          "internalType": "address",
          "name": "_debtToken",
          "type": "address"
        }
      ],
      "name": "deposit",
      "outputs": [],
      "stateMutability": "nonpayable",
      "type": "function"
    },
    {
      "inputs": [
        {
          "internalType": "address",
          "name": "",
          "type": "address"
        }
      ],
      "name": "depositBalances",
      "outputs": [
        {
          "internalType": "uint256",
          "name": "",
          "type": "uint256"
        }
      ],
      "stateMutability": "view",
      "type": "function"
    },
    {
      "inputs": [],
      "name": "totalDeposit",
      "outputs": [
        {
          "internalType": "uint256",
          "name": "",
          "type": "uint256"
        }
      ],
      "stateMutability": "view",
      "type": "function"
    },
    {
      "inputs": [
        {
          "internalType": "uint256",
          "name": "_amount",
          "type": "uint256"
        },
        {
          "internalType": "address",
          "name": "_aToken",
          "type": "address"
        }
      ],
      "name": "withdraw",
      "outputs": [],
      "stateMutability": "nonpayable",
      "type": "function"
    }
  ],
  "bytecode": "0x608060405234801561001057600080fd5b50610931806100206000396000f3fe608060405234801561001057600080fd5b50600436106100565760003560e01c8062f714ce1461005b57806315ff0ba1146100705780631eb903cf14610083578063b8dbc62a146100ac578063f6153ccd146100bf575b600080fd5b61006e6100693660046105f0565b6100c7565b005b61006e61007e36600461067d565b6101c0565b610096610091366004610561565b610238565b6040516100a3919061087e565b60405180910390f35b61006e6100ba36600461061f565b61024a565b6100966102e8565b3360009081526020819052604090205482106100fe5760405162461bcd60e51b81526004016100f5906107c6565b60405180910390fd5b336000908152602081905260408120805484929061011d9084906108b6565b92505081905550816001600082825461013691906108b6565b909155505060405163a9059cbb60e01b81526001600160a01b0382169063a9059cbb906101699033908690600401610744565b602060405180830381600087803b15801561018357600080fd5b505af1158015610197573d6000803e3d6000fd5b505050506040513d601f19601f820116820180604052508101906101bb91906105d0565b505050565b60405163a415bcad60e01b8152737d2768de32b0b80b7a3454c06bdac94a69ddc7a99063a415bcad906101ff908790899088908890889060040161075d565b600060405180830381600087803b15801561021957600080fd5b505af115801561022d573d6000803e3d6000fd5b505050505050505050565b60006020819052908152604090205481565b336000908152602081905260408120805487929061026990849061089e565b925050819055508460016000828254610282919061089e565b9091555061029d90506001600160a01b0385163330886102ee565b6102a883838361034c565b7f21d3f238b5a9e25ffc48b8320bc1d58882b1d90d0b4fcc7ba9707e3aebfedf1685856040516102d9929190610887565b60405180910390a15050505050565b60015481565b610346846323b872dd60e01b85858560405160240161030f93929190610720565b60408051601f198184030181529190526020810180516001600160e01b03166001600160e01b031990931692909217909152610441565b50505050565b6040516334924edb60e21b815260009073057835ad21a177dbdd3090bb1cae03eacf78fc6d9063d2493b6c9061038690859060040161070c565b60606040518083038186803b15801561039e57600080fd5b505afa1580156103b2573d6000803e3d6000fd5b505050506040513d601f19601f820116820180604052508101906103d69190610584565b50604051630c04a8a160e41b81529092506001600160a01b038316915063c04a8a10906104099087908790600401610744565b600060405180830381600087803b15801561042357600080fd5b505af1158015610437573d6000803e3d6000fd5b5050505050505050565b610453826001600160a01b0316610525565b61046f5760405162461bcd60e51b81526004016100f590610847565b600080836001600160a01b03168360405161048a91906106d3565b6000604051808303816000865af19150503d80600081146104c7576040519150601f19603f3d011682016040523d82523d6000602084013e6104cc565b606091505b5091509150816104ee5760405162461bcd60e51b81526004016100f590610791565b805115610346578080602001905181019061050991906105d0565b6103465760405162461bcd60e51b81526004016100f5906107fd565b6000813f7fc5d2460186f7233c927e7db2dcc703c0e500b653ca82273b7bfad8045d85a47081811480159061055957508115155b949350505050565b600060208284031215610572578081fd5b813561057d816108e3565b9392505050565b600080600060608486031215610598578182fd5b83516105a3816108e3565b60208501519093506105b4816108e3565b60408501519092506105c5816108e3565b809150509250925092565b6000602082840312156105e1578081fd5b8151801515811461057d578182fd5b60008060408385031215610602578182fd5b823591506020830135610614816108e3565b809150509250929050565b600080600080600060a08688031215610636578081fd5b853594506020860135610648816108e3565b93506040860135610658816108e3565b925060608601359150608086013561066f816108e3565b809150509295509295909350565b600080600080600060a08688031215610694578081fd5b8535945060208601356106a6816108e3565b935060408601359250606086013561ffff811681146106c3578182fd5b9150608086013561066f816108e3565b60008251815b818110156106f357602081860181015185830152016106d9565b818111156107015782828501525b509190910192915050565b6001600160a01b0391909116815260200190565b6001600160a01b039384168152919092166020820152604081019190915260600190565b6001600160a01b03929092168252602082015260400190565b6001600160a01b0395861681526020810194909452604084019290925261ffff166060830152909116608082015260a00190565b6020808252818101527f5361666545524332303a206c6f772d6c6576656c2063616c6c206661696c6564604082015260600190565b60208082526018908201527f796f75206469646e74206465706f73697420656e6f7567680000000000000000604082015260600190565b6020808252602a908201527f5361666545524332303a204552433230206f7065726174696f6e20646964206e6040820152691bdd081cdd58d8d9595960b21b606082015260800190565b6020808252601f908201527f5361666545524332303a2063616c6c20746f206e6f6e2d636f6e747261637400604082015260600190565b90815260200190565b9182526001600160a01b0316602082015260400190565b600082198211156108b1576108b16108cd565b500190565b6000828210156108c8576108c86108cd565b500390565b634e487b7160e01b600052601160045260246000fd5b6001600160a01b03811681146108f857600080fd5b5056fea2646970667358221220b65d4f1b1d2ea8905dc861856f5041c28af8dd3180fe442dfe277b7c12cfc4ae64736f6c63430008000033",
  "linkReferences": {},
  "deployedLinkReferences": {}
}