{
  "_format": "hh-sol-artifact-1",
  "contractName": "CreditPool",
  "sourceName": "contracts/CreditPool.sol",
  "abi": [
    {
      "anonymous": false,
      "inputs": [
        {
          "indexed": false,
          "internalType": "uint256",
          "name": "amount",
          "type": "uint256"
        },
        {
          "indexed": false,
          "internalType": "address",
          "name": "aToken",
          "type": "address"
        }
      ],
      "name": "Deposited",
      "type": "event"
    },
    {
      "anonymous": false,
      "inputs": [
        {
          "indexed": false,
          "internalType": "uint256",
          "name": "amount",
          "type": "uint256"
        },
        {
          "indexed": false,
          "internalType": "address",
          "name": "aToken",
          "type": "address"
        }
      ],
      "name": "Withdrawn",
      "type": "event"
    },
    {
      "inputs": [
        {
          "internalType": "uint256",
          "name": "_amount",
          "type": "uint256"
        },
        {
          "internalType": "address",
          "name": "_debtToken",
          "type": "address"
        },
        {
          "internalType": "uint256",
          "name": "_interestRateMode",
          "type": "uint256"
        },
        {
          "internalType": "uint16",
          "name": "_referralCode",
          "type": "uint16"
        },
        {
          "internalType": "address",
          "name": "_onBehalfOf",
          "type": "address"
        }
      ],
      "name": "borrow",
      "outputs": [],
      "stateMutability": "nonpayable",
      "type": "function"
    },
    {
      "inputs": [
        {
          "internalType": "uint256",
          "name": "_amount",
          "type": "uint256"
        },
        {
          "internalType": "address",
          "name": "_aToken",
          "type": "address"
        },
        {
          "internalType": "address",
          "name": "_delegatee",
          "type": "address"
        },
        {
          "internalType": "uint256",
          "name": "_delegatedAmount",
          "type": "uint256"
        },
        {
          "internalType": "address",
          "name": "_debtToken",
          "type": "address"
        }
      ],
      "name": "deposit",
      "outputs": [],
      "stateMutability": "nonpayable",
      "type": "function"
    },
    {
      "inputs": [
        {
          "internalType": "address",
          "name": "",
          "type": "address"
        }
      ],
      "name": "depositBalances",
      "outputs": [
        {
          "internalType": "uint256",
          "name": "",
          "type": "uint256"
        }
      ],
      "stateMutability": "view",
      "type": "function"
    },
    {
      "inputs": [
        {
          "internalType": "address",
          "name": "_asset",
          "type": "address"
        },
        {
          "internalType": "address",
          "name": "_depositOnBehalfOf",
          "type": "address"
        },
        {
          "internalType": "uint256",
          "name": "_amount",
          "type": "uint256"
        }
      ],
      "name": "depositOnLendingPool",
      "outputs": [],
      "stateMutability": "nonpayable",
      "type": "function"
    },
    {
      "inputs": [
        {
          "internalType": "address",
          "name": "_depositor",
          "type": "address"
        }
      ],
      "name": "getDepositPerUser",
      "outputs": [
        {
          "internalType": "uint256",
          "name": "",
          "type": "uint256"
        }
      ],
      "stateMutability": "view",
      "type": "function"
    },
    {
      "inputs": [],
      "name": "getTotalDeposit",
      "outputs": [
        {
          "internalType": "uint256",
          "name": "",
          "type": "uint256"
        }
      ],
      "stateMutability": "view",
      "type": "function"
    },
    {
      "inputs": [],
      "name": "totalDeposit",
      "outputs": [
        {
          "internalType": "uint256",
          "name": "",
          "type": "uint256"
        }
      ],
      "stateMutability": "view",
      "type": "function"
    },
    {
      "inputs": [
        {
          "internalType": "uint256",
          "name": "_amount",
          "type": "uint256"
        },
        {
          "internalType": "address",
          "name": "_aToken",
          "type": "address"
        }
      ],
      "name": "withdraw",
      "outputs": [],
      "stateMutability": "nonpayable",
      "type": "function"
    }
  ],
  "bytecode": "0x608060405234801561001057600080fd5b50610a40806100206000396000f3fe608060405234801561001057600080fd5b50600436106100875760003560e01c8063b8dbc62a1161005b578063b8dbc62a1461015c578063c022215c1461019e578063dfb3bc2f146101a6578063f6153ccd146101dc57610087565b8062f714ce1461008c57806315ff0ba1146100ba5780631eb903cf146100fe5780638bb51ee814610136575b600080fd5b6100b8600480360360408110156100a257600080fd5b50803590602001356001600160a01b03166101e4565b005b6100b8600480360360a08110156100d057600080fd5b508035906001600160a01b03602082013581169160408101359161ffff606083013516916080013516610325565b6101246004803603602081101561011457600080fd5b50356001600160a01b03166103bf565b60408051918252519081900360200190f35b6101246004803603602081101561014c57600080fd5b50356001600160a01b03166103d1565b6100b8600480360360a081101561017257600080fd5b508035906001600160a01b036020820135811691604081013582169160608201359160800135166103ec565b61012461047a565b6100b8600480360360608110156101bc57600080fd5b506001600160a01b03813581169160208101359091169060400135610480565b610124610538565b336000908152602081905260409020548210610247576040805162461bcd60e51b815260206004820152601860248201527f796f75206469646e74206465706f73697420656e6f7567680000000000000000604482015290519081900360640190fd5b3360008181526020818152604080832080548790039055600180548790039055805163a9059cbb60e01b8152600481019490945260248401869052516001600160a01b0385169363a9059cbb9360448083019493928390030190829087803b1580156102b257600080fd5b505af11580156102c6573d6000803e3d6000fd5b505050506040513d60208110156102dc57600080fd5b5050604080518381526001600160a01b038316602082015281517f8c7cdad0d12a8db3e23561b42da6f10c8137914c97beff202213a410e1f520a3929181900390910190a15050565b6040805163a415bcad60e01b81526001600160a01b038681166004830152602482018890526044820186905261ffff85166064830152831660848201529051737d2768de32b0b80b7a3454c06bdac94a69ddc7a99163a415bcad9160a480830192600092919082900301818387803b1580156103a057600080fd5b505af11580156103b4573d6000803e3d6000fd5b505050505050505050565b60006020819052908152604090205481565b6001600160a01b031660009081526020819052604090205490565b3360008181526020819052604090208054870190556001805487019055610425906001600160a01b03861690308863ffffffff61053e16565b61043083838361059e565b604080518681526001600160a01b038616602082015281517f21d3f238b5a9e25ffc48b8320bc1d58882b1d90d0b4fcc7ba9707e3aebfedf16929181900390910190a15050505050565b60015490565b6104ae6001600160a01b038416737d2768de32b0b80b7a3454c06bdac94a69ddc7a98363ffffffff61069e16565b6040805163e8eda9df60e01b81526001600160a01b0385166004820152602481018390523360448201526000606482018190529151737d2768de32b0b80b7a3454c06bdac94a69ddc7a99263e8eda9df926084808201939182900301818387803b15801561051b57600080fd5b505af115801561052f573d6000803e3d6000fd5b50505050505050565b60015481565b604080516001600160a01b0380861660248301528416604482015260648082018490528251808303909101815260849091019091526020810180516001600160e01b03166323b872dd60e01b1790526105989085906107b6565b50505050565b604080516334924edb60e21b81526001600160a01b0383166004820152905160009173057835ad21a177dbdd3090bb1cae03eacf78fc6d9163d2493b6c91602480820192606092909190829003018186803b1580156105fc57600080fd5b505afa158015610610573d6000803e3d6000fd5b505050506040513d606081101561062657600080fd5b506020015160408051630c04a8a160e41b81526001600160a01b0387811660048301526024820187905291519293509083169163c04a8a109160448082019260009290919082900301818387803b15801561068057600080fd5b505af1158015610694573d6000803e3d6000fd5b5050505050505050565b801580610724575060408051636eb1769f60e11b81523060048201526001600160a01b03848116602483015291519185169163dd62ed3e91604480820192602092909190829003018186803b1580156106f657600080fd5b505afa15801561070a573d6000803e3d6000fd5b505050506040513d602081101561072057600080fd5b5051155b61075f5760405162461bcd60e51b81526004018080602001828103825260368152602001806109d56036913960400191505060405180910390fd5b604080516001600160a01b038416602482015260448082018490528251808303909101815260649091019091526020810180516001600160e01b031663095ea7b360e01b1790526107b19084906107b6565b505050565b6107c8826001600160a01b031661096e565b610819576040805162461bcd60e51b815260206004820152601f60248201527f5361666545524332303a2063616c6c20746f206e6f6e2d636f6e747261637400604482015290519081900360640190fd5b60006060836001600160a01b0316836040518082805190602001908083835b602083106108575780518252601f199092019160209182019101610838565b6001836020036101000a0380198251168184511680821785525050505050509050019150506000604051808303816000865af19150503d80600081146108b9576040519150601f19603f3d011682016040523d82523d6000602084013e6108be565b606091505b509150915081610915576040805162461bcd60e51b815260206004820181905260248201527f5361666545524332303a206c6f772d6c6576656c2063616c6c206661696c6564604482015290519081900360640190fd5b8051156105985780806020019051602081101561093157600080fd5b50516105985760405162461bcd60e51b815260040180806020018281038252602a8152602001806109ab602a913960400191505060405180910390fd5b6000813f7fc5d2460186f7233c927e7db2dcc703c0e500b653ca82273b7bfad8045d85a4708181148015906109a257508115155b94935050505056fe5361666545524332303a204552433230206f7065726174696f6e20646964206e6f7420737563636565645361666545524332303a20617070726f76652066726f6d206e6f6e2d7a65726f20746f206e6f6e2d7a65726f20616c6c6f77616e6365a2646970667358221220ed8d580f1357089d57a93cc4e7533e32656f01fb0ba5a643f078907392f4282464736f6c63430006070033",
  "linkReferences": {},
  "deployedLinkReferences": {}
}