{
  "_format": "hh-sol-artifact-1",
  "contractName": "MarginPool",
  "sourceName": "contracts/MarginPool.sol",
  "abi": [
    {
      "inputs": [
        {
          "internalType": "address",
          "name": "_creditPool",
          "type": "address"
        },
        {
          "internalType": "uint256",
          "name": "_minSolvencyRatio",
          "type": "uint256"
        },
        {
          "internalType": "address",
          "name": "_interestRateStrategy",
          "type": "address"
        }
      ],
      "stateMutability": "nonpayable",
      "type": "constructor"
    },
    {
      "inputs": [
        {
          "internalType": "address",
          "name": "_asset",
          "type": "address"
        },
        {
          "internalType": "uint256",
          "name": "_ytokenBalance",
          "type": "uint256"
        },
        {
          "internalType": "uint256",
          "name": "_investedAmount",
          "type": "uint256"
        }
      ],
      "name": "calculateRewardSplit",
      "outputs": [
        {
          "internalType": "uint256",
          "name": "",
          "type": "uint256"
        },
        {
          "internalType": "uint256",
          "name": "",
          "type": "uint256"
        }
      ],
      "stateMutability": "nonpayable",
      "type": "function"
    },
    {
      "inputs": [],
      "name": "creditPool",
      "outputs": [
        {
          "internalType": "address",
          "name": "",
          "type": "address"
        }
      ],
      "stateMutability": "view",
      "type": "function"
    },
    {
      "inputs": [
        {
          "internalType": "address",
          "name": "",
          "type": "address"
        }
      ],
      "name": "delegateeDeposits",
      "outputs": [
        {
          "internalType": "uint256",
          "name": "duration",
          "type": "uint256"
        },
        {
          "internalType": "uint256",
          "name": "margin",
          "type": "uint256"
        },
        {
          "internalType": "uint256",
          "name": "investment",
          "type": "uint256"
        },
        {
          "internalType": "uint256",
          "name": "solvencyRatio",
          "type": "uint256"
        },
        {
          "internalType": "uint256",
          "name": "interestAmount",
          "type": "uint256"
        },
        {
          "internalType": "bool",
          "name": "hasBorrowed",
          "type": "bool"
        }
      ],
      "stateMutability": "view",
      "type": "function"
    },
    {
      "inputs": [],
      "name": "getPendingBorrowingRate",
      "outputs": [
        {
          "internalType": "uint256",
          "name": "",
          "type": "uint256"
        }
      ],
      "stateMutability": "view",
      "type": "function"
    },
    {
      "inputs": [],
      "name": "getPendingDepositRate",
      "outputs": [
        {
          "internalType": "uint256",
          "name": "",
          "type": "uint256"
        }
      ],
      "stateMutability": "view",
      "type": "function"
    },
    {
      "inputs": [],
      "name": "getTotalBorrowed",
      "outputs": [
        {
          "internalType": "uint256",
          "name": "",
          "type": "uint256"
        }
      ],
      "stateMutability": "view",
      "type": "function"
    },
    {
      "inputs": [
        {
          "internalType": "uint256",
          "name": "_ytokenBalance",
          "type": "uint256"
        }
      ],
      "name": "getYearnBorrowerShare",
      "outputs": [
        {
          "internalType": "uint256",
          "name": "",
          "type": "uint256"
        }
      ],
      "stateMutability": "view",
      "type": "function"
    },
    {
      "inputs": [
        {
          "internalType": "uint256",
          "name": "_ytokenBalance",
          "type": "uint256"
        }
      ],
      "name": "getYearnVaultLiquidityValue",
      "outputs": [
        {
          "internalType": "uint256",
          "name": "",
          "type": "uint256"
        }
      ],
      "stateMutability": "view",
      "type": "function"
    },
    {
      "inputs": [],
      "name": "interestRateStrategy",
      "outputs": [
        {
          "internalType": "contract InterestRateStrategy",
          "name": "",
          "type": "address"
        }
      ],
      "stateMutability": "view",
      "type": "function"
    },
    {
      "inputs": [
        {
          "internalType": "uint256",
          "name": "_amount",
          "type": "uint256"
        },
        {
          "internalType": "address",
          "name": "_asset",
          "type": "address"
        },
        {
          "internalType": "uint256",
          "name": "_marginAmount",
          "type": "uint256"
        },
        {
          "internalType": "uint256",
          "name": "_interestAmount",
          "type": "uint256"
        },
        {
          "internalType": "uint256",
          "name": "_duration",
          "type": "uint256"
        }
      ],
      "name": "invest",
      "outputs": [],
      "stateMutability": "nonpayable",
      "type": "function"
    },
    {
      "inputs": [],
      "name": "minSolvencyRatio",
      "outputs": [
        {
          "internalType": "uint256",
          "name": "",
          "type": "uint256"
        }
      ],
      "stateMutability": "view",
      "type": "function"
    },
    {
      "inputs": [],
      "name": "pendingBorrowingRate",
      "outputs": [
        {
          "internalType": "uint256",
          "name": "",
          "type": "uint256"
        }
      ],
      "stateMutability": "view",
      "type": "function"
    },
    {
      "inputs": [],
      "name": "pendingDepositRate",
      "outputs": [
        {
          "internalType": "uint256",
          "name": "",
          "type": "uint256"
        }
      ],
      "stateMutability": "view",
      "type": "function"
    },
    {
      "inputs": [
        {
          "internalType": "address",
          "name": "_asset",
          "type": "address"
        },
        {
          "internalType": "uint256",
          "name": "_ytokenBalance",
          "type": "uint256"
        }
      ],
      "name": "repay",
      "outputs": [],
      "stateMutability": "nonpayable",
      "type": "function"
    },
    {
      "inputs": [],
      "name": "totalBorrowedAmount",
      "outputs": [
        {
          "internalType": "uint256",
          "name": "",
          "type": "uint256"
        }
      ],
      "stateMutability": "view",
      "type": "function"
    }
  ],
  "bytecode": "0x608060405234801561001057600080fd5b50604051611aa3380380611aa38339818101604052606081101561003357600080fd5b5080516020820151604090920151600080546001600160a01b039384166001600160a01b031991821617909155600193909355600680549290911691909216179055611a1f806100846000396000f3fe608060405234801561001057600080fd5b50600436106100f55760003560e01c8063a07d623311610097578063c4fff0bc11610066578063c4fff0bc146101d0578063d5c344531461020e578063d74acb6e14610259578063fd67ecfb14610261576100f5565b8063a07d62331461019b578063a67367fd146101a3578063ac7251e7146101c0578063b80492a5146101c8576100f5565b80632ff1ab95116100d35780632ff1ab951461015f5780633e07460814610183578063622ff42b1461018b57806398fba1d314610193576100f5565b80630307c4a1146100fa57806309ac0d9e1461011457806322867d7814610131575b600080fd5b6101026102bc565b60408051918252519081900360200190f35b6101026004803603602081101561012a57600080fd5b50356102c2565b61015d6004803603604081101561014757600080fd5b506001600160a01b0381351690602001356103e8565b005b61016761077a565b604080516001600160a01b039092168252519081900360200190f35b610167610789565b610102610798565b61010261079e565b6101026107a4565b610102600480360360208110156101b957600080fd5b50356107aa565b610102610955565b61010261095b565b61015d600480360360a08110156101e657600080fd5b508035906001600160a01b036020820135169060408101359060608101359060800135610961565b6102406004803603606081101561022457600080fd5b506001600160a01b038135169060208101359060400135610f23565b6040805192835260208301919091528051918290030190f35b610102611241565b6102876004803603602081101561027757600080fd5b50356001600160a01b0316611247565b6040805196875260208701959095528585019390935260608501919091526080840152151560a0830152519081900360c00190f35b60025490565b60008073acd43e627e64355f1861cec6d3a6688b31a6f9526001600160a01b031663b69ef8a86040518163ffffffff1660e01b815260040160206040518083038186803b15801561031257600080fd5b505afa158015610326573d6000803e3d6000fd5b505050506040513d602081101561033c57600080fd5b5051604080516318160ddd60e01b8152905191925060009173acd43e627e64355f1861cec6d3a6688b31a6f952916318160ddd916004808301926020929190829003018186803b15801561038f57600080fd5b505afa1580156103a3573d6000803e3d6000fd5b505050506040513d60208110156103b957600080fd5b5051905060006103df826103d3858863ffffffff61127f16565b9063ffffffff6112e116565b95945050505050565b336000908152600560205260409020805442106104365760405162461bcd60e51b815260040180806020018281038252603f81526020018061190d603f913960400191505060405180910390fd5b600080825560018201805490829055600283018054600480860185905591849055600385019390935560058401805460ff19169055604080516370a0823160e01b815230928101929092525191929161051f916001600160a01b038816916370a0823191602480820192602092909190829003018186803b1580156104ba57600080fd5b505afa1580156104ce573d6000803e3d6000fd5b505050506040513d60208110156104e457600080fd5b505160408051808201909152601b81527f6461692062616c616e6365206265666f726520776974686472617700000000006020820152611323565b60008061052d878785610f23565b9150915073acd43e627e64355f1861cec6d3a6688b31a6f9526001600160a01b0316632e1a7d4d876040518263ffffffff1660e01b815260040180828152602001915050600060405180830381600087803b15801561058b57600080fd5b505af115801561059f573d6000803e3d6000fd5b5050604080516370a0823160e01b8152306004820152905161065393506001600160a01b038b1692506370a0823191602480820192602092909190829003018186803b1580156105ee57600080fd5b505afa158015610602573d6000803e3d6000fd5b505050506040513d602081101561061857600080fd5b505160408051808201909152601a81527f6461692062616c616e63652061667465722077697468647261770000000000006020820152611323565b610663838563ffffffff6113d516565b60028054919091039055737d2768de32b0b80b7a3454c06bdac94a69ddc7a963573ade8188610698868863ffffffff6113d516565b60008054604080516001600160e01b031960e088901b1681526001600160a01b03958616600482015260248101949094526001604485015293166064830152915160848083019360209383900390910190829087803b1580156106fa57600080fd5b505af115801561070e573d6000803e3d6000fd5b505050506040513d602081101561072457600080fd5b5050600054610746906001600160a01b0389811691168463ffffffff61141716565b6107713361075a868463ffffffff61146e16565b6001600160a01b038a16919063ffffffff61141716565b50505050505050565b6000546001600160a01b031681565b6006546001600160a01b031681565b60045481565b60035490565b60045490565b60008073acd43e627e64355f1861cec6d3a6688b31a6f9526001600160a01b031663b69ef8a86040518163ffffffff1660e01b815260040160206040518083038186803b1580156107fa57600080fd5b505afa15801561080e573d6000803e3d6000fd5b505050506040513d602081101561082457600080fd5b5051604080516318160ddd60e01b8152905191925060009173acd43e627e64355f1861cec6d3a6688b31a6f952916318160ddd916004808301926020929190829003018186803b15801561087757600080fd5b505afa15801561088b573d6000803e3d6000fd5b505050506040513d60208110156108a157600080fd5b5051905060006108bb826103d3858863ffffffff61127f16565b9050600073aed0c38402a5d19df6e4c03f4e2dced6e29c1ee96001600160a01b03166350d25bcd6040518163ffffffff1660e01b815260040160206040518083038186803b15801561090c57600080fd5b505afa158015610920573d6000803e3d6000fd5b505050506040513d602081101561093657600080fd5b5051905061094a818363ffffffff61127f16565b509095945050505050565b60015481565b60035481565b604080516334924edb60e21b81526001600160a01b0386166004820152905160009173057835ad21a177dbdd3090bb1cae03eacf78fc6d9163d2493b6c91602480820192606092909190829003018186803b1580156109bf57600080fd5b505afa1580156109d3573d6000803e3d6000fd5b505050506040513d60608110156109e957600080fd5b506020908101516000805460408051631af5db4960e21b81526001600160a01b0392831660048201523060248201529051939550919390851692636bd76d24926044808201939291829003018186803b158015610a4557600080fd5b505afa158015610a59573d6000803e3d6000fd5b505050506040513d6020811015610a6f57600080fd5b5051600254909150811015610ab55760405162461bcd60e51b81526004018080602001828103825260278152602001806119c36027913960400191505060405180910390fd5b6000610aed886103d3610ace898963ffffffff61146e16565b610ae18c620186a063ffffffff61127f16565b9063ffffffff61146e16565b600154909150610b0690620186a063ffffffff61127f16565b811015610b445760405162461bcd60e51b81526004018080602001828103825260268152602001806118c66026913960400191505060405180910390fd5b6000610b56428663ffffffff61146e16565b9050610b6061188d565b5033600090815260056020818152604092839020835160c08101855281548152600182015492810192909252600281015493820193909352600383015460608201526004830154608082015291015460ff1615801560a0830152610bf55760405162461bcd60e51b815260040180806020018281038252602c81526020018061194c602c913960400191505060405180910390fd5b6040805160c081018252838152602081018a9052908101610c2c610c1f8b8b63ffffffff61146e16565b8d9063ffffffff61146e16565b8152602080820186905260408083018b9052600160609384018190523360008181526005808652908490208751815594870151928501929092559185015160028401559284015160038301556080840151600483015560a0909301519101805460ff19169115159190911790556001600160a01b038a16906323b872dd9030610cb58c8c61146e565b6040518463ffffffff1660e01b815260040180846001600160a01b03166001600160a01b03168152602001836001600160a01b03166001600160a01b031681526020018281526020019350505050602060405180830381600087803b158015610d1d57600080fd5b505af1158015610d31573d6000803e3d6000fd5b505050506040513d6020811015610d4757600080fd5b5050600280548b019055600080546040805163a415bcad60e01b81526001600160a01b038d81166004830152602482018f90526001604483015260648201859052909216608483015251737d2768de32b0b80b7a3454c06bdac94a69ddc7a99263a415bcad9260a4808201939182900301818387803b158015610dc957600080fd5b505af1158015610ddd573d6000803e3d6000fd5b5050506001600160a01b038a16905063095ea7b373acd43e627e64355f1861cec6d3a6688b31a6f952610e20610e138c8c61146e565b8e9063ffffffff61146e16565b6040518363ffffffff1660e01b815260040180836001600160a01b03166001600160a01b0316815260200182815260200192505050602060405180830381600087803b158015610e6f57600080fd5b505af1158015610e83573d6000803e3d6000fd5b505050506040513d6020811015610e9957600080fd5b5073acd43e627e64355f1861cec6d3a6688b31a6f952905063b6b55f25610ec9610c1f8b8b63ffffffff61146e16565b6040518263ffffffff1660e01b815260040180828152602001915050600060405180830381600087803b158015610eff57600080fd5b505af1158015610f13573d6000803e3d6000fd5b5050505050505050505050505050565b6000806000610f31856102c2565b9050610f556040518060600160405280602181526020016118ec60219139826114c8565b604080516334924edb60e21b81526001600160a01b0388166004820152905160009173057835ad21a177dbdd3090bb1cae03eacf78fc6d9163d2493b6c91602480820192606092909190829003018186803b158015610fb357600080fd5b505afa158015610fc7573d6000803e3d6000fd5b505050506040513d6060811015610fdd57600080fd5b506020908101516000805460408051631af5db4960e21b81526001600160a01b0392831660048201523060248201529051939550919390851692636bd76d24926044808201939291829003018186803b15801561103957600080fd5b505afa15801561104d573d6000803e3d6000fd5b505050506040513d602081101561106357600080fd5b505160065460025460408051635bc68f6d60e01b8152600481019290925260248201849052519293506000926001600160a01b0390921691635bc68f6d91604480820192602092909190829003018186803b1580156110c157600080fd5b505afa1580156110d5573d6000803e3d6000fd5b505050506040513d60208110156110eb57600080fd5b5051600481905560408051808201909152601981527870656e64696e6720626f72726f77696e67207261746520697360381b602082015290915061112f90826114c8565b6006546002546040805163951e768360e01b8152600481019290925260248201859052516000926001600160a01b03169163951e7683916044808301926020929190829003018186803b15801561118557600080fd5b505afa158015611199573d6000803e3d6000fd5b505050506040513d60208110156111af57600080fd5b5051600381905560408051808201909152601981527870656e64696e6720626f72726f77696e67207261746520697360381b60208201529091506111f390826114c8565b6000611205868a63ffffffff6113d516565b90506000611219828463ffffffff61127f16565b9050600061122d838663ffffffff61127f16565b919d919c50909a5050505050505050505050565b60025481565b600560208190526000918252604090912080546001820154600283015460038401546004850154949095015492949193909260ff1686565b60008261128e575060006112db565b8282028284828161129b57fe5b04146112d85760405162461bcd60e51b81526004018080602001828103825260218152602001806119786021913960400191505060405180910390fd5b90505b92915050565b60006112d883836040518060400160405280601a81526020017f536166654d6174683a206469766973696f6e206279207a65726f000000000000815250611576565b6113d182826040516024018083815260200180602001828103825283818151815260200191508051906020019080838360005b8381101561136e578181015183820152602001611356565b50505050905090810190601f16801561139b5780820380516001836020036101000a031916815260200191505b5060408051601f198184030181529190526020810180516001600160e01b0316630fa3f34560e01b179052935061161892505050565b5050565b60006112d883836040518060400160405280601e81526020017f536166654d6174683a207375627472616374696f6e206f766572666c6f770000815250611639565b604080516001600160a01b038416602482015260448082018490528251808303909101815260649091019091526020810180516001600160e01b031663a9059cbb60e01b179052611469908490611693565b505050565b6000828201838110156112d8576040805162461bcd60e51b815260206004820152601b60248201527f536166654d6174683a206164646974696f6e206f766572666c6f770000000000604482015290519081900360640190fd5b6113d182826040516024018080602001838152602001828103825284818151815260200191508051906020019080838360005b838110156115135781810151838201526020016114fb565b50505050905090810190601f1680156115405780820380516001836020036101000a031916815260200191505b5060408051601f198184030181529190526020810180516001600160e01b03166309710a9d60e41b179052935061161892505050565b600081836116025760405162461bcd60e51b81526004018080602001828103825283818151815260200191508051906020019080838360005b838110156115c75781810151838201526020016115af565b50505050905090810190601f1680156115f45780820380516001836020036101000a031916815260200191505b509250505060405180910390fd5b50600083858161160e57fe5b0495945050505050565b80516a636f6e736f6c652e6c6f67602083016000808483855afa5050505050565b6000818484111561168b5760405162461bcd60e51b81526020600482018181528351602484015283519092839260449091019190850190808383600083156115c75781810151838201526020016115af565b505050900390565b6116a5826001600160a01b0316611851565b6116f6576040805162461bcd60e51b815260206004820152601f60248201527f5361666545524332303a2063616c6c20746f206e6f6e2d636f6e747261637400604482015290519081900360640190fd5b60006060836001600160a01b0316836040518082805190602001908083835b602083106117345780518252601f199092019160209182019101611715565b6001836020036101000a0380198251168184511680821785525050505050509050019150506000604051808303816000865af19150503d8060008114611796576040519150601f19603f3d011682016040523d82523d6000602084013e61179b565b606091505b5091509150816117f2576040805162461bcd60e51b815260206004820181905260248201527f5361666545524332303a206c6f772d6c6576656c2063616c6c206661696c6564604482015290519081900360640190fd5b80511561184b5780806020019051602081101561180e57600080fd5b505161184b5760405162461bcd60e51b815260040180806020018281038252602a815260200180611999602a913960400191505060405180910390fd5b50505050565b6000813f7fc5d2460186f7233c927e7db2dcc703c0e500b653ca82273b7bfad8045d85a47081811480159061188557508115155b949350505050565b6040518060c001604052806000815260200160008152602001600081526020016000815260200160008152602001600015158152509056fe4d617267696e506f6f6c3a20696e73756666696369656e74206d617267696e20616d6f756e74746f74616c2072657475726e73207072696e636970616c202b20726577617264734d617267696e506f6f6c3a20626f72726f77206475726174696f6e2068617320657863656564656420796f752077696c6c206265206c6971756964617465644d617267696e506f6f6c3a20626f72726f7765722068617320626f72726f7765642070726576696f75736c79536166654d6174683a206d756c7469706c69636174696f6e206f766572666c6f775361666545524332303a204552433230206f7065726174696f6e20646964206e6f7420737563636565644d617267696e506f6f6c3a20696e73756666696369656e74206465627420616c6c6f77616e6365a264697066735822122007b6f2d3aa70f1c5a8b7376f1b61cd7e039afb5acbb2cb9f3dee511b98c9f22764736f6c63430006070033",
  "linkReferences": {},
  "deployedLinkReferences": {}
}