{
  "_format": "hh-sol-artifact-1",
  "contractName": "MarginPool",
  "sourceName": "contracts/MarginPool.sol",
  "abi": [
    {
      "inputs": [
        {
          "internalType": "address",
          "name": "_creditPool",
          "type": "address"
        },
        {
          "internalType": "uint256",
          "name": "_minSolvencyRatio",
          "type": "uint256"
        },
        {
          "internalType": "address",
          "name": "_interestRateStrategy",
          "type": "address"
        }
      ],
      "stateMutability": "nonpayable",
      "type": "constructor"
    },
    {
      "inputs": [
        {
          "internalType": "address",
          "name": "_asset",
          "type": "address"
        },
        {
          "internalType": "uint256",
          "name": "_ytokenBalance",
          "type": "uint256"
        },
        {
          "internalType": "uint256",
          "name": "_investedAmount",
          "type": "uint256"
        }
      ],
      "name": "calculateRewardSplit",
      "outputs": [
        {
          "internalType": "uint256",
          "name": "",
          "type": "uint256"
        },
        {
          "internalType": "uint256",
          "name": "",
          "type": "uint256"
        }
      ],
      "stateMutability": "nonpayable",
      "type": "function"
    },
    {
      "inputs": [],
      "name": "creditPool",
      "outputs": [
        {
          "internalType": "address",
          "name": "",
          "type": "address"
        }
      ],
      "stateMutability": "view",
      "type": "function"
    },
    {
      "inputs": [
        {
          "internalType": "address",
          "name": "",
          "type": "address"
        }
      ],
      "name": "delegateeDeposits",
      "outputs": [
        {
          "internalType": "uint256",
          "name": "duration",
          "type": "uint256"
        },
        {
          "internalType": "uint256",
          "name": "margin",
          "type": "uint256"
        },
        {
          "internalType": "uint256",
          "name": "investment",
          "type": "uint256"
        },
        {
          "internalType": "uint256",
          "name": "solvencyRatio",
          "type": "uint256"
        },
        {
          "internalType": "uint256",
          "name": "interestAmount",
          "type": "uint256"
        },
        {
          "internalType": "bool",
          "name": "hasBorrowed",
          "type": "bool"
        }
      ],
      "stateMutability": "view",
      "type": "function"
    },
    {
      "inputs": [],
      "name": "getPendingBorrowingRate",
      "outputs": [
        {
          "internalType": "uint256",
          "name": "",
          "type": "uint256"
        }
      ],
      "stateMutability": "nonpayable",
      "type": "function"
    },
    {
      "inputs": [],
      "name": "getPendingDepositRate",
      "outputs": [
        {
          "internalType": "uint256",
          "name": "",
          "type": "uint256"
        }
      ],
      "stateMutability": "nonpayable",
      "type": "function"
    },
    {
      "inputs": [],
      "name": "getTotalBorrowed",
      "outputs": [
        {
          "internalType": "uint256",
          "name": "",
          "type": "uint256"
        }
      ],
      "stateMutability": "view",
      "type": "function"
    },
    {
      "inputs": [
        {
          "internalType": "uint256",
          "name": "_ytokenBalance",
          "type": "uint256"
        }
      ],
      "name": "getYearnVaultLiquidityValue",
      "outputs": [
        {
          "internalType": "uint256",
          "name": "",
          "type": "uint256"
        }
      ],
      "stateMutability": "nonpayable",
      "type": "function"
    },
    {
      "inputs": [],
      "name": "interestRateStrategy",
      "outputs": [
        {
          "internalType": "contract InterestRateStrategy",
          "name": "",
          "type": "address"
        }
      ],
      "stateMutability": "view",
      "type": "function"
    },
    {
      "inputs": [
        {
          "internalType": "uint256",
          "name": "_amount",
          "type": "uint256"
        },
        {
          "internalType": "address",
          "name": "_asset",
          "type": "address"
        },
        {
          "internalType": "uint256",
          "name": "_marginAmount",
          "type": "uint256"
        },
        {
          "internalType": "uint256",
          "name": "_interestAmount",
          "type": "uint256"
        },
        {
          "internalType": "uint256",
          "name": "_duration",
          "type": "uint256"
        }
      ],
      "name": "invest",
      "outputs": [],
      "stateMutability": "nonpayable",
      "type": "function"
    },
    {
      "inputs": [],
      "name": "minSolvencyRatio",
      "outputs": [
        {
          "internalType": "uint256",
          "name": "",
          "type": "uint256"
        }
      ],
      "stateMutability": "view",
      "type": "function"
    },
    {
      "inputs": [],
      "name": "pendingBorrowingRate",
      "outputs": [
        {
          "internalType": "uint256",
          "name": "",
          "type": "uint256"
        }
      ],
      "stateMutability": "view",
      "type": "function"
    },
    {
      "inputs": [],
      "name": "pendingDepositRate",
      "outputs": [
        {
          "internalType": "uint256",
          "name": "",
          "type": "uint256"
        }
      ],
      "stateMutability": "view",
      "type": "function"
    },
    {
      "inputs": [
        {
          "internalType": "address",
          "name": "_asset",
          "type": "address"
        },
        {
          "internalType": "uint256",
          "name": "_ytokenBalance",
          "type": "uint256"
        }
      ],
      "name": "repay",
      "outputs": [],
      "stateMutability": "nonpayable",
      "type": "function"
    },
    {
      "inputs": [],
      "name": "totalBorrowedAmount",
      "outputs": [
        {
          "internalType": "uint256",
          "name": "",
          "type": "uint256"
        }
      ],
      "stateMutability": "view",
      "type": "function"
    }
  ],
  "bytecode": "0x608060405234801561001057600080fd5b506040516119bd3803806119bd8339818101604052606081101561003357600080fd5b5080516020820151604090920151600080546001600160a01b039384166001600160a01b031991821617909155600193909355600680549290911691909216179055611939806100846000396000f3fe608060405234801561001057600080fd5b50600436106100ea5760003560e01c8063a67367fd1161008c578063c4fff0bc11610066578063c4fff0bc146101a8578063d5c34453146101e6578063d74acb6e14610231578063fd67ecfb14610239576100ea565b8063a67367fd1461017b578063ac7251e714610198578063b80492a5146101a0576100ea565b80633e074608116100c85780633e0746081461015b578063622ff42b1461016357806398fba1d31461016b578063a07d623314610173576100ea565b80630307c4a1146100ef57806322867d78146101095780632ff1ab9514610137575b600080fd5b6100f7610294565b60408051918252519081900360200190f35b6101356004803603604081101561011f57600080fd5b506001600160a01b03813516906020013561029a565b005b61013f6104a1565b604080516001600160a01b039092168252519081900360200190f35b61013f6104b0565b6100f76104bf565b6100f76104c5565b6100f76104cb565b6100f76004803603602081101561019157600080fd5b50356104d1565b6100f7610932565b6100f7610938565b610135600480360360a08110156101be57600080fd5b508035906001600160a01b03602082013516906040810135906060810135906080013561093e565b610218600480360360608110156101fc57600080fd5b506001600160a01b038135169060208101359060400135610f00565b6040805192835260208301919091528051918290030190f35b6100f761122a565b61025f6004803603602081101561024f57600080fd5b50356001600160a01b0316611230565b6040805196875260208701959095528585019390935260608501919091526080840152151560a0830152519081900360c00190f35b60025490565b336000908152600560205260409020805442106102e85760405162461bcd60e51b815260040180806020018281038252603f815260200180611827603f913960400191505060405180910390fd5b6000808255600182018054908290556002830180546004808601859055918490556003850184905560058501805460ff1916905560408051632e1a7d4d60e01b8152928301879052519293909273acd43e627e64355f1861cec6d3a6688b31a6f95292632e1a7d4d92602480830193919282900301818387803b15801561036e57600080fd5b505af1158015610382573d6000803e3d6000fd5b50505050600080610394878785610f00565b90925090506103a9838563ffffffff61126816565b60028054919091039055737d2768de32b0b80b7a3454c06bdac94a69ddc7a963573ade81886103de858863ffffffff61126816565b60008054604080516001600160e01b031960e088901b1681526001600160a01b03958616600482015260248101949094526001604485015293166064830152915160848083019360209383900390910190829087803b15801561044057600080fd5b505af1158015610454573d6000803e3d6000fd5b505050506040513d602081101561046a57600080fd5b50610498905033610481868463ffffffff6112b316565b6001600160a01b038a16919063ffffffff61130d16565b50505050505050565b6000546001600160a01b031681565b6006546001600160a01b031681565b60045481565b60035490565b60045490565b60008073acd43e627e64355f1861cec6d3a6688b31a6f9526001600160a01b031663f77c47916040518163ffffffff1660e01b815260040160206040518083038186803b15801561052157600080fd5b505afa158015610535573d6000803e3d6000fd5b505050506040513d602081101561054b57600080fd5b505160408051637e062a3560e11b8152905191925060009173acd43e627e64355f1861cec6d3a6688b31a6f9529163fc0c546a916004808301926020929190829003018186803b15801561059e57600080fd5b505afa1580156105b2573d6000803e3d6000fd5b505050506040513d60208110156105c857600080fd5b5051604080516318160ddd60e01b815290519192506000916106e19173acd43e627e64355f1861cec6d3a6688b31a6f952916318160ddd91600480820192602092909190829003018186803b15801561062057600080fd5b505afa158015610634573d6000803e3d6000fd5b505050506040513d602081101561064a57600080fd5b5051604080516316d3df1560e31b815290516106d591899173acd43e627e64355f1861cec6d3a6688b31a6f9529163b69ef8a8916004808301926020929190829003018186803b15801561069d57600080fd5b505afa1580156106b1573d6000803e3d6000fd5b505050506040513d60208110156106c757600080fd5b50519063ffffffff61136416565b9063ffffffff6113bd16565b604080516370a0823160e01b815230600482015290519192506000916001600160a01b038516916370a08231916024808301926020929190829003018186803b15801561072d57600080fd5b505afa158015610741573d6000803e3d6000fd5b505050506040513d602081101561075757600080fd5b505190508181101561089a576000610775838363ffffffff61126816565b9050846001600160a01b031663f3fef3a385836040518363ffffffff1660e01b815260040180836001600160a01b03166001600160a01b0316815260200182815260200192505050600060405180830381600087803b1580156107d757600080fd5b505af11580156107eb573d6000803e3d6000fd5b5050604080516370a0823160e01b81523060048201529051600093506001600160a01b03881692506370a0823191602480820192602092909190829003018186803b15801561083957600080fd5b505afa15801561084d573d6000803e3d6000fd5b505050506040513d602081101561086357600080fd5b505190506000610879828563ffffffff61126816565b90508281101561089657610893858263ffffffff6112b316565b94505b5050505b600073aed0c38402a5d19df6e4c03f4e2dced6e29c1ee96001600160a01b03166350d25bcd6040518163ffffffff1660e01b815260040160206040518083038186803b1580156108e957600080fd5b505afa1580156108fd573d6000803e3d6000fd5b505050506040513d602081101561091357600080fd5b50519050610927818463ffffffff61136416565b979650505050505050565b60015481565b60035481565b604080516334924edb60e21b81526001600160a01b0386166004820152905160009173057835ad21a177dbdd3090bb1cae03eacf78fc6d9163d2493b6c91602480820192606092909190829003018186803b15801561099c57600080fd5b505afa1580156109b0573d6000803e3d6000fd5b505050506040513d60608110156109c657600080fd5b506020908101516000805460408051631af5db4960e21b81526001600160a01b0392831660048201523060248201529051939550919390851692636bd76d24926044808201939291829003018186803b158015610a2257600080fd5b505afa158015610a36573d6000803e3d6000fd5b505050506040513d6020811015610a4c57600080fd5b5051600254909150811015610a925760405162461bcd60e51b81526004018080602001828103825260278152602001806118dd6027913960400191505060405180910390fd5b6000610aca886106d5610aab898963ffffffff6112b316565b610abe8c620186a063ffffffff61136416565b9063ffffffff6112b316565b600154909150610ae390620186a063ffffffff61136416565b811015610b215760405162461bcd60e51b81526004018080602001828103825260268152602001806118016026913960400191505060405180910390fd5b6000610b33428663ffffffff6112b316565b9050610b3d6117c8565b5033600090815260056020818152604092839020835160c08101855281548152600182015492810192909252600281015493820193909352600383015460608201526004830154608082015291015460ff1615801560a0830152610bd25760405162461bcd60e51b815260040180806020018281038252602c815260200180611866602c913960400191505060405180910390fd5b6040805160c081018252838152602081018a9052908101610c09610bfc8b8b63ffffffff6112b316565b8d9063ffffffff6112b316565b8152602080820186905260408083018b9052600160609384018190523360008181526005808652908490208751815594870151928501929092559185015160028401559284015160038301556080840151600483015560a0909301519101805460ff19169115159190911790556001600160a01b038a16906323b872dd9030610c928c8c6112b3565b6040518463ffffffff1660e01b815260040180846001600160a01b03166001600160a01b03168152602001836001600160a01b03166001600160a01b031681526020018281526020019350505050602060405180830381600087803b158015610cfa57600080fd5b505af1158015610d0e573d6000803e3d6000fd5b505050506040513d6020811015610d2457600080fd5b5050600280548b019055600080546040805163a415bcad60e01b81526001600160a01b038d81166004830152602482018f90526001604483015260648201859052909216608483015251737d2768de32b0b80b7a3454c06bdac94a69ddc7a99263a415bcad9260a4808201939182900301818387803b158015610da657600080fd5b505af1158015610dba573d6000803e3d6000fd5b5050506001600160a01b038a16905063095ea7b373acd43e627e64355f1861cec6d3a6688b31a6f952610dfd610df08c8c6112b3565b8e9063ffffffff6112b316565b6040518363ffffffff1660e01b815260040180836001600160a01b03166001600160a01b0316815260200182815260200192505050602060405180830381600087803b158015610e4c57600080fd5b505af1158015610e60573d6000803e3d6000fd5b505050506040513d6020811015610e7657600080fd5b5073acd43e627e64355f1861cec6d3a6688b31a6f952905063b6b55f25610ea6610bfc8b8b63ffffffff6112b316565b6040518263ffffffff1660e01b815260040180828152602001915050600060405180830381600087803b158015610edc57600080fd5b505af1158015610ef0573d6000803e3d6000fd5b5050505050505050505050505050565b6000806000610f0e856104d1565b9050610f436040518060400160405280601181526020017070656e64696e672072657761726420697360781b815250826113ff565b604080516334924edb60e21b81526001600160a01b0388166004820152905160009173057835ad21a177dbdd3090bb1cae03eacf78fc6d9163d2493b6c91602480820192606092909190829003018186803b158015610fa157600080fd5b505afa158015610fb5573d6000803e3d6000fd5b505050506040513d6060811015610fcb57600080fd5b506020908101516000805460408051631af5db4960e21b81526001600160a01b0392831660048201523060248201529051939550919390851692636bd76d24926044808201939291829003018186803b15801561102757600080fd5b505afa15801561103b573d6000803e3d6000fd5b505050506040513d602081101561105157600080fd5b505160065460025460408051635bc68f6d60e01b8152600481019290925260248201849052519293506000926001600160a01b0390921691635bc68f6d91604480820192602092909190829003018186803b1580156110af57600080fd5b505afa1580156110c3573d6000803e3d6000fd5b505050506040513d60208110156110d957600080fd5b5051600481905560408051808201909152601981527870656e64696e6720626f72726f77696e67207261746520697360381b602082015290915061111d90826113ff565b6006546002546040805163951e768360e01b8152600481019290925260248201859052516000926001600160a01b03169163951e7683916044808301926020929190829003018186803b15801561117357600080fd5b505afa158015611187573d6000803e3d6000fd5b505050506040513d602081101561119d57600080fd5b5051600381905560408051808201909152601981527870656e64696e6720626f72726f77696e67207261746520697360381b60208201529091506111e190826113ff565b60006111f3868363ffffffff61136416565b905060006112178461120b898d63ffffffff61126816565b9063ffffffff61136416565b919c919b50909950505050505050505050565b60025481565b600560208190526000918252604090912080546001820154600283015460038401546004850154949095015492949193909260ff1686565b60006112aa83836040518060400160405280601e81526020017f536166654d6174683a207375627472616374696f6e206f766572666c6f7700008152506114b1565b90505b92915050565b6000828201838110156112aa576040805162461bcd60e51b815260206004820152601b60248201527f536166654d6174683a206164646974696f6e206f766572666c6f770000000000604482015290519081900360640190fd5b604080516001600160a01b038416602482015260448082018490528251808303909101815260649091019091526020810180516001600160e01b031663a9059cbb60e01b17905261135f908490611548565b505050565b600082611373575060006112ad565b8282028284828161138057fe5b04146112aa5760405162461bcd60e51b81526004018080602001828103825260218152602001806118926021913960400191505060405180910390fd5b60006112aa83836040518060400160405280601a81526020017f536166654d6174683a206469766973696f6e206279207a65726f000000000000815250611706565b6114ad82826040516024018080602001838152602001828103825284818151815260200191508051906020019080838360005b8381101561144a578181015183820152602001611432565b50505050905090810190601f1680156114775780820380516001836020036101000a031916815260200191505b5060408051601f198184030181529190526020810180516001600160e01b03166309710a9d60e41b179052935061176b92505050565b5050565b600081848411156115405760405162461bcd60e51b81526004018080602001828103825283818151815260200191508051906020019080838360005b838110156115055781810151838201526020016114ed565b50505050905090810190601f1680156115325780820380516001836020036101000a031916815260200191505b509250505060405180910390fd5b505050900390565b61155a826001600160a01b031661178c565b6115ab576040805162461bcd60e51b815260206004820152601f60248201527f5361666545524332303a2063616c6c20746f206e6f6e2d636f6e747261637400604482015290519081900360640190fd5b60006060836001600160a01b0316836040518082805190602001908083835b602083106115e95780518252601f1990920191602091820191016115ca565b6001836020036101000a0380198251168184511680821785525050505050509050019150506000604051808303816000865af19150503d806000811461164b576040519150601f19603f3d011682016040523d82523d6000602084013e611650565b606091505b5091509150816116a7576040805162461bcd60e51b815260206004820181905260248201527f5361666545524332303a206c6f772d6c6576656c2063616c6c206661696c6564604482015290519081900360640190fd5b805115611700578080602001905160208110156116c357600080fd5b50516117005760405162461bcd60e51b815260040180806020018281038252602a8152602001806118b3602a913960400191505060405180910390fd5b50505050565b600081836117555760405162461bcd60e51b81526020600482018181528351602484015283519092839260449091019190850190808383600083156115055781810151838201526020016114ed565b50600083858161176157fe5b0495945050505050565b80516a636f6e736f6c652e6c6f67602083016000808483855afa5050505050565b6000813f7fc5d2460186f7233c927e7db2dcc703c0e500b653ca82273b7bfad8045d85a4708181148015906117c057508115155b949350505050565b6040518060c001604052806000815260200160008152602001600081526020016000815260200160008152602001600015158152509056fe4d617267696e506f6f6c3a20696e73756666696369656e74206d617267696e20616d6f756e744d617267696e506f6f6c3a20626f72726f77206475726174696f6e2068617320657863656564656420796f752077696c6c206265206c6971756964617465644d617267696e506f6f6c3a20626f72726f7765722068617320626f72726f7765642070726576696f75736c79536166654d6174683a206d756c7469706c69636174696f6e206f766572666c6f775361666545524332303a204552433230206f7065726174696f6e20646964206e6f7420737563636565644d617267696e506f6f6c3a20696e73756666696369656e74206465627420616c6c6f77616e6365a2646970667358221220f55cc208049111970c0751da674af16b78d5bd3a092cd1d3f406be4699b252f164736f6c63430006070033",
  "linkReferences": {},
  "deployedLinkReferences": {}
}