{
  "_format": "hh-sol-artifact-1",
  "contractName": "MarginPool",
  "sourceName": "contracts/MarginPool.sol",
  "abi": [
    {
      "inputs": [
        {
          "internalType": "address",
          "name": "_creditPool",
          "type": "address"
        },
        {
          "internalType": "uint256",
          "name": "_minSolvencyRatio",
          "type": "uint256"
        },
        {
          "internalType": "address",
          "name": "_interestRateStrategy",
          "type": "address"
        }
      ],
      "stateMutability": "nonpayable",
      "type": "constructor"
    },
    {
      "inputs": [
        {
          "internalType": "address",
          "name": "_asset",
          "type": "address"
        },
        {
          "internalType": "uint256",
          "name": "_ytokenBalance",
          "type": "uint256"
        }
      ],
      "name": "calculateRewardSplit",
      "outputs": [
        {
          "internalType": "uint256",
          "name": "",
          "type": "uint256"
        },
        {
          "internalType": "uint256",
          "name": "",
          "type": "uint256"
        }
      ],
      "stateMutability": "nonpayable",
      "type": "function"
    },
    {
      "inputs": [],
      "name": "creditPool",
      "outputs": [
        {
          "internalType": "address",
          "name": "",
          "type": "address"
        }
      ],
      "stateMutability": "view",
      "type": "function"
    },
    {
      "inputs": [
        {
          "internalType": "address",
          "name": "",
          "type": "address"
        }
      ],
      "name": "delegateeDeposits",
      "outputs": [
        {
          "internalType": "uint256",
          "name": "duration",
          "type": "uint256"
        },
        {
          "internalType": "uint256",
          "name": "margin",
          "type": "uint256"
        },
        {
          "internalType": "uint256",
          "name": "investment",
          "type": "uint256"
        },
        {
          "internalType": "uint256",
          "name": "solvencyRatio",
          "type": "uint256"
        },
        {
          "internalType": "uint256",
          "name": "interestAmount",
          "type": "uint256"
        },
        {
          "internalType": "bool",
          "name": "hasBorrowed",
          "type": "bool"
        }
      ],
      "stateMutability": "view",
      "type": "function"
    },
    {
      "inputs": [
        {
          "internalType": "uint256",
          "name": "_ytokenBalance",
          "type": "uint256"
        }
      ],
      "name": "getYearnVaultLiquidityValue",
      "outputs": [
        {
          "internalType": "uint256",
          "name": "",
          "type": "uint256"
        }
      ],
      "stateMutability": "nonpayable",
      "type": "function"
    },
    {
      "inputs": [],
      "name": "interestRateStrategy",
      "outputs": [
        {
          "internalType": "contract InterestRateStrategy",
          "name": "",
          "type": "address"
        }
      ],
      "stateMutability": "view",
      "type": "function"
    },
    {
      "inputs": [
        {
          "internalType": "uint256",
          "name": "_amount",
          "type": "uint256"
        },
        {
          "internalType": "address",
          "name": "_asset",
          "type": "address"
        },
        {
          "internalType": "uint256",
          "name": "_marginAmount",
          "type": "uint256"
        },
        {
          "internalType": "uint256",
          "name": "_interestAmount",
          "type": "uint256"
        },
        {
          "internalType": "uint256",
          "name": "_duration",
          "type": "uint256"
        }
      ],
      "name": "invest",
      "outputs": [],
      "stateMutability": "nonpayable",
      "type": "function"
    },
    {
      "inputs": [],
      "name": "minSolvencyRatio",
      "outputs": [
        {
          "internalType": "uint256",
          "name": "",
          "type": "uint256"
        }
      ],
      "stateMutability": "view",
      "type": "function"
    },
    {
      "inputs": [
        {
          "internalType": "address",
          "name": "_asset",
          "type": "address"
        },
        {
          "internalType": "uint256",
          "name": "_ytokenBalance",
          "type": "uint256"
        }
      ],
      "name": "repay",
      "outputs": [],
      "stateMutability": "nonpayable",
      "type": "function"
    },
    {
      "inputs": [],
      "name": "totalBorrowedAmount",
      "outputs": [
        {
          "internalType": "uint256",
          "name": "",
          "type": "uint256"
        }
      ],
      "stateMutability": "view",
      "type": "function"
    }
  ],
  "bytecode": "0x608060405234801561001057600080fd5b506040516116cd3803806116cd8339818101604052606081101561003357600080fd5b5080516020820151604090920151600080546001600160a01b039384166001600160a01b031991821617909155600193909355600480549290911691909216179055611649806100846000396000f3fe608060405234801561001057600080fd5b50600436106100935760003560e01c8063a67367fd11610066578063a67367fd14610137578063ac7251e714610166578063c4fff0bc1461016e578063d74acb6e146101ac578063fd67ecfb146101b457610093565b806322867d78146100985780632ff1ab95146100c65780633e074608146100ea5780636a129aaa146100f2575b600080fd5b6100c4600480360360408110156100ae57600080fd5b506001600160a01b03813516906020013561020f565b005b6100ce610417565b604080516001600160a01b039092168252519081900360200190f35b6100ce610426565b61011e6004803603604081101561010857600080fd5b506001600160a01b038135169060200135610435565b6040805192835260208301919091528051918290030190f35b6101546004803603602081101561014d57600080fd5b5035610624565b60408051918252519081900360200190f35b610154610a85565b6100c4600480360360a081101561018457600080fd5b508035906001600160a01b036020820135169060408101359060608101359060800135610a8b565b61015461100a565b6101da600480360360208110156101ca57600080fd5b50356001600160a01b0316611010565b6040805196875260208701959095528585019390935260608501919091526080840152151560a0830152519081900360c00190f35b3360009081526003602052604090208054421061025d5760405162461bcd60e51b815260040180806020018281038252603f815260200180611537603f913960400191505060405180910390fd5b6000808255600182018054908290556002830180546004850184905590839055600384019290925560058301805460ff19169055906102a2818363ffffffff61104b16565b6002805491909103905560408051632e1a7d4d60e01b815260048101869052905173acd43e627e64355f1861cec6d3a6688b31a6f95291632e1a7d4d91602480830192600092919082900301818387803b1580156102ff57600080fd5b505af1158015610313573d6000803e3d6000fd5b505050506000806103248787610435565b9092509050737d2768de32b0b80b7a3454c06bdac94a69ddc7a963573ade8188610354858863ffffffff61104b16565b60008054604080516001600160e01b031960e088901b1681526001600160a01b03958616600482015260248101949094526001604485015293166064830152915160848083019360209383900390910190829087803b1580156103b657600080fd5b505af11580156103ca573d6000803e3d6000fd5b505050506040513d60208110156103e057600080fd5b5061040e9050336103f7868463ffffffff61109616565b6001600160a01b038a16919063ffffffff6110f016565b50505050505050565b6000546001600160a01b031681565b6004546001600160a01b031681565b600080600061044384610624565b604080516334924edb60e21b81526001600160a01b0388166004820152905191925060009173057835ad21a177dbdd3090bb1cae03eacf78fc6d9163d2493b6c916024808301926060929190829003018186803b1580156104a357600080fd5b505afa1580156104b7573d6000803e3d6000fd5b505050506040513d60608110156104cd57600080fd5b50516000805460408051631af5db4960e21b81526001600160a01b0392831660048201523060248201529051939450919290841691636bd76d24916044808301926020929190829003018186803b15801561052757600080fd5b505afa15801561053b573d6000803e3d6000fd5b505050506040513d602081101561055157600080fd5b50516004805460025460408051635bc68f6d60e01b81529384019190915260248301849052519293506000926001600160a01b0390911691635bc68f6d916044808301926020929190829003018186803b1580156105ae57600080fd5b505afa1580156105c2573d6000803e3d6000fd5b505050506040513d60208110156105d857600080fd5b5051905060006105ff6105f260018463ffffffff61104b16565b869063ffffffff61114716565b90506000610613868463ffffffff61114716565b919a91995090975050505050505050565b60008073acd43e627e64355f1861cec6d3a6688b31a6f9526001600160a01b031663f77c47916040518163ffffffff1660e01b815260040160206040518083038186803b15801561067457600080fd5b505afa158015610688573d6000803e3d6000fd5b505050506040513d602081101561069e57600080fd5b505160408051637e062a3560e11b8152905191925060009173acd43e627e64355f1861cec6d3a6688b31a6f9529163fc0c546a916004808301926020929190829003018186803b1580156106f157600080fd5b505afa158015610705573d6000803e3d6000fd5b505050506040513d602081101561071b57600080fd5b5051604080516318160ddd60e01b815290519192506000916108349173acd43e627e64355f1861cec6d3a6688b31a6f952916318160ddd91600480820192602092909190829003018186803b15801561077357600080fd5b505afa158015610787573d6000803e3d6000fd5b505050506040513d602081101561079d57600080fd5b5051604080516316d3df1560e31b8152905161082891899173acd43e627e64355f1861cec6d3a6688b31a6f9529163b69ef8a8916004808301926020929190829003018186803b1580156107f057600080fd5b505afa158015610804573d6000803e3d6000fd5b505050506040513d602081101561081a57600080fd5b50519063ffffffff61114716565b9063ffffffff6111a016565b604080516370a0823160e01b815230600482015290519192506000916001600160a01b038516916370a08231916024808301926020929190829003018186803b15801561088057600080fd5b505afa158015610894573d6000803e3d6000fd5b505050506040513d60208110156108aa57600080fd5b50519050818110156109ed5760006108c8838363ffffffff61104b16565b9050846001600160a01b031663f3fef3a385836040518363ffffffff1660e01b815260040180836001600160a01b03166001600160a01b0316815260200182815260200192505050600060405180830381600087803b15801561092a57600080fd5b505af115801561093e573d6000803e3d6000fd5b5050604080516370a0823160e01b81523060048201529051600093506001600160a01b03881692506370a0823191602480820192602092909190829003018186803b15801561098c57600080fd5b505afa1580156109a0573d6000803e3d6000fd5b505050506040513d60208110156109b657600080fd5b5051905060006109cc828563ffffffff61104b16565b9050828110156109e9576109e6858263ffffffff61109616565b94505b5050505b600073aed0c38402a5d19df6e4c03f4e2dced6e29c1ee96001600160a01b03166350d25bcd6040518163ffffffff1660e01b815260040160206040518083038186803b158015610a3c57600080fd5b505afa158015610a50573d6000803e3d6000fd5b505050506040513d6020811015610a6657600080fd5b50519050610a7a818463ffffffff61114716565b979650505050505050565b60015481565b604080516334924edb60e21b81526001600160a01b0386166004820152905160009173057835ad21a177dbdd3090bb1cae03eacf78fc6d9163d2493b6c91602480820192606092909190829003018186803b158015610ae957600080fd5b505afa158015610afd573d6000803e3d6000fd5b505050506040513d6060811015610b1357600080fd5b50516000805460408051631af5db4960e21b81526001600160a01b0392831660048201523060248201529051939450919290841691636bd76d24916044808301926020929190829003018186803b158015610b6d57600080fd5b505afa158015610b81573d6000803e3d6000fd5b505050506040513d6020811015610b9757600080fd5b5051600254909150811015610bdd5760405162461bcd60e51b81526004018080602001828103825260278152602001806115ed6027913960400191505060405180910390fd5b6000610c1588610828610bf6898963ffffffff61109616565b610c098c620186a063ffffffff61114716565b9063ffffffff61109616565b600154909150610c2e90620186a063ffffffff61114716565b811015610c6c5760405162461bcd60e51b81526004018080602001828103825260268152602001806115116026913960400191505060405180910390fd5b6000610c7e428663ffffffff61109616565b9050610c886114d8565b5033600090815260036020818152604092839020835160c081018552815481526001820154928101929092526002810154938201939093529082015460608201526004820154608082015260059091015460ff1615801560a0830152610d1f5760405162461bcd60e51b815260040180806020018281038252602c815260200180611576602c913960400191505060405180910390fd5b6040805160c081018252838152602081018a9052908101610d56610d498b8b63ffffffff61109616565b8d9063ffffffff61109616565b81526020018481526020018881526020016001151581525060036000336001600160a01b03166001600160a01b03168152602001908152602001600020600082015181600001556020820151816001015560408201518160020155606082015181600301556080820151816004015560a08201518160050160006101000a81548160ff02191690831515021790555090505089600260008282540192505081905550737d2768de32b0b80b7a3454c06bdac94a69ddc7a96001600160a01b031663a415bcad8a8c600160008060009054906101000a90046001600160a01b03166040518663ffffffff1660e01b815260040180866001600160a01b03166001600160a01b031681526020018581526020018481526020018361ffff168152602001826001600160a01b03166001600160a01b0316815260200195505050505050600060405180830381600087803b158015610eb057600080fd5b505af1158015610ec4573d6000803e3d6000fd5b5050506001600160a01b038a16905063095ea7b373acd43e627e64355f1861cec6d3a6688b31a6f952610f07610efa8c8c611096565b8e9063ffffffff61109616565b6040518363ffffffff1660e01b815260040180836001600160a01b03166001600160a01b0316815260200182815260200192505050602060405180830381600087803b158015610f5657600080fd5b505af1158015610f6a573d6000803e3d6000fd5b505050506040513d6020811015610f8057600080fd5b5073acd43e627e64355f1861cec6d3a6688b31a6f952905063b6b55f25610fb0610d498b8b63ffffffff61109616565b6040518263ffffffff1660e01b815260040180828152602001915050600060405180830381600087803b158015610fe657600080fd5b505af1158015610ffa573d6000803e3d6000fd5b5050505050505050505050505050565b60025481565b600360208190526000918252604090912080546001820154600283015493830154600484015460059094015492949193919290919060ff1686565b600061108d83836040518060400160405280601e81526020017f536166654d6174683a207375627472616374696f6e206f766572666c6f7700008152506111e2565b90505b92915050565b60008282018381101561108d576040805162461bcd60e51b815260206004820152601b60248201527f536166654d6174683a206164646974696f6e206f766572666c6f770000000000604482015290519081900360640190fd5b604080516001600160a01b038416602482015260448082018490528251808303909101815260649091019091526020810180516001600160e01b031663a9059cbb60e01b179052611142908490611279565b505050565b60008261115657506000611090565b8282028284828161116357fe5b041461108d5760405162461bcd60e51b81526004018080602001828103825260218152602001806115a26021913960400191505060405180910390fd5b600061108d83836040518060400160405280601a81526020017f536166654d6174683a206469766973696f6e206279207a65726f000000000000815250611437565b600081848411156112715760405162461bcd60e51b81526004018080602001828103825283818151815260200191508051906020019080838360005b8381101561123657818101518382015260200161121e565b50505050905090810190601f1680156112635780820380516001836020036101000a031916815260200191505b509250505060405180910390fd5b505050900390565b61128b826001600160a01b031661149c565b6112dc576040805162461bcd60e51b815260206004820152601f60248201527f5361666545524332303a2063616c6c20746f206e6f6e2d636f6e747261637400604482015290519081900360640190fd5b60006060836001600160a01b0316836040518082805190602001908083835b6020831061131a5780518252601f1990920191602091820191016112fb565b6001836020036101000a0380198251168184511680821785525050505050509050019150506000604051808303816000865af19150503d806000811461137c576040519150601f19603f3d011682016040523d82523d6000602084013e611381565b606091505b5091509150816113d8576040805162461bcd60e51b815260206004820181905260248201527f5361666545524332303a206c6f772d6c6576656c2063616c6c206661696c6564604482015290519081900360640190fd5b805115611431578080602001905160208110156113f457600080fd5b50516114315760405162461bcd60e51b815260040180806020018281038252602a8152602001806115c3602a913960400191505060405180910390fd5b50505050565b600081836114865760405162461bcd60e51b815260206004820181815283516024840152835190928392604490910191908501908083836000831561123657818101518382015260200161121e565b50600083858161149257fe5b0495945050505050565b6000813f7fc5d2460186f7233c927e7db2dcc703c0e500b653ca82273b7bfad8045d85a4708181148015906114d057508115155b949350505050565b6040518060c001604052806000815260200160008152602001600081526020016000815260200160008152602001600015158152509056fe4d617267696e506f6f6c3a20696e73756666696369656e74206d617267696e20616d6f756e744d617267696e506f6f6c3a20626f72726f77206475726174696f6e2068617320657863656564656420796f752077696c6c206265206c6971756964617465644d617267696e506f6f6c3a20626f72726f7765722068617320626f72726f7765642070726576696f75736c79536166654d6174683a206d756c7469706c69636174696f6e206f766572666c6f775361666545524332303a204552433230206f7065726174696f6e20646964206e6f7420737563636565644d617267696e506f6f6c3a20696e73756666696369656e74206465627420616c6c6f77616e6365a26469706673582212205878972608a6fc507490390593d0dfb5b6f096ea2186660c1b4c0853a1b4a9a264736f6c63430006070033",
  "linkReferences": {},
  "deployedLinkReferences": {}
}