{
  "_format": "hh-sol-artifact-1",
  "contractName": "MarginPool",
  "sourceName": "contracts/MarginPool.sol",
  "abi": [
    {
      "inputs": [
        {
          "internalType": "address",
          "name": "_creditPool",
          "type": "address"
        },
        {
          "internalType": "uint256",
          "name": "_minSolvencyRatio",
          "type": "uint256"
        },
        {
          "internalType": "address",
          "name": "_interestRateStrategy",
          "type": "address"
        }
      ],
      "stateMutability": "nonpayable",
      "type": "constructor"
    },
    {
      "inputs": [
        {
          "internalType": "address",
          "name": "_asset",
          "type": "address"
        },
        {
          "internalType": "uint256",
          "name": "_ytokenBalance",
          "type": "uint256"
        },
        {
          "internalType": "uint256",
          "name": "_investedAmount",
          "type": "uint256"
        }
      ],
      "name": "calculateRewardSplit",
      "outputs": [
        {
          "internalType": "uint256",
          "name": "",
          "type": "uint256"
        },
        {
          "internalType": "uint256",
          "name": "",
          "type": "uint256"
        }
      ],
      "stateMutability": "nonpayable",
      "type": "function"
    },
    {
      "inputs": [],
      "name": "creditPool",
      "outputs": [
        {
          "internalType": "address",
          "name": "",
          "type": "address"
        }
      ],
      "stateMutability": "view",
      "type": "function"
    },
    {
      "inputs": [
        {
          "internalType": "address",
          "name": "",
          "type": "address"
        }
      ],
      "name": "delegateeDeposits",
      "outputs": [
        {
          "internalType": "uint256",
          "name": "duration",
          "type": "uint256"
        },
        {
          "internalType": "uint256",
          "name": "margin",
          "type": "uint256"
        },
        {
          "internalType": "uint256",
          "name": "investment",
          "type": "uint256"
        },
        {
          "internalType": "uint256",
          "name": "solvencyRatio",
          "type": "uint256"
        },
        {
          "internalType": "uint256",
          "name": "interestAmount",
          "type": "uint256"
        },
        {
          "internalType": "bool",
          "name": "hasBorrowed",
          "type": "bool"
        }
      ],
      "stateMutability": "view",
      "type": "function"
    },
    {
      "inputs": [],
      "name": "getTotalBorrowed",
      "outputs": [
        {
          "internalType": "uint256",
          "name": "",
          "type": "uint256"
        }
      ],
      "stateMutability": "view",
      "type": "function"
    },
    {
      "inputs": [
        {
          "internalType": "uint256",
          "name": "_ytokenBalance",
          "type": "uint256"
        }
      ],
      "name": "getYearnVaultLiquidityValue",
      "outputs": [
        {
          "internalType": "uint256",
          "name": "",
          "type": "uint256"
        }
      ],
      "stateMutability": "nonpayable",
      "type": "function"
    },
    {
      "inputs": [],
      "name": "interestRateStrategy",
      "outputs": [
        {
          "internalType": "contract InterestRateStrategy",
          "name": "",
          "type": "address"
        }
      ],
      "stateMutability": "view",
      "type": "function"
    },
    {
      "inputs": [
        {
          "internalType": "uint256",
          "name": "_amount",
          "type": "uint256"
        },
        {
          "internalType": "address",
          "name": "_asset",
          "type": "address"
        },
        {
          "internalType": "uint256",
          "name": "_marginAmount",
          "type": "uint256"
        },
        {
          "internalType": "uint256",
          "name": "_interestAmount",
          "type": "uint256"
        },
        {
          "internalType": "uint256",
          "name": "_duration",
          "type": "uint256"
        }
      ],
      "name": "invest",
      "outputs": [],
      "stateMutability": "nonpayable",
      "type": "function"
    },
    {
      "inputs": [],
      "name": "minSolvencyRatio",
      "outputs": [
        {
          "internalType": "uint256",
          "name": "",
          "type": "uint256"
        }
      ],
      "stateMutability": "view",
      "type": "function"
    },
    {
      "inputs": [
        {
          "internalType": "address",
          "name": "_asset",
          "type": "address"
        },
        {
          "internalType": "uint256",
          "name": "_ytokenBalance",
          "type": "uint256"
        }
      ],
      "name": "repay",
      "outputs": [],
      "stateMutability": "nonpayable",
      "type": "function"
    },
    {
      "inputs": [],
      "name": "totalBorrowedAmount",
      "outputs": [
        {
          "internalType": "uint256",
          "name": "",
          "type": "uint256"
        }
      ],
      "stateMutability": "view",
      "type": "function"
    }
  ],
  "bytecode": "0x608060405234801561001057600080fd5b5060405161174b38038061174b8339818101604052606081101561003357600080fd5b5080516020820151604090920151600080546001600160a01b039384166001600160a01b0319918216179091556001939093556004805492909116919092161790556116c7806100846000396000f3fe608060405234801561001057600080fd5b506004361061009e5760003560e01c8063ac7251e711610066578063ac7251e714610134578063c4fff0bc1461013c578063d5c344531461017a578063d74acb6e146101c5578063fd67ecfb146101cd5761009e565b80630307c4a1146100a357806322867d78146100bd5780632ff1ab95146100eb5780633e0746081461010f578063a67367fd14610117575b600080fd5b6100ab610228565b60408051918252519081900360200190f35b6100e9600480360360408110156100d357600080fd5b506001600160a01b03813516906020013561022e565b005b6100f3610437565b604080516001600160a01b039092168252519081900360200190f35b6100f3610446565b6100ab6004803603602081101561012d57600080fd5b5035610455565b6100ab6108b6565b6100e9600480360360a081101561015257600080fd5b508035906001600160a01b0360208201351690604081013590606081013590608001356108bc565b6101ac6004803603606081101561019057600080fd5b506001600160a01b038135169060208101359060400135610e86565b6040805192835260208301919091528051918290030190f35b6100ab611088565b6101f3600480360360208110156101e357600080fd5b50356001600160a01b031661108e565b6040805196875260208701959095528585019390935260608501919091526080840152151560a0830152519081900360c00190f35b60025490565b3360009081526003602052604090208054421061027c5760405162461bcd60e51b815260040180806020018281038252603f8152602001806115b5603f913960400191505060405180910390fd5b6000808255600182018054908290556002830180546004850184905590839055600384019290925560058301805460ff19169055906102c1818363ffffffff6110c916565b6002805491909103905560408051632e1a7d4d60e01b815260048101869052905173acd43e627e64355f1861cec6d3a6688b31a6f95291632e1a7d4d91602480830192600092919082900301818387803b15801561031e57600080fd5b505af1158015610332573d6000803e3d6000fd5b50505050600080610344878785610e86565b9092509050737d2768de32b0b80b7a3454c06bdac94a69ddc7a963573ade8188610374858863ffffffff6110c916565b60008054604080516001600160e01b031960e088901b1681526001600160a01b03958616600482015260248101949094526001604485015293166064830152915160848083019360209383900390910190829087803b1580156103d657600080fd5b505af11580156103ea573d6000803e3d6000fd5b505050506040513d602081101561040057600080fd5b5061042e905033610417868463ffffffff61111416565b6001600160a01b038a16919063ffffffff61116e16565b50505050505050565b6000546001600160a01b031681565b6004546001600160a01b031681565b60008073acd43e627e64355f1861cec6d3a6688b31a6f9526001600160a01b031663f77c47916040518163ffffffff1660e01b815260040160206040518083038186803b1580156104a557600080fd5b505afa1580156104b9573d6000803e3d6000fd5b505050506040513d60208110156104cf57600080fd5b505160408051637e062a3560e11b8152905191925060009173acd43e627e64355f1861cec6d3a6688b31a6f9529163fc0c546a916004808301926020929190829003018186803b15801561052257600080fd5b505afa158015610536573d6000803e3d6000fd5b505050506040513d602081101561054c57600080fd5b5051604080516318160ddd60e01b815290519192506000916106659173acd43e627e64355f1861cec6d3a6688b31a6f952916318160ddd91600480820192602092909190829003018186803b1580156105a457600080fd5b505afa1580156105b8573d6000803e3d6000fd5b505050506040513d60208110156105ce57600080fd5b5051604080516316d3df1560e31b8152905161065991899173acd43e627e64355f1861cec6d3a6688b31a6f9529163b69ef8a8916004808301926020929190829003018186803b15801561062157600080fd5b505afa158015610635573d6000803e3d6000fd5b505050506040513d602081101561064b57600080fd5b50519063ffffffff6111c516565b9063ffffffff61121e16565b604080516370a0823160e01b815230600482015290519192506000916001600160a01b038516916370a08231916024808301926020929190829003018186803b1580156106b157600080fd5b505afa1580156106c5573d6000803e3d6000fd5b505050506040513d60208110156106db57600080fd5b505190508181101561081e5760006106f9838363ffffffff6110c916565b9050846001600160a01b031663f3fef3a385836040518363ffffffff1660e01b815260040180836001600160a01b03166001600160a01b0316815260200182815260200192505050600060405180830381600087803b15801561075b57600080fd5b505af115801561076f573d6000803e3d6000fd5b5050604080516370a0823160e01b81523060048201529051600093506001600160a01b03881692506370a0823191602480820192602092909190829003018186803b1580156107bd57600080fd5b505afa1580156107d1573d6000803e3d6000fd5b505050506040513d60208110156107e757600080fd5b5051905060006107fd828563ffffffff6110c916565b90508281101561081a57610817858263ffffffff61111416565b94505b5050505b600073aed0c38402a5d19df6e4c03f4e2dced6e29c1ee96001600160a01b03166350d25bcd6040518163ffffffff1660e01b815260040160206040518083038186803b15801561086d57600080fd5b505afa158015610881573d6000803e3d6000fd5b505050506040513d602081101561089757600080fd5b505190506108ab818463ffffffff6111c516565b979650505050505050565b60015481565b604080516334924edb60e21b81526001600160a01b0386166004820152905160009173057835ad21a177dbdd3090bb1cae03eacf78fc6d9163d2493b6c91602480820192606092909190829003018186803b15801561091a57600080fd5b505afa15801561092e573d6000803e3d6000fd5b505050506040513d606081101561094457600080fd5b506020908101516000805460408051631af5db4960e21b81526001600160a01b0392831660048201523060248201529051939550919390851692636bd76d24926044808201939291829003018186803b1580156109a057600080fd5b505afa1580156109b4573d6000803e3d6000fd5b505050506040513d60208110156109ca57600080fd5b5051600254909150811015610a105760405162461bcd60e51b815260040180806020018281038252602781526020018061166b6027913960400191505060405180910390fd5b6000610a4888610659610a29898963ffffffff61111416565b610a3c8c620186a063ffffffff6111c516565b9063ffffffff61111416565b600154909150610a6190620186a063ffffffff6111c516565b811015610a9f5760405162461bcd60e51b815260040180806020018281038252602681526020018061158f6026913960400191505060405180910390fd5b6000610ab1428663ffffffff61111416565b9050610abb611556565b5033600090815260036020818152604092839020835160c081018552815481526001820154928101929092526002810154938201939093529082015460608201526004820154608082015260059091015460ff1615801560a0830152610b525760405162461bcd60e51b815260040180806020018281038252602c8152602001806115f4602c913960400191505060405180910390fd5b6040805160c081018252838152602081018a9052908101610b89610b7c8b8b63ffffffff61111416565b8d9063ffffffff61111416565b8152602080820186905260408083018b90526001606093840181905233600081815260038086529084902087518155948701519285019290925591850151600284015592840151928201929092556080830151600482015560a0909201516005909201805460ff1916921515929092179091556001600160a01b038a16906323b872dd9030610c188c8c611114565b6040518463ffffffff1660e01b815260040180846001600160a01b03166001600160a01b03168152602001836001600160a01b03166001600160a01b031681526020018281526020019350505050602060405180830381600087803b158015610c8057600080fd5b505af1158015610c94573d6000803e3d6000fd5b505050506040513d6020811015610caa57600080fd5b5050600280548b019055600080546040805163a415bcad60e01b81526001600160a01b038d81166004830152602482018f90526001604483015260648201859052909216608483015251737d2768de32b0b80b7a3454c06bdac94a69ddc7a99263a415bcad9260a4808201939182900301818387803b158015610d2c57600080fd5b505af1158015610d40573d6000803e3d6000fd5b5050506001600160a01b038a16905063095ea7b373acd43e627e64355f1861cec6d3a6688b31a6f952610d83610d768c8c611114565b8e9063ffffffff61111416565b6040518363ffffffff1660e01b815260040180836001600160a01b03166001600160a01b0316815260200182815260200192505050602060405180830381600087803b158015610dd257600080fd5b505af1158015610de6573d6000803e3d6000fd5b505050506040513d6020811015610dfc57600080fd5b5073acd43e627e64355f1861cec6d3a6688b31a6f952905063b6b55f25610e2c610b7c8b8b63ffffffff61111416565b6040518263ffffffff1660e01b815260040180828152602001915050600060405180830381600087803b158015610e6257600080fd5b505af1158015610e76573d6000803e3d6000fd5b5050505050505050505050505050565b6000806000610e9485610455565b604080516334924edb60e21b81526001600160a01b0389166004820152905191925060009173057835ad21a177dbdd3090bb1cae03eacf78fc6d9163d2493b6c916024808301926060929190829003018186803b158015610ef457600080fd5b505afa158015610f08573d6000803e3d6000fd5b505050506040513d6060811015610f1e57600080fd5b506020908101516000805460408051631af5db4960e21b81526001600160a01b0392831660048201523060248201529051939550919390851692636bd76d24926044808201939291829003018186803b158015610f7a57600080fd5b505afa158015610f8e573d6000803e3d6000fd5b505050506040513d6020811015610fa457600080fd5b50516004805460025460408051635bc68f6d60e01b81529384019190915260248301849052519293506000926001600160a01b0390911691635bc68f6d916044808301926020929190829003018186803b15801561100157600080fd5b505afa158015611015573d6000803e3d6000fd5b505050506040513d602081101561102b57600080fd5b50519050600061105261104560018463ffffffff6110c916565b869063ffffffff6111c516565b905060006110768361106a888c63ffffffff6110c916565b9063ffffffff6111c516565b919b919a509098505050505050505050565b60025481565b600360208190526000918252604090912080546001820154600283015493830154600484015460059094015492949193919290919060ff1686565b600061110b83836040518060400160405280601e81526020017f536166654d6174683a207375627472616374696f6e206f766572666c6f770000815250611260565b90505b92915050565b60008282018381101561110b576040805162461bcd60e51b815260206004820152601b60248201527f536166654d6174683a206164646974696f6e206f766572666c6f770000000000604482015290519081900360640190fd5b604080516001600160a01b038416602482015260448082018490528251808303909101815260649091019091526020810180516001600160e01b031663a9059cbb60e01b1790526111c09084906112f7565b505050565b6000826111d45750600061110e565b828202828482816111e157fe5b041461110b5760405162461bcd60e51b81526004018080602001828103825260218152602001806116206021913960400191505060405180910390fd5b600061110b83836040518060400160405280601a81526020017f536166654d6174683a206469766973696f6e206279207a65726f0000000000008152506114b5565b600081848411156112ef5760405162461bcd60e51b81526004018080602001828103825283818151815260200191508051906020019080838360005b838110156112b457818101518382015260200161129c565b50505050905090810190601f1680156112e15780820380516001836020036101000a031916815260200191505b509250505060405180910390fd5b505050900390565b611309826001600160a01b031661151a565b61135a576040805162461bcd60e51b815260206004820152601f60248201527f5361666545524332303a2063616c6c20746f206e6f6e2d636f6e747261637400604482015290519081900360640190fd5b60006060836001600160a01b0316836040518082805190602001908083835b602083106113985780518252601f199092019160209182019101611379565b6001836020036101000a0380198251168184511680821785525050505050509050019150506000604051808303816000865af19150503d80600081146113fa576040519150601f19603f3d011682016040523d82523d6000602084013e6113ff565b606091505b509150915081611456576040805162461bcd60e51b815260206004820181905260248201527f5361666545524332303a206c6f772d6c6576656c2063616c6c206661696c6564604482015290519081900360640190fd5b8051156114af5780806020019051602081101561147257600080fd5b50516114af5760405162461bcd60e51b815260040180806020018281038252602a815260200180611641602a913960400191505060405180910390fd5b50505050565b600081836115045760405162461bcd60e51b81526020600482018181528351602484015283519092839260449091019190850190808383600083156112b457818101518382015260200161129c565b50600083858161151057fe5b0495945050505050565b6000813f7fc5d2460186f7233c927e7db2dcc703c0e500b653ca82273b7bfad8045d85a47081811480159061154e57508115155b949350505050565b6040518060c001604052806000815260200160008152602001600081526020016000815260200160008152602001600015158152509056fe4d617267696e506f6f6c3a20696e73756666696369656e74206d617267696e20616d6f756e744d617267696e506f6f6c3a20626f72726f77206475726174696f6e2068617320657863656564656420796f752077696c6c206265206c6971756964617465644d617267696e506f6f6c3a20626f72726f7765722068617320626f72726f7765642070726576696f75736c79536166654d6174683a206d756c7469706c69636174696f6e206f766572666c6f775361666545524332303a204552433230206f7065726174696f6e20646964206e6f7420737563636565644d617267696e506f6f6c3a20696e73756666696369656e74206465627420616c6c6f77616e6365a264697066735822122033470b2dbb39d6d3464264620cd70c71275d200a76723a16588cfd490c483a2f64736f6c63430006070033",
  "linkReferences": {},
  "deployedLinkReferences": {}
}