{
  "_format": "hh-sol-artifact-1",
  "contractName": "MarginPool",
  "sourceName": "contracts/MarginPool.sol",
  "abi": [
    {
      "inputs": [
        {
          "internalType": "address",
          "name": "_creditPool",
          "type": "address"
        },
        {
          "internalType": "uint256",
          "name": "_minSolvencyRatio",
          "type": "uint256"
        }
      ],
      "stateMutability": "nonpayable",
      "type": "constructor"
    },
    {
      "inputs": [],
      "name": "creditPool",
      "outputs": [
        {
          "internalType": "address",
          "name": "",
          "type": "address"
        }
      ],
      "stateMutability": "view",
      "type": "function"
    },
    {
      "inputs": [
        {
          "internalType": "address",
          "name": "",
          "type": "address"
        }
      ],
      "name": "delegateeDeposits",
      "outputs": [
        {
          "internalType": "uint256",
          "name": "duration",
          "type": "uint256"
        },
        {
          "internalType": "uint256",
          "name": "margin",
          "type": "uint256"
        },
        {
          "internalType": "uint256",
          "name": "investment",
          "type": "uint256"
        },
        {
          "internalType": "uint256",
          "name": "solvencyRatio",
          "type": "uint256"
        },
        {
          "internalType": "uint256",
          "name": "interestAmount",
          "type": "uint256"
        },
        {
          "internalType": "bool",
          "name": "hasBorrowed",
          "type": "bool"
        }
      ],
      "stateMutability": "view",
      "type": "function"
    },
    {
      "inputs": [
        {
          "internalType": "uint256",
          "name": "_ytokenBalance",
          "type": "uint256"
        }
      ],
      "name": "getYearnVaultLiquidityValue",
      "outputs": [
        {
          "internalType": "uint256",
          "name": "",
          "type": "uint256"
        }
      ],
      "stateMutability": "nonpayable",
      "type": "function"
    },
    {
      "inputs": [
        {
          "internalType": "uint256",
          "name": "_amount",
          "type": "uint256"
        },
        {
          "internalType": "address",
          "name": "_asset",
          "type": "address"
        },
        {
          "internalType": "uint256",
          "name": "_marginAmount",
          "type": "uint256"
        },
        {
          "internalType": "uint256",
          "name": "_interestAmount",
          "type": "uint256"
        },
        {
          "internalType": "uint256",
          "name": "_duration",
          "type": "uint256"
        }
      ],
      "name": "invest",
      "outputs": [],
      "stateMutability": "nonpayable",
      "type": "function"
    },
    {
      "inputs": [],
      "name": "minSolvencyRatio",
      "outputs": [
        {
          "internalType": "uint256",
          "name": "",
          "type": "uint256"
        }
      ],
      "stateMutability": "view",
      "type": "function"
    },
    {
      "inputs": [
        {
          "internalType": "address",
          "name": "_asset",
          "type": "address"
        }
      ],
      "name": "repay",
      "outputs": [],
      "stateMutability": "nonpayable",
      "type": "function"
    },
    {
      "inputs": [],
      "name": "totalBorrowedAmount",
      "outputs": [
        {
          "internalType": "uint256",
          "name": "",
          "type": "uint256"
        }
      ],
      "stateMutability": "view",
      "type": "function"
    }
  ],
  "bytecode": "0x608060405234801561001057600080fd5b506040516114143803806114148339818101604052604081101561003357600080fd5b508051602090910151600080546001600160a01b0319166001600160a01b039093169290921782556001556113a690819061006e90396000f3fe608060405234801561001057600080fd5b506004361061007d5760003560e01c8063ac7251e71161005b578063ac7251e7146100fd578063c4fff0bc14610105578063d74acb6e14610143578063fd67ecfb1461014b5761007d565b80632ff1ab95146100825780639f7c73e9146100a6578063a67367fd146100ce575b600080fd5b61008a6101a6565b604080516001600160a01b039092168252519081900360200190f35b6100cc600480360360208110156100bc57600080fd5b50356001600160a01b03166101b5565b005b6100eb600480360360208110156100e457600080fd5b5035610381565b60408051918252519081900360200190f35b6100eb6107e2565b6100cc600480360360a081101561011b57600080fd5b508035906001600160a01b0360208201351690604081013590606081013590608001356107e8565b6100eb610d67565b6101716004803603602081101561016157600080fd5b50356001600160a01b0316610d6d565b6040805196875260208701959095528585019390935260608501919091526080840152151560a0830152519081900360c00190f35b6000546001600160a01b031681565b336000908152600360205260409020805442106102035760405162461bcd60e51b815260040180806020018281038252603f815260200180611294603f913960400191505060405180910390fd5b6000808255600182018054908290556002830180546004808601805490869055928590556003860185905560058601805460ff1916905560408051632e1a7d4d60e01b8152918201839052519394919373acd43e627e64355f1861cec6d3a6688b31a6f95292632e1a7d4d926024808201939182900301818387803b15801561028b57600080fd5b505af115801561029f573d6000803e3d6000fd5b50737d2768de32b0b80b7a3454c06bdac94a69ddc7a9925063573ade8191508790506102d1858763ffffffff610da816565b60008054604080516001600160e01b031960e088901b1681526001600160a01b03958616600482015260248101949094526001604485015293166064830152915160848083019360209383900390910190829087803b15801561033357600080fd5b505af1158015610347573d6000803e3d6000fd5b505050506040513d602081101561035d57600080fd5b5061037a90506001600160a01b038616338563ffffffff610df316565b5050505050565b60008073acd43e627e64355f1861cec6d3a6688b31a6f9526001600160a01b031663f77c47916040518163ffffffff1660e01b815260040160206040518083038186803b1580156103d157600080fd5b505afa1580156103e5573d6000803e3d6000fd5b505050506040513d60208110156103fb57600080fd5b505160408051637e062a3560e11b8152905191925060009173acd43e627e64355f1861cec6d3a6688b31a6f9529163fc0c546a916004808301926020929190829003018186803b15801561044e57600080fd5b505afa158015610462573d6000803e3d6000fd5b505050506040513d602081101561047857600080fd5b5051604080516318160ddd60e01b815290519192506000916105919173acd43e627e64355f1861cec6d3a6688b31a6f952916318160ddd91600480820192602092909190829003018186803b1580156104d057600080fd5b505afa1580156104e4573d6000803e3d6000fd5b505050506040513d60208110156104fa57600080fd5b5051604080516316d3df1560e31b8152905161058591899173acd43e627e64355f1861cec6d3a6688b31a6f9529163b69ef8a8916004808301926020929190829003018186803b15801561054d57600080fd5b505afa158015610561573d6000803e3d6000fd5b505050506040513d602081101561057757600080fd5b50519063ffffffff610e4a16565b9063ffffffff610ea316565b604080516370a0823160e01b815230600482015290519192506000916001600160a01b038516916370a08231916024808301926020929190829003018186803b1580156105dd57600080fd5b505afa1580156105f1573d6000803e3d6000fd5b505050506040513d602081101561060757600080fd5b505190508181101561074a576000610625838363ffffffff610da816565b9050846001600160a01b031663f3fef3a385836040518363ffffffff1660e01b815260040180836001600160a01b03166001600160a01b0316815260200182815260200192505050600060405180830381600087803b15801561068757600080fd5b505af115801561069b573d6000803e3d6000fd5b5050604080516370a0823160e01b81523060048201529051600093506001600160a01b03881692506370a0823191602480820192602092909190829003018186803b1580156106e957600080fd5b505afa1580156106fd573d6000803e3d6000fd5b505050506040513d602081101561071357600080fd5b505190506000610729828563ffffffff610da816565b90508281101561074657610743858263ffffffff610ee516565b94505b5050505b600073aed0c38402a5d19df6e4c03f4e2dced6e29c1ee96001600160a01b03166350d25bcd6040518163ffffffff1660e01b815260040160206040518083038186803b15801561079957600080fd5b505afa1580156107ad573d6000803e3d6000fd5b505050506040513d60208110156107c357600080fd5b505190506107d7818463ffffffff610e4a16565b979650505050505050565b60015481565b604080516334924edb60e21b81526001600160a01b0386166004820152905160009173057835ad21a177dbdd3090bb1cae03eacf78fc6d9163d2493b6c91602480820192606092909190829003018186803b15801561084657600080fd5b505afa15801561085a573d6000803e3d6000fd5b505050506040513d606081101561087057600080fd5b50516000805460408051631af5db4960e21b81526001600160a01b0392831660048201523060248201529051939450919290841691636bd76d24916044808301926020929190829003018186803b1580156108ca57600080fd5b505afa1580156108de573d6000803e3d6000fd5b505050506040513d60208110156108f457600080fd5b505160025490915081101561093a5760405162461bcd60e51b815260040180806020018281038252602781526020018061134a6027913960400191505060405180910390fd5b600061097288610585610953898963ffffffff610ee516565b6109668c620186a063ffffffff610e4a16565b9063ffffffff610ee516565b60015490915061098b90620186a063ffffffff610e4a16565b8110156109c95760405162461bcd60e51b815260040180806020018281038252602681526020018061126e6026913960400191505060405180910390fd5b60006109db428663ffffffff610ee516565b90506109e5611235565b5033600090815260036020818152604092839020835160c081018552815481526001820154928101929092526002810154938201939093529082015460608201526004820154608082015260059091015460ff1615801560a0830152610a7c5760405162461bcd60e51b815260040180806020018281038252602c8152602001806112d3602c913960400191505060405180910390fd5b6040805160c081018252838152602081018a9052908101610ab3610aa68b8b63ffffffff610ee516565b8d9063ffffffff610ee516565b81526020018481526020018881526020016001151581525060036000336001600160a01b03166001600160a01b03168152602001908152602001600020600082015181600001556020820151816001015560408201518160020155606082015181600301556080820151816004015560a08201518160050160006101000a81548160ff02191690831515021790555090505089600260008282540192505081905550737d2768de32b0b80b7a3454c06bdac94a69ddc7a96001600160a01b031663a415bcad8a8c600160008060009054906101000a90046001600160a01b03166040518663ffffffff1660e01b815260040180866001600160a01b03166001600160a01b031681526020018581526020018481526020018361ffff168152602001826001600160a01b03166001600160a01b0316815260200195505050505050600060405180830381600087803b158015610c0d57600080fd5b505af1158015610c21573d6000803e3d6000fd5b5050506001600160a01b038a16905063095ea7b373acd43e627e64355f1861cec6d3a6688b31a6f952610c64610c578c8c610ee5565b8e9063ffffffff610ee516565b6040518363ffffffff1660e01b815260040180836001600160a01b03166001600160a01b0316815260200182815260200192505050602060405180830381600087803b158015610cb357600080fd5b505af1158015610cc7573d6000803e3d6000fd5b505050506040513d6020811015610cdd57600080fd5b5073acd43e627e64355f1861cec6d3a6688b31a6f952905063b6b55f25610d0d610aa68b8b63ffffffff610ee516565b6040518263ffffffff1660e01b815260040180828152602001915050600060405180830381600087803b158015610d4357600080fd5b505af1158015610d57573d6000803e3d6000fd5b5050505050505050505050505050565b60025481565b600360208190526000918252604090912080546001820154600283015493830154600484015460059094015492949193919290919060ff1686565b6000610dea83836040518060400160405280601e81526020017f536166654d6174683a207375627472616374696f6e206f766572666c6f770000815250610f3f565b90505b92915050565b604080516001600160a01b038416602482015260448082018490528251808303909101815260649091019091526020810180516001600160e01b031663a9059cbb60e01b179052610e45908490610fd6565b505050565b600082610e5957506000610ded565b82820282848281610e6657fe5b0414610dea5760405162461bcd60e51b81526004018080602001828103825260218152602001806112ff6021913960400191505060405180910390fd5b6000610dea83836040518060400160405280601a81526020017f536166654d6174683a206469766973696f6e206279207a65726f000000000000815250611194565b600082820183811015610dea576040805162461bcd60e51b815260206004820152601b60248201527f536166654d6174683a206164646974696f6e206f766572666c6f770000000000604482015290519081900360640190fd5b60008184841115610fce5760405162461bcd60e51b81526004018080602001828103825283818151815260200191508051906020019080838360005b83811015610f93578181015183820152602001610f7b565b50505050905090810190601f168015610fc05780820380516001836020036101000a031916815260200191505b509250505060405180910390fd5b505050900390565b610fe8826001600160a01b03166111f9565b611039576040805162461bcd60e51b815260206004820152601f60248201527f5361666545524332303a2063616c6c20746f206e6f6e2d636f6e747261637400604482015290519081900360640190fd5b60006060836001600160a01b0316836040518082805190602001908083835b602083106110775780518252601f199092019160209182019101611058565b6001836020036101000a0380198251168184511680821785525050505050509050019150506000604051808303816000865af19150503d80600081146110d9576040519150601f19603f3d011682016040523d82523d6000602084013e6110de565b606091505b509150915081611135576040805162461bcd60e51b815260206004820181905260248201527f5361666545524332303a206c6f772d6c6576656c2063616c6c206661696c6564604482015290519081900360640190fd5b80511561118e5780806020019051602081101561115157600080fd5b505161118e5760405162461bcd60e51b815260040180806020018281038252602a815260200180611320602a913960400191505060405180910390fd5b50505050565b600081836111e35760405162461bcd60e51b8152602060048201818152835160248401528351909283926044909101919085019080838360008315610f93578181015183820152602001610f7b565b5060008385816111ef57fe5b0495945050505050565b6000813f7fc5d2460186f7233c927e7db2dcc703c0e500b653ca82273b7bfad8045d85a47081811480159061122d57508115155b949350505050565b6040518060c001604052806000815260200160008152602001600081526020016000815260200160008152602001600015158152509056fe4d617267696e506f6f6c3a20696e73756666696369656e74206d617267696e20616d6f756e744d617267696e506f6f6c3a20626f72726f77206475726174696f6e2068617320657863656564656420796f752077696c6c206265206c6971756964617465644d617267696e506f6f6c3a20626f72726f7765722068617320626f72726f7765642070726576696f75736c79536166654d6174683a206d756c7469706c69636174696f6e206f766572666c6f775361666545524332303a204552433230206f7065726174696f6e20646964206e6f7420737563636565644d617267696e506f6f6c3a20696e73756666696369656e74206465627420616c6c6f77616e6365a264697066735822122003799af8771bcc3f6cda44d15fca822b869162f27b2fe556b9ec99a1c2a6738064736f6c63430006070033",
  "linkReferences": {},
  "deployedLinkReferences": {}
}