{
  "_format": "hh-sol-artifact-1",
  "contractName": "MarginPool",
  "sourceName": "contracts/MarginPool.sol",
  "abi": [
    {
      "inputs": [
        {
          "internalType": "address",
          "name": "_creditPool",
          "type": "address"
        },
        {
          "internalType": "uint256",
          "name": "_minSolvencyRatio",
          "type": "uint256"
        },
        {
          "internalType": "address",
          "name": "_interestRateStrategy",
          "type": "address"
        }
      ],
      "stateMutability": "nonpayable",
      "type": "constructor"
    },
    {
      "inputs": [
        {
          "internalType": "address",
          "name": "_asset",
          "type": "address"
        },
        {
          "internalType": "uint256",
          "name": "_ytokenBalance",
          "type": "uint256"
        },
        {
          "internalType": "uint256",
          "name": "_investedAmount",
          "type": "uint256"
        }
      ],
      "name": "calculateRewardSplit",
      "outputs": [
        {
          "internalType": "uint256",
          "name": "",
          "type": "uint256"
        },
        {
          "internalType": "uint256",
          "name": "",
          "type": "uint256"
        }
      ],
      "stateMutability": "nonpayable",
      "type": "function"
    },
    {
      "inputs": [],
      "name": "creditPool",
      "outputs": [
        {
          "internalType": "address",
          "name": "",
          "type": "address"
        }
      ],
      "stateMutability": "view",
      "type": "function"
    },
    {
      "inputs": [
        {
          "internalType": "address",
          "name": "",
          "type": "address"
        }
      ],
      "name": "delegateeDeposits",
      "outputs": [
        {
          "internalType": "uint256",
          "name": "duration",
          "type": "uint256"
        },
        {
          "internalType": "uint256",
          "name": "margin",
          "type": "uint256"
        },
        {
          "internalType": "uint256",
          "name": "investment",
          "type": "uint256"
        },
        {
          "internalType": "uint256",
          "name": "solvencyRatio",
          "type": "uint256"
        },
        {
          "internalType": "uint256",
          "name": "interestAmount",
          "type": "uint256"
        },
        {
          "internalType": "bool",
          "name": "hasBorrowed",
          "type": "bool"
        }
      ],
      "stateMutability": "view",
      "type": "function"
    },
    {
      "inputs": [],
      "name": "getMinimumSolvencyRatio",
      "outputs": [
        {
          "internalType": "uint256",
          "name": "",
          "type": "uint256"
        }
      ],
      "stateMutability": "view",
      "type": "function"
    },
    {
      "inputs": [],
      "name": "getPendingBorrowingRate",
      "outputs": [
        {
          "internalType": "uint256",
          "name": "",
          "type": "uint256"
        }
      ],
      "stateMutability": "view",
      "type": "function"
    },
    {
      "inputs": [],
      "name": "getPendingDepositRate",
      "outputs": [
        {
          "internalType": "uint256",
          "name": "",
          "type": "uint256"
        }
      ],
      "stateMutability": "view",
      "type": "function"
    },
    {
      "inputs": [],
      "name": "getTotalBorrowed",
      "outputs": [
        {
          "internalType": "uint256",
          "name": "",
          "type": "uint256"
        }
      ],
      "stateMutability": "view",
      "type": "function"
    },
    {
      "inputs": [],
      "name": "getUserSolvencyRatio",
      "outputs": [
        {
          "internalType": "uint256",
          "name": "",
          "type": "uint256"
        }
      ],
      "stateMutability": "view",
      "type": "function"
    },
    {
      "inputs": [
        {
          "internalType": "uint256",
          "name": "_ytokenBalance",
          "type": "uint256"
        }
      ],
      "name": "getYearnBorrowerShare",
      "outputs": [
        {
          "internalType": "uint256",
          "name": "",
          "type": "uint256"
        }
      ],
      "stateMutability": "view",
      "type": "function"
    },
    {
      "inputs": [
        {
          "internalType": "uint256",
          "name": "_ytokenBalance",
          "type": "uint256"
        }
      ],
      "name": "getYearnVaultLiquidityValue",
      "outputs": [
        {
          "internalType": "uint256",
          "name": "",
          "type": "uint256"
        }
      ],
      "stateMutability": "view",
      "type": "function"
    },
    {
      "inputs": [],
      "name": "interestRateStrategy",
      "outputs": [
        {
          "internalType": "contract InterestRateStrategy",
          "name": "",
          "type": "address"
        }
      ],
      "stateMutability": "view",
      "type": "function"
    },
    {
      "inputs": [
        {
          "internalType": "uint256",
          "name": "_amount",
          "type": "uint256"
        },
        {
          "internalType": "address",
          "name": "_asset",
          "type": "address"
        },
        {
          "internalType": "uint256",
          "name": "_marginAmount",
          "type": "uint256"
        },
        {
          "internalType": "uint256",
          "name": "_interestAmount",
          "type": "uint256"
        },
        {
          "internalType": "uint256",
          "name": "_duration",
          "type": "uint256"
        }
      ],
      "name": "invest",
      "outputs": [],
      "stateMutability": "nonpayable",
      "type": "function"
    },
    {
      "inputs": [],
      "name": "minSolvencyRatio",
      "outputs": [
        {
          "internalType": "uint256",
          "name": "",
          "type": "uint256"
        }
      ],
      "stateMutability": "view",
      "type": "function"
    },
    {
      "inputs": [],
      "name": "pendingBorrowingRate",
      "outputs": [
        {
          "internalType": "uint256",
          "name": "",
          "type": "uint256"
        }
      ],
      "stateMutability": "view",
      "type": "function"
    },
    {
      "inputs": [],
      "name": "pendingDepositRate",
      "outputs": [
        {
          "internalType": "uint256",
          "name": "",
          "type": "uint256"
        }
      ],
      "stateMutability": "view",
      "type": "function"
    },
    {
      "inputs": [
        {
          "internalType": "address",
          "name": "_asset",
          "type": "address"
        },
        {
          "internalType": "uint256",
          "name": "_ytokenBalance",
          "type": "uint256"
        }
      ],
      "name": "repay",
      "outputs": [],
      "stateMutability": "nonpayable",
      "type": "function"
    },
    {
      "inputs": [],
      "name": "totalBorrowedAmount",
      "outputs": [
        {
          "internalType": "uint256",
          "name": "",
          "type": "uint256"
        }
      ],
      "stateMutability": "view",
      "type": "function"
    }
  ],
  "bytecode": "0x608060405234801561001057600080fd5b50604051611a21380380611a218339818101604052606081101561003357600080fd5b5080516020820151604090920151600080546001600160a01b039384166001600160a01b03199182161790915560019390935560068054929091169190921617905561199d806100846000396000f3fe608060405234801561001057600080fd5b506004361061010b5760003560e01c8063a07d6233116100a2578063c4fff0bc11610071578063c4fff0bc146101ee578063d5c344531461022c578063d74acb6e14610277578063dc78383b1461027f578063fd67ecfb146102875761010b565b8063a07d6233146101b9578063a67367fd146101c1578063ac7251e7146101de578063b80492a5146101e65761010b565b80632ff1ab95116100de5780632ff1ab951461017d5780633e074608146101a1578063622ff42b146101a957806398fba1d3146101b15761010b565b80630307c4a11461011057806307b529881461012a57806309ac0d9e1461013257806322867d781461014f575b600080fd5b6101186102e2565b60408051918252519081900360200190f35b6101186102e8565b6101186004803603602081101561014857600080fd5b50356102ee565b61017b6004803603604081101561016557600080fd5b506001600160a01b038135169060200135610414565b005b6101856107a6565b604080516001600160a01b039092168252519081900360200190f35b6101856107b5565b6101186107c4565b6101186107ca565b6101186107d0565b610118600480360360208110156101d757600080fd5b50356107d6565b61011861087a565b610118610880565b61017b600480360360a081101561020457600080fd5b508035906001600160a01b036020820135169060408101359060608101359060800135610886565b61025e6004803603606081101561024257600080fd5b506001600160a01b038135169060208101359060400135610e36565b6040805192835260208301919091528051918290030190f35b610118611154565b61011861115a565b6102ad6004803603602081101561029d57600080fd5b50356001600160a01b0316611170565b6040805196875260208701959095528585019390935260608501919091526080840152151560a0830152519081900360c00190f35b60025490565b60015490565b60008073acd43e627e64355f1861cec6d3a6688b31a6f9526001600160a01b031663b69ef8a86040518163ffffffff1660e01b815260040160206040518083038186803b15801561033e57600080fd5b505afa158015610352573d6000803e3d6000fd5b505050506040513d602081101561036857600080fd5b5051604080516318160ddd60e01b8152905191925060009173acd43e627e64355f1861cec6d3a6688b31a6f952916318160ddd916004808301926020929190829003018186803b1580156103bb57600080fd5b505afa1580156103cf573d6000803e3d6000fd5b505050506040513d60208110156103e557600080fd5b50519050600061040b826103ff858863ffffffff6111a816565b9063ffffffff61120a16565b95945050505050565b336000908152600560205260409020805442106104625760405162461bcd60e51b815260040180806020018281038252603f81526020018061188b603f913960400191505060405180910390fd5b600080825560018201805490829055600283018054600480860185905591849055600385019390935560058401805460ff19169055604080516370a0823160e01b815230928101929092525191929161054b916001600160a01b038816916370a0823191602480820192602092909190829003018186803b1580156104e657600080fd5b505afa1580156104fa573d6000803e3d6000fd5b505050506040513d602081101561051057600080fd5b505160408051808201909152601b81527f6461692062616c616e6365206265666f72652077697468647261770000000000602082015261124c565b600080610559878785610e36565b9150915073acd43e627e64355f1861cec6d3a6688b31a6f9526001600160a01b0316632e1a7d4d876040518263ffffffff1660e01b815260040180828152602001915050600060405180830381600087803b1580156105b757600080fd5b505af11580156105cb573d6000803e3d6000fd5b5050604080516370a0823160e01b8152306004820152905161067f93506001600160a01b038b1692506370a0823191602480820192602092909190829003018186803b15801561061a57600080fd5b505afa15801561062e573d6000803e3d6000fd5b505050506040513d602081101561064457600080fd5b505160408051808201909152601a81527f6461692062616c616e6365206166746572207769746864726177000000000000602082015261124c565b61068f838563ffffffff6112fe16565b60028054919091039055737d2768de32b0b80b7a3454c06bdac94a69ddc7a963573ade81886106c4868863ffffffff6112fe16565b60008054604080516001600160e01b031960e088901b1681526001600160a01b03958616600482015260248101949094526001604485015293166064830152915160848083019360209383900390910190829087803b15801561072657600080fd5b505af115801561073a573d6000803e3d6000fd5b505050506040513d602081101561075057600080fd5b5050600054610772906001600160a01b0389811691168463ffffffff61134016565b61079d33610786868463ffffffff61139716565b6001600160a01b038a16919063ffffffff61134016565b50505050505050565b6000546001600160a01b031681565b6006546001600160a01b031681565b60045481565b60035490565b60045490565b6000806107e2836102ee565b9050600073aed0c38402a5d19df6e4c03f4e2dced6e29c1ee96001600160a01b03166350d25bcd6040518163ffffffff1660e01b815260040160206040518083038186803b15801561083357600080fd5b505afa158015610847573d6000803e3d6000fd5b505050506040513d602081101561085d57600080fd5b50519050610871818363ffffffff6111a816565b50909392505050565b60015481565b60035481565b604080516334924edb60e21b81526001600160a01b0386166004820152905160009173057835ad21a177dbdd3090bb1cae03eacf78fc6d9163d2493b6c91602480820192606092909190829003018186803b1580156108e457600080fd5b505afa1580156108f8573d6000803e3d6000fd5b505050506040513d606081101561090e57600080fd5b506020908101516000805460408051631af5db4960e21b81526001600160a01b0392831660048201523060248201529051939550919390851692636bd76d24926044808201939291829003018186803b15801561096a57600080fd5b505afa15801561097e573d6000803e3d6000fd5b505050506040513d602081101561099457600080fd5b50516002549091508110156109da5760405162461bcd60e51b81526004018080602001828103825260278152602001806119416027913960400191505060405180910390fd5b6000610a14610a0f89610a036109f68a8a63ffffffff61139716565b8c9063ffffffff61139716565b9063ffffffff6113f116565b611429565b9050600154811015610a575760405162461bcd60e51b81526004018080602001828103825260268152602001806118446026913960400191505060405180910390fd5b6000610a69428663ffffffff61139716565b9050610a7361180b565b5033600090815260056020818152604092839020835160c08101855281548152600182015492810192909252600281015493820193909352600383015460608201526004830154608082015291015460ff1615801560a0830152610b085760405162461bcd60e51b815260040180806020018281038252602c8152602001806118ca602c913960400191505060405180910390fd5b6040805160c081018252838152602081018a9052908101610b3f610b328b8b63ffffffff61139716565b8d9063ffffffff61139716565b8152602080820186905260408083018b9052600160609384018190523360008181526005808652908490208751815594870151928501929092559185015160028401559284015160038301556080840151600483015560a0909301519101805460ff19169115159190911790556001600160a01b038a16906323b872dd9030610bc88c8c611397565b6040518463ffffffff1660e01b815260040180846001600160a01b03166001600160a01b03168152602001836001600160a01b03166001600160a01b031681526020018281526020019350505050602060405180830381600087803b158015610c3057600080fd5b505af1158015610c44573d6000803e3d6000fd5b505050506040513d6020811015610c5a57600080fd5b5050600280548b019055600080546040805163a415bcad60e01b81526001600160a01b038d81166004830152602482018f90526001604483015260648201859052909216608483015251737d2768de32b0b80b7a3454c06bdac94a69ddc7a99263a415bcad9260a4808201939182900301818387803b158015610cdc57600080fd5b505af1158015610cf0573d6000803e3d6000fd5b5050506001600160a01b038a16905063095ea7b373acd43e627e64355f1861cec6d3a6688b31a6f952610d33610d268c8c611397565b8e9063ffffffff61139716565b6040518363ffffffff1660e01b815260040180836001600160a01b03166001600160a01b0316815260200182815260200192505050602060405180830381600087803b158015610d8257600080fd5b505af1158015610d96573d6000803e3d6000fd5b505050506040513d6020811015610dac57600080fd5b5073acd43e627e64355f1861cec6d3a6688b31a6f952905063b6b55f25610ddc610b328b8b63ffffffff61139716565b6040518263ffffffff1660e01b815260040180828152602001915050600060405180830381600087803b158015610e1257600080fd5b505af1158015610e26573d6000803e3d6000fd5b5050505050505050505050505050565b6000806000610e44856102ee565b9050610e6860405180606001604052806021815260200161186a6021913982611449565b604080516334924edb60e21b81526001600160a01b0388166004820152905160009173057835ad21a177dbdd3090bb1cae03eacf78fc6d9163d2493b6c91602480820192606092909190829003018186803b158015610ec657600080fd5b505afa158015610eda573d6000803e3d6000fd5b505050506040513d6060811015610ef057600080fd5b506020908101516000805460408051631af5db4960e21b81526001600160a01b0392831660048201523060248201529051939550919390851692636bd76d24926044808201939291829003018186803b158015610f4c57600080fd5b505afa158015610f60573d6000803e3d6000fd5b505050506040513d6020811015610f7657600080fd5b505160065460025460408051635bc68f6d60e01b8152600481019290925260248201849052519293506000926001600160a01b0390921691635bc68f6d91604480820192602092909190829003018186803b158015610fd457600080fd5b505afa158015610fe8573d6000803e3d6000fd5b505050506040513d6020811015610ffe57600080fd5b5051600481905560408051808201909152601981527870656e64696e6720626f72726f77696e67207261746520697360381b60208201529091506110429082611449565b6006546002546040805163951e768360e01b8152600481019290925260248201859052516000926001600160a01b03169163951e7683916044808301926020929190829003018186803b15801561109857600080fd5b505afa1580156110ac573d6000803e3d6000fd5b505050506040513d60208110156110c257600080fd5b5051600381905560408051808201909152601981527870656e64696e6720626f72726f77696e67207261746520697360381b60208201529091506111069082611449565b6000611118868a63ffffffff6112fe16565b9050600061112c828463ffffffff6111a816565b90506000611140838663ffffffff6111a816565b919d919c50909a5050505050505050505050565b60025481565b3360009081526005602052604090206003015490565b600560208190526000918252604090912080546001820154600283015460038401546004850154949095015492949193909260ff1686565b6000826111b757506000611204565b828202828482816111c457fe5b04146112015760405162461bcd60e51b81526004018080602001828103825260218152602001806118f66021913960400191505060405180910390fd5b90505b92915050565b600061120183836040518060400160405280601a81526020017f536166654d6174683a206469766973696f6e206279207a65726f0000000000008152506114f7565b6112fa82826040516024018083815260200180602001828103825283818151815260200191508051906020019080838360005b8381101561129757818101518382015260200161127f565b50505050905090810190601f1680156112c45780820380516001836020036101000a031916815260200191505b5060408051601f198184030181529190526020810180516001600160e01b0316630fa3f34560e01b179052935061159992505050565b5050565b600061120183836040518060400160405280601e81526020017f536166654d6174683a207375627472616374696f6e206f766572666c6f7700008152506115ba565b604080516001600160a01b038416602482015260448082018490528251808303909101815260649091019091526020810180516001600160e01b031663a9059cbb60e01b179052611392908490611614565b505050565b600082820183811015611201576040805162461bcd60e51b815260206004820152601b60248201527f536166654d6174683a206164646974696f6e206f766572666c6f770000000000604482015290519081900360640190fd5b600060028204611421836103ff611414876b033b2e3c9fd0803ce80000006111a8565b849063ffffffff61139716565b949350505050565b6000631dcd6500611442633b9aca006103ff8386611397565b9392505050565b6112fa82826040516024018080602001838152602001828103825284818151815260200191508051906020019080838360005b8381101561149457818101518382015260200161147c565b50505050905090810190601f1680156114c15780820380516001836020036101000a031916815260200191505b5060408051601f198184030181529190526020810180516001600160e01b03166309710a9d60e41b179052935061159992505050565b600081836115835760405162461bcd60e51b81526004018080602001828103825283818151815260200191508051906020019080838360005b83811015611548578181015183820152602001611530565b50505050905090810190601f1680156115755780820380516001836020036101000a031916815260200191505b509250505060405180910390fd5b50600083858161158f57fe5b0495945050505050565b80516a636f6e736f6c652e6c6f67602083016000808483855afa5050505050565b6000818484111561160c5760405162461bcd60e51b8152602060048201818152835160248401528351909283926044909101919085019080838360008315611548578181015183820152602001611530565b505050900390565b611626826001600160a01b03166117d2565b611677576040805162461bcd60e51b815260206004820152601f60248201527f5361666545524332303a2063616c6c20746f206e6f6e2d636f6e747261637400604482015290519081900360640190fd5b60006060836001600160a01b0316836040518082805190602001908083835b602083106116b55780518252601f199092019160209182019101611696565b6001836020036101000a0380198251168184511680821785525050505050509050019150506000604051808303816000865af19150503d8060008114611717576040519150601f19603f3d011682016040523d82523d6000602084013e61171c565b606091505b509150915081611773576040805162461bcd60e51b815260206004820181905260248201527f5361666545524332303a206c6f772d6c6576656c2063616c6c206661696c6564604482015290519081900360640190fd5b8051156117cc5780806020019051602081101561178f57600080fd5b50516117cc5760405162461bcd60e51b815260040180806020018281038252602a815260200180611917602a913960400191505060405180910390fd5b50505050565b6000813f7fc5d2460186f7233c927e7db2dcc703c0e500b653ca82273b7bfad8045d85a470818114801590611421575050151592915050565b6040518060c001604052806000815260200160008152602001600081526020016000815260200160008152602001600015158152509056fe4d617267696e506f6f6c3a20696e73756666696369656e74206d617267696e20616d6f756e74746f74616c2072657475726e73207072696e636970616c202b20726577617264734d617267696e506f6f6c3a20626f72726f77206475726174696f6e2068617320657863656564656420796f752077696c6c206265206c6971756964617465644d617267696e506f6f6c3a20626f72726f7765722068617320626f72726f7765642070726576696f75736c79536166654d6174683a206d756c7469706c69636174696f6e206f766572666c6f775361666545524332303a204552433230206f7065726174696f6e20646964206e6f7420737563636565644d617267696e506f6f6c3a20696e73756666696369656e74206465627420616c6c6f77616e6365a26469706673582212202ffd3246e4ca433250c6737fc49d86fb6e14c83dc9ad8b1c79c71dd4297dfda564736f6c63430006070033",
  "linkReferences": {},
  "deployedLinkReferences": {}
}