{
  "_format": "hh-sol-artifact-1",
  "contractName": "MarginPool",
  "sourceName": "contracts/MarginPool.sol",
  "abi": [
    {
      "inputs": [
        {
          "internalType": "address",
          "name": "_creditPool",
          "type": "address"
        },
        {
          "internalType": "uint256",
          "name": "_minSolvencyRatio",
          "type": "uint256"
        }
      ],
      "stateMutability": "nonpayable",
      "type": "constructor"
    },
    {
      "inputs": [],
      "name": "creditPool",
      "outputs": [
        {
          "internalType": "address",
          "name": "",
          "type": "address"
        }
      ],
      "stateMutability": "view",
      "type": "function"
    },
    {
      "inputs": [
        {
          "internalType": "address",
          "name": "",
          "type": "address"
        }
      ],
      "name": "delegateeDeposits",
      "outputs": [
        {
          "internalType": "uint256",
          "name": "duration",
          "type": "uint256"
        },
        {
          "internalType": "uint256",
          "name": "margin",
          "type": "uint256"
        },
        {
          "internalType": "uint256",
          "name": "investment",
          "type": "uint256"
        },
        {
          "internalType": "uint256",
          "name": "solvencyRatio",
          "type": "uint256"
        },
        {
          "internalType": "bool",
          "name": "hasBorrowed",
          "type": "bool"
        }
      ],
      "stateMutability": "view",
      "type": "function"
    },
    {
      "inputs": [
        {
          "internalType": "uint256",
          "name": "_amount",
          "type": "uint256"
        },
        {
          "internalType": "address",
          "name": "_asset",
          "type": "address"
        },
        {
          "internalType": "address",
          "name": "_vault",
          "type": "address"
        },
        {
          "internalType": "uint256",
          "name": "_marginAmount",
          "type": "uint256"
        },
        {
          "internalType": "uint256",
          "name": "_duration",
          "type": "uint256"
        }
      ],
      "name": "invest",
      "outputs": [],
      "stateMutability": "nonpayable",
      "type": "function"
    },
    {
      "inputs": [],
      "name": "minSolvencyRatio",
      "outputs": [
        {
          "internalType": "uint256",
          "name": "",
          "type": "uint256"
        }
      ],
      "stateMutability": "view",
      "type": "function"
    },
    {
      "inputs": [
        {
          "internalType": "address",
          "name": "_asset",
          "type": "address"
        },
        {
          "internalType": "address",
          "name": "_vault",
          "type": "address"
        }
      ],
      "name": "repay",
      "outputs": [],
      "stateMutability": "nonpayable",
      "type": "function"
    },
    {
      "inputs": [],
      "name": "totalBorrowedAmount",
      "outputs": [
        {
          "internalType": "uint256",
          "name": "",
          "type": "uint256"
        }
      ],
      "stateMutability": "view",
      "type": "function"
    }
  ],
  "bytecode": "0x608060405234801561001057600080fd5b50604051610bca380380610bca8339818101604052604081101561003357600080fd5b508051602090910151600080546001600160a01b0319166001600160a01b03909316929092178255600155610b5c90819061006e90396000f3fe608060405234801561001057600080fd5b50600436106100625760003560e01c80632ff1ab95146100675780633d62b1231461008b5780636ed671e8146100cf578063ac7251e7146100fd578063d74acb6e14610117578063fd67ecfb1461011f575b600080fd5b61006f610172565b604080516001600160a01b039092168252519081900360200190f35b6100cd600480360360a08110156100a157600080fd5b508035906001600160a01b03602082013581169160408101359091169060608101359060800135610181565b005b6100cd600480360360408110156100e557600080fd5b506001600160a01b0381358116916020013516610605565b6101056107a1565b60408051918252519081900360200190f35b6101056107a7565b6101456004803603602081101561013557600080fd5b50356001600160a01b03166107ad565b60408051958652602086019490945284840192909252606084015215156080830152519081900360a00190f35b6000546001600160a01b031681565b604080516334924edb60e21b81526001600160a01b0386166004820152905160009173057835ad21a177dbdd3090bb1cae03eacf78fc6d9163d2493b6c91602480820192606092909190829003018186803b1580156101df57600080fd5b505afa1580156101f3573d6000803e3d6000fd5b505050506040513d606081101561020957600080fd5b50516000805460408051631af5db4960e21b81526001600160a01b0392831660048201523060248201529051939450919290841691636bd76d24916044808301926020929190829003018186803b15801561026357600080fd5b505afa158015610277573d6000803e3d6000fd5b505050506040513d602081101561028d57600080fd5b50516002549091508110156102d35760405162461bcd60e51b8152600401808060200182810382526027815260200180610b006027913960400191505060405180910390fd5b6000610308886102fc876102f083620186a063ffffffff6107e016565b9063ffffffff61084216565b9063ffffffff61089c16565b60015490915061032190620186a063ffffffff6107e016565b81101561035f5760405162461bcd60e51b8152600401808060200182810382526026815260200180610a4e6026913960400191505060405180910390fd5b6000610371428663ffffffff61084216565b905061037b610a1c565b5033600090815260036020818152604092839020835160a0810185528154815260018201549281019290925260028101549382019390935290820154606082015260049091015460ff1615801560808301526104085760405162461bcd60e51b815260040180806020018281038252602c815260200180610ab3602c913960400191505060405180910390fd5b6040805160a0810182528381526020810189905290810161042f8c8a63ffffffff61084216565b81526020018481526020016001151581525060036000336001600160a01b03166001600160a01b031681526020019081526020016000206000820151816000015560208201518160010155604082015181600201556060820151816003015560808201518160040160006101000a81548160ff02191690831515021790555090505089600260008282540192505081905550737d2768de32b0b80b7a3454c06bdac94a69ddc7a96001600160a01b031663a415bcad8a8c600160008060009054906101000a90046001600160a01b03166040518663ffffffff1660e01b815260040180866001600160a01b03166001600160a01b031681526020018581526020018481526020018361ffff168152602001826001600160a01b03166001600160a01b0316815260200195505050505050600060405180830381600087803b15801561057957600080fd5b505af115801561058d573d6000803e3d6000fd5b5050506001600160a01b038916905063b6b55f256105ab8c8a610842565b6040518263ffffffff1660e01b815260040180828152602001915050600060405180830381600087803b1580156105e157600080fd5b505af11580156105f5573d6000803e3d6000fd5b5050505050505050505050505050565b336000908152600360205260409020805442106106535760405162461bcd60e51b815260040180806020018281038252603f815260200180610a74603f913960400191505060405180910390fd5b60008082556001820180549082905560028301805490839055600384018390556004808501805460ff1916905560408051632e1a7d4d60e01b815291820183905251929391926001600160a01b03871692632e1a7d4d926024808201939182900301818387803b1580156106c657600080fd5b505af11580156106da573d6000803e3d6000fd5b50737d2768de32b0b80b7a3454c06bdac94a69ddc7a9925063573ade81915087905061070c848663ffffffff6108de16565b60008054604080516001600160e01b031960e088901b1681526001600160a01b03958616600482015260248101949094526001604485015293166064830152915160848083019360209383900390910190829087803b15801561076e57600080fd5b505af1158015610782573d6000803e3d6000fd5b505050506040513d602081101561079857600080fd5b50505050505050565b60015481565b60025481565b60036020819052600091825260409091208054600182015460028301549383015460049093015491939092909160ff1685565b6000826107ef5750600061083c565b828202828482816107fc57fe5b04146108395760405162461bcd60e51b8152600401808060200182810382526021815260200180610adf6021913960400191505060405180910390fd5b90505b92915050565b600082820183811015610839576040805162461bcd60e51b815260206004820152601b60248201527f536166654d6174683a206164646974696f6e206f766572666c6f770000000000604482015290519081900360640190fd5b600061083983836040518060400160405280601a81526020017f536166654d6174683a206469766973696f6e206279207a65726f000000000000815250610920565b600061083983836040518060400160405280601e81526020017f536166654d6174683a207375627472616374696f6e206f766572666c6f7700008152506109c2565b600081836109ac5760405162461bcd60e51b81526004018080602001828103825283818151815260200191508051906020019080838360005b83811015610971578181015183820152602001610959565b50505050905090810190601f16801561099e5780820380516001836020036101000a031916815260200191505b509250505060405180910390fd5b5060008385816109b857fe5b0495945050505050565b60008184841115610a145760405162461bcd60e51b8152602060048201818152835160248401528351909283926044909101919085019080838360008315610971578181015183820152602001610959565b505050900390565b6040518060a0016040528060008152602001600081526020016000815260200160008152602001600015158152509056fe4d617267696e506f6f6c3a20696e73756666696369656e74206d617267696e20616d6f756e744d617267696e506f6f6c3a20626f72726f77206475726174696f6e2068617320657863656564656420796f752077696c6c206265206c6971756964617465644d617267696e506f6f6c3a20626f72726f7765722068617320626f72726f7765642070726576696f75736c79536166654d6174683a206d756c7469706c69636174696f6e206f766572666c6f774d617267696e506f6f6c3a20696e73756666696369656e74206465627420616c6c6f77616e6365a26469706673582212207639a09402c1dd2f44518409e507dae77f7fb4e45f2e849ae20ccfd6bd806dc564736f6c634300060b0033",
  "linkReferences": {},
  "deployedLinkReferences": {}
}