{
  "_format": "hh-sol-artifact-1",
  "contractName": "MarginPool",
  "sourceName": "contracts/MarginPool.sol",
  "abi": [
    {
      "inputs": [
        {
          "internalType": "address",
          "name": "_creditPool",
          "type": "address"
        },
        {
          "internalType": "uint256",
          "name": "_minSolvencyRatio",
          "type": "uint256"
        },
        {
          "internalType": "address",
          "name": "_interestRateStrategy",
          "type": "address"
        }
      ],
      "stateMutability": "nonpayable",
      "type": "constructor"
    },
    {
      "inputs": [
        {
          "internalType": "address",
          "name": "_asset",
          "type": "address"
        },
        {
          "internalType": "uint256",
          "name": "_ytokenBalance",
          "type": "uint256"
        },
        {
          "internalType": "uint256",
          "name": "_investedAmount",
          "type": "uint256"
        }
      ],
      "name": "calculateRewardSplit",
      "outputs": [
        {
          "internalType": "uint256",
          "name": "",
          "type": "uint256"
        },
        {
          "internalType": "uint256",
          "name": "",
          "type": "uint256"
        }
      ],
      "stateMutability": "nonpayable",
      "type": "function"
    },
    {
      "inputs": [],
      "name": "creditPool",
      "outputs": [
        {
          "internalType": "address",
          "name": "",
          "type": "address"
        }
      ],
      "stateMutability": "view",
      "type": "function"
    },
    {
      "inputs": [
        {
          "internalType": "address",
          "name": "",
          "type": "address"
        }
      ],
      "name": "delegateeDeposits",
      "outputs": [
        {
          "internalType": "uint256",
          "name": "duration",
          "type": "uint256"
        },
        {
          "internalType": "uint256",
          "name": "margin",
          "type": "uint256"
        },
        {
          "internalType": "uint256",
          "name": "investment",
          "type": "uint256"
        },
        {
          "internalType": "uint256",
          "name": "solvencyRatio",
          "type": "uint256"
        },
        {
          "internalType": "uint256",
          "name": "interestAmount",
          "type": "uint256"
        },
        {
          "internalType": "bool",
          "name": "hasBorrowed",
          "type": "bool"
        }
      ],
      "stateMutability": "view",
      "type": "function"
    },
    {
      "inputs": [],
      "name": "getMinimumSolvencyRatio",
      "outputs": [
        {
          "internalType": "uint256",
          "name": "",
          "type": "uint256"
        }
      ],
      "stateMutability": "view",
      "type": "function"
    },
    {
      "inputs": [],
      "name": "getPendingBorrowingRate",
      "outputs": [
        {
          "internalType": "uint256",
          "name": "",
          "type": "uint256"
        }
      ],
      "stateMutability": "view",
      "type": "function"
    },
    {
      "inputs": [],
      "name": "getPendingDepositRate",
      "outputs": [
        {
          "internalType": "uint256",
          "name": "",
          "type": "uint256"
        }
      ],
      "stateMutability": "view",
      "type": "function"
    },
    {
      "inputs": [],
      "name": "getTotalBorrowed",
      "outputs": [
        {
          "internalType": "uint256",
          "name": "",
          "type": "uint256"
        }
      ],
      "stateMutability": "view",
      "type": "function"
    },
    {
      "inputs": [],
      "name": "getUserSolvencyRatio",
      "outputs": [
        {
          "internalType": "uint256",
          "name": "",
          "type": "uint256"
        }
      ],
      "stateMutability": "view",
      "type": "function"
    },
    {
      "inputs": [
        {
          "internalType": "uint256",
          "name": "_ytokenBalance",
          "type": "uint256"
        }
      ],
      "name": "getYearnBorrowerShare",
      "outputs": [
        {
          "internalType": "uint256",
          "name": "",
          "type": "uint256"
        }
      ],
      "stateMutability": "view",
      "type": "function"
    },
    {
      "inputs": [
        {
          "internalType": "uint256",
          "name": "_ytokenBalance",
          "type": "uint256"
        }
      ],
      "name": "getYearnVaultLiquidityValue",
      "outputs": [
        {
          "internalType": "uint256",
          "name": "",
          "type": "uint256"
        }
      ],
      "stateMutability": "view",
      "type": "function"
    },
    {
      "inputs": [],
      "name": "interestRateStrategy",
      "outputs": [
        {
          "internalType": "contract InterestRateStrategy",
          "name": "",
          "type": "address"
        }
      ],
      "stateMutability": "view",
      "type": "function"
    },
    {
      "inputs": [
        {
          "internalType": "uint256",
          "name": "_amount",
          "type": "uint256"
        },
        {
          "internalType": "address",
          "name": "_asset",
          "type": "address"
        },
        {
          "internalType": "uint256",
          "name": "_marginAmount",
          "type": "uint256"
        },
        {
          "internalType": "uint256",
          "name": "_interestAmount",
          "type": "uint256"
        },
        {
          "internalType": "uint256",
          "name": "_duration",
          "type": "uint256"
        }
      ],
      "name": "invest",
      "outputs": [],
      "stateMutability": "nonpayable",
      "type": "function"
    },
    {
      "inputs": [],
      "name": "minSolvencyRatio",
      "outputs": [
        {
          "internalType": "uint256",
          "name": "",
          "type": "uint256"
        }
      ],
      "stateMutability": "view",
      "type": "function"
    },
    {
      "inputs": [],
      "name": "pendingBorrowingRate",
      "outputs": [
        {
          "internalType": "uint256",
          "name": "",
          "type": "uint256"
        }
      ],
      "stateMutability": "view",
      "type": "function"
    },
    {
      "inputs": [],
      "name": "pendingDepositRate",
      "outputs": [
        {
          "internalType": "uint256",
          "name": "",
          "type": "uint256"
        }
      ],
      "stateMutability": "view",
      "type": "function"
    },
    {
      "inputs": [
        {
          "internalType": "address",
          "name": "_asset",
          "type": "address"
        },
        {
          "internalType": "uint256",
          "name": "_ytokenBalance",
          "type": "uint256"
        }
      ],
      "name": "repay",
      "outputs": [],
      "stateMutability": "nonpayable",
      "type": "function"
    },
    {
      "inputs": [],
      "name": "totalBorrowedAmount",
      "outputs": [
        {
          "internalType": "uint256",
          "name": "",
          "type": "uint256"
        }
      ],
      "stateMutability": "view",
      "type": "function"
    }
  ],
  "bytecode": "0x608060405234801561001057600080fd5b506040516126cf3803806126cf8339818101604052606081101561003357600080fd5b81019080805190602001909291908051906020019092919080519060200190929190505050826000806101000a81548173ffffffffffffffffffffffffffffffffffffffff021916908373ffffffffffffffffffffffffffffffffffffffff1602179055508160018190555080600660006101000a81548173ffffffffffffffffffffffffffffffffffffffff021916908373ffffffffffffffffffffffffffffffffffffffff1602179055505050506125dd806100f26000396000f3fe608060405234801561001057600080fd5b506004361061010b5760003560e01c8063a07d6233116100a2578063c4fff0bc11610071578063c4fff0bc14610348578063d5c34453146103b4578063d74acb6e14610427578063dc78383b14610445578063fd67ecfb146104635761010b565b8063a07d6233146102ac578063a67367fd146102ca578063ac7251e71461030c578063b80492a51461032a5761010b565b80632ff1ab95116100de5780632ff1ab95146101dc5780633e07460814610226578063622ff42b1461027057806398fba1d31461028e5761010b565b80630307c4a11461011057806307b529881461012e57806309ac0d9e1461014c57806322867d781461018e575b600080fd5b6101186104e2565b6040518082815260200191505060405180910390f35b6101366104ec565b6040518082815260200191505060405180910390f35b6101786004803603602081101561016257600080fd5b81019080803590602001909291905050506104f6565b6040518082815260200191505060405180910390f35b6101da600480360360408110156101a457600080fd5b81019080803573ffffffffffffffffffffffffffffffffffffffff1690602001909291908035906020019092919050505061065d565b005b6101e4610bd5565b604051808273ffffffffffffffffffffffffffffffffffffffff1673ffffffffffffffffffffffffffffffffffffffff16815260200191505060405180910390f35b61022e610bfa565b604051808273ffffffffffffffffffffffffffffffffffffffff1673ffffffffffffffffffffffffffffffffffffffff16815260200191505060405180910390f35b610278610c20565b6040518082815260200191505060405180910390f35b610296610c26565b6040518082815260200191505060405180910390f35b6102b4610c30565b6040518082815260200191505060405180910390f35b6102f6600480360360208110156102e057600080fd5b8101908080359060200190929190505050610c3a565b6040518082815260200191505060405180910390f35b610314610d00565b6040518082815260200191505060405180910390f35b610332610d06565b6040518082815260200191505060405180910390f35b6103b2600480360360a081101561035e57600080fd5b8101908080359060200190929190803573ffffffffffffffffffffffffffffffffffffffff169060200190929190803590602001909291908035906020019092919080359060200190929190505050610d0c565b005b61040a600480360360608110156103ca57600080fd5b81019080803573ffffffffffffffffffffffffffffffffffffffff16906020019092919080359060200190929190803590602001909291905050506115d8565b604051808381526020018281526020019250505060405180910390f35b61042f611a64565b6040518082815260200191505060405180910390f35b61044d611a6a565b6040518082815260200191505060405180910390f35b6104a56004803603602081101561047957600080fd5b81019080803573ffffffffffffffffffffffffffffffffffffffff169060200190929190505050611ab4565b6040518087815260200186815260200185815260200184815260200183815260200182151515158152602001965050505050505060405180910390f35b6000600254905090565b6000600154905090565b60008073acd43e627e64355f1861cec6d3a6688b31a6f95273ffffffffffffffffffffffffffffffffffffffff1663b69ef8a86040518163ffffffff1660e01b815260040160206040518083038186803b15801561055357600080fd5b505afa158015610567573d6000803e3d6000fd5b505050506040513d602081101561057d57600080fd5b81019080805190602001909291905050509050600073acd43e627e64355f1861cec6d3a6688b31a6f95273ffffffffffffffffffffffffffffffffffffffff166318160ddd6040518163ffffffff1660e01b815260040160206040518083038186803b1580156105ec57600080fd5b505afa158015610600573d6000803e3d6000fd5b505050506040513d602081101561061657600080fd5b810190808051906020019092919050505090506000610650826106428786611afd90919063ffffffff16565b611b8390919063ffffffff16565b9050809350505050919050565b6000600560003373ffffffffffffffffffffffffffffffffffffffff1673ffffffffffffffffffffffffffffffffffffffff1681526020019081526020016000209050428160000154116106fc576040517f08c379a000000000000000000000000000000000000000000000000000000000815260040180806020018281038252603f8152602001806124cb603f913960400191505060405180910390fd5b600081600001819055506000816001015490506000826001018190555060008260020154905060008360040181905550600083600201819055506000836003018190555060008360050160006101000a81548160ff0219169083151502179055506108538573ffffffffffffffffffffffffffffffffffffffff166370a08231306040518263ffffffff1660e01b8152600401808273ffffffffffffffffffffffffffffffffffffffff1673ffffffffffffffffffffffffffffffffffffffff16815260200191505060206040518083038186803b1580156107dd57600080fd5b505afa1580156107f1573d6000803e3d6000fd5b505050506040513d602081101561080757600080fd5b81019080805190602001909291905050506040518060400160405280601b81526020017f6461692062616c616e6365206265666f72652077697468647261770000000000815250611bcd565b6000806108618787856115d8565b9150915073acd43e627e64355f1861cec6d3a6688b31a6f95273ffffffffffffffffffffffffffffffffffffffff16632e1a7d4d876040518263ffffffff1660e01b815260040180828152602001915050600060405180830381600087803b1580156108cc57600080fd5b505af11580156108e0573d6000803e3d6000fd5b505050506109da8773ffffffffffffffffffffffffffffffffffffffff166370a08231306040518263ffffffff1660e01b8152600401808273ffffffffffffffffffffffffffffffffffffffff1673ffffffffffffffffffffffffffffffffffffffff16815260200191505060206040518083038186803b15801561096457600080fd5b505afa158015610978573d6000803e3d6000fd5b505050506040513d602081101561098e57600080fd5b81019080805190602001909291905050506040518060400160405280601a81526020017f6461692062616c616e6365206166746572207769746864726177000000000000815250611bcd565b6109ed8484611cd490919063ffffffff16565b600260008282540392505081905550737d2768de32b0b80b7a3454c06bdac94a69ddc7a973ffffffffffffffffffffffffffffffffffffffff1663573ade8188610a408787611cd490919063ffffffff16565b60016000809054906101000a900473ffffffffffffffffffffffffffffffffffffffff166040518563ffffffff1660e01b8152600401808573ffffffffffffffffffffffffffffffffffffffff1673ffffffffffffffffffffffffffffffffffffffff1681526020018481526020018381526020018273ffffffffffffffffffffffffffffffffffffffff1673ffffffffffffffffffffffffffffffffffffffff168152602001945050505050602060405180830381600087803b158015610b0757600080fd5b505af1158015610b1b573d6000803e3d6000fd5b505050506040513d6020811015610b3157600080fd5b810190808051906020019092919050505050610b8f6000809054906101000a900473ffffffffffffffffffffffffffffffffffffffff16838973ffffffffffffffffffffffffffffffffffffffff16611d1e9092919063ffffffff16565b610bcc33610ba68387611dd690919063ffffffff16565b8973ffffffffffffffffffffffffffffffffffffffff16611d1e9092919063ffffffff16565b50505050505050565b6000809054906101000a900473ffffffffffffffffffffffffffffffffffffffff1681565b600660009054906101000a900473ffffffffffffffffffffffffffffffffffffffff1681565b60045481565b6000600354905090565b6000600454905090565b600080610c46836104f6565b9050600073aed0c38402a5d19df6e4c03f4e2dced6e29c1ee973ffffffffffffffffffffffffffffffffffffffff166350d25bcd6040518163ffffffff1660e01b815260040160206040518083038186803b158015610ca457600080fd5b505afa158015610cb8573d6000803e3d6000fd5b505050506040513d6020811015610cce57600080fd5b81019080805190602001909291905050509050610cf48282611afd90919063ffffffff16565b90508192505050919050565b60015481565b60035481565b600073057835ad21a177dbdd3090bb1cae03eacf78fc6d73ffffffffffffffffffffffffffffffffffffffff1663d2493b6c866040518263ffffffff1660e01b8152600401808273ffffffffffffffffffffffffffffffffffffffff1673ffffffffffffffffffffffffffffffffffffffff16815260200191505060606040518083038186803b158015610d9f57600080fd5b505afa158015610db3573d6000803e3d6000fd5b505050506040513d6060811015610dc957600080fd5b810190808051906020019092919080519060200190929190805190602001909291905050505091505060008173ffffffffffffffffffffffffffffffffffffffff16636bd76d246000809054906101000a900473ffffffffffffffffffffffffffffffffffffffff16306040518363ffffffff1660e01b8152600401808373ffffffffffffffffffffffffffffffffffffffff1673ffffffffffffffffffffffffffffffffffffffff1681526020018273ffffffffffffffffffffffffffffffffffffffff1673ffffffffffffffffffffffffffffffffffffffff1681526020019250505060206040518083038186803b158015610ec657600080fd5b505afa158015610eda573d6000803e3d6000fd5b505050506040513d6020811015610ef057600080fd5b81019080805190602001909291905050509050600254811015610f5e576040517f08c379a00000000000000000000000000000000000000000000000000000000081526004018080602001828103825260278152602001806125816027913960400191505060405180910390fd5b6000610f9f610f9a89610f8c610f7d898b611dd690919063ffffffff16565b8c611dd690919063ffffffff16565b611e5e90919063ffffffff16565b611eba565b9050600154811015610ffc576040517f08c379a00000000000000000000000000000000000000000000000000000000081526004018080602001828103825260268152602001806124846026913960400191505060405180910390fd5b60006110118542611dd690919063ffffffff16565b905061101b61244b565b600560003373ffffffffffffffffffffffffffffffffffffffff1673ffffffffffffffffffffffffffffffffffffffff1681526020019081526020016000206040518060c001604052908160008201548152602001600182015481526020016002820154815260200160038201548152602001600482015481526020016005820160009054906101000a900460ff16151515158152505090508060a001511561110f576040517f08c379a000000000000000000000000000000000000000000000000000000000815260040180806020018281038252602c81526020018061250a602c913960400191505060405180910390fd5b6040518060c0016040528083815260200189815260200161114b61113c8a8c611dd690919063ffffffff16565b8d611dd690919063ffffffff16565b815260200184815260200188815260200160011515815250600560003373ffffffffffffffffffffffffffffffffffffffff1673ffffffffffffffffffffffffffffffffffffffff168152602001908152602001600020600082015181600001556020820151816001015560408201518160020155606082015181600301556080820151816004015560a08201518160050160006101000a81548160ff0219169083151502179055509050508873ffffffffffffffffffffffffffffffffffffffff166323b872dd33306112288b8d611dd690919063ffffffff16565b6040518463ffffffff1660e01b8152600401808473ffffffffffffffffffffffffffffffffffffffff1673ffffffffffffffffffffffffffffffffffffffff1681526020018373ffffffffffffffffffffffffffffffffffffffff1673ffffffffffffffffffffffffffffffffffffffff1681526020018281526020019350505050602060405180830381600087803b1580156112c457600080fd5b505af11580156112d8573d6000803e3d6000fd5b505050506040513d60208110156112ee57600080fd5b81019080805190602001909291905050505089600260008282540192505081905550737d2768de32b0b80b7a3454c06bdac94a69ddc7a973ffffffffffffffffffffffffffffffffffffffff1663a415bcad8a8c600160008060009054906101000a900473ffffffffffffffffffffffffffffffffffffffff166040518663ffffffff1660e01b8152600401808673ffffffffffffffffffffffffffffffffffffffff1673ffffffffffffffffffffffffffffffffffffffff1681526020018581526020018481526020018361ffff1681526020018273ffffffffffffffffffffffffffffffffffffffff1673ffffffffffffffffffffffffffffffffffffffff16815260200195505050505050600060405180830381600087803b15801561141657600080fd5b505af115801561142a573d6000803e3d6000fd5b505050508873ffffffffffffffffffffffffffffffffffffffff1663095ea7b373acd43e627e64355f1861cec6d3a6688b31a6f9526114846114758b8d611dd690919063ffffffff16565b8e611dd690919063ffffffff16565b6040518363ffffffff1660e01b8152600401808373ffffffffffffffffffffffffffffffffffffffff1673ffffffffffffffffffffffffffffffffffffffff16815260200182815260200192505050602060405180830381600087803b1580156114ed57600080fd5b505af1158015611501573d6000803e3d6000fd5b505050506040513d602081101561151757600080fd5b81019080805190602001909291905050505073acd43e627e64355f1861cec6d3a6688b31a6f95273ffffffffffffffffffffffffffffffffffffffff1663b6b55f2561157e61156f8a8c611dd690919063ffffffff16565b8d611dd690919063ffffffff16565b6040518263ffffffff1660e01b815260040180828152602001915050600060405180830381600087803b1580156115b457600080fd5b505af11580156115c8573d6000803e3d6000fd5b5050505050505050505050505050565b60008060006115e6856104f6565b905061160a6040518060600160405280602181526020016124aa6021913982611eff565b600073057835ad21a177dbdd3090bb1cae03eacf78fc6d73ffffffffffffffffffffffffffffffffffffffff1663d2493b6c886040518263ffffffff1660e01b8152600401808273ffffffffffffffffffffffffffffffffffffffff1673ffffffffffffffffffffffffffffffffffffffff16815260200191505060606040518083038186803b15801561169d57600080fd5b505afa1580156116b1573d6000803e3d6000fd5b505050506040513d60608110156116c757600080fd5b810190808051906020019092919080519060200190929190805190602001909291905050505091505060008173ffffffffffffffffffffffffffffffffffffffff16636bd76d246000809054906101000a900473ffffffffffffffffffffffffffffffffffffffff16306040518363ffffffff1660e01b8152600401808373ffffffffffffffffffffffffffffffffffffffff1673ffffffffffffffffffffffffffffffffffffffff1681526020018273ffffffffffffffffffffffffffffffffffffffff1673ffffffffffffffffffffffffffffffffffffffff1681526020019250505060206040518083038186803b1580156117c457600080fd5b505afa1580156117d8573d6000803e3d6000fd5b505050506040513d60208110156117ee57600080fd5b810190808051906020019092919050505090506000600660009054906101000a900473ffffffffffffffffffffffffffffffffffffffff1673ffffffffffffffffffffffffffffffffffffffff16635bc68f6d600254846040518363ffffffff1660e01b8152600401808381526020018281526020019250505060206040518083038186803b15801561188057600080fd5b505afa158015611894573d6000803e3d6000fd5b505050506040513d60208110156118aa57600080fd5b81019080805190602001909291905050509050806004819055506119056040518060400160405280601981526020017f70656e64696e6720626f72726f77696e67207261746520697300000000000000815250600454611eff565b6000600660009054906101000a900473ffffffffffffffffffffffffffffffffffffffff1673ffffffffffffffffffffffffffffffffffffffff1663951e7683600254856040518363ffffffff1660e01b8152600401808381526020018281526020019250505060206040518083038186803b15801561198457600080fd5b505afa158015611998573d6000803e3d6000fd5b505050506040513d60208110156119ae57600080fd5b8101908080519060200190929190505050905080600381905550611a096040518060400160405280601981526020017f70656e64696e6720626f72726f77696e67207261746520697300000000000000815250600354611eff565b6000611a1e8987611cd490919063ffffffff16565b90506000611a358383611afd90919063ffffffff16565b90506000611a4c8584611afd90919063ffffffff16565b90508181995099505050505050505050935093915050565b60025481565b6000600560003373ffffffffffffffffffffffffffffffffffffffff1673ffffffffffffffffffffffffffffffffffffffff16815260200190815260200160002060030154905090565b60056020528060005260406000206000915090508060000154908060010154908060020154908060030154908060040154908060050160009054906101000a900460ff16905086565b600080831415611b105760009050611b7d565b6000828402905082848281611b2157fe5b0414611b78576040517f08c379a00000000000000000000000000000000000000000000000000000000081526004018080602001828103825260218152602001806125366021913960400191505060405180910390fd5b809150505b92915050565b6000611bc583836040518060400160405280601a81526020017f536166654d6174683a206469766973696f6e206279207a65726f000000000000815250612006565b905092915050565b611cd082826040516024018083815260200180602001828103825283818151815260200191508051906020019080838360005b83811015611c1b578082015181840152602081019050611c00565b50505050905090810190601f168015611c485780820380516001836020036101000a031916815260200191505b5093505050506040516020818303038152906040527f0fa3f345000000000000000000000000000000000000000000000000000000007bffffffffffffffffffffffffffffffffffffffffffffffffffffffff19166020820180517bffffffffffffffffffffffffffffffffffffffffffffffffffffffff83818316178352505050506120cc565b5050565b6000611d1683836040518060400160405280601e81526020017f536166654d6174683a207375627472616374696f6e206f766572666c6f7700008152506120f5565b905092915050565b611dd18363a9059cbb60e01b8484604051602401808373ffffffffffffffffffffffffffffffffffffffff1673ffffffffffffffffffffffffffffffffffffffff16815260200182815260200192505050604051602081830303815290604052907bffffffffffffffffffffffffffffffffffffffffffffffffffffffff19166020820180517bffffffffffffffffffffffffffffffffffffffffffffffffffffffff83818316178352505050506121b5565b505050565b600080828401905083811015611e54576040517f08c379a000000000000000000000000000000000000000000000000000000000815260040180806020018281038252601b8152602001807f536166654d6174683a206164646974696f6e206f766572666c6f77000000000081525060200191505060405180910390fd5b8091505092915050565b60008060028381611e6b57fe5b049050611eb183611ea3611e946b033b2e3c9fd0803ce800000088611afd90919063ffffffff16565b84611dd690919063ffffffff16565b611b8390919063ffffffff16565b91505092915050565b6000806002633b9aca0081611ecb57fe5b049050611ef7633b9aca00611ee98584611dd690919063ffffffff16565b611b8390919063ffffffff16565b915050919050565b61200282826040516024018080602001838152602001828103825284818151815260200191508051906020019080838360005b83811015611f4d578082015181840152602081019050611f32565b50505050905090810190601f168015611f7a5780820380516001836020036101000a031916815260200191505b5093505050506040516020818303038152906040527f9710a9d0000000000000000000000000000000000000000000000000000000007bffffffffffffffffffffffffffffffffffffffffffffffffffffffff19166020820180517bffffffffffffffffffffffffffffffffffffffffffffffffffffffff83818316178352505050506120cc565b5050565b600080831182906120b2576040517f08c379a00000000000000000000000000000000000000000000000000000000081526004018080602001828103825283818151815260200191508051906020019080838360005b8381101561207757808201518184015260208101905061205c565b50505050905090810190601f1680156120a45780820380516001836020036101000a031916815260200191505b509250505060405180910390fd5b5060008385816120be57fe5b049050809150509392505050565b60008151905060006a636f6e736f6c652e6c6f679050602083016000808483855afa5050505050565b60008383111582906121a2576040517f08c379a00000000000000000000000000000000000000000000000000000000081526004018080602001828103825283818151815260200191508051906020019080838360005b8381101561216757808201518184015260208101905061214c565b50505050905090810190601f1680156121945780820380516001836020036101000a031916815260200191505b509250505060405180910390fd5b5060008385039050809150509392505050565b6121d48273ffffffffffffffffffffffffffffffffffffffff16612400565b612246576040517f08c379a000000000000000000000000000000000000000000000000000000000815260040180806020018281038252601f8152602001807f5361666545524332303a2063616c6c20746f206e6f6e2d636f6e74726163740081525060200191505060405180910390fd5b600060608373ffffffffffffffffffffffffffffffffffffffff16836040518082805190602001908083835b602083106122955780518252602082019150602081019050602083039250612272565b6001836020036101000a0380198251168184511680821785525050505050509050019150506000604051808303816000865af19150503d80600081146122f7576040519150601f19603f3d011682016040523d82523d6000602084013e6122fc565b606091505b509150915081612374576040517f08c379a00000000000000000000000000000000000000000000000000000000081526004018080602001828103825260208152602001807f5361666545524332303a206c6f772d6c6576656c2063616c6c206661696c656481525060200191505060405180910390fd5b6000815111156123fa5780806020019051602081101561239357600080fd5b81019080805190602001909291905050506123f9576040517f08c379a000000000000000000000000000000000000000000000000000000000815260040180806020018281038252602a815260200180612557602a913960400191505060405180910390fd5b5b50505050565b60008060007fc5d2460186f7233c927e7db2dcc703c0e500b653ca82273b7bfad8045d85a47060001b9050833f915080821415801561244257506000801b8214155b92505050919050565b6040518060c001604052806000815260200160008152602001600081526020016000815260200160008152602001600015158152509056fe4d617267696e506f6f6c3a20696e73756666696369656e74206d617267696e20616d6f756e74746f74616c2072657475726e73207072696e636970616c202b20726577617264734d617267696e506f6f6c3a20626f72726f77206475726174696f6e2068617320657863656564656420796f752077696c6c206265206c6971756964617465644d617267696e506f6f6c3a20626f72726f7765722068617320626f72726f7765642070726576696f75736c79536166654d6174683a206d756c7469706c69636174696f6e206f766572666c6f775361666545524332303a204552433230206f7065726174696f6e20646964206e6f7420737563636565644d617267696e506f6f6c3a20696e73756666696369656e74206465627420616c6c6f77616e6365a26469706673582212207da2558643ea0614353653089c3af9f5b7f4ed8ac945eb23d3226157041fd9c564736f6c63430006070033",
  "linkReferences": {},
  "deployedLinkReferences": {}
}