{
  "_format": "hh-sol-artifact-1",
  "contractName": "InterestRateStrategy",
  "sourceName": "contracts/InterestRateStrategy.sol",
  "abi": [
    {
      "inputs": [
        {
          "internalType": "uint256",
          "name": "_optimalUtilization",
          "type": "uint256"
        },
        {
          "internalType": "uint256",
          "name": "_baseStableRate",
          "type": "uint256"
        },
        {
          "internalType": "uint256",
          "name": "_slope1StableRate",
          "type": "uint256"
        },
        {
          "internalType": "uint256",
          "name": "_slope2StableRate",
          "type": "uint256"
        }
      ],
      "stateMutability": "nonpayable",
      "type": "constructor"
    },
    {
      "anonymous": false,
      "inputs": [
        {
          "indexed": true,
          "internalType": "address",
          "name": "previousOwner",
          "type": "address"
        },
        {
          "indexed": true,
          "internalType": "address",
          "name": "newOwner",
          "type": "address"
        }
      ],
      "name": "OwnershipTransferred",
      "type": "event"
    },
    {
      "inputs": [],
      "name": "a",
      "outputs": [
        {
          "internalType": "uint256",
          "name": "",
          "type": "uint256"
        }
      ],
      "stateMutability": "view",
      "type": "function"
    },
    {
      "inputs": [],
      "name": "baseStableRate",
      "outputs": [
        {
          "internalType": "uint256",
          "name": "",
          "type": "uint256"
        }
      ],
      "stateMutability": "view",
      "type": "function"
    },
    {
      "inputs": [
        {
          "internalType": "uint256",
          "name": "_totalBorrowed",
          "type": "uint256"
        },
        {
          "internalType": "uint256",
          "name": "_totalCreditAvailable",
          "type": "uint256"
        }
      ],
      "name": "computeBorrowingRewardRate",
      "outputs": [
        {
          "internalType": "uint256",
          "name": "",
          "type": "uint256"
        }
      ],
      "stateMutability": "view",
      "type": "function"
    },
    {
      "inputs": [
        {
          "internalType": "uint256",
          "name": "_totalBorrowed",
          "type": "uint256"
        },
        {
          "internalType": "uint256",
          "name": "_totalCreditAvailable",
          "type": "uint256"
        }
      ],
      "name": "computeDepositRewardRate",
      "outputs": [
        {
          "internalType": "uint256",
          "name": "",
          "type": "uint256"
        }
      ],
      "stateMutability": "view",
      "type": "function"
    },
    {
      "inputs": [],
      "name": "excessRate",
      "outputs": [
        {
          "internalType": "uint256",
          "name": "",
          "type": "uint256"
        }
      ],
      "stateMutability": "view",
      "type": "function"
    },
    {
      "inputs": [
        {
          "internalType": "uint256",
          "name": "_totalBorrowed",
          "type": "uint256"
        },
        {
          "internalType": "uint256",
          "name": "_totalCreditAvailable",
          "type": "uint256"
        }
      ],
      "name": "getUtilisation",
      "outputs": [
        {
          "internalType": "uint256",
          "name": "",
          "type": "uint256"
        }
      ],
      "stateMutability": "pure",
      "type": "function"
    },
    {
      "inputs": [],
      "name": "optimalUtilization",
      "outputs": [
        {
          "internalType": "uint256",
          "name": "",
          "type": "uint256"
        }
      ],
      "stateMutability": "view",
      "type": "function"
    },
    {
      "inputs": [],
      "name": "owner",
      "outputs": [
        {
          "internalType": "address",
          "name": "",
          "type": "address"
        }
      ],
      "stateMutability": "view",
      "type": "function"
    },
    {
      "inputs": [],
      "name": "renounceOwnership",
      "outputs": [],
      "stateMutability": "nonpayable",
      "type": "function"
    },
    {
      "inputs": [
        {
          "internalType": "uint256",
          "name": "_optimalUtilization",
          "type": "uint256"
        },
        {
          "internalType": "uint256",
          "name": "_baseStableRate",
          "type": "uint256"
        },
        {
          "internalType": "uint256",
          "name": "_slope1StableRate",
          "type": "uint256"
        },
        {
          "internalType": "uint256",
          "name": "_slope2StableRate",
          "type": "uint256"
        }
      ],
      "name": "setPoolVariables",
      "outputs": [],
      "stateMutability": "nonpayable",
      "type": "function"
    },
    {
      "inputs": [],
      "name": "slope1StableRate",
      "outputs": [
        {
          "internalType": "uint256",
          "name": "",
          "type": "uint256"
        }
      ],
      "stateMutability": "view",
      "type": "function"
    },
    {
      "inputs": [],
      "name": "slope2StableRate",
      "outputs": [
        {
          "internalType": "uint256",
          "name": "",
          "type": "uint256"
        }
      ],
      "stateMutability": "view",
      "type": "function"
    },
    {
      "inputs": [
        {
          "internalType": "address",
          "name": "newOwner",
          "type": "address"
        }
      ],
      "name": "transferOwnership",
      "outputs": [],
      "stateMutability": "nonpayable",
      "type": "function"
    }
  ],
  "bytecode": "0x6080604052670de0b6b3a764000060065534801561001c57600080fd5b50604051610ab8380380610ab88339818101604052608081101561003f57600080fd5b508051602082015160408301516060909301519192909160006100696001600160e01b036100d116565b600080546001600160a01b0319166001600160a01b0383169081178255604051929350917f8be0079c531659141344cd1fd0a4f28419497f9722a3daafe3b4186f6b6457e0908290a3506100c8848484846001600160e01b036100d516565b5050505061020e565b3390565b836001819055506101066001546100f461011860201b61067c1760201c565b61012860201b61052e1790919060201c565b60025560039290925560045560055550565b6b033b2e3c9fd0803ce800000090565b600061017083836040518060400160405280601e81526020017f536166654d6174683a207375627472616374696f6e206f766572666c6f77000081525061017760201b60201c565b9392505050565b600081848411156102065760405162461bcd60e51b81526004018080602001828103825283818151815260200191508051906020019080838360005b838110156101cb5781810151838201526020016101b3565b50505050905090810190601f1680156101f85780820380516001836020036101000a031916815260200191505b509250505060405180910390fd5b505050900390565b61089b8061021d6000396000f3fe608060405234801561001057600080fd5b50600436106100cf5760003560e01c8063951e76831161008c578063da9b105811610066578063da9b10581461019d578063f1b17287146101a5578063f2fde38b146101d4578063f621c30e146101fa576100cf565b8063951e76831461016a578063a42886291461018d578063a7adcc9b14610195576100cf565b80630dbe671f146100d45780635bc68f6d146100ee5780635daf0d46146101115780636290cd1c14610134578063715018a61461013c5780638da5cb5b14610146575b600080fd5b6100dc610202565b60408051918252519081900360200190f35b6100dc6004803603604081101561010457600080fd5b5080359060200135610208565b6100dc6004803603604081101561012757600080fd5b508035906020013561022f565b6100dc61025a565b610144610260565b005b61014e610314565b604080516001600160a01b039092168252519081900360200190f35b6100dc6004803603604081101561018057600080fd5b5080359060200135610323565b6100dc6103e9565b6100dc6103ef565b6100dc6103f5565b610144600480360360808110156101bb57600080fd5b50803590602081013590604081013590606001356103fb565b610144600480360360208110156101ea57600080fd5b50356001600160a01b031661041e565b6100dc610528565b60065481565b60006102266102178484610323565b6006549063ffffffff61052e16565b90505b92915050565b600061022661025561024084610570565b61024986610570565b9063ffffffff61058616565b6105ca565b60015481565b6102686105ea565b6000546001600160a01b039081169116146102ca576040805162461bcd60e51b815260206004820181905260248201527f4f776e61626c653a2063616c6c6572206973206e6f7420746865206f776e6572604482015290519081900360640190fd5b600080546040516001600160a01b03909116907f8be0079c531659141344cd1fd0a4f28419497f9722a3daafe3b4186f6b6457e0908390a3600080546001600160a01b0319169055565b6000546001600160a01b031690565b600060015461034161033484610570565b859063ffffffff61058616565b10156103825761037b61036c61035d600154610249878761022f565b6004549063ffffffff6105ee16565b6003549063ffffffff61062216565b9050610229565b60006103a660025461024960015461039a888861022f565b9063ffffffff61052e16565b90506103e16103c0600554836105ee90919063ffffffff16565b6004546003546103d59163ffffffff61062216565b9063ffffffff61062216565b915050610229565b60025481565b60055481565b60045481565b600184905561040c8461039a61067c565b60025560039290925560045560055550565b6104266105ea565b6000546001600160a01b03908116911614610488576040805162461bcd60e51b815260206004820181905260248201527f4f776e61626c653a2063616c6c6572206973206e6f7420746865206f776e6572604482015290519081900360640190fd5b6001600160a01b0381166104cd5760405162461bcd60e51b815260040180806020018281038252602681526020018061081f6026913960400191505060405180910390fd5b600080546040516001600160a01b03808516939216917f8be0079c531659141344cd1fd0a4f28419497f9722a3daafe3b4186f6b6457e091a3600080546001600160a01b0319166001600160a01b0392909216919091179055565b60035481565b600061022683836040518060400160405280601e81526020017f536166654d6174683a207375627472616374696f6e206f766572666c6f77000081525061068c565b600061022982633b9aca0063ffffffff61072316565b6000600282046105c2836105b66105a9876b033b2e3c9fd0803ce8000000610723565b849063ffffffff61062216565b9063ffffffff61077c16565b949350505050565b6000631dcd65006105e3633b9aca006105b68386610622565b9392505050565b3390565b60006102266b033b2e3c9fd0803ce80000006105b6610613868663ffffffff61072316565b6b019d971e4fe8401e74000000905b600082820183811015610226576040805162461bcd60e51b815260206004820152601b60248201527f536166654d6174683a206164646974696f6e206f766572666c6f770000000000604482015290519081900360640190fd5b6b033b2e3c9fd0803ce800000090565b6000818484111561071b5760405162461bcd60e51b81526004018080602001828103825283818151815260200191508051906020019080838360005b838110156106e05781810151838201526020016106c8565b50505050905090810190601f16801561070d5780820380516001836020036101000a031916815260200191505b509250505060405180910390fd5b505050900390565b60008261073257506000610229565b8282028284828161073f57fe5b04146102265760405162461bcd60e51b81526004018080602001828103825260218152602001806108456021913960400191505060405180910390fd5b600061022683836040518060400160405280601a81526020017f536166654d6174683a206469766973696f6e206279207a65726f000000000000815250600081836108085760405162461bcd60e51b81526020600482018181528351602484015283519092839260449091019190850190808383600083156106e05781810151838201526020016106c8565b50600083858161081457fe5b049594505050505056fe4f776e61626c653a206e6577206f776e657220697320746865207a65726f2061646472657373536166654d6174683a206d756c7469706c69636174696f6e206f766572666c6f77a2646970667358221220a03fe01e634aff9cafc14c3f77022d887383c19c14c22eda91432a66cac02eeb64736f6c63430006070033",
  "linkReferences": {},
  "deployedLinkReferences": {}
}