{
  "_format": "hh-sol-artifact-1",
  "contractName": "InterestRateStrategy",
  "sourceName": "contracts/InterestRateStrategy.sol",
  "abi": [
    {
      "inputs": [
        {
          "internalType": "uint256",
          "name": "_optimalUtilization",
          "type": "uint256"
        },
        {
          "internalType": "uint256",
          "name": "_baseStableRate",
          "type": "uint256"
        },
        {
          "internalType": "uint256",
          "name": "_slope1StableRate",
          "type": "uint256"
        },
        {
          "internalType": "uint256",
          "name": "_slope2StableRate",
          "type": "uint256"
        }
      ],
      "stateMutability": "nonpayable",
      "type": "constructor"
    },
    {
      "anonymous": false,
      "inputs": [
        {
          "indexed": true,
          "internalType": "address",
          "name": "previousOwner",
          "type": "address"
        },
        {
          "indexed": true,
          "internalType": "address",
          "name": "newOwner",
          "type": "address"
        }
      ],
      "name": "OwnershipTransferred",
      "type": "event"
    },
    {
      "inputs": [],
      "name": "baseStableRate",
      "outputs": [
        {
          "internalType": "uint256",
          "name": "",
          "type": "uint256"
        }
      ],
      "stateMutability": "view",
      "type": "function"
    },
    {
      "inputs": [
        {
          "internalType": "uint256",
          "name": "_totalBorrowed",
          "type": "uint256"
        },
        {
          "internalType": "uint256",
          "name": "_totalCreditAvailable",
          "type": "uint256"
        }
      ],
      "name": "computeBorrowingRewardRate",
      "outputs": [
        {
          "internalType": "uint256",
          "name": "",
          "type": "uint256"
        }
      ],
      "stateMutability": "view",
      "type": "function"
    },
    {
      "inputs": [
        {
          "internalType": "uint256",
          "name": "_totalBorrowed",
          "type": "uint256"
        },
        {
          "internalType": "uint256",
          "name": "_totalCreditAvailable",
          "type": "uint256"
        }
      ],
      "name": "computeDepositRewardRate",
      "outputs": [
        {
          "internalType": "uint256",
          "name": "",
          "type": "uint256"
        }
      ],
      "stateMutability": "view",
      "type": "function"
    },
    {
      "inputs": [],
      "name": "excessRate",
      "outputs": [
        {
          "internalType": "uint256",
          "name": "",
          "type": "uint256"
        }
      ],
      "stateMutability": "view",
      "type": "function"
    },
    {
      "inputs": [
        {
          "internalType": "uint256",
          "name": "_totalBorrowed",
          "type": "uint256"
        },
        {
          "internalType": "uint256",
          "name": "_totalCreditAvailable",
          "type": "uint256"
        }
      ],
      "name": "getUtilisation",
      "outputs": [
        {
          "internalType": "uint256",
          "name": "",
          "type": "uint256"
        }
      ],
      "stateMutability": "pure",
      "type": "function"
    },
    {
      "inputs": [],
      "name": "optimalUtilization",
      "outputs": [
        {
          "internalType": "uint256",
          "name": "",
          "type": "uint256"
        }
      ],
      "stateMutability": "view",
      "type": "function"
    },
    {
      "inputs": [],
      "name": "owner",
      "outputs": [
        {
          "internalType": "address",
          "name": "",
          "type": "address"
        }
      ],
      "stateMutability": "view",
      "type": "function"
    },
    {
      "inputs": [],
      "name": "renounceOwnership",
      "outputs": [],
      "stateMutability": "nonpayable",
      "type": "function"
    },
    {
      "inputs": [
        {
          "internalType": "uint256",
          "name": "_optimalUtilization",
          "type": "uint256"
        },
        {
          "internalType": "uint256",
          "name": "_baseStableRate",
          "type": "uint256"
        },
        {
          "internalType": "uint256",
          "name": "_slope1StableRate",
          "type": "uint256"
        },
        {
          "internalType": "uint256",
          "name": "_slope2StableRate",
          "type": "uint256"
        }
      ],
      "name": "setPoolVariables",
      "outputs": [],
      "stateMutability": "nonpayable",
      "type": "function"
    },
    {
      "inputs": [],
      "name": "slope1StableRate",
      "outputs": [
        {
          "internalType": "uint256",
          "name": "",
          "type": "uint256"
        }
      ],
      "stateMutability": "view",
      "type": "function"
    },
    {
      "inputs": [],
      "name": "slope2StableRate",
      "outputs": [
        {
          "internalType": "uint256",
          "name": "",
          "type": "uint256"
        }
      ],
      "stateMutability": "view",
      "type": "function"
    },
    {
      "inputs": [
        {
          "internalType": "address",
          "name": "newOwner",
          "type": "address"
        }
      ],
      "name": "transferOwnership",
      "outputs": [],
      "stateMutability": "nonpayable",
      "type": "function"
    }
  ],
  "bytecode": "0x608060405234801561001057600080fd5b50604051610a82380380610a828339818101604052608081101561003357600080fd5b5080516020820151604083015160609093015191929091600061005d6001600160e01b036100c516565b600080546001600160a01b0319166001600160a01b0383169081178255604051929350917f8be0079c531659141344cd1fd0a4f28419497f9722a3daafe3b4186f6b6457e0908290a3506100bc848484846001600160e01b036100c916565b50505050610202565b3390565b836001819055506100fa6001546100e861010c60201b6106521760201c565b61011c60201b6105041790919060201c565b60025560039290925560045560055550565b6b033b2e3c9fd0803ce800000090565b600061016483836040518060400160405280601e81526020017f536166654d6174683a207375627472616374696f6e206f766572666c6f77000081525061016b60201b60201c565b9392505050565b600081848411156101fa5760405162461bcd60e51b81526004018080602001828103825283818151815260200191508051906020019080838360005b838110156101bf5781810151838201526020016101a7565b50505050905090810190601f1680156101ec5780820380516001836020036101000a031916815260200191505b509250505060405180910390fd5b505050900390565b610871806102116000396000f3fe608060405234801561001057600080fd5b50600436106100b45760003560e01c8063a428862911610071578063a42886291461016a578063a7adcc9b14610172578063da9b10581461017a578063f1b1728714610182578063f2fde38b146101b1578063f621c30e146101d7576100b4565b80635bc68f6d146100b95780635daf0d46146100ee5780636290cd1c14610111578063715018a6146101195780638da5cb5b14610123578063951e768314610147575b600080fd5b6100dc600480360360408110156100cf57600080fd5b50803590602001356101df565b60408051918252519081900360200190f35b6100dc6004803603604081101561010457600080fd5b5080359060200135610205565b6100dc610230565b610121610236565b005b61012b6102ea565b604080516001600160a01b039092168252519081900360200190f35b6100dc6004803603604081101561015d57600080fd5b50803590602001356102f9565b6100dc6103bf565b6100dc6103c5565b6100dc6103cb565b6101216004803603608081101561019857600080fd5b50803590602081013590604081013590606001356103d1565b610121600480360360208110156101c757600080fd5b50356001600160a01b03166103f4565b6100dc6104fe565b60006101fc6101ee84846102f9565b60019063ffffffff61050416565b90505b92915050565b60006101fc61022b61021684610546565b61021f86610546565b9063ffffffff61055c16565b6105a0565b60015481565b61023e6105c0565b6000546001600160a01b039081169116146102a0576040805162461bcd60e51b815260206004820181905260248201527f4f776e61626c653a2063616c6c6572206973206e6f7420746865206f776e6572604482015290519081900360640190fd5b600080546040516001600160a01b03909116907f8be0079c531659141344cd1fd0a4f28419497f9722a3daafe3b4186f6b6457e0908390a3600080546001600160a01b0319169055565b6000546001600160a01b031690565b600060015461031761030a84610546565b859063ffffffff61055c16565b10156103585761035161034261033360015461021f8787610205565b6004549063ffffffff6105c416565b6003549063ffffffff6105f816565b90506101ff565b600061037c60025461021f6001546103708888610205565b9063ffffffff61050416565b90506103b7610396600554836105c490919063ffffffff16565b6004546003546103ab9163ffffffff6105f816565b9063ffffffff6105f816565b9150506101ff565b60025481565b60055481565b60045481565b60018490556103e284610370610652565b60025560039290925560045560055550565b6103fc6105c0565b6000546001600160a01b0390811691161461045e576040805162461bcd60e51b815260206004820181905260248201527f4f776e61626c653a2063616c6c6572206973206e6f7420746865206f776e6572604482015290519081900360640190fd5b6001600160a01b0381166104a35760405162461bcd60e51b81526004018080602001828103825260268152602001806107f56026913960400191505060405180910390fd5b600080546040516001600160a01b03808516939216917f8be0079c531659141344cd1fd0a4f28419497f9722a3daafe3b4186f6b6457e091a3600080546001600160a01b0319166001600160a01b0392909216919091179055565b60035481565b60006101fc83836040518060400160405280601e81526020017f536166654d6174683a207375627472616374696f6e206f766572666c6f770000815250610662565b60006101ff82633b9aca0063ffffffff6106f916565b6000600282046105988361058c61057f876b033b2e3c9fd0803ce80000006106f9565b849063ffffffff6105f816565b9063ffffffff61075216565b949350505050565b6000631dcd65006105b9633b9aca0061058c83866105f8565b9392505050565b3390565b60006101fc6b033b2e3c9fd0803ce800000061058c6105e9868663ffffffff6106f916565b6b019d971e4fe8401e74000000905b6000828201838110156101fc576040805162461bcd60e51b815260206004820152601b60248201527f536166654d6174683a206164646974696f6e206f766572666c6f770000000000604482015290519081900360640190fd5b6b033b2e3c9fd0803ce800000090565b600081848411156106f15760405162461bcd60e51b81526004018080602001828103825283818151815260200191508051906020019080838360005b838110156106b657818101518382015260200161069e565b50505050905090810190601f1680156106e35780820380516001836020036101000a031916815260200191505b509250505060405180910390fd5b505050900390565b600082610708575060006101ff565b8282028284828161071557fe5b04146101fc5760405162461bcd60e51b815260040180806020018281038252602181526020018061081b6021913960400191505060405180910390fd5b60006101fc83836040518060400160405280601a81526020017f536166654d6174683a206469766973696f6e206279207a65726f000000000000815250600081836107de5760405162461bcd60e51b81526020600482018181528351602484015283519092839260449091019190850190808383600083156106b657818101518382015260200161069e565b5060008385816107ea57fe5b049594505050505056fe4f776e61626c653a206e6577206f776e657220697320746865207a65726f2061646472657373536166654d6174683a206d756c7469706c69636174696f6e206f766572666c6f77a26469706673582212206791392ea98dd539f46b65885ef2648272c35a537dabcd7ac77a8d16fbd9afcc64736f6c63430006070033",
  "linkReferences": {},
  "deployedLinkReferences": {}
}