{
  "_format": "hh-sol-artifact-1",
  "contractName": "InterestRateStrategy",
  "sourceName": "contracts/InterestRateStrategy.sol",
  "abi": [
    {
      "inputs": [
        {
          "internalType": "uint256",
          "name": "_optimalUtilization",
          "type": "uint256"
        },
        {
          "internalType": "uint256",
          "name": "_baseStableRate",
          "type": "uint256"
        },
        {
          "internalType": "uint256",
          "name": "_slope1StableRate",
          "type": "uint256"
        },
        {
          "internalType": "uint256",
          "name": "_slope2StableRate",
          "type": "uint256"
        }
      ],
      "stateMutability": "nonpayable",
      "type": "constructor"
    },
    {
      "anonymous": false,
      "inputs": [
        {
          "indexed": true,
          "internalType": "address",
          "name": "previousOwner",
          "type": "address"
        },
        {
          "indexed": true,
          "internalType": "address",
          "name": "newOwner",
          "type": "address"
        }
      ],
      "name": "OwnershipTransferred",
      "type": "event"
    },
    {
      "inputs": [],
      "name": "baseStableRate",
      "outputs": [
        {
          "internalType": "uint256",
          "name": "",
          "type": "uint256"
        }
      ],
      "stateMutability": "view",
      "type": "function"
    },
    {
      "inputs": [
        {
          "internalType": "uint256",
          "name": "_totalBorrowed",
          "type": "uint256"
        },
        {
          "internalType": "uint256",
          "name": "_totalCreditAvailable",
          "type": "uint256"
        }
      ],
      "name": "computeBorrowingRewardRate",
      "outputs": [
        {
          "internalType": "uint256",
          "name": "",
          "type": "uint256"
        }
      ],
      "stateMutability": "view",
      "type": "function"
    },
    {
      "inputs": [
        {
          "internalType": "uint256",
          "name": "_totalBorrowed",
          "type": "uint256"
        },
        {
          "internalType": "uint256",
          "name": "_totalCreditAvailable",
          "type": "uint256"
        }
      ],
      "name": "computeDepositRewardRate",
      "outputs": [
        {
          "internalType": "uint256",
          "name": "",
          "type": "uint256"
        }
      ],
      "stateMutability": "view",
      "type": "function"
    },
    {
      "inputs": [],
      "name": "excessRate",
      "outputs": [
        {
          "internalType": "uint256",
          "name": "",
          "type": "uint256"
        }
      ],
      "stateMutability": "view",
      "type": "function"
    },
    {
      "inputs": [
        {
          "internalType": "uint256",
          "name": "_totalBorrowed",
          "type": "uint256"
        },
        {
          "internalType": "uint256",
          "name": "_totalCreditAvailable",
          "type": "uint256"
        }
      ],
      "name": "getUtilisation",
      "outputs": [
        {
          "internalType": "uint256",
          "name": "",
          "type": "uint256"
        }
      ],
      "stateMutability": "pure",
      "type": "function"
    },
    {
      "inputs": [],
      "name": "optimalUtilization",
      "outputs": [
        {
          "internalType": "uint256",
          "name": "",
          "type": "uint256"
        }
      ],
      "stateMutability": "view",
      "type": "function"
    },
    {
      "inputs": [],
      "name": "owner",
      "outputs": [
        {
          "internalType": "address",
          "name": "",
          "type": "address"
        }
      ],
      "stateMutability": "view",
      "type": "function"
    },
    {
      "inputs": [],
      "name": "renounceOwnership",
      "outputs": [],
      "stateMutability": "nonpayable",
      "type": "function"
    },
    {
      "inputs": [
        {
          "internalType": "uint256",
          "name": "_optimalUtilization",
          "type": "uint256"
        },
        {
          "internalType": "uint256",
          "name": "_baseStableRate",
          "type": "uint256"
        },
        {
          "internalType": "uint256",
          "name": "_slope1StableRate",
          "type": "uint256"
        },
        {
          "internalType": "uint256",
          "name": "_slope2StableRate",
          "type": "uint256"
        }
      ],
      "name": "setPoolVariables",
      "outputs": [],
      "stateMutability": "nonpayable",
      "type": "function"
    },
    {
      "inputs": [],
      "name": "slope1StableRate",
      "outputs": [
        {
          "internalType": "uint256",
          "name": "",
          "type": "uint256"
        }
      ],
      "stateMutability": "view",
      "type": "function"
    },
    {
      "inputs": [],
      "name": "slope2StableRate",
      "outputs": [
        {
          "internalType": "uint256",
          "name": "",
          "type": "uint256"
        }
      ],
      "stateMutability": "view",
      "type": "function"
    },
    {
      "inputs": [
        {
          "internalType": "address",
          "name": "newOwner",
          "type": "address"
        }
      ],
      "name": "transferOwnership",
      "outputs": [],
      "stateMutability": "nonpayable",
      "type": "function"
    }
  ],
  "bytecode": "0x608060405234801561001057600080fd5b50604051610a7c380380610a7c8339818101604052608081101561003357600080fd5b5080516020820151604083015160609093015191929091600061005d6001600160e01b036100c516565b600080546001600160a01b0319166001600160a01b0383169081178255604051929350917f8be0079c531659141344cd1fd0a4f28419497f9722a3daafe3b4186f6b6457e0908290a3506100bc848484846001600160e01b036100c916565b50505050610202565b3390565b836001819055506100fa6001546100e861010c60201b6104fe1760201c565b61011c60201b61050e1790919060201c565b60025560039290925560045560055550565b6b033b2e3c9fd0803ce800000090565b600061016483836040518060400160405280601e81526020017f536166654d6174683a207375627472616374696f6e206f766572666c6f77000081525061016b60201b60201c565b9392505050565b600081848411156101fa5760405162461bcd60e51b81526004018080602001828103825283818151815260200191508051906020019080838360005b838110156101bf5781810151838201526020016101a7565b50505050905090810190601f1680156101ec5780820380516001836020036101000a031916815260200191505b509250505060405180910390fd5b505050900390565b61086b806102116000396000f3fe608060405234801561001057600080fd5b50600436106100b45760003560e01c8063a428862911610071578063a42886291461016a578063a7adcc9b14610172578063da9b10581461017a578063f1b1728714610182578063f2fde38b146101b1578063f621c30e146101d7576100b4565b80635bc68f6d146100b95780635daf0d46146100ee5780636290cd1c14610111578063715018a6146101195780638da5cb5b14610123578063951e768314610147575b600080fd5b6100dc600480360360408110156100cf57600080fd5b50803590602001356101df565b60408051918252519081900360200190f35b6100dc6004803603604081101561010457600080fd5b508035906020013561020b565b6100dc610236565b61012161023c565b005b61012b6102f0565b604080516001600160a01b039092168252519081900360200190f35b6100dc6004803603604081101561015d57600080fd5b50803590602001356102ff565b6100dc6103b9565b6100dc6103bf565b6100dc6103c5565b6101216004803603608081101561019857600080fd5b50803590602081013590604081013590606001356103cb565b610121600480360360208110156101c757600080fd5b50356001600160a01b03166103ee565b6100dc6104f8565b60006102026101ee84846102ff565b6101f66104fe565b9063ffffffff61050e16565b90505b92915050565b600061020261023161021c84610550565b61022586610550565b9063ffffffff61056616565b6105aa565b60015481565b6102446105ca565b6000546001600160a01b039081169116146102a6576040805162461bcd60e51b815260206004820181905260248201527f4f776e61626c653a2063616c6c6572206973206e6f7420746865206f776e6572604482015290519081900360640190fd5b600080546040516001600160a01b03909116907f8be0079c531659141344cd1fd0a4f28419497f9722a3daafe3b4186f6b6457e0908390a3600080546001600160a01b0319169055565b6000546001600160a01b031690565b600060015461031d61031084610550565b859063ffffffff61056616565b101561035e57610357610348610339600154610225878761020b565b6004549063ffffffff6105ce16565b6003549063ffffffff61060216565b9050610205565b60006103766002546102256001546101f6888861020b565b90506103b1610390600554836105ce90919063ffffffff16565b6004546003546103a59163ffffffff61060216565b9063ffffffff61060216565b915050610205565b60025481565b60055481565b60045481565b60018490556103dc846101f66104fe565b60025560039290925560045560055550565b6103f66105ca565b6000546001600160a01b03908116911614610458576040805162461bcd60e51b815260206004820181905260248201527f4f776e61626c653a2063616c6c6572206973206e6f7420746865206f776e6572604482015290519081900360640190fd5b6001600160a01b03811661049d5760405162461bcd60e51b81526004018080602001828103825260268152602001806107ef6026913960400191505060405180910390fd5b600080546040516001600160a01b03808516939216917f8be0079c531659141344cd1fd0a4f28419497f9722a3daafe3b4186f6b6457e091a3600080546001600160a01b0319166001600160a01b0392909216919091179055565b60035481565b6b033b2e3c9fd0803ce800000090565b600061020283836040518060400160405280601e81526020017f536166654d6174683a207375627472616374696f6e206f766572666c6f77000081525061065c565b600061020582633b9aca0063ffffffff6106f316565b6000600282046105a283610596610589876b033b2e3c9fd0803ce80000006106f3565b849063ffffffff61060216565b9063ffffffff61074c16565b949350505050565b6000631dcd65006105c3633b9aca006105968386610602565b9392505050565b3390565b60006102026b033b2e3c9fd0803ce80000006105966105f3868663ffffffff6106f316565b6b019d971e4fe8401e74000000905b600082820183811015610202576040805162461bcd60e51b815260206004820152601b60248201527f536166654d6174683a206164646974696f6e206f766572666c6f770000000000604482015290519081900360640190fd5b600081848411156106eb5760405162461bcd60e51b81526004018080602001828103825283818151815260200191508051906020019080838360005b838110156106b0578181015183820152602001610698565b50505050905090810190601f1680156106dd5780820380516001836020036101000a031916815260200191505b509250505060405180910390fd5b505050900390565b60008261070257506000610205565b8282028284828161070f57fe5b04146102025760405162461bcd60e51b81526004018080602001828103825260218152602001806108156021913960400191505060405180910390fd5b600061020283836040518060400160405280601a81526020017f536166654d6174683a206469766973696f6e206279207a65726f000000000000815250600081836107d85760405162461bcd60e51b81526020600482018181528351602484015283519092839260449091019190850190808383600083156106b0578181015183820152602001610698565b5060008385816107e457fe5b049594505050505056fe4f776e61626c653a206e6577206f776e657220697320746865207a65726f2061646472657373536166654d6174683a206d756c7469706c69636174696f6e206f766572666c6f77a26469706673582212201c6e4613c9bb91afe199c0416f1f956978c906acdbe94e1af2448e19641a7ed864736f6c63430006070033",
  "linkReferences": {},
  "deployedLinkReferences": {}
}