{
  "contracts/InterestRateStrategy.sol": {
    "InterestRateStrategy": {
      "abi": [
        {
          "inputs": [
            {
              "internalType": "uint256",
              "name": "_optimalUtilization",
              "type": "uint256"
            },
            {
              "internalType": "uint256",
              "name": "_baseStableRate",
              "type": "uint256"
            },
            {
              "internalType": "uint256",
              "name": "_slope1StableRate",
              "type": "uint256"
            },
            {
              "internalType": "uint256",
              "name": "_slope2StableRate",
              "type": "uint256"
            }
          ],
          "stateMutability": "nonpayable",
          "type": "constructor"
        },
        {
          "anonymous": false,
          "inputs": [
            {
              "indexed": true,
              "internalType": "address",
              "name": "previousOwner",
              "type": "address"
            },
            {
              "indexed": true,
              "internalType": "address",
              "name": "newOwner",
              "type": "address"
            }
          ],
          "name": "OwnershipTransferred",
          "type": "event"
        },
        {
          "inputs": [],
          "name": "baseStableRate",
          "outputs": [
            {
              "internalType": "uint256",
              "name": "",
              "type": "uint256"
            }
          ],
          "stateMutability": "view",
          "type": "function"
        },
        {
          "inputs": [
            {
              "internalType": "uint256",
              "name": "_totalBorrowed",
              "type": "uint256"
            },
            {
              "internalType": "uint256",
              "name": "_totalCreditAvailable",
              "type": "uint256"
            }
          ],
          "name": "computeBorrowingRewardRate",
          "outputs": [
            {
              "internalType": "uint256",
              "name": "",
              "type": "uint256"
            }
          ],
          "stateMutability": "view",
          "type": "function"
        },
        {
          "inputs": [
            {
              "internalType": "uint256",
              "name": "_totalBorrowed",
              "type": "uint256"
            },
            {
              "internalType": "uint256",
              "name": "_totalCreditAvailable",
              "type": "uint256"
            }
          ],
          "name": "computeDepositRewardRate",
          "outputs": [
            {
              "internalType": "uint256",
              "name": "",
              "type": "uint256"
            }
          ],
          "stateMutability": "view",
          "type": "function"
        },
        {
          "inputs": [],
          "name": "excessRate",
          "outputs": [
            {
              "internalType": "uint256",
              "name": "",
              "type": "uint256"
            }
          ],
          "stateMutability": "view",
          "type": "function"
        },
        {
          "inputs": [
            {
              "internalType": "uint256",
              "name": "_totalBorrowed",
              "type": "uint256"
            },
            {
              "internalType": "uint256",
              "name": "_totalCreditAvailable",
              "type": "uint256"
            }
          ],
          "name": "getUtilisation",
          "outputs": [
            {
              "internalType": "uint256",
              "name": "",
              "type": "uint256"
            }
          ],
          "stateMutability": "pure",
          "type": "function"
        },
        {
          "inputs": [],
          "name": "optimalUtilization",
          "outputs": [
            {
              "internalType": "uint256",
              "name": "",
              "type": "uint256"
            }
          ],
          "stateMutability": "view",
          "type": "function"
        },
        {
          "inputs": [],
          "name": "owner",
          "outputs": [
            {
              "internalType": "address",
              "name": "",
              "type": "address"
            }
          ],
          "stateMutability": "view",
          "type": "function"
        },
        {
          "inputs": [],
          "name": "renounceOwnership",
          "outputs": [],
          "stateMutability": "nonpayable",
          "type": "function"
        },
        {
          "inputs": [
            {
              "internalType": "uint256",
              "name": "_optimalUtilization",
              "type": "uint256"
            },
            {
              "internalType": "uint256",
              "name": "_baseStableRate",
              "type": "uint256"
            },
            {
              "internalType": "uint256",
              "name": "_slope1StableRate",
              "type": "uint256"
            },
            {
              "internalType": "uint256",
              "name": "_slope2StableRate",
              "type": "uint256"
            }
          ],
          "name": "setPoolVariables",
          "outputs": [],
          "stateMutability": "nonpayable",
          "type": "function"
        },
        {
          "inputs": [],
          "name": "slope1StableRate",
          "outputs": [
            {
              "internalType": "uint256",
              "name": "",
              "type": "uint256"
            }
          ],
          "stateMutability": "view",
          "type": "function"
        },
        {
          "inputs": [],
          "name": "slope2StableRate",
          "outputs": [
            {
              "internalType": "uint256",
              "name": "",
              "type": "uint256"
            }
          ],
          "stateMutability": "view",
          "type": "function"
        },
        {
          "inputs": [
            {
              "internalType": "address",
              "name": "newOwner",
              "type": "address"
            }
          ],
          "name": "transferOwnership",
          "outputs": [],
          "stateMutability": "nonpayable",
          "type": "function"
        }
      ],
      "evm": {
        "bytecode": {
          "linkReferences": {},
          "object": "608060405234801561001057600080fd5b50604051610a7c380380610a7c8339818101604052608081101561003357600080fd5b5080516020820151604083015160609093015191929091600061005d6001600160e01b036100c516565b600080546001600160a01b0319166001600160a01b0383169081178255604051929350917f8be0079c531659141344cd1fd0a4f28419497f9722a3daafe3b4186f6b6457e0908290a3506100bc848484846001600160e01b036100c916565b50505050610202565b3390565b836001819055506100fa6001546100e861010c60201b6104fe1760201c565b61011c60201b61050e1790919060201c565b60025560039290925560045560055550565b6b033b2e3c9fd0803ce800000090565b600061016483836040518060400160405280601e81526020017f536166654d6174683a207375627472616374696f6e206f766572666c6f77000081525061016b60201b60201c565b9392505050565b600081848411156101fa5760405162461bcd60e51b81526004018080602001828103825283818151815260200191508051906020019080838360005b838110156101bf5781810151838201526020016101a7565b50505050905090810190601f1680156101ec5780820380516001836020036101000a031916815260200191505b509250505060405180910390fd5b505050900390565b61086b806102116000396000f3fe608060405234801561001057600080fd5b50600436106100b45760003560e01c8063a428862911610071578063a42886291461016a578063a7adcc9b14610172578063da9b10581461017a578063f1b1728714610182578063f2fde38b146101b1578063f621c30e146101d7576100b4565b80635bc68f6d146100b95780635daf0d46146100ee5780636290cd1c14610111578063715018a6146101195780638da5cb5b14610123578063951e768314610147575b600080fd5b6100dc600480360360408110156100cf57600080fd5b50803590602001356101df565b60408051918252519081900360200190f35b6100dc6004803603604081101561010457600080fd5b508035906020013561020b565b6100dc610236565b61012161023c565b005b61012b6102f0565b604080516001600160a01b039092168252519081900360200190f35b6100dc6004803603604081101561015d57600080fd5b50803590602001356102ff565b6100dc6103b9565b6100dc6103bf565b6100dc6103c5565b6101216004803603608081101561019857600080fd5b50803590602081013590604081013590606001356103cb565b610121600480360360208110156101c757600080fd5b50356001600160a01b03166103ee565b6100dc6104f8565b60006102026101ee84846102ff565b6101f66104fe565b9063ffffffff61050e16565b90505b92915050565b600061020261023161021c84610550565b61022586610550565b9063ffffffff61056616565b6105aa565b60015481565b6102446105ca565b6000546001600160a01b039081169116146102a6576040805162461bcd60e51b815260206004820181905260248201527f4f776e61626c653a2063616c6c6572206973206e6f7420746865206f776e6572604482015290519081900360640190fd5b600080546040516001600160a01b03909116907f8be0079c531659141344cd1fd0a4f28419497f9722a3daafe3b4186f6b6457e0908390a3600080546001600160a01b0319169055565b6000546001600160a01b031690565b600060015461031d61031084610550565b859063ffffffff61056616565b101561035e57610357610348610339600154610225878761020b565b6004549063ffffffff6105ce16565b6003549063ffffffff61060216565b9050610205565b60006103766002546102256001546101f6888861020b565b90506103b1610390600554836105ce90919063ffffffff16565b6004546003546103a59163ffffffff61060216565b9063ffffffff61060216565b915050610205565b60025481565b60055481565b60045481565b60018490556103dc846101f66104fe565b60025560039290925560045560055550565b6103f66105ca565b6000546001600160a01b03908116911614610458576040805162461bcd60e51b815260206004820181905260248201527f4f776e61626c653a2063616c6c6572206973206e6f7420746865206f776e6572604482015290519081900360640190fd5b6001600160a01b03811661049d5760405162461bcd60e51b81526004018080602001828103825260268152602001806107ef6026913960400191505060405180910390fd5b600080546040516001600160a01b03808516939216917f8be0079c531659141344cd1fd0a4f28419497f9722a3daafe3b4186f6b6457e091a3600080546001600160a01b0319166001600160a01b0392909216919091179055565b60035481565b6b033b2e3c9fd0803ce800000090565b600061020283836040518060400160405280601e81526020017f536166654d6174683a207375627472616374696f6e206f766572666c6f77000081525061065c565b600061020582633b9aca0063ffffffff6106f316565b6000600282046105a283610596610589876b033b2e3c9fd0803ce80000006106f3565b849063ffffffff61060216565b9063ffffffff61074c16565b949350505050565b6000631dcd65006105c3633b9aca006105968386610602565b9392505050565b3390565b60006102026b033b2e3c9fd0803ce80000006105966105f3868663ffffffff6106f316565b6b019d971e4fe8401e74000000905b600082820183811015610202576040805162461bcd60e51b815260206004820152601b60248201527f536166654d6174683a206164646974696f6e206f766572666c6f770000000000604482015290519081900360640190fd5b600081848411156106eb5760405162461bcd60e51b81526004018080602001828103825283818151815260200191508051906020019080838360005b838110156106b0578181015183820152602001610698565b50505050905090810190601f1680156106dd5780820380516001836020036101000a031916815260200191505b509250505060405180910390fd5b505050900390565b60008261070257506000610205565b8282028284828161070f57fe5b04146102025760405162461bcd60e51b81526004018080602001828103825260218152602001806108156021913960400191505060405180910390fd5b600061020283836040518060400160405280601a81526020017f536166654d6174683a206469766973696f6e206279207a65726f000000000000815250600081836107d85760405162461bcd60e51b81526020600482018181528351602484015283519092839260449091019190850190808383600083156106b0578181015183820152602001610698565b5060008385816107e457fe5b049594505050505056fe4f776e61626c653a206e6577206f776e657220697320746865207a65726f2061646472657373536166654d6174683a206d756c7469706c69636174696f6e206f766572666c6f77a2646970667358221220685897dec1a77ebd41850167b400975904f56bc8d809f634a4fa53986dc45da564736f6c63430006070033",
          "opcodes": "PUSH1 0x80 PUSH1 0x40 MSTORE CALLVALUE DUP1 ISZERO PUSH2 0x10 JUMPI PUSH1 0x0 DUP1 REVERT JUMPDEST POP PUSH1 0x40 MLOAD PUSH2 0xA7C CODESIZE SUB DUP1 PUSH2 0xA7C DUP4 CODECOPY DUP2 DUP2 ADD PUSH1 0x40 MSTORE PUSH1 0x80 DUP2 LT ISZERO PUSH2 0x33 JUMPI PUSH1 0x0 DUP1 REVERT JUMPDEST POP DUP1 MLOAD PUSH1 0x20 DUP3 ADD MLOAD PUSH1 0x40 DUP4 ADD MLOAD PUSH1 0x60 SWAP1 SWAP4 ADD MLOAD SWAP2 SWAP3 SWAP1 SWAP2 PUSH1 0x0 PUSH2 0x5D PUSH1 0x1 PUSH1 0x1 PUSH1 0xE0 SHL SUB PUSH2 0xC5 AND JUMP JUMPDEST PUSH1 0x0 DUP1 SLOAD PUSH1 0x1 PUSH1 0x1 PUSH1 0xA0 SHL SUB NOT AND PUSH1 0x1 PUSH1 0x1 PUSH1 0xA0 SHL SUB DUP4 AND SWAP1 DUP2 OR DUP3 SSTORE PUSH1 0x40 MLOAD SWAP3 SWAP4 POP SWAP2 PUSH32 0x8BE0079C531659141344CD1FD0A4F28419497F9722A3DAAFE3B4186F6B6457E0 SWAP1 DUP3 SWAP1 LOG3 POP PUSH2 0xBC DUP5 DUP5 DUP5 DUP5 PUSH1 0x1 PUSH1 0x1 PUSH1 0xE0 SHL SUB PUSH2 0xC9 AND JUMP JUMPDEST POP POP POP POP PUSH2 0x202 JUMP JUMPDEST CALLER SWAP1 JUMP JUMPDEST DUP4 PUSH1 0x1 DUP2 SWAP1 SSTORE POP PUSH2 0xFA PUSH1 0x1 SLOAD PUSH2 0xE8 PUSH2 0x10C PUSH1 0x20 SHL PUSH2 0x4FE OR PUSH1 0x20 SHR JUMP JUMPDEST PUSH2 0x11C PUSH1 0x20 SHL PUSH2 0x50E OR SWAP1 SWAP2 SWAP1 PUSH1 0x20 SHR JUMP JUMPDEST PUSH1 0x2 SSTORE PUSH1 0x3 SWAP3 SWAP1 SWAP3 SSTORE PUSH1 0x4 SSTORE PUSH1 0x5 SSTORE POP JUMP JUMPDEST PUSH12 0x33B2E3C9FD0803CE8000000 SWAP1 JUMP JUMPDEST PUSH1 0x0 PUSH2 0x164 DUP4 DUP4 PUSH1 0x40 MLOAD DUP1 PUSH1 0x40 ADD PUSH1 0x40 MSTORE DUP1 PUSH1 0x1E DUP2 MSTORE PUSH1 0x20 ADD PUSH32 0x536166654D6174683A207375627472616374696F6E206F766572666C6F770000 DUP2 MSTORE POP PUSH2 0x16B PUSH1 0x20 SHL PUSH1 0x20 SHR JUMP JUMPDEST SWAP4 SWAP3 POP POP POP JUMP JUMPDEST PUSH1 0x0 DUP2 DUP5 DUP5 GT ISZERO PUSH2 0x1FA JUMPI PUSH1 0x40 MLOAD PUSH3 0x461BCD PUSH1 0xE5 SHL DUP2 MSTORE PUSH1 0x4 ADD DUP1 DUP1 PUSH1 0x20 ADD DUP3 DUP2 SUB DUP3 MSTORE DUP4 DUP2 DUP2 MLOAD DUP2 MSTORE PUSH1 0x20 ADD SWAP2 POP DUP1 MLOAD SWAP1 PUSH1 0x20 ADD SWAP1 DUP1 DUP4 DUP4 PUSH1 0x0 JUMPDEST DUP4 DUP2 LT ISZERO PUSH2 0x1BF JUMPI DUP2 DUP2 ADD MLOAD DUP4 DUP3 ADD MSTORE PUSH1 0x20 ADD PUSH2 0x1A7 JUMP JUMPDEST POP POP POP POP SWAP1 POP SWAP1 DUP2 ADD SWAP1 PUSH1 0x1F AND DUP1 ISZERO PUSH2 0x1EC JUMPI DUP1 DUP3 SUB DUP1 MLOAD PUSH1 0x1 DUP4 PUSH1 0x20 SUB PUSH2 0x100 EXP SUB NOT AND DUP2 MSTORE PUSH1 0x20 ADD SWAP2 POP JUMPDEST POP SWAP3 POP POP POP PUSH1 0x40 MLOAD DUP1 SWAP2 SUB SWAP1 REVERT JUMPDEST POP POP POP SWAP1 SUB SWAP1 JUMP JUMPDEST PUSH2 0x86B DUP1 PUSH2 0x211 PUSH1 0x0 CODECOPY PUSH1 0x0 RETURN INVALID PUSH1 0x80 PUSH1 0x40 MSTORE CALLVALUE DUP1 ISZERO PUSH2 0x10 JUMPI PUSH1 0x0 DUP1 REVERT JUMPDEST POP PUSH1 0x4 CALLDATASIZE LT PUSH2 0xB4 JUMPI PUSH1 0x0 CALLDATALOAD PUSH1 0xE0 SHR DUP1 PUSH4 0xA4288629 GT PUSH2 0x71 JUMPI DUP1 PUSH4 0xA4288629 EQ PUSH2 0x16A JUMPI DUP1 PUSH4 0xA7ADCC9B EQ PUSH2 0x172 JUMPI DUP1 PUSH4 0xDA9B1058 EQ PUSH2 0x17A JUMPI DUP1 PUSH4 0xF1B17287 EQ PUSH2 0x182 JUMPI DUP1 PUSH4 0xF2FDE38B EQ PUSH2 0x1B1 JUMPI DUP1 PUSH4 0xF621C30E EQ PUSH2 0x1D7 JUMPI PUSH2 0xB4 JUMP JUMPDEST DUP1 PUSH4 0x5BC68F6D EQ PUSH2 0xB9 JUMPI DUP1 PUSH4 0x5DAF0D46 EQ PUSH2 0xEE JUMPI DUP1 PUSH4 0x6290CD1C EQ PUSH2 0x111 JUMPI DUP1 PUSH4 0x715018A6 EQ PUSH2 0x119 JUMPI DUP1 PUSH4 0x8DA5CB5B EQ PUSH2 0x123 JUMPI DUP1 PUSH4 0x951E7683 EQ PUSH2 0x147 JUMPI JUMPDEST PUSH1 0x0 DUP1 REVERT JUMPDEST PUSH2 0xDC PUSH1 0x4 DUP1 CALLDATASIZE SUB PUSH1 0x40 DUP2 LT ISZERO PUSH2 0xCF JUMPI PUSH1 0x0 DUP1 REVERT JUMPDEST POP DUP1 CALLDATALOAD SWAP1 PUSH1 0x20 ADD CALLDATALOAD PUSH2 0x1DF JUMP JUMPDEST PUSH1 0x40 DUP1 MLOAD SWAP2 DUP3 MSTORE MLOAD SWAP1 DUP2 SWAP1 SUB PUSH1 0x20 ADD SWAP1 RETURN JUMPDEST PUSH2 0xDC PUSH1 0x4 DUP1 CALLDATASIZE SUB PUSH1 0x40 DUP2 LT ISZERO PUSH2 0x104 JUMPI PUSH1 0x0 DUP1 REVERT JUMPDEST POP DUP1 CALLDATALOAD SWAP1 PUSH1 0x20 ADD CALLDATALOAD PUSH2 0x20B JUMP JUMPDEST PUSH2 0xDC PUSH2 0x236 JUMP JUMPDEST PUSH2 0x121 PUSH2 0x23C JUMP JUMPDEST STOP JUMPDEST PUSH2 0x12B PUSH2 0x2F0 JUMP JUMPDEST PUSH1 0x40 DUP1 MLOAD PUSH1 0x1 PUSH1 0x1 PUSH1 0xA0 SHL SUB SWAP1 SWAP3 AND DUP3 MSTORE MLOAD SWAP1 DUP2 SWAP1 SUB PUSH1 0x20 ADD SWAP1 RETURN JUMPDEST PUSH2 0xDC PUSH1 0x4 DUP1 CALLDATASIZE SUB PUSH1 0x40 DUP2 LT ISZERO PUSH2 0x15D JUMPI PUSH1 0x0 DUP1 REVERT JUMPDEST POP DUP1 CALLDATALOAD SWAP1 PUSH1 0x20 ADD CALLDATALOAD PUSH2 0x2FF JUMP JUMPDEST PUSH2 0xDC PUSH2 0x3B9 JUMP JUMPDEST PUSH2 0xDC PUSH2 0x3BF JUMP JUMPDEST PUSH2 0xDC PUSH2 0x3C5 JUMP JUMPDEST PUSH2 0x121 PUSH1 0x4 DUP1 CALLDATASIZE SUB PUSH1 0x80 DUP2 LT ISZERO PUSH2 0x198 JUMPI PUSH1 0x0 DUP1 REVERT JUMPDEST POP DUP1 CALLDATALOAD SWAP1 PUSH1 0x20 DUP2 ADD CALLDATALOAD SWAP1 PUSH1 0x40 DUP2 ADD CALLDATALOAD SWAP1 PUSH1 0x60 ADD CALLDATALOAD PUSH2 0x3CB JUMP JUMPDEST PUSH2 0x121 PUSH1 0x4 DUP1 CALLDATASIZE SUB PUSH1 0x20 DUP2 LT ISZERO PUSH2 0x1C7 JUMPI PUSH1 0x0 DUP1 REVERT JUMPDEST POP CALLDATALOAD PUSH1 0x1 PUSH1 0x1 PUSH1 0xA0 SHL SUB AND PUSH2 0x3EE JUMP JUMPDEST PUSH2 0xDC PUSH2 0x4F8 JUMP JUMPDEST PUSH1 0x0 PUSH2 0x202 PUSH2 0x1EE DUP5 DUP5 PUSH2 0x2FF JUMP JUMPDEST PUSH2 0x1F6 PUSH2 0x4FE JUMP JUMPDEST SWAP1 PUSH4 0xFFFFFFFF PUSH2 0x50E AND JUMP JUMPDEST SWAP1 POP JUMPDEST SWAP3 SWAP2 POP POP JUMP JUMPDEST PUSH1 0x0 PUSH2 0x202 PUSH2 0x231 PUSH2 0x21C DUP5 PUSH2 0x550 JUMP JUMPDEST PUSH2 0x225 DUP7 PUSH2 0x550 JUMP JUMPDEST SWAP1 PUSH4 0xFFFFFFFF PUSH2 0x566 AND JUMP JUMPDEST PUSH2 0x5AA JUMP JUMPDEST PUSH1 0x1 SLOAD DUP2 JUMP JUMPDEST PUSH2 0x244 PUSH2 0x5CA JUMP JUMPDEST PUSH1 0x0 SLOAD PUSH1 0x1 PUSH1 0x1 PUSH1 0xA0 SHL SUB SWAP1 DUP2 AND SWAP2 AND EQ PUSH2 0x2A6 JUMPI PUSH1 0x40 DUP1 MLOAD PUSH3 0x461BCD PUSH1 0xE5 SHL DUP2 MSTORE PUSH1 0x20 PUSH1 0x4 DUP3 ADD DUP2 SWAP1 MSTORE PUSH1 0x24 DUP3 ADD MSTORE PUSH32 0x4F776E61626C653A2063616C6C6572206973206E6F7420746865206F776E6572 PUSH1 0x44 DUP3 ADD MSTORE SWAP1 MLOAD SWAP1 DUP2 SWAP1 SUB PUSH1 0x64 ADD SWAP1 REVERT JUMPDEST PUSH1 0x0 DUP1 SLOAD PUSH1 0x40 MLOAD PUSH1 0x1 PUSH1 0x1 PUSH1 0xA0 SHL SUB SWAP1 SWAP2 AND SWAP1 PUSH32 0x8BE0079C531659141344CD1FD0A4F28419497F9722A3DAAFE3B4186F6B6457E0 SWAP1 DUP4 SWAP1 LOG3 PUSH1 0x0 DUP1 SLOAD PUSH1 0x1 PUSH1 0x1 PUSH1 0xA0 SHL SUB NOT AND SWAP1 SSTORE JUMP JUMPDEST PUSH1 0x0 SLOAD PUSH1 0x1 PUSH1 0x1 PUSH1 0xA0 SHL SUB AND SWAP1 JUMP JUMPDEST PUSH1 0x0 PUSH1 0x1 SLOAD PUSH2 0x31D PUSH2 0x310 DUP5 PUSH2 0x550 JUMP JUMPDEST DUP6 SWAP1 PUSH4 0xFFFFFFFF PUSH2 0x566 AND JUMP JUMPDEST LT ISZERO PUSH2 0x35E JUMPI PUSH2 0x357 PUSH2 0x348 PUSH2 0x339 PUSH1 0x1 SLOAD PUSH2 0x225 DUP8 DUP8 PUSH2 0x20B JUMP JUMPDEST PUSH1 0x4 SLOAD SWAP1 PUSH4 0xFFFFFFFF PUSH2 0x5CE AND JUMP JUMPDEST PUSH1 0x3 SLOAD SWAP1 PUSH4 0xFFFFFFFF PUSH2 0x602 AND JUMP JUMPDEST SWAP1 POP PUSH2 0x205 JUMP JUMPDEST PUSH1 0x0 PUSH2 0x376 PUSH1 0x2 SLOAD PUSH2 0x225 PUSH1 0x1 SLOAD PUSH2 0x1F6 DUP9 DUP9 PUSH2 0x20B JUMP JUMPDEST SWAP1 POP PUSH2 0x3B1 PUSH2 0x390 PUSH1 0x5 SLOAD DUP4 PUSH2 0x5CE SWAP1 SWAP2 SWAP1 PUSH4 0xFFFFFFFF AND JUMP JUMPDEST PUSH1 0x4 SLOAD PUSH1 0x3 SLOAD PUSH2 0x3A5 SWAP2 PUSH4 0xFFFFFFFF PUSH2 0x602 AND JUMP JUMPDEST SWAP1 PUSH4 0xFFFFFFFF PUSH2 0x602 AND JUMP JUMPDEST SWAP2 POP POP PUSH2 0x205 JUMP JUMPDEST PUSH1 0x2 SLOAD DUP2 JUMP JUMPDEST PUSH1 0x5 SLOAD DUP2 JUMP JUMPDEST PUSH1 0x4 SLOAD DUP2 JUMP JUMPDEST PUSH1 0x1 DUP5 SWAP1 SSTORE PUSH2 0x3DC DUP5 PUSH2 0x1F6 PUSH2 0x4FE JUMP JUMPDEST PUSH1 0x2 SSTORE PUSH1 0x3 SWAP3 SWAP1 SWAP3 SSTORE PUSH1 0x4 SSTORE PUSH1 0x5 SSTORE POP JUMP JUMPDEST PUSH2 0x3F6 PUSH2 0x5CA JUMP JUMPDEST PUSH1 0x0 SLOAD PUSH1 0x1 PUSH1 0x1 PUSH1 0xA0 SHL SUB SWAP1 DUP2 AND SWAP2 AND EQ PUSH2 0x458 JUMPI PUSH1 0x40 DUP1 MLOAD PUSH3 0x461BCD PUSH1 0xE5 SHL DUP2 MSTORE PUSH1 0x20 PUSH1 0x4 DUP3 ADD DUP2 SWAP1 MSTORE PUSH1 0x24 DUP3 ADD MSTORE PUSH32 0x4F776E61626C653A2063616C6C6572206973206E6F7420746865206F776E6572 PUSH1 0x44 DUP3 ADD MSTORE SWAP1 MLOAD SWAP1 DUP2 SWAP1 SUB PUSH1 0x64 ADD SWAP1 REVERT JUMPDEST PUSH1 0x1 PUSH1 0x1 PUSH1 0xA0 SHL SUB DUP2 AND PUSH2 0x49D JUMPI PUSH1 0x40 MLOAD PUSH3 0x461BCD PUSH1 0xE5 SHL DUP2 MSTORE PUSH1 0x4 ADD DUP1 DUP1 PUSH1 0x20 ADD DUP3 DUP2 SUB DUP3 MSTORE PUSH1 0x26 DUP2 MSTORE PUSH1 0x20 ADD DUP1 PUSH2 0x7EF PUSH1 0x26 SWAP2 CODECOPY PUSH1 0x40 ADD SWAP2 POP POP PUSH1 0x40 MLOAD DUP1 SWAP2 SUB SWAP1 REVERT JUMPDEST PUSH1 0x0 DUP1 SLOAD PUSH1 0x40 MLOAD PUSH1 0x1 PUSH1 0x1 PUSH1 0xA0 SHL SUB DUP1 DUP6 AND SWAP4 SWAP3 AND SWAP2 PUSH32 0x8BE0079C531659141344CD1FD0A4F28419497F9722A3DAAFE3B4186F6B6457E0 SWAP2 LOG3 PUSH1 0x0 DUP1 SLOAD PUSH1 0x1 PUSH1 0x1 PUSH1 0xA0 SHL SUB NOT AND PUSH1 0x1 PUSH1 0x1 PUSH1 0xA0 SHL SUB SWAP3 SWAP1 SWAP3 AND SWAP2 SWAP1 SWAP2 OR SWAP1 SSTORE JUMP JUMPDEST PUSH1 0x3 SLOAD DUP2 JUMP JUMPDEST PUSH12 0x33B2E3C9FD0803CE8000000 SWAP1 JUMP JUMPDEST PUSH1 0x0 PUSH2 0x202 DUP4 DUP4 PUSH1 0x40 MLOAD DUP1 PUSH1 0x40 ADD PUSH1 0x40 MSTORE DUP1 PUSH1 0x1E DUP2 MSTORE PUSH1 0x20 ADD PUSH32 0x536166654D6174683A207375627472616374696F6E206F766572666C6F770000 DUP2 MSTORE POP PUSH2 0x65C JUMP JUMPDEST PUSH1 0x0 PUSH2 0x205 DUP3 PUSH4 0x3B9ACA00 PUSH4 0xFFFFFFFF PUSH2 0x6F3 AND JUMP JUMPDEST PUSH1 0x0 PUSH1 0x2 DUP3 DIV PUSH2 0x5A2 DUP4 PUSH2 0x596 PUSH2 0x589 DUP8 PUSH12 0x33B2E3C9FD0803CE8000000 PUSH2 0x6F3 JUMP JUMPDEST DUP5 SWAP1 PUSH4 0xFFFFFFFF PUSH2 0x602 AND JUMP JUMPDEST SWAP1 PUSH4 0xFFFFFFFF PUSH2 0x74C AND JUMP JUMPDEST SWAP5 SWAP4 POP POP POP POP JUMP JUMPDEST PUSH1 0x0 PUSH4 0x1DCD6500 PUSH2 0x5C3 PUSH4 0x3B9ACA00 PUSH2 0x596 DUP4 DUP7 PUSH2 0x602 JUMP JUMPDEST SWAP4 SWAP3 POP POP POP JUMP JUMPDEST CALLER SWAP1 JUMP JUMPDEST PUSH1 0x0 PUSH2 0x202 PUSH12 0x33B2E3C9FD0803CE8000000 PUSH2 0x596 PUSH2 0x5F3 DUP7 DUP7 PUSH4 0xFFFFFFFF PUSH2 0x6F3 AND JUMP JUMPDEST PUSH12 0x19D971E4FE8401E74000000 SWAP1 JUMPDEST PUSH1 0x0 DUP3 DUP3 ADD DUP4 DUP2 LT ISZERO PUSH2 0x202 JUMPI PUSH1 0x40 DUP1 MLOAD PUSH3 0x461BCD PUSH1 0xE5 SHL DUP2 MSTORE PUSH1 0x20 PUSH1 0x4 DUP3 ADD MSTORE PUSH1 0x1B PUSH1 0x24 DUP3 ADD MSTORE PUSH32 0x536166654D6174683A206164646974696F6E206F766572666C6F770000000000 PUSH1 0x44 DUP3 ADD MSTORE SWAP1 MLOAD SWAP1 DUP2 SWAP1 SUB PUSH1 0x64 ADD SWAP1 REVERT JUMPDEST PUSH1 0x0 DUP2 DUP5 DUP5 GT ISZERO PUSH2 0x6EB JUMPI PUSH1 0x40 MLOAD PUSH3 0x461BCD PUSH1 0xE5 SHL DUP2 MSTORE PUSH1 0x4 ADD DUP1 DUP1 PUSH1 0x20 ADD DUP3 DUP2 SUB DUP3 MSTORE DUP4 DUP2 DUP2 MLOAD DUP2 MSTORE PUSH1 0x20 ADD SWAP2 POP DUP1 MLOAD SWAP1 PUSH1 0x20 ADD SWAP1 DUP1 DUP4 DUP4 PUSH1 0x0 JUMPDEST DUP4 DUP2 LT ISZERO PUSH2 0x6B0 JUMPI DUP2 DUP2 ADD MLOAD DUP4 DUP3 ADD MSTORE PUSH1 0x20 ADD PUSH2 0x698 JUMP JUMPDEST POP POP POP POP SWAP1 POP SWAP1 DUP2 ADD SWAP1 PUSH1 0x1F AND DUP1 ISZERO PUSH2 0x6DD JUMPI DUP1 DUP3 SUB DUP1 MLOAD PUSH1 0x1 DUP4 PUSH1 0x20 SUB PUSH2 0x100 EXP SUB NOT AND DUP2 MSTORE PUSH1 0x20 ADD SWAP2 POP JUMPDEST POP SWAP3 POP POP POP PUSH1 0x40 MLOAD DUP1 SWAP2 SUB SWAP1 REVERT JUMPDEST POP POP POP SWAP1 SUB SWAP1 JUMP JUMPDEST PUSH1 0x0 DUP3 PUSH2 0x702 JUMPI POP PUSH1 0x0 PUSH2 0x205 JUMP JUMPDEST DUP3 DUP3 MUL DUP3 DUP5 DUP3 DUP2 PUSH2 0x70F JUMPI INVALID JUMPDEST DIV EQ PUSH2 0x202 JUMPI PUSH1 0x40 MLOAD PUSH3 0x461BCD PUSH1 0xE5 SHL DUP2 MSTORE PUSH1 0x4 ADD DUP1 DUP1 PUSH1 0x20 ADD DUP3 DUP2 SUB DUP3 MSTORE PUSH1 0x21 DUP2 MSTORE PUSH1 0x20 ADD DUP1 PUSH2 0x815 PUSH1 0x21 SWAP2 CODECOPY PUSH1 0x40 ADD SWAP2 POP POP PUSH1 0x40 MLOAD DUP1 SWAP2 SUB SWAP1 REVERT JUMPDEST PUSH1 0x0 PUSH2 0x202 DUP4 DUP4 PUSH1 0x40 MLOAD DUP1 PUSH1 0x40 ADD PUSH1 0x40 MSTORE DUP1 PUSH1 0x1A DUP2 MSTORE PUSH1 0x20 ADD PUSH32 0x536166654D6174683A206469766973696F6E206279207A65726F000000000000 DUP2 MSTORE POP PUSH1 0x0 DUP2 DUP4 PUSH2 0x7D8 JUMPI PUSH1 0x40 MLOAD PUSH3 0x461BCD PUSH1 0xE5 SHL DUP2 MSTORE PUSH1 0x20 PUSH1 0x4 DUP3 ADD DUP2 DUP2 MSTORE DUP4 MLOAD PUSH1 0x24 DUP5 ADD MSTORE DUP4 MLOAD SWAP1 SWAP3 DUP4 SWAP3 PUSH1 0x44 SWAP1 SWAP2 ADD SWAP2 SWAP1 DUP6 ADD SWAP1 DUP1 DUP4 DUP4 PUSH1 0x0 DUP4 ISZERO PUSH2 0x6B0 JUMPI DUP2 DUP2 ADD MLOAD DUP4 DUP3 ADD MSTORE PUSH1 0x20 ADD PUSH2 0x698 JUMP JUMPDEST POP PUSH1 0x0 DUP4 DUP6 DUP2 PUSH2 0x7E4 JUMPI INVALID JUMPDEST DIV SWAP6 SWAP5 POP POP POP POP POP JUMP INVALID 0x4F PUSH24 0x6E61626C653A206E6577206F776E65722069732074686520 PUSH27 0x65726F2061646472657373536166654D6174683A206D756C746970 PUSH13 0x69636174696F6E206F76657266 PUSH13 0x6F77A264697066735822122068 PC SWAP8 0xDE 0xC1 0xA7 PUSH31 0xBD41850167B400975904F56BC8D809F634A4FA53986DC45DA564736F6C6343 STOP MOD SMOD STOP CALLER "
        },
        "methodIdentifiers": {
          "baseStableRate()": "f621c30e",
          "computeBorrowingRewardRate(uint256,uint256)": "5bc68f6d",
          "computeDepositRewardRate(uint256,uint256)": "951e7683",
          "excessRate()": "a4288629",
          "getUtilisation(uint256,uint256)": "5daf0d46",
          "optimalUtilization()": "6290cd1c",
          "owner()": "8da5cb5b",
          "renounceOwnership()": "715018a6",
          "setPoolVariables(uint256,uint256,uint256,uint256)": "f1b17287",
          "slope1StableRate()": "da9b1058",
          "slope2StableRate()": "a7adcc9b",
          "transferOwnership(address)": "f2fde38b"
        }
      }
    }
  }
}