{
  "contracts/Errors.sol": {
    "Errors": {
      "abi": [
        {
          "inputs": [],
          "name": "BORROW_ALLOWANCE_NOT_ENOUGH",
          "outputs": [
            {
              "internalType": "string",
              "name": "",
              "type": "string"
            }
          ],
          "stateMutability": "view",
          "type": "function"
        },
        {
          "inputs": [],
          "name": "CALLER_NOT_POOL_ADMIN",
          "outputs": [
            {
              "internalType": "string",
              "name": "",
              "type": "string"
            }
          ],
          "stateMutability": "view",
          "type": "function"
        },
        {
          "inputs": [],
          "name": "CT_CALLER_MUST_BE_LENDING_POOL",
          "outputs": [
            {
              "internalType": "string",
              "name": "",
              "type": "string"
            }
          ],
          "stateMutability": "view",
          "type": "function"
        },
        {
          "inputs": [],
          "name": "CT_CANNOT_GIVE_ALLOWANCE_TO_HIMSELF",
          "outputs": [
            {
              "internalType": "string",
              "name": "",
              "type": "string"
            }
          ],
          "stateMutability": "view",
          "type": "function"
        },
        {
          "inputs": [],
          "name": "CT_INVALID_BURN_AMOUNT",
          "outputs": [
            {
              "internalType": "string",
              "name": "",
              "type": "string"
            }
          ],
          "stateMutability": "view",
          "type": "function"
        },
        {
          "inputs": [],
          "name": "CT_INVALID_MINT_AMOUNT",
          "outputs": [
            {
              "internalType": "string",
              "name": "",
              "type": "string"
            }
          ],
          "stateMutability": "view",
          "type": "function"
        },
        {
          "inputs": [],
          "name": "CT_TRANSFER_AMOUNT_NOT_GT_0",
          "outputs": [
            {
              "internalType": "string",
              "name": "",
              "type": "string"
            }
          ],
          "stateMutability": "view",
          "type": "function"
        },
        {
          "inputs": [],
          "name": "LPAPR_INVALID_ADDRESSES_PROVIDER_ID",
          "outputs": [
            {
              "internalType": "string",
              "name": "",
              "type": "string"
            }
          ],
          "stateMutability": "view",
          "type": "function"
        },
        {
          "inputs": [],
          "name": "LPAPR_PROVIDER_NOT_REGISTERED",
          "outputs": [
            {
              "internalType": "string",
              "name": "",
              "type": "string"
            }
          ],
          "stateMutability": "view",
          "type": "function"
        },
        {
          "inputs": [],
          "name": "LPCM_COLLATERAL_CANNOT_BE_LIQUIDATED",
          "outputs": [
            {
              "internalType": "string",
              "name": "",
              "type": "string"
            }
          ],
          "stateMutability": "view",
          "type": "function"
        },
        {
          "inputs": [],
          "name": "LPCM_HEALTH_FACTOR_NOT_BELOW_THRESHOLD",
          "outputs": [
            {
              "internalType": "string",
              "name": "",
              "type": "string"
            }
          ],
          "stateMutability": "view",
          "type": "function"
        },
        {
          "inputs": [],
          "name": "LPCM_NOT_ENOUGH_LIQUIDITY_TO_LIQUIDATE",
          "outputs": [
            {
              "internalType": "string",
              "name": "",
              "type": "string"
            }
          ],
          "stateMutability": "view",
          "type": "function"
        },
        {
          "inputs": [],
          "name": "LPCM_NO_ERRORS",
          "outputs": [
            {
              "internalType": "string",
              "name": "",
              "type": "string"
            }
          ],
          "stateMutability": "view",
          "type": "function"
        },
        {
          "inputs": [],
          "name": "LPCM_SPECIFIED_CURRENCY_NOT_BORROWED_BY_USER",
          "outputs": [
            {
              "internalType": "string",
              "name": "",
              "type": "string"
            }
          ],
          "stateMutability": "view",
          "type": "function"
        },
        {
          "inputs": [],
          "name": "LPC_CALLER_NOT_EMERGENCY_ADMIN",
          "outputs": [
            {
              "internalType": "string",
              "name": "",
              "type": "string"
            }
          ],
          "stateMutability": "view",
          "type": "function"
        },
        {
          "inputs": [],
          "name": "LPC_INVALID_ADDRESSES_PROVIDER_ID",
          "outputs": [
            {
              "internalType": "string",
              "name": "",
              "type": "string"
            }
          ],
          "stateMutability": "view",
          "type": "function"
        },
        {
          "inputs": [],
          "name": "LPC_INVALID_ATOKEN_POOL_ADDRESS",
          "outputs": [
            {
              "internalType": "string",
              "name": "",
              "type": "string"
            }
          ],
          "stateMutability": "view",
          "type": "function"
        },
        {
          "inputs": [],
          "name": "LPC_INVALID_CONFIGURATION",
          "outputs": [
            {
              "internalType": "string",
              "name": "",
              "type": "string"
            }
          ],
          "stateMutability": "view",
          "type": "function"
        },
        {
          "inputs": [],
          "name": "LPC_INVALID_STABLE_DEBT_TOKEN_POOL_ADDRESS",
          "outputs": [
            {
              "internalType": "string",
              "name": "",
              "type": "string"
            }
          ],
          "stateMutability": "view",
          "type": "function"
        },
        {
          "inputs": [],
          "name": "LPC_INVALID_STABLE_DEBT_TOKEN_UNDERLYING_ADDRESS",
          "outputs": [
            {
              "internalType": "string",
              "name": "",
              "type": "string"
            }
          ],
          "stateMutability": "view",
          "type": "function"
        },
        {
          "inputs": [],
          "name": "LPC_INVALID_VARIABLE_DEBT_TOKEN_POOL_ADDRESS",
          "outputs": [
            {
              "internalType": "string",
              "name": "",
              "type": "string"
            }
          ],
          "stateMutability": "view",
          "type": "function"
        },
        {
          "inputs": [],
          "name": "LPC_INVALID_VARIABLE_DEBT_TOKEN_UNDERLYING_ADDRESS",
          "outputs": [
            {
              "internalType": "string",
              "name": "",
              "type": "string"
            }
          ],
          "stateMutability": "view",
          "type": "function"
        },
        {
          "inputs": [],
          "name": "LPC_RESERVE_LIQUIDITY_NOT_0",
          "outputs": [
            {
              "internalType": "string",
              "name": "",
              "type": "string"
            }
          ],
          "stateMutability": "view",
          "type": "function"
        },
        {
          "inputs": [],
          "name": "LP_CALLER_MUST_BE_AN_ATOKEN",
          "outputs": [
            {
              "internalType": "string",
              "name": "",
              "type": "string"
            }
          ],
          "stateMutability": "view",
          "type": "function"
        },
        {
          "inputs": [],
          "name": "LP_CALLER_NOT_LENDING_POOL_CONFIGURATOR",
          "outputs": [
            {
              "internalType": "string",
              "name": "",
              "type": "string"
            }
          ],
          "stateMutability": "view",
          "type": "function"
        },
        {
          "inputs": [],
          "name": "LP_FAILED_COLLATERAL_SWAP",
          "outputs": [
            {
              "internalType": "string",
              "name": "",
              "type": "string"
            }
          ],
          "stateMutability": "view",
          "type": "function"
        },
        {
          "inputs": [],
          "name": "LP_FAILED_REPAY_WITH_COLLATERAL",
          "outputs": [
            {
              "internalType": "string",
              "name": "",
              "type": "string"
            }
          ],
          "stateMutability": "view",
          "type": "function"
        },
        {
          "inputs": [],
          "name": "LP_INCONSISTENT_FLASHLOAN_PARAMS",
          "outputs": [
            {
              "internalType": "string",
              "name": "",
              "type": "string"
            }
          ],
          "stateMutability": "view",
          "type": "function"
        },
        {
          "inputs": [],
          "name": "LP_INCONSISTENT_PARAMS_LENGTH",
          "outputs": [
            {
              "internalType": "string",
              "name": "",
              "type": "string"
            }
          ],
          "stateMutability": "view",
          "type": "function"
        },
        {
          "inputs": [],
          "name": "LP_INCONSISTENT_PROTOCOL_ACTUAL_BALANCE",
          "outputs": [
            {
              "internalType": "string",
              "name": "",
              "type": "string"
            }
          ],
          "stateMutability": "view",
          "type": "function"
        },
        {
          "inputs": [],
          "name": "LP_INTEREST_RATE_REBALANCE_CONDITIONS_NOT_MET",
          "outputs": [
            {
              "internalType": "string",
              "name": "",
              "type": "string"
            }
          ],
          "stateMutability": "view",
          "type": "function"
        },
        {
          "inputs": [],
          "name": "LP_INVALID_EQUAL_ASSETS_TO_SWAP",
          "outputs": [
            {
              "internalType": "string",
              "name": "",
              "type": "string"
            }
          ],
          "stateMutability": "view",
          "type": "function"
        },
        {
          "inputs": [],
          "name": "LP_INVALID_FLASHLOAN_MODE",
          "outputs": [
            {
              "internalType": "string",
              "name": "",
              "type": "string"
            }
          ],
          "stateMutability": "view",
          "type": "function"
        },
        {
          "inputs": [],
          "name": "LP_INVALID_FLASH_LOAN_EXECUTOR_RETURN",
          "outputs": [
            {
              "internalType": "string",
              "name": "",
              "type": "string"
            }
          ],
          "stateMutability": "view",
          "type": "function"
        },
        {
          "inputs": [],
          "name": "LP_IS_PAUSED",
          "outputs": [
            {
              "internalType": "string",
              "name": "",
              "type": "string"
            }
          ],
          "stateMutability": "view",
          "type": "function"
        },
        {
          "inputs": [],
          "name": "LP_LIQUIDATION_CALL_FAILED",
          "outputs": [
            {
              "internalType": "string",
              "name": "",
              "type": "string"
            }
          ],
          "stateMutability": "view",
          "type": "function"
        },
        {
          "inputs": [],
          "name": "LP_NOT_CONTRACT",
          "outputs": [
            {
              "internalType": "string",
              "name": "",
              "type": "string"
            }
          ],
          "stateMutability": "view",
          "type": "function"
        },
        {
          "inputs": [],
          "name": "LP_NOT_ENOUGH_LIQUIDITY_TO_BORROW",
          "outputs": [
            {
              "internalType": "string",
              "name": "",
              "type": "string"
            }
          ],
          "stateMutability": "view",
          "type": "function"
        },
        {
          "inputs": [],
          "name": "LP_NOT_ENOUGH_STABLE_BORROW_BALANCE",
          "outputs": [
            {
              "internalType": "string",
              "name": "",
              "type": "string"
            }
          ],
          "stateMutability": "view",
          "type": "function"
        },
        {
          "inputs": [],
          "name": "LP_NO_MORE_RESERVES_ALLOWED",
          "outputs": [
            {
              "internalType": "string",
              "name": "",
              "type": "string"
            }
          ],
          "stateMutability": "view",
          "type": "function"
        },
        {
          "inputs": [],
          "name": "LP_REENTRANCY_NOT_ALLOWED",
          "outputs": [
            {
              "internalType": "string",
              "name": "",
              "type": "string"
            }
          ],
          "stateMutability": "view",
          "type": "function"
        },
        {
          "inputs": [],
          "name": "LP_REQUESTED_AMOUNT_TOO_SMALL",
          "outputs": [
            {
              "internalType": "string",
              "name": "",
              "type": "string"
            }
          ],
          "stateMutability": "view",
          "type": "function"
        },
        {
          "inputs": [],
          "name": "MATH_ADDITION_OVERFLOW",
          "outputs": [
            {
              "internalType": "string",
              "name": "",
              "type": "string"
            }
          ],
          "stateMutability": "view",
          "type": "function"
        },
        {
          "inputs": [],
          "name": "MATH_DIVISION_BY_ZERO",
          "outputs": [
            {
              "internalType": "string",
              "name": "",
              "type": "string"
            }
          ],
          "stateMutability": "view",
          "type": "function"
        },
        {
          "inputs": [],
          "name": "MATH_MULTIPLICATION_OVERFLOW",
          "outputs": [
            {
              "internalType": "string",
              "name": "",
              "type": "string"
            }
          ],
          "stateMutability": "view",
          "type": "function"
        },
        {
          "inputs": [],
          "name": "RC_INVALID_DECIMALS",
          "outputs": [
            {
              "internalType": "string",
              "name": "",
              "type": "string"
            }
          ],
          "stateMutability": "view",
          "type": "function"
        },
        {
          "inputs": [],
          "name": "RC_INVALID_LIQ_BONUS",
          "outputs": [
            {
              "internalType": "string",
              "name": "",
              "type": "string"
            }
          ],
          "stateMutability": "view",
          "type": "function"
        },
        {
          "inputs": [],
          "name": "RC_INVALID_LIQ_THRESHOLD",
          "outputs": [
            {
              "internalType": "string",
              "name": "",
              "type": "string"
            }
          ],
          "stateMutability": "view",
          "type": "function"
        },
        {
          "inputs": [],
          "name": "RC_INVALID_LTV",
          "outputs": [
            {
              "internalType": "string",
              "name": "",
              "type": "string"
            }
          ],
          "stateMutability": "view",
          "type": "function"
        },
        {
          "inputs": [],
          "name": "RC_INVALID_RESERVE_FACTOR",
          "outputs": [
            {
              "internalType": "string",
              "name": "",
              "type": "string"
            }
          ],
          "stateMutability": "view",
          "type": "function"
        },
        {
          "inputs": [],
          "name": "RL_LIQUIDITY_INDEX_OVERFLOW",
          "outputs": [
            {
              "internalType": "string",
              "name": "",
              "type": "string"
            }
          ],
          "stateMutability": "view",
          "type": "function"
        },
        {
          "inputs": [],
          "name": "RL_LIQUIDITY_RATE_OVERFLOW",
          "outputs": [
            {
              "internalType": "string",
              "name": "",
              "type": "string"
            }
          ],
          "stateMutability": "view",
          "type": "function"
        },
        {
          "inputs": [],
          "name": "RL_RESERVE_ALREADY_INITIALIZED",
          "outputs": [
            {
              "internalType": "string",
              "name": "",
              "type": "string"
            }
          ],
          "stateMutability": "view",
          "type": "function"
        },
        {
          "inputs": [],
          "name": "RL_STABLE_BORROW_RATE_OVERFLOW",
          "outputs": [
            {
              "internalType": "string",
              "name": "",
              "type": "string"
            }
          ],
          "stateMutability": "view",
          "type": "function"
        },
        {
          "inputs": [],
          "name": "RL_VARIABLE_BORROW_INDEX_OVERFLOW",
          "outputs": [
            {
              "internalType": "string",
              "name": "",
              "type": "string"
            }
          ],
          "stateMutability": "view",
          "type": "function"
        },
        {
          "inputs": [],
          "name": "RL_VARIABLE_BORROW_RATE_OVERFLOW",
          "outputs": [
            {
              "internalType": "string",
              "name": "",
              "type": "string"
            }
          ],
          "stateMutability": "view",
          "type": "function"
        },
        {
          "inputs": [],
          "name": "SDT_BURN_EXCEEDS_BALANCE",
          "outputs": [
            {
              "internalType": "string",
              "name": "",
              "type": "string"
            }
          ],
          "stateMutability": "view",
          "type": "function"
        },
        {
          "inputs": [],
          "name": "SDT_STABLE_DEBT_OVERFLOW",
          "outputs": [
            {
              "internalType": "string",
              "name": "",
              "type": "string"
            }
          ],
          "stateMutability": "view",
          "type": "function"
        },
        {
          "inputs": [],
          "name": "UL_INVALID_INDEX",
          "outputs": [
            {
              "internalType": "string",
              "name": "",
              "type": "string"
            }
          ],
          "stateMutability": "view",
          "type": "function"
        },
        {
          "inputs": [],
          "name": "VL_AMOUNT_BIGGER_THAN_MAX_LOAN_SIZE_STABLE",
          "outputs": [
            {
              "internalType": "string",
              "name": "",
              "type": "string"
            }
          ],
          "stateMutability": "view",
          "type": "function"
        },
        {
          "inputs": [],
          "name": "VL_BORROWING_NOT_ENABLED",
          "outputs": [
            {
              "internalType": "string",
              "name": "",
              "type": "string"
            }
          ],
          "stateMutability": "view",
          "type": "function"
        },
        {
          "inputs": [],
          "name": "VL_COLLATERAL_BALANCE_IS_0",
          "outputs": [
            {
              "internalType": "string",
              "name": "",
              "type": "string"
            }
          ],
          "stateMutability": "view",
          "type": "function"
        },
        {
          "inputs": [],
          "name": "VL_COLLATERAL_CANNOT_COVER_NEW_BORROW",
          "outputs": [
            {
              "internalType": "string",
              "name": "",
              "type": "string"
            }
          ],
          "stateMutability": "view",
          "type": "function"
        },
        {
          "inputs": [],
          "name": "VL_COLLATERAL_SAME_AS_BORROWING_CURRENCY",
          "outputs": [
            {
              "internalType": "string",
              "name": "",
              "type": "string"
            }
          ],
          "stateMutability": "view",
          "type": "function"
        },
        {
          "inputs": [],
          "name": "VL_CURRENT_AVAILABLE_LIQUIDITY_NOT_ENOUGH",
          "outputs": [
            {
              "internalType": "string",
              "name": "",
              "type": "string"
            }
          ],
          "stateMutability": "view",
          "type": "function"
        },
        {
          "inputs": [],
          "name": "VL_DEPOSIT_ALREADY_IN_USE",
          "outputs": [
            {
              "internalType": "string",
              "name": "",
              "type": "string"
            }
          ],
          "stateMutability": "view",
          "type": "function"
        },
        {
          "inputs": [],
          "name": "VL_HEALTH_FACTOR_LOWER_THAN_LIQUIDATION_THRESHOLD",
          "outputs": [
            {
              "internalType": "string",
              "name": "",
              "type": "string"
            }
          ],
          "stateMutability": "view",
          "type": "function"
        },
        {
          "inputs": [],
          "name": "VL_INCONSISTENT_FLASHLOAN_PARAMS",
          "outputs": [
            {
              "internalType": "string",
              "name": "",
              "type": "string"
            }
          ],
          "stateMutability": "view",
          "type": "function"
        },
        {
          "inputs": [],
          "name": "VL_INVALID_AMOUNT",
          "outputs": [
            {
              "internalType": "string",
              "name": "",
              "type": "string"
            }
          ],
          "stateMutability": "view",
          "type": "function"
        },
        {
          "inputs": [],
          "name": "VL_INVALID_INTEREST_RATE_MODE_SELECTED",
          "outputs": [
            {
              "internalType": "string",
              "name": "",
              "type": "string"
            }
          ],
          "stateMutability": "view",
          "type": "function"
        },
        {
          "inputs": [],
          "name": "VL_NOT_ENOUGH_AVAILABLE_USER_BALANCE",
          "outputs": [
            {
              "internalType": "string",
              "name": "",
              "type": "string"
            }
          ],
          "stateMutability": "view",
          "type": "function"
        },
        {
          "inputs": [],
          "name": "VL_NO_ACTIVE_RESERVE",
          "outputs": [
            {
              "internalType": "string",
              "name": "",
              "type": "string"
            }
          ],
          "stateMutability": "view",
          "type": "function"
        },
        {
          "inputs": [],
          "name": "VL_NO_DEBT_OF_SELECTED_TYPE",
          "outputs": [
            {
              "internalType": "string",
              "name": "",
              "type": "string"
            }
          ],
          "stateMutability": "view",
          "type": "function"
        },
        {
          "inputs": [],
          "name": "VL_NO_EXPLICIT_AMOUNT_TO_REPAY_ON_BEHALF",
          "outputs": [
            {
              "internalType": "string",
              "name": "",
              "type": "string"
            }
          ],
          "stateMutability": "view",
          "type": "function"
        },
        {
          "inputs": [],
          "name": "VL_NO_STABLE_RATE_LOAN_IN_RESERVE",
          "outputs": [
            {
              "internalType": "string",
              "name": "",
              "type": "string"
            }
          ],
          "stateMutability": "view",
          "type": "function"
        },
        {
          "inputs": [],
          "name": "VL_NO_VARIABLE_RATE_LOAN_IN_RESERVE",
          "outputs": [
            {
              "internalType": "string",
              "name": "",
              "type": "string"
            }
          ],
          "stateMutability": "view",
          "type": "function"
        },
        {
          "inputs": [],
          "name": "VL_RESERVE_FROZEN",
          "outputs": [
            {
              "internalType": "string",
              "name": "",
              "type": "string"
            }
          ],
          "stateMutability": "view",
          "type": "function"
        },
        {
          "inputs": [],
          "name": "VL_STABLE_BORROWING_NOT_ENABLED",
          "outputs": [
            {
              "internalType": "string",
              "name": "",
              "type": "string"
            }
          ],
          "stateMutability": "view",
          "type": "function"
        },
        {
          "inputs": [],
          "name": "VL_TRANSFER_NOT_ALLOWED",
          "outputs": [
            {
              "internalType": "string",
              "name": "",
              "type": "string"
            }
          ],
          "stateMutability": "view",
          "type": "function"
        },
        {
          "inputs": [],
          "name": "VL_UNDERLYING_BALANCE_NOT_GREATER_THAN_0",
          "outputs": [
            {
              "internalType": "string",
              "name": "",
              "type": "string"
            }
          ],
          "stateMutability": "view",
          "type": "function"
        }
      ],
      "evm": {
        "bytecode": {
          "linkReferences": {},
          "object": "611111610026600b82828239805160001a60731461001957fe5b30600052607381538281f3fe730000000000000000000000000000000000000000301460806040526004361061048a5760003560e01c80636ba4271f11610261578063cdad445a11610150578063e2c16d69116100cd578063f11c672011610091578063f11c67201461075c578063f3d9cc1114610764578063f902735d1461076c578063fb681def14610774578063fe75fd261461077c5761048a565b8063e2c16d6914610734578063e66327481461073c578063e7bf91b314610744578063eca85d3a1461074c578063f0473259146107545761048a565b8063d7510e0c11610114578063d7510e0c1461070c578063d7b079aa14610714578063daf235471461071c578063e0d7dfd714610724578063e29425dc1461072c5761048a565b8063cdad445a146106e4578063d3e370ee146106ec578063d44e8e88146106f4578063d57bb964146106fc578063d6f681b6146107045761048a565b8063a39ed4ff116101de578063b89652cd116101a2578063b89652cd146106bc578063bd013f5b146106c4578063c09e2618146106cc578063c2d628df146106d4578063cc5fc44c146106dc5761048a565b8063a39ed4ff14610694578063a84402411461069c578063ac753236146106a4578063b36a2cf3146106ac578063b72e40c7146106b45761048a565b80637865a627116102255780637865a6271461066c578063871938a81461067457806391a9fb181461067c5780639be4f03a14610684578063a2fbc8ad1461068c5761048a565b80636ba4271f146106445780636d422aa11461064c578063708b8dd31461065457806371a629da1461065c57806376f19030146106645761048a565b80633aa786a81161037d5780634a529f91116102fa578063614cf6a1116102be578063614cf6a11461061c578063637a5a12146106245780636422b2571461062c57806365344799146106345780636ab5e6151461063c5761048a565b80634a529f91146105f45780634fe4f1ab146105fc57806355bab12c146106045780635a9786d41461060c5780635e869ff1146106145761048a565b80634349e3d8116103415780634349e3d8146105cc57806344942004146105d457806344dc4f70146105dc57806347d25300146105e45780634927c63a146105ec5761048a565b80633aa786a8146105a45780633b5d25aa146105ac5780633f5d6ec8146105b4578063407374a4146105bc57806341b40ba5146105c45761048a565b806322a6f08e1161040b578063333e8ea8116103cf578063333e8ea81461057c57806335a9d21d1461058457806336565ab11461058c5780633872b0ad14610594578063390f34ba1461059c5761048a565b806322a6f08e146105545780632ace698a1461055c5780632b34c349146105645780632b9c57f61461056c5780632ea347b0146105745761048a565b80631291a38b116104525780631291a38b1461052c578063179476c5146105345780631befa78d1461053c5780631ea7c604146105445780631ec68b1d1461054c5761048a565b806302454ad31461048f578063029d23441461050c57806306f355ad146105145780630b8fd5881461051c5780630f5ee48214610524575b600080fd5b610497610784565b6040805160208082528351818301528351919283929083019185019080838360005b838110156104d15781810151838201526020016104b9565b50505050905090810190601f1680156104fe5780820380516001836020036101000a031916815260200191505b509250505060405180910390f35b6104976107a2565b6104976107c0565b6104976107de565b6104976107fc565b61049761081a565b610497610838565b610497610855565b610497610873565b610497610891565b6104976108af565b6104976108cd565b6104976108eb565b610497610909565b610497610927565b610497610945565b610497610963565b610497610981565b61049761099e565b6104976109bc565b6104976109da565b6104976109f8565b610497610a15565b610497610a33565b610497610a51565b610497610a6f565b610497610a8d565b610497610aab565b610497610ac9565b610497610ae7565b610497610b05565b610497610b23565b610497610b41565b610497610b5f565b610497610b7d565b610497610b9b565b610497610bb9565b610497610bd7565b610497610bf5565b610497610c13565b610497610c31565b610497610c4f565b610497610c6d565b610497610c8a565b610497610ca8565b610497610cc6565b610497610ce3565b610497610d00565b610497610d1e565b610497610d3c565b610497610d5a565b610497610d78565b610497610d95565b610497610db3565b610497610dd1565b610497610def565b610497610e0d565b610497610e2b565b610497610e49565b610497610e67565b610497610e85565b610497610ea3565b610497610ec1565b610497610edf565b610497610efd565b610497610f1b565b610497610f38565b610497610f56565b610497610f74565b610497610f92565b610497610fb0565b610497610fce565b610497610fec565b61049761100a565b610497611028565b610497611046565b610497611064565b610497611081565b61049761109f565b6104976110bd565b60405180604001604052806002815260200161373760f01b81525081565b60405180604001604052806002815260200161068760f31b81525081565b60405180604001604052806002815260200161033360f41b81525081565b60405180604001604052806002815260200161191b60f11b81525081565b60405180604001604052806002815260200161343960f01b81525081565b604051806040016040528060028152602001611a9b60f11b81525081565b604051806040016040528060018152602001600d60fa1b81525081565b60405180604001604052806002815260200161038360f41b81525081565b604051806040016040528060028152602001611a1b60f11b81525081565b60405180604001604052806002815260200161031360f41b81525081565b604051806040016040528060028152602001610c8d60f21b81525081565b60405180604001604052806002815260200161313160f01b81525081565b60405180604001604052806002815260200161064760f31b81525081565b6040518060400160405280600281526020016106a760f31b81525081565b604051806040016040528060028152602001610d4d60f21b81525081565b604051806040016040528060028152602001611b9960f11b81525081565b60405180604001604052806002815260200161313960f01b81525081565b604051806040016040528060018152602001603760f81b81525081565b60405180604001604052806002815260200161333960f01b81525081565b60405180604001604052806002815260200161323560f01b81525081565b604051806040016040528060028152602001610c4d60f21b81525081565b604051806040016040528060018152602001600760fb1b81525081565b60405180604001604052806002815260200161037360f41b81525081565b60405180604001604052806002815260200161343360f01b81525081565b60405180604001604052806002815260200161066760f31b81525081565b60405180604001604052806002815260200161035360f41b81525081565b604051806040016040528060028152602001611a9960f11b81525081565b60405180604001604052806002815260200161323160f01b81525081565b60405180604001604052806002815260200161373560f01b81525081565b60405180604001604052806002815260200161189960f11b81525081565b60405180604001604052806002815260200161323360f01b81525081565b60405180604001604052806002815260200161353160f01b81525081565b60405180604001604052806002815260200161036360f41b81525081565b60405180604001604052806002815260200161034360f41b81525081565b60405180604001604052806002815260200161363960f01b81525081565b60405180604001604052806002815260200161363760f01b81525081565b6040518060400160405280600281526020016106e760f31b81525081565b60405180604001604052806002815260200161313760f01b81525081565b604051806040016040528060028152602001610ccd60f21b81525081565b60405180604001604052806002815260200161062760f31b81525081565b60405180604001604052806002815260200161323960f01b81525081565b60405180604001604052806002815260200161353560f01b81525081565b604051806040016040528060018152602001603960f81b81525081565b604051806040016040528060028152602001610d0d60f21b81525081565b60405180604001604052806002815260200161363560f01b81525081565b604051806040016040528060018152602001601960f91b81525081565b604051806040016040528060018152602001603160f81b81525081565b60405180604001604052806002815260200161313560f01b81525081565b60405180604001604052806002815260200161373160f01b81525081565b60405180604001604052806002815260200161333160f01b81525081565b60405180604001604052806002815260200161313360f01b81525081565b604051806040016040528060018152602001603560f81b81525081565b60405180604001604052806002815260200161333360f01b81525081565b60405180604001604052806002815260200161323760f01b81525081565b604051806040016040528060028152602001610dcd60f21b81525081565b60405180604001604052806002815260200161191960f11b81525081565b6040518060400160405280600281526020016106c760f31b81525081565b60405180604001604052806002815260200161333760f01b81525081565b60405180604001604052806002815260200161363160f01b81525081565b60405180604001604052806002815260200161343560f01b81525081565b60405180604001604052806002815260200161373960f01b81525081565b604051806040016040528060028152602001611b9b60f11b81525081565b604051806040016040528060028152602001611b1b60f11b81525081565b604051806040016040528060028152602001610d8d60f21b81525081565b60405180604001604052806002815260200161343160f01b81525081565b604051806040016040528060018152602001603360f81b81525081565b60405180604001604052806002815260200161373360f01b81525081565b60405180604001604052806002815260200161189b60f11b81525081565b60405180604001604052806002815260200161199b60f11b81525081565b60405180604001604052806002815260200161032360f41b81525081565b60405180604001604052806002815260200161353960f01b81525081565b60405180604001604052806002815260200161353760f01b81525081565b60405180604001604052806002815260200161343760f01b81525081565b60405180604001604052806002815260200161363360f01b81525081565b60405180604001604052806002815260200161333560f01b81525081565b60405180604001604052806002815260200161353360f01b81525081565b604051806040016040528060018152602001601b60f91b81525081565b604051806040016040528060028152602001611b1960f11b81525081565b604051806040016040528060028152602001611a1960f11b81525081565b60405180604001604052806002815260200161199960f11b8152508156fea2646970667358221220502ac47b3b98a54f3045c3c7f3e75711ee9b2f056a507a149cc39b2987c1662164736f6c63430006070033",
          "opcodes": "PUSH2 0x1111 PUSH2 0x26 PUSH1 0xB DUP3 DUP3 DUP3 CODECOPY DUP1 MLOAD PUSH1 0x0 BYTE PUSH1 0x73 EQ PUSH2 0x19 JUMPI INVALID JUMPDEST ADDRESS PUSH1 0x0 MSTORE PUSH1 0x73 DUP2 MSTORE8 DUP3 DUP2 RETURN INVALID PUSH20 0x0 ADDRESS EQ PUSH1 0x80 PUSH1 0x40 MSTORE PUSH1 0x4 CALLDATASIZE LT PUSH2 0x48A JUMPI PUSH1 0x0 CALLDATALOAD PUSH1 0xE0 SHR DUP1 PUSH4 0x6BA4271F GT PUSH2 0x261 JUMPI DUP1 PUSH4 0xCDAD445A GT PUSH2 0x150 JUMPI DUP1 PUSH4 0xE2C16D69 GT PUSH2 0xCD JUMPI DUP1 PUSH4 0xF11C6720 GT PUSH2 0x91 JUMPI DUP1 PUSH4 0xF11C6720 EQ PUSH2 0x75C JUMPI DUP1 PUSH4 0xF3D9CC11 EQ PUSH2 0x764 JUMPI DUP1 PUSH4 0xF902735D EQ PUSH2 0x76C JUMPI DUP1 PUSH4 0xFB681DEF EQ PUSH2 0x774 JUMPI DUP1 PUSH4 0xFE75FD26 EQ PUSH2 0x77C JUMPI PUSH2 0x48A JUMP JUMPDEST DUP1 PUSH4 0xE2C16D69 EQ PUSH2 0x734 JUMPI DUP1 PUSH4 0xE6632748 EQ PUSH2 0x73C JUMPI DUP1 PUSH4 0xE7BF91B3 EQ PUSH2 0x744 JUMPI DUP1 PUSH4 0xECA85D3A EQ PUSH2 0x74C JUMPI DUP1 PUSH4 0xF0473259 EQ PUSH2 0x754 JUMPI PUSH2 0x48A JUMP JUMPDEST DUP1 PUSH4 0xD7510E0C GT PUSH2 0x114 JUMPI DUP1 PUSH4 0xD7510E0C EQ PUSH2 0x70C JUMPI DUP1 PUSH4 0xD7B079AA EQ PUSH2 0x714 JUMPI DUP1 PUSH4 0xDAF23547 EQ PUSH2 0x71C JUMPI DUP1 PUSH4 0xE0D7DFD7 EQ PUSH2 0x724 JUMPI DUP1 PUSH4 0xE29425DC EQ PUSH2 0x72C JUMPI PUSH2 0x48A JUMP JUMPDEST DUP1 PUSH4 0xCDAD445A EQ PUSH2 0x6E4 JUMPI DUP1 PUSH4 0xD3E370EE EQ PUSH2 0x6EC JUMPI DUP1 PUSH4 0xD44E8E88 EQ PUSH2 0x6F4 JUMPI DUP1 PUSH4 0xD57BB964 EQ PUSH2 0x6FC JUMPI DUP1 PUSH4 0xD6F681B6 EQ PUSH2 0x704 JUMPI PUSH2 0x48A JUMP JUMPDEST DUP1 PUSH4 0xA39ED4FF GT PUSH2 0x1DE JUMPI DUP1 PUSH4 0xB89652CD GT PUSH2 0x1A2 JUMPI DUP1 PUSH4 0xB89652CD EQ PUSH2 0x6BC JUMPI DUP1 PUSH4 0xBD013F5B EQ PUSH2 0x6C4 JUMPI DUP1 PUSH4 0xC09E2618 EQ PUSH2 0x6CC JUMPI DUP1 PUSH4 0xC2D628DF EQ PUSH2 0x6D4 JUMPI DUP1 PUSH4 0xCC5FC44C EQ PUSH2 0x6DC JUMPI PUSH2 0x48A JUMP JUMPDEST DUP1 PUSH4 0xA39ED4FF EQ PUSH2 0x694 JUMPI DUP1 PUSH4 0xA8440241 EQ PUSH2 0x69C JUMPI DUP1 PUSH4 0xAC753236 EQ PUSH2 0x6A4 JUMPI DUP1 PUSH4 0xB36A2CF3 EQ PUSH2 0x6AC JUMPI DUP1 PUSH4 0xB72E40C7 EQ PUSH2 0x6B4 JUMPI PUSH2 0x48A JUMP JUMPDEST DUP1 PUSH4 0x7865A627 GT PUSH2 0x225 JUMPI DUP1 PUSH4 0x7865A627 EQ PUSH2 0x66C JUMPI DUP1 PUSH4 0x871938A8 EQ PUSH2 0x674 JUMPI DUP1 PUSH4 0x91A9FB18 EQ PUSH2 0x67C JUMPI DUP1 PUSH4 0x9BE4F03A EQ PUSH2 0x684 JUMPI DUP1 PUSH4 0xA2FBC8AD EQ PUSH2 0x68C JUMPI PUSH2 0x48A JUMP JUMPDEST DUP1 PUSH4 0x6BA4271F EQ PUSH2 0x644 JUMPI DUP1 PUSH4 0x6D422AA1 EQ PUSH2 0x64C JUMPI DUP1 PUSH4 0x708B8DD3 EQ PUSH2 0x654 JUMPI DUP1 PUSH4 0x71A629DA EQ PUSH2 0x65C JUMPI DUP1 PUSH4 0x76F19030 EQ PUSH2 0x664 JUMPI PUSH2 0x48A JUMP JUMPDEST DUP1 PUSH4 0x3AA786A8 GT PUSH2 0x37D JUMPI DUP1 PUSH4 0x4A529F91 GT PUSH2 0x2FA JUMPI DUP1 PUSH4 0x614CF6A1 GT PUSH2 0x2BE JUMPI DUP1 PUSH4 0x614CF6A1 EQ PUSH2 0x61C JUMPI DUP1 PUSH4 0x637A5A12 EQ PUSH2 0x624 JUMPI DUP1 PUSH4 0x6422B257 EQ PUSH2 0x62C JUMPI DUP1 PUSH4 0x65344799 EQ PUSH2 0x634 JUMPI DUP1 PUSH4 0x6AB5E615 EQ PUSH2 0x63C JUMPI PUSH2 0x48A JUMP JUMPDEST DUP1 PUSH4 0x4A529F91 EQ PUSH2 0x5F4 JUMPI DUP1 PUSH4 0x4FE4F1AB EQ PUSH2 0x5FC JUMPI DUP1 PUSH4 0x55BAB12C EQ PUSH2 0x604 JUMPI DUP1 PUSH4 0x5A9786D4 EQ PUSH2 0x60C JUMPI DUP1 PUSH4 0x5E869FF1 EQ PUSH2 0x614 JUMPI PUSH2 0x48A JUMP JUMPDEST DUP1 PUSH4 0x4349E3D8 GT PUSH2 0x341 JUMPI DUP1 PUSH4 0x4349E3D8 EQ PUSH2 0x5CC JUMPI DUP1 PUSH4 0x44942004 EQ PUSH2 0x5D4 JUMPI DUP1 PUSH4 0x44DC4F70 EQ PUSH2 0x5DC JUMPI DUP1 PUSH4 0x47D25300 EQ PUSH2 0x5E4 JUMPI DUP1 PUSH4 0x4927C63A EQ PUSH2 0x5EC JUMPI PUSH2 0x48A JUMP JUMPDEST DUP1 PUSH4 0x3AA786A8 EQ PUSH2 0x5A4 JUMPI DUP1 PUSH4 0x3B5D25AA EQ PUSH2 0x5AC JUMPI DUP1 PUSH4 0x3F5D6EC8 EQ PUSH2 0x5B4 JUMPI DUP1 PUSH4 0x407374A4 EQ PUSH2 0x5BC JUMPI DUP1 PUSH4 0x41B40BA5 EQ PUSH2 0x5C4 JUMPI PUSH2 0x48A JUMP JUMPDEST DUP1 PUSH4 0x22A6F08E GT PUSH2 0x40B JUMPI DUP1 PUSH4 0x333E8EA8 GT PUSH2 0x3CF JUMPI DUP1 PUSH4 0x333E8EA8 EQ PUSH2 0x57C JUMPI DUP1 PUSH4 0x35A9D21D EQ PUSH2 0x584 JUMPI DUP1 PUSH4 0x36565AB1 EQ PUSH2 0x58C JUMPI DUP1 PUSH4 0x3872B0AD EQ PUSH2 0x594 JUMPI DUP1 PUSH4 0x390F34BA EQ PUSH2 0x59C JUMPI PUSH2 0x48A JUMP JUMPDEST DUP1 PUSH4 0x22A6F08E EQ PUSH2 0x554 JUMPI DUP1 PUSH4 0x2ACE698A EQ PUSH2 0x55C JUMPI DUP1 PUSH4 0x2B34C349 EQ PUSH2 0x564 JUMPI DUP1 PUSH4 0x2B9C57F6 EQ PUSH2 0x56C JUMPI DUP1 PUSH4 0x2EA347B0 EQ PUSH2 0x574 JUMPI PUSH2 0x48A JUMP JUMPDEST DUP1 PUSH4 0x1291A38B GT PUSH2 0x452 JUMPI DUP1 PUSH4 0x1291A38B EQ PUSH2 0x52C JUMPI DUP1 PUSH4 0x179476C5 EQ PUSH2 0x534 JUMPI DUP1 PUSH4 0x1BEFA78D EQ PUSH2 0x53C JUMPI DUP1 PUSH4 0x1EA7C604 EQ PUSH2 0x544 JUMPI DUP1 PUSH4 0x1EC68B1D EQ PUSH2 0x54C JUMPI PUSH2 0x48A JUMP JUMPDEST DUP1 PUSH4 0x2454AD3 EQ PUSH2 0x48F JUMPI DUP1 PUSH4 0x29D2344 EQ PUSH2 0x50C JUMPI DUP1 PUSH4 0x6F355AD EQ PUSH2 0x514 JUMPI DUP1 PUSH4 0xB8FD588 EQ PUSH2 0x51C JUMPI DUP1 PUSH4 0xF5EE482 EQ PUSH2 0x524 JUMPI JUMPDEST PUSH1 0x0 DUP1 REVERT JUMPDEST PUSH2 0x497 PUSH2 0x784 JUMP JUMPDEST PUSH1 0x40 DUP1 MLOAD PUSH1 0x20 DUP1 DUP3 MSTORE DUP4 MLOAD DUP2 DUP4 ADD MSTORE DUP4 MLOAD SWAP2 SWAP3 DUP4 SWAP3 SWAP1 DUP4 ADD SWAP2 DUP6 ADD SWAP1 DUP1 DUP4 DUP4 PUSH1 0x0 JUMPDEST DUP4 DUP2 LT ISZERO PUSH2 0x4D1 JUMPI DUP2 DUP2 ADD MLOAD DUP4 DUP3 ADD MSTORE PUSH1 0x20 ADD PUSH2 0x4B9 JUMP JUMPDEST POP POP POP POP SWAP1 POP SWAP1 DUP2 ADD SWAP1 PUSH1 0x1F AND DUP1 ISZERO PUSH2 0x4FE JUMPI DUP1 DUP3 SUB DUP1 MLOAD PUSH1 0x1 DUP4 PUSH1 0x20 SUB PUSH2 0x100 EXP SUB NOT AND DUP2 MSTORE PUSH1 0x20 ADD SWAP2 POP JUMPDEST POP SWAP3 POP POP POP PUSH1 0x40 MLOAD DUP1 SWAP2 SUB SWAP1 RETURN JUMPDEST PUSH2 0x497 PUSH2 0x7A2 JUMP JUMPDEST PUSH2 0x497 PUSH2 0x7C0 JUMP JUMPDEST PUSH2 0x497 PUSH2 0x7DE JUMP JUMPDEST PUSH2 0x497 PUSH2 0x7FC JUMP JUMPDEST PUSH2 0x497 PUSH2 0x81A JUMP JUMPDEST PUSH2 0x497 PUSH2 0x838 JUMP JUMPDEST PUSH2 0x497 PUSH2 0x855 JUMP JUMPDEST PUSH2 0x497 PUSH2 0x873 JUMP JUMPDEST PUSH2 0x497 PUSH2 0x891 JUMP JUMPDEST PUSH2 0x497 PUSH2 0x8AF JUMP JUMPDEST PUSH2 0x497 PUSH2 0x8CD JUMP JUMPDEST PUSH2 0x497 PUSH2 0x8EB JUMP JUMPDEST PUSH2 0x497 PUSH2 0x909 JUMP JUMPDEST PUSH2 0x497 PUSH2 0x927 JUMP JUMPDEST PUSH2 0x497 PUSH2 0x945 JUMP JUMPDEST PUSH2 0x497 PUSH2 0x963 JUMP JUMPDEST PUSH2 0x497 PUSH2 0x981 JUMP JUMPDEST PUSH2 0x497 PUSH2 0x99E JUMP JUMPDEST PUSH2 0x497 PUSH2 0x9BC JUMP JUMPDEST PUSH2 0x497 PUSH2 0x9DA JUMP JUMPDEST PUSH2 0x497 PUSH2 0x9F8 JUMP JUMPDEST PUSH2 0x497 PUSH2 0xA15 JUMP JUMPDEST PUSH2 0x497 PUSH2 0xA33 JUMP JUMPDEST PUSH2 0x497 PUSH2 0xA51 JUMP JUMPDEST PUSH2 0x497 PUSH2 0xA6F JUMP JUMPDEST PUSH2 0x497 PUSH2 0xA8D JUMP JUMPDEST PUSH2 0x497 PUSH2 0xAAB JUMP JUMPDEST PUSH2 0x497 PUSH2 0xAC9 JUMP JUMPDEST PUSH2 0x497 PUSH2 0xAE7 JUMP JUMPDEST PUSH2 0x497 PUSH2 0xB05 JUMP JUMPDEST PUSH2 0x497 PUSH2 0xB23 JUMP JUMPDEST PUSH2 0x497 PUSH2 0xB41 JUMP JUMPDEST PUSH2 0x497 PUSH2 0xB5F JUMP JUMPDEST PUSH2 0x497 PUSH2 0xB7D JUMP JUMPDEST PUSH2 0x497 PUSH2 0xB9B JUMP JUMPDEST PUSH2 0x497 PUSH2 0xBB9 JUMP JUMPDEST PUSH2 0x497 PUSH2 0xBD7 JUMP JUMPDEST PUSH2 0x497 PUSH2 0xBF5 JUMP JUMPDEST PUSH2 0x497 PUSH2 0xC13 JUMP JUMPDEST PUSH2 0x497 PUSH2 0xC31 JUMP JUMPDEST PUSH2 0x497 PUSH2 0xC4F JUMP JUMPDEST PUSH2 0x497 PUSH2 0xC6D JUMP JUMPDEST PUSH2 0x497 PUSH2 0xC8A JUMP JUMPDEST PUSH2 0x497 PUSH2 0xCA8 JUMP JUMPDEST PUSH2 0x497 PUSH2 0xCC6 JUMP JUMPDEST PUSH2 0x497 PUSH2 0xCE3 JUMP JUMPDEST PUSH2 0x497 PUSH2 0xD00 JUMP JUMPDEST PUSH2 0x497 PUSH2 0xD1E JUMP JUMPDEST PUSH2 0x497 PUSH2 0xD3C JUMP JUMPDEST PUSH2 0x497 PUSH2 0xD5A JUMP JUMPDEST PUSH2 0x497 PUSH2 0xD78 JUMP JUMPDEST PUSH2 0x497 PUSH2 0xD95 JUMP JUMPDEST PUSH2 0x497 PUSH2 0xDB3 JUMP JUMPDEST PUSH2 0x497 PUSH2 0xDD1 JUMP JUMPDEST PUSH2 0x497 PUSH2 0xDEF JUMP JUMPDEST PUSH2 0x497 PUSH2 0xE0D JUMP JUMPDEST PUSH2 0x497 PUSH2 0xE2B JUMP JUMPDEST PUSH2 0x497 PUSH2 0xE49 JUMP JUMPDEST PUSH2 0x497 PUSH2 0xE67 JUMP JUMPDEST PUSH2 0x497 PUSH2 0xE85 JUMP JUMPDEST PUSH2 0x497 PUSH2 0xEA3 JUMP JUMPDEST PUSH2 0x497 PUSH2 0xEC1 JUMP JUMPDEST PUSH2 0x497 PUSH2 0xEDF JUMP JUMPDEST PUSH2 0x497 PUSH2 0xEFD JUMP JUMPDEST PUSH2 0x497 PUSH2 0xF1B JUMP JUMPDEST PUSH2 0x497 PUSH2 0xF38 JUMP JUMPDEST PUSH2 0x497 PUSH2 0xF56 JUMP JUMPDEST PUSH2 0x497 PUSH2 0xF74 JUMP JUMPDEST PUSH2 0x497 PUSH2 0xF92 JUMP JUMPDEST PUSH2 0x497 PUSH2 0xFB0 JUMP JUMPDEST PUSH2 0x497 PUSH2 0xFCE JUMP JUMPDEST PUSH2 0x497 PUSH2 0xFEC JUMP JUMPDEST PUSH2 0x497 PUSH2 0x100A JUMP JUMPDEST PUSH2 0x497 PUSH2 0x1028 JUMP JUMPDEST PUSH2 0x497 PUSH2 0x1046 JUMP JUMPDEST PUSH2 0x497 PUSH2 0x1064 JUMP JUMPDEST PUSH2 0x497 PUSH2 0x1081 JUMP JUMPDEST PUSH2 0x497 PUSH2 0x109F JUMP JUMPDEST PUSH2 0x497 PUSH2 0x10BD JUMP JUMPDEST PUSH1 0x40 MLOAD DUP1 PUSH1 0x40 ADD PUSH1 0x40 MSTORE DUP1 PUSH1 0x2 DUP2 MSTORE PUSH1 0x20 ADD PUSH2 0x3737 PUSH1 0xF0 SHL DUP2 MSTORE POP DUP2 JUMP JUMPDEST PUSH1 0x40 MLOAD DUP1 PUSH1 0x40 ADD PUSH1 0x40 MSTORE DUP1 PUSH1 0x2 DUP2 MSTORE PUSH1 0x20 ADD PUSH2 0x687 PUSH1 0xF3 SHL DUP2 MSTORE POP DUP2 JUMP JUMPDEST PUSH1 0x40 MLOAD DUP1 PUSH1 0x40 ADD PUSH1 0x40 MSTORE DUP1 PUSH1 0x2 DUP2 MSTORE PUSH1 0x20 ADD PUSH2 0x333 PUSH1 0xF4 SHL DUP2 MSTORE POP DUP2 JUMP JUMPDEST PUSH1 0x40 MLOAD DUP1 PUSH1 0x40 ADD PUSH1 0x40 MSTORE DUP1 PUSH1 0x2 DUP2 MSTORE PUSH1 0x20 ADD PUSH2 0x191B PUSH1 0xF1 SHL DUP2 MSTORE POP DUP2 JUMP JUMPDEST PUSH1 0x40 MLOAD DUP1 PUSH1 0x40 ADD PUSH1 0x40 MSTORE DUP1 PUSH1 0x2 DUP2 MSTORE PUSH1 0x20 ADD PUSH2 0x3439 PUSH1 0xF0 SHL DUP2 MSTORE POP DUP2 JUMP JUMPDEST PUSH1 0x40 MLOAD DUP1 PUSH1 0x40 ADD PUSH1 0x40 MSTORE DUP1 PUSH1 0x2 DUP2 MSTORE PUSH1 0x20 ADD PUSH2 0x1A9B PUSH1 0xF1 SHL DUP2 MSTORE POP DUP2 JUMP JUMPDEST PUSH1 0x40 MLOAD DUP1 PUSH1 0x40 ADD PUSH1 0x40 MSTORE DUP1 PUSH1 0x1 DUP2 MSTORE PUSH1 0x20 ADD PUSH1 0xD PUSH1 0xFA SHL DUP2 MSTORE POP DUP2 JUMP JUMPDEST PUSH1 0x40 MLOAD DUP1 PUSH1 0x40 ADD PUSH1 0x40 MSTORE DUP1 PUSH1 0x2 DUP2 MSTORE PUSH1 0x20 ADD PUSH2 0x383 PUSH1 0xF4 SHL DUP2 MSTORE POP DUP2 JUMP JUMPDEST PUSH1 0x40 MLOAD DUP1 PUSH1 0x40 ADD PUSH1 0x40 MSTORE DUP1 PUSH1 0x2 DUP2 MSTORE PUSH1 0x20 ADD PUSH2 0x1A1B PUSH1 0xF1 SHL DUP2 MSTORE POP DUP2 JUMP JUMPDEST PUSH1 0x40 MLOAD DUP1 PUSH1 0x40 ADD PUSH1 0x40 MSTORE DUP1 PUSH1 0x2 DUP2 MSTORE PUSH1 0x20 ADD PUSH2 0x313 PUSH1 0xF4 SHL DUP2 MSTORE POP DUP2 JUMP JUMPDEST PUSH1 0x40 MLOAD DUP1 PUSH1 0x40 ADD PUSH1 0x40 MSTORE DUP1 PUSH1 0x2 DUP2 MSTORE PUSH1 0x20 ADD PUSH2 0xC8D PUSH1 0xF2 SHL DUP2 MSTORE POP DUP2 JUMP JUMPDEST PUSH1 0x40 MLOAD DUP1 PUSH1 0x40 ADD PUSH1 0x40 MSTORE DUP1 PUSH1 0x2 DUP2 MSTORE PUSH1 0x20 ADD PUSH2 0x3131 PUSH1 0xF0 SHL DUP2 MSTORE POP DUP2 JUMP JUMPDEST PUSH1 0x40 MLOAD DUP1 PUSH1 0x40 ADD PUSH1 0x40 MSTORE DUP1 PUSH1 0x2 DUP2 MSTORE PUSH1 0x20 ADD PUSH2 0x647 PUSH1 0xF3 SHL DUP2 MSTORE POP DUP2 JUMP JUMPDEST PUSH1 0x40 MLOAD DUP1 PUSH1 0x40 ADD PUSH1 0x40 MSTORE DUP1 PUSH1 0x2 DUP2 MSTORE PUSH1 0x20 ADD PUSH2 0x6A7 PUSH1 0xF3 SHL DUP2 MSTORE POP DUP2 JUMP JUMPDEST PUSH1 0x40 MLOAD DUP1 PUSH1 0x40 ADD PUSH1 0x40 MSTORE DUP1 PUSH1 0x2 DUP2 MSTORE PUSH1 0x20 ADD PUSH2 0xD4D PUSH1 0xF2 SHL DUP2 MSTORE POP DUP2 JUMP JUMPDEST PUSH1 0x40 MLOAD DUP1 PUSH1 0x40 ADD PUSH1 0x40 MSTORE DUP1 PUSH1 0x2 DUP2 MSTORE PUSH1 0x20 ADD PUSH2 0x1B99 PUSH1 0xF1 SHL DUP2 MSTORE POP DUP2 JUMP JUMPDEST PUSH1 0x40 MLOAD DUP1 PUSH1 0x40 ADD PUSH1 0x40 MSTORE DUP1 PUSH1 0x2 DUP2 MSTORE PUSH1 0x20 ADD PUSH2 0x3139 PUSH1 0xF0 SHL DUP2 MSTORE POP DUP2 JUMP JUMPDEST PUSH1 0x40 MLOAD DUP1 PUSH1 0x40 ADD PUSH1 0x40 MSTORE DUP1 PUSH1 0x1 DUP2 MSTORE PUSH1 0x20 ADD PUSH1 0x37 PUSH1 0xF8 SHL DUP2 MSTORE POP DUP2 JUMP JUMPDEST PUSH1 0x40 MLOAD DUP1 PUSH1 0x40 ADD PUSH1 0x40 MSTORE DUP1 PUSH1 0x2 DUP2 MSTORE PUSH1 0x20 ADD PUSH2 0x3339 PUSH1 0xF0 SHL DUP2 MSTORE POP DUP2 JUMP JUMPDEST PUSH1 0x40 MLOAD DUP1 PUSH1 0x40 ADD PUSH1 0x40 MSTORE DUP1 PUSH1 0x2 DUP2 MSTORE PUSH1 0x20 ADD PUSH2 0x3235 PUSH1 0xF0 SHL DUP2 MSTORE POP DUP2 JUMP JUMPDEST PUSH1 0x40 MLOAD DUP1 PUSH1 0x40 ADD PUSH1 0x40 MSTORE DUP1 PUSH1 0x2 DUP2 MSTORE PUSH1 0x20 ADD PUSH2 0xC4D PUSH1 0xF2 SHL DUP2 MSTORE POP DUP2 JUMP JUMPDEST PUSH1 0x40 MLOAD DUP1 PUSH1 0x40 ADD PUSH1 0x40 MSTORE DUP1 PUSH1 0x1 DUP2 MSTORE PUSH1 0x20 ADD PUSH1 0x7 PUSH1 0xFB SHL DUP2 MSTORE POP DUP2 JUMP JUMPDEST PUSH1 0x40 MLOAD DUP1 PUSH1 0x40 ADD PUSH1 0x40 MSTORE DUP1 PUSH1 0x2 DUP2 MSTORE PUSH1 0x20 ADD PUSH2 0x373 PUSH1 0xF4 SHL DUP2 MSTORE POP DUP2 JUMP JUMPDEST PUSH1 0x40 MLOAD DUP1 PUSH1 0x40 ADD PUSH1 0x40 MSTORE DUP1 PUSH1 0x2 DUP2 MSTORE PUSH1 0x20 ADD PUSH2 0x3433 PUSH1 0xF0 SHL DUP2 MSTORE POP DUP2 JUMP JUMPDEST PUSH1 0x40 MLOAD DUP1 PUSH1 0x40 ADD PUSH1 0x40 MSTORE DUP1 PUSH1 0x2 DUP2 MSTORE PUSH1 0x20 ADD PUSH2 0x667 PUSH1 0xF3 SHL DUP2 MSTORE POP DUP2 JUMP JUMPDEST PUSH1 0x40 MLOAD DUP1 PUSH1 0x40 ADD PUSH1 0x40 MSTORE DUP1 PUSH1 0x2 DUP2 MSTORE PUSH1 0x20 ADD PUSH2 0x353 PUSH1 0xF4 SHL DUP2 MSTORE POP DUP2 JUMP JUMPDEST PUSH1 0x40 MLOAD DUP1 PUSH1 0x40 ADD PUSH1 0x40 MSTORE DUP1 PUSH1 0x2 DUP2 MSTORE PUSH1 0x20 ADD PUSH2 0x1A99 PUSH1 0xF1 SHL DUP2 MSTORE POP DUP2 JUMP JUMPDEST PUSH1 0x40 MLOAD DUP1 PUSH1 0x40 ADD PUSH1 0x40 MSTORE DUP1 PUSH1 0x2 DUP2 MSTORE PUSH1 0x20 ADD PUSH2 0x3231 PUSH1 0xF0 SHL DUP2 MSTORE POP DUP2 JUMP JUMPDEST PUSH1 0x40 MLOAD DUP1 PUSH1 0x40 ADD PUSH1 0x40 MSTORE DUP1 PUSH1 0x2 DUP2 MSTORE PUSH1 0x20 ADD PUSH2 0x3735 PUSH1 0xF0 SHL DUP2 MSTORE POP DUP2 JUMP JUMPDEST PUSH1 0x40 MLOAD DUP1 PUSH1 0x40 ADD PUSH1 0x40 MSTORE DUP1 PUSH1 0x2 DUP2 MSTORE PUSH1 0x20 ADD PUSH2 0x1899 PUSH1 0xF1 SHL DUP2 MSTORE POP DUP2 JUMP JUMPDEST PUSH1 0x40 MLOAD DUP1 PUSH1 0x40 ADD PUSH1 0x40 MSTORE DUP1 PUSH1 0x2 DUP2 MSTORE PUSH1 0x20 ADD PUSH2 0x3233 PUSH1 0xF0 SHL DUP2 MSTORE POP DUP2 JUMP JUMPDEST PUSH1 0x40 MLOAD DUP1 PUSH1 0x40 ADD PUSH1 0x40 MSTORE DUP1 PUSH1 0x2 DUP2 MSTORE PUSH1 0x20 ADD PUSH2 0x3531 PUSH1 0xF0 SHL DUP2 MSTORE POP DUP2 JUMP JUMPDEST PUSH1 0x40 MLOAD DUP1 PUSH1 0x40 ADD PUSH1 0x40 MSTORE DUP1 PUSH1 0x2 DUP2 MSTORE PUSH1 0x20 ADD PUSH2 0x363 PUSH1 0xF4 SHL DUP2 MSTORE POP DUP2 JUMP JUMPDEST PUSH1 0x40 MLOAD DUP1 PUSH1 0x40 ADD PUSH1 0x40 MSTORE DUP1 PUSH1 0x2 DUP2 MSTORE PUSH1 0x20 ADD PUSH2 0x343 PUSH1 0xF4 SHL DUP2 MSTORE POP DUP2 JUMP JUMPDEST PUSH1 0x40 MLOAD DUP1 PUSH1 0x40 ADD PUSH1 0x40 MSTORE DUP1 PUSH1 0x2 DUP2 MSTORE PUSH1 0x20 ADD PUSH2 0x3639 PUSH1 0xF0 SHL DUP2 MSTORE POP DUP2 JUMP JUMPDEST PUSH1 0x40 MLOAD DUP1 PUSH1 0x40 ADD PUSH1 0x40 MSTORE DUP1 PUSH1 0x2 DUP2 MSTORE PUSH1 0x20 ADD PUSH2 0x3637 PUSH1 0xF0 SHL DUP2 MSTORE POP DUP2 JUMP JUMPDEST PUSH1 0x40 MLOAD DUP1 PUSH1 0x40 ADD PUSH1 0x40 MSTORE DUP1 PUSH1 0x2 DUP2 MSTORE PUSH1 0x20 ADD PUSH2 0x6E7 PUSH1 0xF3 SHL DUP2 MSTORE POP DUP2 JUMP JUMPDEST PUSH1 0x40 MLOAD DUP1 PUSH1 0x40 ADD PUSH1 0x40 MSTORE DUP1 PUSH1 0x2 DUP2 MSTORE PUSH1 0x20 ADD PUSH2 0x3137 PUSH1 0xF0 SHL DUP2 MSTORE POP DUP2 JUMP JUMPDEST PUSH1 0x40 MLOAD DUP1 PUSH1 0x40 ADD PUSH1 0x40 MSTORE DUP1 PUSH1 0x2 DUP2 MSTORE PUSH1 0x20 ADD PUSH2 0xCCD PUSH1 0xF2 SHL DUP2 MSTORE POP DUP2 JUMP JUMPDEST PUSH1 0x40 MLOAD DUP1 PUSH1 0x40 ADD PUSH1 0x40 MSTORE DUP1 PUSH1 0x2 DUP2 MSTORE PUSH1 0x20 ADD PUSH2 0x627 PUSH1 0xF3 SHL DUP2 MSTORE POP DUP2 JUMP JUMPDEST PUSH1 0x40 MLOAD DUP1 PUSH1 0x40 ADD PUSH1 0x40 MSTORE DUP1 PUSH1 0x2 DUP2 MSTORE PUSH1 0x20 ADD PUSH2 0x3239 PUSH1 0xF0 SHL DUP2 MSTORE POP DUP2 JUMP JUMPDEST PUSH1 0x40 MLOAD DUP1 PUSH1 0x40 ADD PUSH1 0x40 MSTORE DUP1 PUSH1 0x2 DUP2 MSTORE PUSH1 0x20 ADD PUSH2 0x3535 PUSH1 0xF0 SHL DUP2 MSTORE POP DUP2 JUMP JUMPDEST PUSH1 0x40 MLOAD DUP1 PUSH1 0x40 ADD PUSH1 0x40 MSTORE DUP1 PUSH1 0x1 DUP2 MSTORE PUSH1 0x20 ADD PUSH1 0x39 PUSH1 0xF8 SHL DUP2 MSTORE POP DUP2 JUMP JUMPDEST PUSH1 0x40 MLOAD DUP1 PUSH1 0x40 ADD PUSH1 0x40 MSTORE DUP1 PUSH1 0x2 DUP2 MSTORE PUSH1 0x20 ADD PUSH2 0xD0D PUSH1 0xF2 SHL DUP2 MSTORE POP DUP2 JUMP JUMPDEST PUSH1 0x40 MLOAD DUP1 PUSH1 0x40 ADD PUSH1 0x40 MSTORE DUP1 PUSH1 0x2 DUP2 MSTORE PUSH1 0x20 ADD PUSH2 0x3635 PUSH1 0xF0 SHL DUP2 MSTORE POP DUP2 JUMP JUMPDEST PUSH1 0x40 MLOAD DUP1 PUSH1 0x40 ADD PUSH1 0x40 MSTORE DUP1 PUSH1 0x1 DUP2 MSTORE PUSH1 0x20 ADD PUSH1 0x19 PUSH1 0xF9 SHL DUP2 MSTORE POP DUP2 JUMP JUMPDEST PUSH1 0x40 MLOAD DUP1 PUSH1 0x40 ADD PUSH1 0x40 MSTORE DUP1 PUSH1 0x1 DUP2 MSTORE PUSH1 0x20 ADD PUSH1 0x31 PUSH1 0xF8 SHL DUP2 MSTORE POP DUP2 JUMP JUMPDEST PUSH1 0x40 MLOAD DUP1 PUSH1 0x40 ADD PUSH1 0x40 MSTORE DUP1 PUSH1 0x2 DUP2 MSTORE PUSH1 0x20 ADD PUSH2 0x3135 PUSH1 0xF0 SHL DUP2 MSTORE POP DUP2 JUMP JUMPDEST PUSH1 0x40 MLOAD DUP1 PUSH1 0x40 ADD PUSH1 0x40 MSTORE DUP1 PUSH1 0x2 DUP2 MSTORE PUSH1 0x20 ADD PUSH2 0x3731 PUSH1 0xF0 SHL DUP2 MSTORE POP DUP2 JUMP JUMPDEST PUSH1 0x40 MLOAD DUP1 PUSH1 0x40 ADD PUSH1 0x40 MSTORE DUP1 PUSH1 0x2 DUP2 MSTORE PUSH1 0x20 ADD PUSH2 0x3331 PUSH1 0xF0 SHL DUP2 MSTORE POP DUP2 JUMP JUMPDEST PUSH1 0x40 MLOAD DUP1 PUSH1 0x40 ADD PUSH1 0x40 MSTORE DUP1 PUSH1 0x2 DUP2 MSTORE PUSH1 0x20 ADD PUSH2 0x3133 PUSH1 0xF0 SHL DUP2 MSTORE POP DUP2 JUMP JUMPDEST PUSH1 0x40 MLOAD DUP1 PUSH1 0x40 ADD PUSH1 0x40 MSTORE DUP1 PUSH1 0x1 DUP2 MSTORE PUSH1 0x20 ADD PUSH1 0x35 PUSH1 0xF8 SHL DUP2 MSTORE POP DUP2 JUMP JUMPDEST PUSH1 0x40 MLOAD DUP1 PUSH1 0x40 ADD PUSH1 0x40 MSTORE DUP1 PUSH1 0x2 DUP2 MSTORE PUSH1 0x20 ADD PUSH2 0x3333 PUSH1 0xF0 SHL DUP2 MSTORE POP DUP2 JUMP JUMPDEST PUSH1 0x40 MLOAD DUP1 PUSH1 0x40 ADD PUSH1 0x40 MSTORE DUP1 PUSH1 0x2 DUP2 MSTORE PUSH1 0x20 ADD PUSH2 0x3237 PUSH1 0xF0 SHL DUP2 MSTORE POP DUP2 JUMP JUMPDEST PUSH1 0x40 MLOAD DUP1 PUSH1 0x40 ADD PUSH1 0x40 MSTORE DUP1 PUSH1 0x2 DUP2 MSTORE PUSH1 0x20 ADD PUSH2 0xDCD PUSH1 0xF2 SHL DUP2 MSTORE POP DUP2 JUMP JUMPDEST PUSH1 0x40 MLOAD DUP1 PUSH1 0x40 ADD PUSH1 0x40 MSTORE DUP1 PUSH1 0x2 DUP2 MSTORE PUSH1 0x20 ADD PUSH2 0x1919 PUSH1 0xF1 SHL DUP2 MSTORE POP DUP2 JUMP JUMPDEST PUSH1 0x40 MLOAD DUP1 PUSH1 0x40 ADD PUSH1 0x40 MSTORE DUP1 PUSH1 0x2 DUP2 MSTORE PUSH1 0x20 ADD PUSH2 0x6C7 PUSH1 0xF3 SHL DUP2 MSTORE POP DUP2 JUMP JUMPDEST PUSH1 0x40 MLOAD DUP1 PUSH1 0x40 ADD PUSH1 0x40 MSTORE DUP1 PUSH1 0x2 DUP2 MSTORE PUSH1 0x20 ADD PUSH2 0x3337 PUSH1 0xF0 SHL DUP2 MSTORE POP DUP2 JUMP JUMPDEST PUSH1 0x40 MLOAD DUP1 PUSH1 0x40 ADD PUSH1 0x40 MSTORE DUP1 PUSH1 0x2 DUP2 MSTORE PUSH1 0x20 ADD PUSH2 0x3631 PUSH1 0xF0 SHL DUP2 MSTORE POP DUP2 JUMP JUMPDEST PUSH1 0x40 MLOAD DUP1 PUSH1 0x40 ADD PUSH1 0x40 MSTORE DUP1 PUSH1 0x2 DUP2 MSTORE PUSH1 0x20 ADD PUSH2 0x3435 PUSH1 0xF0 SHL DUP2 MSTORE POP DUP2 JUMP JUMPDEST PUSH1 0x40 MLOAD DUP1 PUSH1 0x40 ADD PUSH1 0x40 MSTORE DUP1 PUSH1 0x2 DUP2 MSTORE PUSH1 0x20 ADD PUSH2 0x3739 PUSH1 0xF0 SHL DUP2 MSTORE POP DUP2 JUMP JUMPDEST PUSH1 0x40 MLOAD DUP1 PUSH1 0x40 ADD PUSH1 0x40 MSTORE DUP1 PUSH1 0x2 DUP2 MSTORE PUSH1 0x20 ADD PUSH2 0x1B9B PUSH1 0xF1 SHL DUP2 MSTORE POP DUP2 JUMP JUMPDEST PUSH1 0x40 MLOAD DUP1 PUSH1 0x40 ADD PUSH1 0x40 MSTORE DUP1 PUSH1 0x2 DUP2 MSTORE PUSH1 0x20 ADD PUSH2 0x1B1B PUSH1 0xF1 SHL DUP2 MSTORE POP DUP2 JUMP JUMPDEST PUSH1 0x40 MLOAD DUP1 PUSH1 0x40 ADD PUSH1 0x40 MSTORE DUP1 PUSH1 0x2 DUP2 MSTORE PUSH1 0x20 ADD PUSH2 0xD8D PUSH1 0xF2 SHL DUP2 MSTORE POP DUP2 JUMP JUMPDEST PUSH1 0x40 MLOAD DUP1 PUSH1 0x40 ADD PUSH1 0x40 MSTORE DUP1 PUSH1 0x2 DUP2 MSTORE PUSH1 0x20 ADD PUSH2 0x3431 PUSH1 0xF0 SHL DUP2 MSTORE POP DUP2 JUMP JUMPDEST PUSH1 0x40 MLOAD DUP1 PUSH1 0x40 ADD PUSH1 0x40 MSTORE DUP1 PUSH1 0x1 DUP2 MSTORE PUSH1 0x20 ADD PUSH1 0x33 PUSH1 0xF8 SHL DUP2 MSTORE POP DUP2 JUMP JUMPDEST PUSH1 0x40 MLOAD DUP1 PUSH1 0x40 ADD PUSH1 0x40 MSTORE DUP1 PUSH1 0x2 DUP2 MSTORE PUSH1 0x20 ADD PUSH2 0x3733 PUSH1 0xF0 SHL DUP2 MSTORE POP DUP2 JUMP JUMPDEST PUSH1 0x40 MLOAD DUP1 PUSH1 0x40 ADD PUSH1 0x40 MSTORE DUP1 PUSH1 0x2 DUP2 MSTORE PUSH1 0x20 ADD PUSH2 0x189B PUSH1 0xF1 SHL DUP2 MSTORE POP DUP2 JUMP JUMPDEST PUSH1 0x40 MLOAD DUP1 PUSH1 0x40 ADD PUSH1 0x40 MSTORE DUP1 PUSH1 0x2 DUP2 MSTORE PUSH1 0x20 ADD PUSH2 0x199B PUSH1 0xF1 SHL DUP2 MSTORE POP DUP2 JUMP JUMPDEST PUSH1 0x40 MLOAD DUP1 PUSH1 0x40 ADD PUSH1 0x40 MSTORE DUP1 PUSH1 0x2 DUP2 MSTORE PUSH1 0x20 ADD PUSH2 0x323 PUSH1 0xF4 SHL DUP2 MSTORE POP DUP2 JUMP JUMPDEST PUSH1 0x40 MLOAD DUP1 PUSH1 0x40 ADD PUSH1 0x40 MSTORE DUP1 PUSH1 0x2 DUP2 MSTORE PUSH1 0x20 ADD PUSH2 0x3539 PUSH1 0xF0 SHL DUP2 MSTORE POP DUP2 JUMP JUMPDEST PUSH1 0x40 MLOAD DUP1 PUSH1 0x40 ADD PUSH1 0x40 MSTORE DUP1 PUSH1 0x2 DUP2 MSTORE PUSH1 0x20 ADD PUSH2 0x3537 PUSH1 0xF0 SHL DUP2 MSTORE POP DUP2 JUMP JUMPDEST PUSH1 0x40 MLOAD DUP1 PUSH1 0x40 ADD PUSH1 0x40 MSTORE DUP1 PUSH1 0x2 DUP2 MSTORE PUSH1 0x20 ADD PUSH2 0x3437 PUSH1 0xF0 SHL DUP2 MSTORE POP DUP2 JUMP JUMPDEST PUSH1 0x40 MLOAD DUP1 PUSH1 0x40 ADD PUSH1 0x40 MSTORE DUP1 PUSH1 0x2 DUP2 MSTORE PUSH1 0x20 ADD PUSH2 0x3633 PUSH1 0xF0 SHL DUP2 MSTORE POP DUP2 JUMP JUMPDEST PUSH1 0x40 MLOAD DUP1 PUSH1 0x40 ADD PUSH1 0x40 MSTORE DUP1 PUSH1 0x2 DUP2 MSTORE PUSH1 0x20 ADD PUSH2 0x3335 PUSH1 0xF0 SHL DUP2 MSTORE POP DUP2 JUMP JUMPDEST PUSH1 0x40 MLOAD DUP1 PUSH1 0x40 ADD PUSH1 0x40 MSTORE DUP1 PUSH1 0x2 DUP2 MSTORE PUSH1 0x20 ADD PUSH2 0x3533 PUSH1 0xF0 SHL DUP2 MSTORE POP DUP2 JUMP JUMPDEST PUSH1 0x40 MLOAD DUP1 PUSH1 0x40 ADD PUSH1 0x40 MSTORE DUP1 PUSH1 0x1 DUP2 MSTORE PUSH1 0x20 ADD PUSH1 0x1B PUSH1 0xF9 SHL DUP2 MSTORE POP DUP2 JUMP JUMPDEST PUSH1 0x40 MLOAD DUP1 PUSH1 0x40 ADD PUSH1 0x40 MSTORE DUP1 PUSH1 0x2 DUP2 MSTORE PUSH1 0x20 ADD PUSH2 0x1B19 PUSH1 0xF1 SHL DUP2 MSTORE POP DUP2 JUMP JUMPDEST PUSH1 0x40 MLOAD DUP1 PUSH1 0x40 ADD PUSH1 0x40 MSTORE DUP1 PUSH1 0x2 DUP2 MSTORE PUSH1 0x20 ADD PUSH2 0x1A19 PUSH1 0xF1 SHL DUP2 MSTORE POP DUP2 JUMP JUMPDEST PUSH1 0x40 MLOAD DUP1 PUSH1 0x40 ADD PUSH1 0x40 MSTORE DUP1 PUSH1 0x2 DUP2 MSTORE PUSH1 0x20 ADD PUSH2 0x1999 PUSH1 0xF1 SHL DUP2 MSTORE POP DUP2 JUMP INVALID LOG2 PUSH5 0x6970667358 0x22 SLT KECCAK256 POP 0x2A 0xC4 PUSH28 0x3B98A54F3045C3C7F3E75711EE9B2F056A507A149CC39B2987C16621 PUSH5 0x736F6C6343 STOP MOD SMOD STOP CALLER "
        },
        "methodIdentifiers": {
          "BORROW_ALLOWANCE_NOT_ENOUGH()": "e2c16d69",
          "CALLER_NOT_POOL_ADMIN()": "ac753236",
          "CT_CALLER_MUST_BE_LENDING_POOL()": "6ba4271f",
          "CT_CANNOT_GIVE_ALLOWANCE_TO_HIMSELF()": "06f355ad",
          "CT_INVALID_BURN_AMOUNT()": "2b9c57f6",
          "CT_INVALID_MINT_AMOUNT()": "1291a38b",
          "CT_TRANSFER_AMOUNT_NOT_GT_0()": "a2fbc8ad",
          "LPAPR_INVALID_ADDRESSES_PROVIDER_ID()": "333e8ea8",
          "LPAPR_PROVIDER_NOT_REGISTERED()": "d6f681b6",
          "LPCM_COLLATERAL_CANNOT_BE_LIQUIDATED()": "407374a4",
          "LPCM_HEALTH_FACTOR_NOT_BELOW_THRESHOLD()": "fb681def",
          "LPCM_NOT_ENOUGH_LIQUIDITY_TO_LIQUIDATE()": "cc5fc44c",
          "LPCM_NO_ERRORS()": "1ea7c604",
          "LPCM_SPECIFIED_CURRENCY_NOT_BORROWED_BY_USER()": "71a629da",
          "LPC_CALLER_NOT_EMERGENCY_ADMIN()": "d3e370ee",
          "LPC_INVALID_ADDRESSES_PROVIDER_ID()": "5a9786d4",
          "LPC_INVALID_ATOKEN_POOL_ADDRESS()": "f0473259",
          "LPC_INVALID_CONFIGURATION()": "47d25300",
          "LPC_INVALID_STABLE_DEBT_TOKEN_POOL_ADDRESS()": "e0d7dfd7",
          "LPC_INVALID_STABLE_DEBT_TOKEN_UNDERLYING_ADDRESS()": "41b40ba5",
          "LPC_INVALID_VARIABLE_DEBT_TOKEN_POOL_ADDRESS()": "c09e2618",
          "LPC_INVALID_VARIABLE_DEBT_TOKEN_UNDERLYING_ADDRESS()": "3872b0ad",
          "LPC_RESERVE_LIQUIDITY_NOT_0()": "65344799",
          "LP_CALLER_MUST_BE_AN_ATOKEN()": "eca85d3a",
          "LP_CALLER_NOT_LENDING_POOL_CONFIGURATOR()": "b36a2cf3",
          "LP_FAILED_COLLATERAL_SWAP()": "55bab12c",
          "LP_FAILED_REPAY_WITH_COLLATERAL()": "e6632748",
          "LP_INCONSISTENT_FLASHLOAN_PARAMS()": "2b34c349",
          "LP_INCONSISTENT_PARAMS_LENGTH()": "b72e40c7",
          "LP_INCONSISTENT_PROTOCOL_ACTUAL_BALANCE()": "0b8fd588",
          "LP_INTEREST_RATE_REBALANCE_CONDITIONS_NOT_MET()": "b89652cd",
          "LP_INVALID_EQUAL_ASSETS_TO_SWAP()": "c2d628df",
          "LP_INVALID_FLASHLOAN_MODE()": "e7bf91b3",
          "LP_INVALID_FLASH_LOAN_EXECUTOR_RETURN()": "d44e8e88",
          "LP_IS_PAUSED()": "d57bb964",
          "LP_LIQUIDATION_CALL_FAILED()": "4a529f91",
          "LP_NOT_CONTRACT()": "637a5a12",
          "LP_NOT_ENOUGH_LIQUIDITY_TO_BORROW()": "22a6f08e",
          "LP_NOT_ENOUGH_STABLE_BORROW_BALANCE()": "44dc4f70",
          "LP_NO_MORE_RESERVES_ALLOWED()": "76f19030",
          "LP_REENTRANCY_NOT_ALLOWED()": "f902735d",
          "LP_REQUESTED_AMOUNT_TOO_SMALL()": "390f34ba",
          "MATH_ADDITION_OVERFLOW()": "0f5ee482",
          "MATH_DIVISION_BY_ZERO()": "4349e3d8",
          "MATH_MULTIPLICATION_OVERFLOW()": "029d2344",
          "RC_INVALID_DECIMALS()": "3f5d6ec8",
          "RC_INVALID_LIQ_BONUS()": "5e869ff1",
          "RC_INVALID_LIQ_THRESHOLD()": "bd013f5b",
          "RC_INVALID_LTV()": "614cf6a1",
          "RC_INVALID_RESERVE_FACTOR()": "9be4f03a",
          "RL_LIQUIDITY_INDEX_OVERFLOW()": "4fe4f1ab",
          "RL_LIQUIDITY_RATE_OVERFLOW()": "f11c6720",
          "RL_RESERVE_ALREADY_INITIALIZED()": "fe75fd26",
          "RL_STABLE_BORROW_RATE_OVERFLOW()": "6d422aa1",
          "RL_VARIABLE_BORROW_INDEX_OVERFLOW()": "44942004",
          "RL_VARIABLE_BORROW_RATE_OVERFLOW()": "2ea347b0",
          "SDT_BURN_EXCEEDS_BALANCE()": "1befa78d",
          "SDT_STABLE_DEBT_OVERFLOW()": "cdad445a",
          "UL_INVALID_INDEX()": "02454ad3",
          "VL_AMOUNT_BIGGER_THAN_MAX_LOAN_SIZE_STABLE()": "3aa786a8",
          "VL_BORROWING_NOT_ENABLED()": "36565ab1",
          "VL_COLLATERAL_BALANCE_IS_0()": "708b8dd3",
          "VL_COLLATERAL_CANNOT_COVER_NEW_BORROW()": "2ace698a",
          "VL_COLLATERAL_SAME_AS_BORROWING_CURRENCY()": "a39ed4ff",
          "VL_CURRENT_AVAILABLE_LIQUIDITY_NOT_ENOUGH()": "179476c5",
          "VL_DEPOSIT_ALREADY_IN_USE()": "e29425dc",
          "VL_HEALTH_FACTOR_LOWER_THAN_LIQUIDATION_THRESHOLD()": "1ec68b1d",
          "VL_INCONSISTENT_FLASHLOAN_PARAMS()": "d7b079aa",
          "VL_INVALID_AMOUNT()": "871938a8",
          "VL_INVALID_INTEREST_RATE_MODE_SELECTED()": "3b5d25aa",
          "VL_NOT_ENOUGH_AVAILABLE_USER_BALANCE()": "a8440241",
          "VL_NO_ACTIVE_RESERVE()": "7865a627",
          "VL_NO_DEBT_OF_SELECTED_TYPE()": "91a9fb18",
          "VL_NO_EXPLICIT_AMOUNT_TO_REPAY_ON_BEHALF()": "daf23547",
          "VL_NO_STABLE_RATE_LOAN_IN_RESERVE()": "6422b257",
          "VL_NO_VARIABLE_RATE_LOAN_IN_RESERVE()": "6ab5e615",
          "VL_RESERVE_FROZEN()": "d7510e0c",
          "VL_STABLE_BORROWING_NOT_ENABLED()": "4927c63a",
          "VL_TRANSFER_NOT_ALLOWED()": "f3d9cc11",
          "VL_UNDERLYING_BALANCE_NOT_GREATER_THAN_0()": "35a9d21d"
        }
      }
    }
  }
}