{
  "contracts/InterestRateStrategy.sol": {
    "InterestRateStrategy": {
      "abi": [
        {
          "inputs": [
            {
              "internalType": "uint256",
              "name": "_optimalUtilization",
              "type": "uint256"
            },
            {
              "internalType": "uint256",
              "name": "_baseStableRate",
              "type": "uint256"
            },
            {
              "internalType": "uint256",
              "name": "_slope1StableRate",
              "type": "uint256"
            },
            {
              "internalType": "uint256",
              "name": "_slope2StableRate",
              "type": "uint256"
            }
          ],
          "stateMutability": "nonpayable",
          "type": "constructor"
        },
        {
          "anonymous": false,
          "inputs": [
            {
              "indexed": true,
              "internalType": "address",
              "name": "previousOwner",
              "type": "address"
            },
            {
              "indexed": true,
              "internalType": "address",
              "name": "newOwner",
              "type": "address"
            }
          ],
          "name": "OwnershipTransferred",
          "type": "event"
        },
        {
          "inputs": [],
          "name": "a",
          "outputs": [
            {
              "internalType": "uint256",
              "name": "",
              "type": "uint256"
            }
          ],
          "stateMutability": "view",
          "type": "function"
        },
        {
          "inputs": [],
          "name": "baseStableRate",
          "outputs": [
            {
              "internalType": "uint256",
              "name": "",
              "type": "uint256"
            }
          ],
          "stateMutability": "view",
          "type": "function"
        },
        {
          "inputs": [
            {
              "internalType": "uint256",
              "name": "_totalBorrowed",
              "type": "uint256"
            },
            {
              "internalType": "uint256",
              "name": "_totalCreditAvailable",
              "type": "uint256"
            }
          ],
          "name": "computeBorrowingRewardRate",
          "outputs": [
            {
              "internalType": "uint256",
              "name": "",
              "type": "uint256"
            }
          ],
          "stateMutability": "view",
          "type": "function"
        },
        {
          "inputs": [
            {
              "internalType": "uint256",
              "name": "_totalBorrowed",
              "type": "uint256"
            },
            {
              "internalType": "uint256",
              "name": "_totalCreditAvailable",
              "type": "uint256"
            }
          ],
          "name": "computeDepositRewardRate",
          "outputs": [
            {
              "internalType": "uint256",
              "name": "",
              "type": "uint256"
            }
          ],
          "stateMutability": "view",
          "type": "function"
        },
        {
          "inputs": [],
          "name": "excessRate",
          "outputs": [
            {
              "internalType": "uint256",
              "name": "",
              "type": "uint256"
            }
          ],
          "stateMutability": "view",
          "type": "function"
        },
        {
          "inputs": [
            {
              "internalType": "uint256",
              "name": "_totalBorrowed",
              "type": "uint256"
            },
            {
              "internalType": "uint256",
              "name": "_totalCreditAvailable",
              "type": "uint256"
            }
          ],
          "name": "getUtilisation",
          "outputs": [
            {
              "internalType": "uint256",
              "name": "",
              "type": "uint256"
            }
          ],
          "stateMutability": "pure",
          "type": "function"
        },
        {
          "inputs": [],
          "name": "optimalUtilization",
          "outputs": [
            {
              "internalType": "uint256",
              "name": "",
              "type": "uint256"
            }
          ],
          "stateMutability": "view",
          "type": "function"
        },
        {
          "inputs": [],
          "name": "owner",
          "outputs": [
            {
              "internalType": "address",
              "name": "",
              "type": "address"
            }
          ],
          "stateMutability": "view",
          "type": "function"
        },
        {
          "inputs": [],
          "name": "renounceOwnership",
          "outputs": [],
          "stateMutability": "nonpayable",
          "type": "function"
        },
        {
          "inputs": [
            {
              "internalType": "uint256",
              "name": "_optimalUtilization",
              "type": "uint256"
            },
            {
              "internalType": "uint256",
              "name": "_baseStableRate",
              "type": "uint256"
            },
            {
              "internalType": "uint256",
              "name": "_slope1StableRate",
              "type": "uint256"
            },
            {
              "internalType": "uint256",
              "name": "_slope2StableRate",
              "type": "uint256"
            }
          ],
          "name": "setPoolVariables",
          "outputs": [],
          "stateMutability": "nonpayable",
          "type": "function"
        },
        {
          "inputs": [],
          "name": "slope1StableRate",
          "outputs": [
            {
              "internalType": "uint256",
              "name": "",
              "type": "uint256"
            }
          ],
          "stateMutability": "view",
          "type": "function"
        },
        {
          "inputs": [],
          "name": "slope2StableRate",
          "outputs": [
            {
              "internalType": "uint256",
              "name": "",
              "type": "uint256"
            }
          ],
          "stateMutability": "view",
          "type": "function"
        },
        {
          "inputs": [
            {
              "internalType": "address",
              "name": "newOwner",
              "type": "address"
            }
          ],
          "name": "transferOwnership",
          "outputs": [],
          "stateMutability": "nonpayable",
          "type": "function"
        }
      ],
      "evm": {
        "bytecode": {
          "linkReferences": {},
          "object": "6080604052670de0b6b3a764000060065534801561001c57600080fd5b50604051610ab8380380610ab88339818101604052608081101561003f57600080fd5b508051602082015160408301516060909301519192909160006100696001600160e01b036100d116565b600080546001600160a01b0319166001600160a01b0383169081178255604051929350917f8be0079c531659141344cd1fd0a4f28419497f9722a3daafe3b4186f6b6457e0908290a3506100c8848484846001600160e01b036100d516565b5050505061020e565b3390565b836001819055506101066001546100f461011860201b61067c1760201c565b61012860201b61052e1790919060201c565b60025560039290925560045560055550565b6b033b2e3c9fd0803ce800000090565b600061017083836040518060400160405280601e81526020017f536166654d6174683a207375627472616374696f6e206f766572666c6f77000081525061017760201b60201c565b9392505050565b600081848411156102065760405162461bcd60e51b81526004018080602001828103825283818151815260200191508051906020019080838360005b838110156101cb5781810151838201526020016101b3565b50505050905090810190601f1680156101f85780820380516001836020036101000a031916815260200191505b509250505060405180910390fd5b505050900390565b61089b8061021d6000396000f3fe608060405234801561001057600080fd5b50600436106100cf5760003560e01c8063951e76831161008c578063da9b105811610066578063da9b10581461019d578063f1b17287146101a5578063f2fde38b146101d4578063f621c30e146101fa576100cf565b8063951e76831461016a578063a42886291461018d578063a7adcc9b14610195576100cf565b80630dbe671f146100d45780635bc68f6d146100ee5780635daf0d46146101115780636290cd1c14610134578063715018a61461013c5780638da5cb5b14610146575b600080fd5b6100dc610202565b60408051918252519081900360200190f35b6100dc6004803603604081101561010457600080fd5b5080359060200135610208565b6100dc6004803603604081101561012757600080fd5b508035906020013561022f565b6100dc61025a565b610144610260565b005b61014e610314565b604080516001600160a01b039092168252519081900360200190f35b6100dc6004803603604081101561018057600080fd5b5080359060200135610323565b6100dc6103e9565b6100dc6103ef565b6100dc6103f5565b610144600480360360808110156101bb57600080fd5b50803590602081013590604081013590606001356103fb565b610144600480360360208110156101ea57600080fd5b50356001600160a01b031661041e565b6100dc610528565b60065481565b60006102266102178484610323565b6006549063ffffffff61052e16565b90505b92915050565b600061022661025561024084610570565b61024986610570565b9063ffffffff61058616565b6105ca565b60015481565b6102686105ea565b6000546001600160a01b039081169116146102ca576040805162461bcd60e51b815260206004820181905260248201527f4f776e61626c653a2063616c6c6572206973206e6f7420746865206f776e6572604482015290519081900360640190fd5b600080546040516001600160a01b03909116907f8be0079c531659141344cd1fd0a4f28419497f9722a3daafe3b4186f6b6457e0908390a3600080546001600160a01b0319169055565b6000546001600160a01b031690565b600060015461034161033484610570565b859063ffffffff61058616565b10156103825761037b61036c61035d600154610249878761022f565b6004549063ffffffff6105ee16565b6003549063ffffffff61062216565b9050610229565b60006103a660025461024960015461039a888861022f565b9063ffffffff61052e16565b90506103e16103c0600554836105ee90919063ffffffff16565b6004546003546103d59163ffffffff61062216565b9063ffffffff61062216565b915050610229565b60025481565b60055481565b60045481565b600184905561040c8461039a61067c565b60025560039290925560045560055550565b6104266105ea565b6000546001600160a01b03908116911614610488576040805162461bcd60e51b815260206004820181905260248201527f4f776e61626c653a2063616c6c6572206973206e6f7420746865206f776e6572604482015290519081900360640190fd5b6001600160a01b0381166104cd5760405162461bcd60e51b815260040180806020018281038252602681526020018061081f6026913960400191505060405180910390fd5b600080546040516001600160a01b03808516939216917f8be0079c531659141344cd1fd0a4f28419497f9722a3daafe3b4186f6b6457e091a3600080546001600160a01b0319166001600160a01b0392909216919091179055565b60035481565b600061022683836040518060400160405280601e81526020017f536166654d6174683a207375627472616374696f6e206f766572666c6f77000081525061068c565b600061022982633b9aca0063ffffffff61072316565b6000600282046105c2836105b66105a9876b033b2e3c9fd0803ce8000000610723565b849063ffffffff61062216565b9063ffffffff61077c16565b949350505050565b6000631dcd65006105e3633b9aca006105b68386610622565b9392505050565b3390565b60006102266b033b2e3c9fd0803ce80000006105b6610613868663ffffffff61072316565b6b019d971e4fe8401e74000000905b600082820183811015610226576040805162461bcd60e51b815260206004820152601b60248201527f536166654d6174683a206164646974696f6e206f766572666c6f770000000000604482015290519081900360640190fd5b6b033b2e3c9fd0803ce800000090565b6000818484111561071b5760405162461bcd60e51b81526004018080602001828103825283818151815260200191508051906020019080838360005b838110156106e05781810151838201526020016106c8565b50505050905090810190601f16801561070d5780820380516001836020036101000a031916815260200191505b509250505060405180910390fd5b505050900390565b60008261073257506000610229565b8282028284828161073f57fe5b04146102265760405162461bcd60e51b81526004018080602001828103825260218152602001806108456021913960400191505060405180910390fd5b600061022683836040518060400160405280601a81526020017f536166654d6174683a206469766973696f6e206279207a65726f000000000000815250600081836108085760405162461bcd60e51b81526020600482018181528351602484015283519092839260449091019190850190808383600083156106e05781810151838201526020016106c8565b50600083858161081457fe5b049594505050505056fe4f776e61626c653a206e6577206f776e657220697320746865207a65726f2061646472657373536166654d6174683a206d756c7469706c69636174696f6e206f766572666c6f77a2646970667358221220ed8649db2e378d21d5c3abd07be96b6e7ff64e0a938ec92c6fb3aa3e687e420764736f6c63430006070033",
          "opcodes": "PUSH1 0x80 PUSH1 0x40 MSTORE PUSH8 0xDE0B6B3A7640000 PUSH1 0x6 SSTORE CALLVALUE DUP1 ISZERO PUSH2 0x1C JUMPI PUSH1 0x0 DUP1 REVERT JUMPDEST POP PUSH1 0x40 MLOAD PUSH2 0xAB8 CODESIZE SUB DUP1 PUSH2 0xAB8 DUP4 CODECOPY DUP2 DUP2 ADD PUSH1 0x40 MSTORE PUSH1 0x80 DUP2 LT ISZERO PUSH2 0x3F JUMPI PUSH1 0x0 DUP1 REVERT JUMPDEST POP DUP1 MLOAD PUSH1 0x20 DUP3 ADD MLOAD PUSH1 0x40 DUP4 ADD MLOAD PUSH1 0x60 SWAP1 SWAP4 ADD MLOAD SWAP2 SWAP3 SWAP1 SWAP2 PUSH1 0x0 PUSH2 0x69 PUSH1 0x1 PUSH1 0x1 PUSH1 0xE0 SHL SUB PUSH2 0xD1 AND JUMP JUMPDEST PUSH1 0x0 DUP1 SLOAD PUSH1 0x1 PUSH1 0x1 PUSH1 0xA0 SHL SUB NOT AND PUSH1 0x1 PUSH1 0x1 PUSH1 0xA0 SHL SUB DUP4 AND SWAP1 DUP2 OR DUP3 SSTORE PUSH1 0x40 MLOAD SWAP3 SWAP4 POP SWAP2 PUSH32 0x8BE0079C531659141344CD1FD0A4F28419497F9722A3DAAFE3B4186F6B6457E0 SWAP1 DUP3 SWAP1 LOG3 POP PUSH2 0xC8 DUP5 DUP5 DUP5 DUP5 PUSH1 0x1 PUSH1 0x1 PUSH1 0xE0 SHL SUB PUSH2 0xD5 AND JUMP JUMPDEST POP POP POP POP PUSH2 0x20E JUMP JUMPDEST CALLER SWAP1 JUMP JUMPDEST DUP4 PUSH1 0x1 DUP2 SWAP1 SSTORE POP PUSH2 0x106 PUSH1 0x1 SLOAD PUSH2 0xF4 PUSH2 0x118 PUSH1 0x20 SHL PUSH2 0x67C OR PUSH1 0x20 SHR JUMP JUMPDEST PUSH2 0x128 PUSH1 0x20 SHL PUSH2 0x52E OR SWAP1 SWAP2 SWAP1 PUSH1 0x20 SHR JUMP JUMPDEST PUSH1 0x2 SSTORE PUSH1 0x3 SWAP3 SWAP1 SWAP3 SSTORE PUSH1 0x4 SSTORE PUSH1 0x5 SSTORE POP JUMP JUMPDEST PUSH12 0x33B2E3C9FD0803CE8000000 SWAP1 JUMP JUMPDEST PUSH1 0x0 PUSH2 0x170 DUP4 DUP4 PUSH1 0x40 MLOAD DUP1 PUSH1 0x40 ADD PUSH1 0x40 MSTORE DUP1 PUSH1 0x1E DUP2 MSTORE PUSH1 0x20 ADD PUSH32 0x536166654D6174683A207375627472616374696F6E206F766572666C6F770000 DUP2 MSTORE POP PUSH2 0x177 PUSH1 0x20 SHL PUSH1 0x20 SHR JUMP JUMPDEST SWAP4 SWAP3 POP POP POP JUMP JUMPDEST PUSH1 0x0 DUP2 DUP5 DUP5 GT ISZERO PUSH2 0x206 JUMPI PUSH1 0x40 MLOAD PUSH3 0x461BCD PUSH1 0xE5 SHL DUP2 MSTORE PUSH1 0x4 ADD DUP1 DUP1 PUSH1 0x20 ADD DUP3 DUP2 SUB DUP3 MSTORE DUP4 DUP2 DUP2 MLOAD DUP2 MSTORE PUSH1 0x20 ADD SWAP2 POP DUP1 MLOAD SWAP1 PUSH1 0x20 ADD SWAP1 DUP1 DUP4 DUP4 PUSH1 0x0 JUMPDEST DUP4 DUP2 LT ISZERO PUSH2 0x1CB JUMPI DUP2 DUP2 ADD MLOAD DUP4 DUP3 ADD MSTORE PUSH1 0x20 ADD PUSH2 0x1B3 JUMP JUMPDEST POP POP POP POP SWAP1 POP SWAP1 DUP2 ADD SWAP1 PUSH1 0x1F AND DUP1 ISZERO PUSH2 0x1F8 JUMPI DUP1 DUP3 SUB DUP1 MLOAD PUSH1 0x1 DUP4 PUSH1 0x20 SUB PUSH2 0x100 EXP SUB NOT AND DUP2 MSTORE PUSH1 0x20 ADD SWAP2 POP JUMPDEST POP SWAP3 POP POP POP PUSH1 0x40 MLOAD DUP1 SWAP2 SUB SWAP1 REVERT JUMPDEST POP POP POP SWAP1 SUB SWAP1 JUMP JUMPDEST PUSH2 0x89B DUP1 PUSH2 0x21D PUSH1 0x0 CODECOPY PUSH1 0x0 RETURN INVALID PUSH1 0x80 PUSH1 0x40 MSTORE CALLVALUE DUP1 ISZERO PUSH2 0x10 JUMPI PUSH1 0x0 DUP1 REVERT JUMPDEST POP PUSH1 0x4 CALLDATASIZE LT PUSH2 0xCF JUMPI PUSH1 0x0 CALLDATALOAD PUSH1 0xE0 SHR DUP1 PUSH4 0x951E7683 GT PUSH2 0x8C JUMPI DUP1 PUSH4 0xDA9B1058 GT PUSH2 0x66 JUMPI DUP1 PUSH4 0xDA9B1058 EQ PUSH2 0x19D JUMPI DUP1 PUSH4 0xF1B17287 EQ PUSH2 0x1A5 JUMPI DUP1 PUSH4 0xF2FDE38B EQ PUSH2 0x1D4 JUMPI DUP1 PUSH4 0xF621C30E EQ PUSH2 0x1FA JUMPI PUSH2 0xCF JUMP JUMPDEST DUP1 PUSH4 0x951E7683 EQ PUSH2 0x16A JUMPI DUP1 PUSH4 0xA4288629 EQ PUSH2 0x18D JUMPI DUP1 PUSH4 0xA7ADCC9B EQ PUSH2 0x195 JUMPI PUSH2 0xCF JUMP JUMPDEST DUP1 PUSH4 0xDBE671F EQ PUSH2 0xD4 JUMPI DUP1 PUSH4 0x5BC68F6D EQ PUSH2 0xEE JUMPI DUP1 PUSH4 0x5DAF0D46 EQ PUSH2 0x111 JUMPI DUP1 PUSH4 0x6290CD1C EQ PUSH2 0x134 JUMPI DUP1 PUSH4 0x715018A6 EQ PUSH2 0x13C JUMPI DUP1 PUSH4 0x8DA5CB5B EQ PUSH2 0x146 JUMPI JUMPDEST PUSH1 0x0 DUP1 REVERT JUMPDEST PUSH2 0xDC PUSH2 0x202 JUMP JUMPDEST PUSH1 0x40 DUP1 MLOAD SWAP2 DUP3 MSTORE MLOAD SWAP1 DUP2 SWAP1 SUB PUSH1 0x20 ADD SWAP1 RETURN JUMPDEST PUSH2 0xDC PUSH1 0x4 DUP1 CALLDATASIZE SUB PUSH1 0x40 DUP2 LT ISZERO PUSH2 0x104 JUMPI PUSH1 0x0 DUP1 REVERT JUMPDEST POP DUP1 CALLDATALOAD SWAP1 PUSH1 0x20 ADD CALLDATALOAD PUSH2 0x208 JUMP JUMPDEST PUSH2 0xDC PUSH1 0x4 DUP1 CALLDATASIZE SUB PUSH1 0x40 DUP2 LT ISZERO PUSH2 0x127 JUMPI PUSH1 0x0 DUP1 REVERT JUMPDEST POP DUP1 CALLDATALOAD SWAP1 PUSH1 0x20 ADD CALLDATALOAD PUSH2 0x22F JUMP JUMPDEST PUSH2 0xDC PUSH2 0x25A JUMP JUMPDEST PUSH2 0x144 PUSH2 0x260 JUMP JUMPDEST STOP JUMPDEST PUSH2 0x14E PUSH2 0x314 JUMP JUMPDEST PUSH1 0x40 DUP1 MLOAD PUSH1 0x1 PUSH1 0x1 PUSH1 0xA0 SHL SUB SWAP1 SWAP3 AND DUP3 MSTORE MLOAD SWAP1 DUP2 SWAP1 SUB PUSH1 0x20 ADD SWAP1 RETURN JUMPDEST PUSH2 0xDC PUSH1 0x4 DUP1 CALLDATASIZE SUB PUSH1 0x40 DUP2 LT ISZERO PUSH2 0x180 JUMPI PUSH1 0x0 DUP1 REVERT JUMPDEST POP DUP1 CALLDATALOAD SWAP1 PUSH1 0x20 ADD CALLDATALOAD PUSH2 0x323 JUMP JUMPDEST PUSH2 0xDC PUSH2 0x3E9 JUMP JUMPDEST PUSH2 0xDC PUSH2 0x3EF JUMP JUMPDEST PUSH2 0xDC PUSH2 0x3F5 JUMP JUMPDEST PUSH2 0x144 PUSH1 0x4 DUP1 CALLDATASIZE SUB PUSH1 0x80 DUP2 LT ISZERO PUSH2 0x1BB JUMPI PUSH1 0x0 DUP1 REVERT JUMPDEST POP DUP1 CALLDATALOAD SWAP1 PUSH1 0x20 DUP2 ADD CALLDATALOAD SWAP1 PUSH1 0x40 DUP2 ADD CALLDATALOAD SWAP1 PUSH1 0x60 ADD CALLDATALOAD PUSH2 0x3FB JUMP JUMPDEST PUSH2 0x144 PUSH1 0x4 DUP1 CALLDATASIZE SUB PUSH1 0x20 DUP2 LT ISZERO PUSH2 0x1EA JUMPI PUSH1 0x0 DUP1 REVERT JUMPDEST POP CALLDATALOAD PUSH1 0x1 PUSH1 0x1 PUSH1 0xA0 SHL SUB AND PUSH2 0x41E JUMP JUMPDEST PUSH2 0xDC PUSH2 0x528 JUMP JUMPDEST PUSH1 0x6 SLOAD DUP2 JUMP JUMPDEST PUSH1 0x0 PUSH2 0x226 PUSH2 0x217 DUP5 DUP5 PUSH2 0x323 JUMP JUMPDEST PUSH1 0x6 SLOAD SWAP1 PUSH4 0xFFFFFFFF PUSH2 0x52E AND JUMP JUMPDEST SWAP1 POP JUMPDEST SWAP3 SWAP2 POP POP JUMP JUMPDEST PUSH1 0x0 PUSH2 0x226 PUSH2 0x255 PUSH2 0x240 DUP5 PUSH2 0x570 JUMP JUMPDEST PUSH2 0x249 DUP7 PUSH2 0x570 JUMP JUMPDEST SWAP1 PUSH4 0xFFFFFFFF PUSH2 0x586 AND JUMP JUMPDEST PUSH2 0x5CA JUMP JUMPDEST PUSH1 0x1 SLOAD DUP2 JUMP JUMPDEST PUSH2 0x268 PUSH2 0x5EA JUMP JUMPDEST PUSH1 0x0 SLOAD PUSH1 0x1 PUSH1 0x1 PUSH1 0xA0 SHL SUB SWAP1 DUP2 AND SWAP2 AND EQ PUSH2 0x2CA JUMPI PUSH1 0x40 DUP1 MLOAD PUSH3 0x461BCD PUSH1 0xE5 SHL DUP2 MSTORE PUSH1 0x20 PUSH1 0x4 DUP3 ADD DUP2 SWAP1 MSTORE PUSH1 0x24 DUP3 ADD MSTORE PUSH32 0x4F776E61626C653A2063616C6C6572206973206E6F7420746865206F776E6572 PUSH1 0x44 DUP3 ADD MSTORE SWAP1 MLOAD SWAP1 DUP2 SWAP1 SUB PUSH1 0x64 ADD SWAP1 REVERT JUMPDEST PUSH1 0x0 DUP1 SLOAD PUSH1 0x40 MLOAD PUSH1 0x1 PUSH1 0x1 PUSH1 0xA0 SHL SUB SWAP1 SWAP2 AND SWAP1 PUSH32 0x8BE0079C531659141344CD1FD0A4F28419497F9722A3DAAFE3B4186F6B6457E0 SWAP1 DUP4 SWAP1 LOG3 PUSH1 0x0 DUP1 SLOAD PUSH1 0x1 PUSH1 0x1 PUSH1 0xA0 SHL SUB NOT AND SWAP1 SSTORE JUMP JUMPDEST PUSH1 0x0 SLOAD PUSH1 0x1 PUSH1 0x1 PUSH1 0xA0 SHL SUB AND SWAP1 JUMP JUMPDEST PUSH1 0x0 PUSH1 0x1 SLOAD PUSH2 0x341 PUSH2 0x334 DUP5 PUSH2 0x570 JUMP JUMPDEST DUP6 SWAP1 PUSH4 0xFFFFFFFF PUSH2 0x586 AND JUMP JUMPDEST LT ISZERO PUSH2 0x382 JUMPI PUSH2 0x37B PUSH2 0x36C PUSH2 0x35D PUSH1 0x1 SLOAD PUSH2 0x249 DUP8 DUP8 PUSH2 0x22F JUMP JUMPDEST PUSH1 0x4 SLOAD SWAP1 PUSH4 0xFFFFFFFF PUSH2 0x5EE AND JUMP JUMPDEST PUSH1 0x3 SLOAD SWAP1 PUSH4 0xFFFFFFFF PUSH2 0x622 AND JUMP JUMPDEST SWAP1 POP PUSH2 0x229 JUMP JUMPDEST PUSH1 0x0 PUSH2 0x3A6 PUSH1 0x2 SLOAD PUSH2 0x249 PUSH1 0x1 SLOAD PUSH2 0x39A DUP9 DUP9 PUSH2 0x22F JUMP JUMPDEST SWAP1 PUSH4 0xFFFFFFFF PUSH2 0x52E AND JUMP JUMPDEST SWAP1 POP PUSH2 0x3E1 PUSH2 0x3C0 PUSH1 0x5 SLOAD DUP4 PUSH2 0x5EE SWAP1 SWAP2 SWAP1 PUSH4 0xFFFFFFFF AND JUMP JUMPDEST PUSH1 0x4 SLOAD PUSH1 0x3 SLOAD PUSH2 0x3D5 SWAP2 PUSH4 0xFFFFFFFF PUSH2 0x622 AND JUMP JUMPDEST SWAP1 PUSH4 0xFFFFFFFF PUSH2 0x622 AND JUMP JUMPDEST SWAP2 POP POP PUSH2 0x229 JUMP JUMPDEST PUSH1 0x2 SLOAD DUP2 JUMP JUMPDEST PUSH1 0x5 SLOAD DUP2 JUMP JUMPDEST PUSH1 0x4 SLOAD DUP2 JUMP JUMPDEST PUSH1 0x1 DUP5 SWAP1 SSTORE PUSH2 0x40C DUP5 PUSH2 0x39A PUSH2 0x67C JUMP JUMPDEST PUSH1 0x2 SSTORE PUSH1 0x3 SWAP3 SWAP1 SWAP3 SSTORE PUSH1 0x4 SSTORE PUSH1 0x5 SSTORE POP JUMP JUMPDEST PUSH2 0x426 PUSH2 0x5EA JUMP JUMPDEST PUSH1 0x0 SLOAD PUSH1 0x1 PUSH1 0x1 PUSH1 0xA0 SHL SUB SWAP1 DUP2 AND SWAP2 AND EQ PUSH2 0x488 JUMPI PUSH1 0x40 DUP1 MLOAD PUSH3 0x461BCD PUSH1 0xE5 SHL DUP2 MSTORE PUSH1 0x20 PUSH1 0x4 DUP3 ADD DUP2 SWAP1 MSTORE PUSH1 0x24 DUP3 ADD MSTORE PUSH32 0x4F776E61626C653A2063616C6C6572206973206E6F7420746865206F776E6572 PUSH1 0x44 DUP3 ADD MSTORE SWAP1 MLOAD SWAP1 DUP2 SWAP1 SUB PUSH1 0x64 ADD SWAP1 REVERT JUMPDEST PUSH1 0x1 PUSH1 0x1 PUSH1 0xA0 SHL SUB DUP2 AND PUSH2 0x4CD JUMPI PUSH1 0x40 MLOAD PUSH3 0x461BCD PUSH1 0xE5 SHL DUP2 MSTORE PUSH1 0x4 ADD DUP1 DUP1 PUSH1 0x20 ADD DUP3 DUP2 SUB DUP3 MSTORE PUSH1 0x26 DUP2 MSTORE PUSH1 0x20 ADD DUP1 PUSH2 0x81F PUSH1 0x26 SWAP2 CODECOPY PUSH1 0x40 ADD SWAP2 POP POP PUSH1 0x40 MLOAD DUP1 SWAP2 SUB SWAP1 REVERT JUMPDEST PUSH1 0x0 DUP1 SLOAD PUSH1 0x40 MLOAD PUSH1 0x1 PUSH1 0x1 PUSH1 0xA0 SHL SUB DUP1 DUP6 AND SWAP4 SWAP3 AND SWAP2 PUSH32 0x8BE0079C531659141344CD1FD0A4F28419497F9722A3DAAFE3B4186F6B6457E0 SWAP2 LOG3 PUSH1 0x0 DUP1 SLOAD PUSH1 0x1 PUSH1 0x1 PUSH1 0xA0 SHL SUB NOT AND PUSH1 0x1 PUSH1 0x1 PUSH1 0xA0 SHL SUB SWAP3 SWAP1 SWAP3 AND SWAP2 SWAP1 SWAP2 OR SWAP1 SSTORE JUMP JUMPDEST PUSH1 0x3 SLOAD DUP2 JUMP JUMPDEST PUSH1 0x0 PUSH2 0x226 DUP4 DUP4 PUSH1 0x40 MLOAD DUP1 PUSH1 0x40 ADD PUSH1 0x40 MSTORE DUP1 PUSH1 0x1E DUP2 MSTORE PUSH1 0x20 ADD PUSH32 0x536166654D6174683A207375627472616374696F6E206F766572666C6F770000 DUP2 MSTORE POP PUSH2 0x68C JUMP JUMPDEST PUSH1 0x0 PUSH2 0x229 DUP3 PUSH4 0x3B9ACA00 PUSH4 0xFFFFFFFF PUSH2 0x723 AND JUMP JUMPDEST PUSH1 0x0 PUSH1 0x2 DUP3 DIV PUSH2 0x5C2 DUP4 PUSH2 0x5B6 PUSH2 0x5A9 DUP8 PUSH12 0x33B2E3C9FD0803CE8000000 PUSH2 0x723 JUMP JUMPDEST DUP5 SWAP1 PUSH4 0xFFFFFFFF PUSH2 0x622 AND JUMP JUMPDEST SWAP1 PUSH4 0xFFFFFFFF PUSH2 0x77C AND JUMP JUMPDEST SWAP5 SWAP4 POP POP POP POP JUMP JUMPDEST PUSH1 0x0 PUSH4 0x1DCD6500 PUSH2 0x5E3 PUSH4 0x3B9ACA00 PUSH2 0x5B6 DUP4 DUP7 PUSH2 0x622 JUMP JUMPDEST SWAP4 SWAP3 POP POP POP JUMP JUMPDEST CALLER SWAP1 JUMP JUMPDEST PUSH1 0x0 PUSH2 0x226 PUSH12 0x33B2E3C9FD0803CE8000000 PUSH2 0x5B6 PUSH2 0x613 DUP7 DUP7 PUSH4 0xFFFFFFFF PUSH2 0x723 AND JUMP JUMPDEST PUSH12 0x19D971E4FE8401E74000000 SWAP1 JUMPDEST PUSH1 0x0 DUP3 DUP3 ADD DUP4 DUP2 LT ISZERO PUSH2 0x226 JUMPI PUSH1 0x40 DUP1 MLOAD PUSH3 0x461BCD PUSH1 0xE5 SHL DUP2 MSTORE PUSH1 0x20 PUSH1 0x4 DUP3 ADD MSTORE PUSH1 0x1B PUSH1 0x24 DUP3 ADD MSTORE PUSH32 0x536166654D6174683A206164646974696F6E206F766572666C6F770000000000 PUSH1 0x44 DUP3 ADD MSTORE SWAP1 MLOAD SWAP1 DUP2 SWAP1 SUB PUSH1 0x64 ADD SWAP1 REVERT JUMPDEST PUSH12 0x33B2E3C9FD0803CE8000000 SWAP1 JUMP JUMPDEST PUSH1 0x0 DUP2 DUP5 DUP5 GT ISZERO PUSH2 0x71B JUMPI PUSH1 0x40 MLOAD PUSH3 0x461BCD PUSH1 0xE5 SHL DUP2 MSTORE PUSH1 0x4 ADD DUP1 DUP1 PUSH1 0x20 ADD DUP3 DUP2 SUB DUP3 MSTORE DUP4 DUP2 DUP2 MLOAD DUP2 MSTORE PUSH1 0x20 ADD SWAP2 POP DUP1 MLOAD SWAP1 PUSH1 0x20 ADD SWAP1 DUP1 DUP4 DUP4 PUSH1 0x0 JUMPDEST DUP4 DUP2 LT ISZERO PUSH2 0x6E0 JUMPI DUP2 DUP2 ADD MLOAD DUP4 DUP3 ADD MSTORE PUSH1 0x20 ADD PUSH2 0x6C8 JUMP JUMPDEST POP POP POP POP SWAP1 POP SWAP1 DUP2 ADD SWAP1 PUSH1 0x1F AND DUP1 ISZERO PUSH2 0x70D JUMPI DUP1 DUP3 SUB DUP1 MLOAD PUSH1 0x1 DUP4 PUSH1 0x20 SUB PUSH2 0x100 EXP SUB NOT AND DUP2 MSTORE PUSH1 0x20 ADD SWAP2 POP JUMPDEST POP SWAP3 POP POP POP PUSH1 0x40 MLOAD DUP1 SWAP2 SUB SWAP1 REVERT JUMPDEST POP POP POP SWAP1 SUB SWAP1 JUMP JUMPDEST PUSH1 0x0 DUP3 PUSH2 0x732 JUMPI POP PUSH1 0x0 PUSH2 0x229 JUMP JUMPDEST DUP3 DUP3 MUL DUP3 DUP5 DUP3 DUP2 PUSH2 0x73F JUMPI INVALID JUMPDEST DIV EQ PUSH2 0x226 JUMPI PUSH1 0x40 MLOAD PUSH3 0x461BCD PUSH1 0xE5 SHL DUP2 MSTORE PUSH1 0x4 ADD DUP1 DUP1 PUSH1 0x20 ADD DUP3 DUP2 SUB DUP3 MSTORE PUSH1 0x21 DUP2 MSTORE PUSH1 0x20 ADD DUP1 PUSH2 0x845 PUSH1 0x21 SWAP2 CODECOPY PUSH1 0x40 ADD SWAP2 POP POP PUSH1 0x40 MLOAD DUP1 SWAP2 SUB SWAP1 REVERT JUMPDEST PUSH1 0x0 PUSH2 0x226 DUP4 DUP4 PUSH1 0x40 MLOAD DUP1 PUSH1 0x40 ADD PUSH1 0x40 MSTORE DUP1 PUSH1 0x1A DUP2 MSTORE PUSH1 0x20 ADD PUSH32 0x536166654D6174683A206469766973696F6E206279207A65726F000000000000 DUP2 MSTORE POP PUSH1 0x0 DUP2 DUP4 PUSH2 0x808 JUMPI PUSH1 0x40 MLOAD PUSH3 0x461BCD PUSH1 0xE5 SHL DUP2 MSTORE PUSH1 0x20 PUSH1 0x4 DUP3 ADD DUP2 DUP2 MSTORE DUP4 MLOAD PUSH1 0x24 DUP5 ADD MSTORE DUP4 MLOAD SWAP1 SWAP3 DUP4 SWAP3 PUSH1 0x44 SWAP1 SWAP2 ADD SWAP2 SWAP1 DUP6 ADD SWAP1 DUP1 DUP4 DUP4 PUSH1 0x0 DUP4 ISZERO PUSH2 0x6E0 JUMPI DUP2 DUP2 ADD MLOAD DUP4 DUP3 ADD MSTORE PUSH1 0x20 ADD PUSH2 0x6C8 JUMP JUMPDEST POP PUSH1 0x0 DUP4 DUP6 DUP2 PUSH2 0x814 JUMPI INVALID JUMPDEST DIV SWAP6 SWAP5 POP POP POP POP POP JUMP INVALID 0x4F PUSH24 0x6E61626C653A206E6577206F776E65722069732074686520 PUSH27 0x65726F2061646472657373536166654D6174683A206D756C746970 PUSH13 0x69636174696F6E206F76657266 PUSH13 0x6F77A2646970667358221220ED DUP7 0x49 0xDB 0x2E CALLDATACOPY DUP14 0x21 0xD5 0xC3 0xAB 0xD0 PUSH28 0xE96B6E7FF64E0A938EC92C6FB3AA3E687E420764736F6C6343000607 STOP CALLER "
        },
        "methodIdentifiers": {
          "a()": "0dbe671f",
          "baseStableRate()": "f621c30e",
          "computeBorrowingRewardRate(uint256,uint256)": "5bc68f6d",
          "computeDepositRewardRate(uint256,uint256)": "951e7683",
          "excessRate()": "a4288629",
          "getUtilisation(uint256,uint256)": "5daf0d46",
          "optimalUtilization()": "6290cd1c",
          "owner()": "8da5cb5b",
          "renounceOwnership()": "715018a6",
          "setPoolVariables(uint256,uint256,uint256,uint256)": "f1b17287",
          "slope1StableRate()": "da9b1058",
          "slope2StableRate()": "a7adcc9b",
          "transferOwnership(address)": "f2fde38b"
        }
      }
    }
  }
}